:1000000000800020BD0100004548000011480000AC
:10001000114800001148000011480000114800007C
:100020001148000011480000114800004548000038
:100030004548000011480000454800000148000004
:10004000454800004548000045480000454800007C
:10005000454800004548000045480000454800006C
:10006000454800004548000045480000454800005C
:10007000454800004548000045480000454800004C
:10008000454800004548000045480000454800003C
:10009000454800004548000045480000454800002C
:1000A0006D440000794400004548000045480000C8
:1000B000454800004548000045480000454800000C
:1000C00045480000454800004548000045480000FC
:1000D00045480000454800004548000045480000EC
:1000E00045480000454800004548000045480000DC
:1000F00045480000CD62000045480000416900000D
:1001000045480000416E0000454800004548000099
:1001100045480000454800004548000045480000AB
:10012000454800004548000045480000454800009B
:10013000454800004548000045480000454800008B
:10014000454800004548000045480000454800007B
:10015000454800004548000045480000454800006B
:1001600045480000894F0000454800004548000010
:10017000454800004548000045480000454800004B
:10018000454800004548000045480000454800003B
:10019000454800004548000045480000454800002B
:1001A000454800004548000045480000454800001B
:1001B000454800004548000045480000564B4CF2B9
:1001C000205210B51A804DF628121A8000BF00BFC9
:1001D00004F03CFB514B4FF010621A60504A9A6099
:1001E000504ADA60A3F53043203B1A6812F480725B
:1001F00004D14D490A604FF4A8521A604B4B1A784B
:10020000110703D51A7842F008021A70484B2A22C7
:100210001A700023474A48499818884204D247492F
:10022000595899500433F5E7454A464B9A424FF0E6
:10023000000302D242F8043BF7E74349434A5958C6
:1002400099500433B3F5DE7FF7D1414B802103F899
:10025000011B40498B42F9D13F4B1A603F4B0A22A8
:100260001A70A3F5805324225A70A0221A709A792A
:100270009207FCD59A79D406FCD4394B9A7902F0CE
:100280000C02082AF9D105221A7143225A719A796F
:100290009006FCD5324B9A795106FBD5314A4FF086
:1002A000817111600521516020221A702C4B9B79BD
:1002B00003F00C030C2BF9D12B4B2C4A1A602C4B5E
:1002C0002C4A1A6000225A60072243F8042C2A4A5A
:1002D000C3F80C2D62B604F03DFD134B1B68DA0722
:1002E00005D5264804F084FC254B264A1A60264B87
:1002F0001B785B0609D5224C224A2368934204D11D
:100300001E4804F075FC0023236009F0F3FE04F09E
:10031000A3FA04F06DFAFEE70E2005403080044099
:10032000823F04000100002B14D0034002D007409C
:1003300000E007406087FF1F5C8DFF1F4CB300008B
:100340005C8DFF1F3C92FF1F000000000082FF1F1A
:1003500000E400E05FE400E008ED00E0005006404B
:10036000004006404480044004800440C010050062
:1003700014E000E03F1901000000202003D2E35701
:100380001CE00340A5C3945A00F00740FFFFFFFFA5
:10039000FFFFFFFFFFFFFFFFFFFFFFFFFFFFFFFF6D
:1003A000FFFFFFFFFFFFFFFFFFFFFFFFFFFFFFFF5D
:1003B000FFFFFFFFFFFFFFFFFFFFFFFFFFFFFFFF4D
:1003C000FFFFFFFFFFFFFFFFFFFFFFFFFFFFFFFF3D
:1003D000FFFFFFFFFFFFFFFFFFFFFFFFFFFFFFFF2D
:1003E000FFFFFFFFFFFFFFFFFFFFFFFFFFFFFFFF1D
:1003F000FFFFFFFFFFFFFFFFFFFFFFFFFFFFFFFF0D
:10040000FFFFFFFFFFFFFFFFFFFFFFFFDEF9FFFF23
:1004100010B5054C237833B9044B13B10448AFF33E
:1004200000800123237010BD5C8DFF1F00000000C1
:100430004CB3000008B5064B1BB106480649AFF3A4
:1004400000800648036813B1054B03B1984708BD07
:10045000000000004CB30000608DFF1F5C8DFF1F8B
:100460000000000038B5044608460D4609F020FF9C
:10047000236802465B6820462946984738BD08B580
:10048000FFF7F0FF08BD0A22002304F0F1B804F0E2
:1004900027B9D2B2002304F0EBB89DF80010009108
:1004A00004F026B938B50446FFF7DCFF05462046C0
:1004B00004F0CEF8284438BD38B50446FFF7E3FF12
:1004C0000546204604F0C4F8284438BD38B5044633
:1004D00004F006F90546204604F0BAF8284438BD71
:1004E0000A2A38B5054602D104F0FAF803E0D2B280
:1004F000002304F0BDF80446284604F0A9F820447F
:1005000038BD37B59DF818100091044604F0F0F896
:100510000546204604F09CF8284403B030BDFFFF98
:1005200073B525482549FFF7BDFF00250124244E5A
:100530002146304603F076FA00230093727B31693E
:100540003046012303F0D7FCA0B91B481D49FFF733
:1005500096FF0F2C03D818481B49FFF790FF214640
:1005600010221548FFF795FF13481849FFF79AFF27
:10057000013513E0042811D10F481549FFF77FFF1B
:100580000F2C03D80C481049FFF779FF0A48214681
:100590001022FFF77EFF084804F05AF80134E4B255
:1005A0007F2CC4D104480DB90A4900E00A49FFF77D
:1005B00079FF02B070BD00BF4090FF1FCCA20000C9
:1005C000B88EFF1FD8A2000044A40000F7A20000CC
:1005D000FBA2000016A300002CA3000008B55421C4
:1005E000282002F027FD40F00102D2B22820542139
:1005F00002F03CFD0A490B48FFF754FF0122282076
:10060000A02102F033FD9E21282002F013FD10F0FE
:10061000010F14BF044905490248FFF743FF08BD15
:1006200032A300004090FF1F4AA3000067A3000010
:100630002DE9F04F95B000221921804668200492E0
:10064000ADF8142002F012FD68201A21022202F0F7
:100650000DFD68201B21012202F008FD68201D21EC
:10066000022202F003FD68201C21012202F0FEFCA0
:10067000C82468203B21062204AB02F0B1FC9DF89F
:1006800010209DF8113043EA0223BDF820201344C6
:10069000ADF820309DF812209DF8133043EA022374
:1006A000BDF822201344ADF822309DF814209DF8A7
:1006B000153043EA0223BDF824201344ADF824305A
:1006C000062204AB6820432102F08AFC9DF810202A
:1006D0009DF8113043EA0223BDF818201344ADF809
:1006E00018309DF812209DF8133043EA0223BDF81C
:1006F0001A201344ADF81A309DF814209DF81530D7
:1007000043EA0223BDF81C20013C1344ADF81C3021
:10071000AFD1224608AEC825935F06AC93FBF5F334
:100720009353135F93FBF5F313530232062AF1D16F
:1007300068201C21E02202F099FC68201B21E022A5
:1007400002F094FC192004F0EFFA68203B21062205
:1007500004AB02F045FC9DF810209DF8113043EAEF
:100760000223BDF828201344ADF828309DF812204C
:100770009DF8133043EA0223BDF82A201344ADF854
:100780002A309DF814209DF8153043EA0223BDF865
:100790002C201344ADF82C30062204AB68204321F2
:1007A00002F01EFC9DF810209DF8113043EA022350
:1007B000BDF830201344ADF830309DF812209DF87C
:1007C000133043EA0223BDF832201344ADF832302F
:1007D0009DF814209DF8153043EA0223BDF834201B
:1007E000013D1344ADF83430AFD12B460AAFC822D7
:1007F000D95F0CAD91FBF2F1D953595F91FBF2F245
:100800005A530233062BF1D168201C21002202F03A
:100810002DFC00221B21682002F028FC192004F086
:1008200083FA0D21682002F005FC0E2103466820A2
:10083000029302F0FFFB0F2184466820CDF804C02C
:1008400002F0F8FB00218346682002F0F3FB01214F
:100850008246682002F0EEFB02218146682002F009
:10086000E9FB029B0390184608F008FF4FF07E5109
:1008700008F052FE08F0EEFA02460B465CA1D1E900
:10088000000106F0D3FB5CA3D3E9002308F036FB9C
:1008900008F0EEFDDDF804C00E90604608F0EEFEB4
:1008A0004FF07E5108F038FE08F0D4FA02460B46AD
:1008B0004FA1D1E9000106F0B9FB4FA3D3E9002312
:1008C00008F01CFB08F0D4FD0F90584608F0D6FE47
:1008D0004FF07E5108F020FE08F0BCFA02460B46AD
:1008E00043A1D1E9000106F0A1FB43A3D3E9002312
:1008F00008F004FB08F0BCFD1090504608F0BEFE66
:100900004FF07E5108F008FE08F0A4FA02460B46AC
:1009100037A1D1E9000106F089FB37A3D3E9002311
:1009200008F0ECFA08F0A4FD1190484608F0A6FE85
:100930004FF07E5108F0F0FD08F08CFA02460B46AD
:100940002BA1D1E9000106F071FB2BA3D3E9002311
:1009500008F0D4FA08F08CFD1290039808F08EFE8F
:100960004FF07E5108F0D8FD08F074FA02460B46AD
:100970001FA1D1E9000106F059FB1FA3D3E9002311
:1009800008F0BCFA08F074FD4FF0000A1390D1464D
:1009900036F9093037F909000DF1380BC01A08F0A3
:1009A00071FE174908F0C2FE5AF80B1008F072FFEA
:1009B00034F9092048F80A0035F9090008EB0A0360
:1009C000801A029308F05EFE0D4908F0AFFE0BEBB3
:1009D0000A0209F10209D16808F05CFF029BB9F133
:1009E000060FD8600AF1040AD2D115B0BDE8F08F25
:1009F000000000C0F528F03F000000000078A4408F
:100A00000000C842AFF30080054B1B7813B1012BE7
:100A100002D07047034A00E0034A044B1A60704753
:100A20007587FF1FFFEBBF40FFEBBF3F188EFF1F17
:100A3000084B1B78032B0CD8DFE803F002040608F0
:100A4000054A04E0054A02E0054A00E0054A064B73
:100A50001A607047C48DFF1F0000FA3B00007A3C0B
:100A60000000FA3C00007A3DEC8DFF1F0A4B1B781A
:100A7000032B10D8DFE803F00205080B4FF0625299
:100A800007E04FF0645204E04FF0665201E04FF08F
:100A90006852024B1A607047F48DFF1F908DFF1F44
:100AA0002DE9F04F802287B007460E4668206B2163
:100AB00002F0DCFA642004F037F968206B2101228F
:100AC00002F0D4FA6C210022682002F0CFFAC8208C
:100AD00004F02AF968203821002202F0C7FA6820C1
:100AE0002321002202F0C2FA68206B21002202F0CA
:100AF000BDFA68202421002202F0B8FA68206A2199
:100B0000002202F0B3FA6A210C22682002F0AEFA49
:100B10000F2004F009F968201A21012202F0A6FA38
:100B200068201921002202F0A1FA68201B2100226E
:100B300002F09CFA68201C21002202F097FA68203B
:100B40006A21402202F092FA23217822682002F0E2
:100B50008DFA282004F0E8F868202321002202F012
:100B600085FA03AB68207221022202F039FA9DF85F
:100B70000D309DF80C50002443EA05250C23B5FBED
:100B8000F3F5A246A346A4460194A046A146A3B20B
:100B9000AB423ED20C220DEB020368207421CDF84B
:100BA00000C002F01DFA9DF80C209DF80D30DDF814
:100BB00000C043EA02230CFA83FC9DF80E209DF846
:100BC0000F3043EA02230BFA83FB9DF810209DF8B7
:100BD000113043EA02230AFA83FA9DF812209DF8A5
:100BE000133043EA022309FA83F99DF814209DF893
:100BF000153043EA022308FA83F89DF816209DF881
:100C0000173043EA0223019A02FA83F20192013477
:100C1000BDE7019B9CFBF5F49AFBF5FA99FBF5F90E
:100C200098FBF5F89BFBF5FB93FBF5F5042399FB8B
:100C3000F3F14942C1F307228DF80D1098FBF3F14F
:100C400095FBF3F35B42494208128DF80F1019121D
:100C5000BAF1000F8DF80E008DF810104FF06800FB
:100C60004FF01301CCBFAAF5804A0AF5804A8DF8EF
:100C700011308DF80C2002F0F9F99DF80D20682054
:100C8000142102F0F3F99DF80E206820152102F0DE
:100C9000EDF99DF80F206820162102F0E7F99DF884
:100CA00010206820172102F0E1F99DF81120182189
:100CB000682002F0DBF9484608F0E4FC1F4908F020
:100CC000E9FD3860404608F0DDFC1C4908F0E2FD13
:100CD0007860284608F0D6FC184908F0DBFD03AB25
:100CE000B86077216820022202F07AF903AB68200D
:100CF0007A21022202F074F9022203AB7D216820DE
:100D000002F06EF9204608F0BDFC4FF0625108F089
:100D10000DFD3060584608F0B5FC4FF0625108F008
:100D200005FD7060504608F0ADFC4FF0625108F0D0
:100D3000FDFCB06007B0BDE8F08F00BF00000343CA
:100D400008B56B210022682002F090F9642003F0BE
:100D5000EBFF6B210122682002F088F9C82003F024
:100D6000E3FF68201A21032202F080F904226820A0
:100D7000192102F07BF91B21682002F05BF91B4B63
:100D80001A7820F01A0040EAC20202F0FD02682040
:100D90001B2102F06BF91C21682002F04BF9144B67
:100DA0001A7820F0180040EAC202D2B268201C2152
:100DB00002F05CF91D21682002F03CF900F0F0021D
:100DC0001D21682042F0030202F050F9682037210B
:100DD000222202F04BF968203821012202F046F964
:100DE0006420BDE8084003F09FBF00BFC48DFF1F13
:100DF000F48DFF1F13B5002204460A210C2002F0D7
:100E000035F9142003F090FF0A210F220C2002F084
:100E10002DF9142003F088FF01AB032210210C20D0
:100E200002F0DEF89DF80400803808F02BFC4FF04B
:100E30006E5108F07BFC4FF07E5108F06FFB206094
:100E40009DF80500803808F01DFC4FF06E5108F049
:100E50006DFC4FF07E5108F061FB60609DF806006C
:100E6000803808F00FFC4FF06E5108F05FFC4FF037
:100E70007E5108F053FB0A21A06000220C2002F0F2
:100E8000F5F8142003F050FF074B1A78074B1B7836
:100E900043EA02120A21D2B20C2002F0E7F8142031
:100EA00003F042FF02B010BD7587FF1F7487FF1F5C
:100EB00013B5044602210C2002F0BCF8C2071ED56F
:100EC0006B460C200321072202F08AF89DF80630B9
:100ED0001B0714D49DF801209DF8003043EA02233B
:100EE00023809DF803209DF8023043EA02236380AB
:100EF0009DF805209DF8043043EA0223A38002B048
:100F000010BDFFFF2DE9F04F654B8BB0064618680A
:100F10009A88049053F8060F069006AF9B88BB8012
:100F20000D4600235F496048ADF81420ADF820302D
:100F3000ADF82230ADF82430FFF7B4FA4FF47A6000
:100F400003F0F2FE594A1378022B914606D0062B85
:100F500040F2DC5818BF4FF0000801E04FF0800865
:100F60000024A3B2434525D20DF1200A5046FFF7D5
:100F70009FFF002304A93AF80320C85E11B28842FB
:100F8000BCBF04A8C252F85E8842C8BFFA520233FE
:100F9000062BEFD199F80030022B02D1872003F005
:100FA000C3FE99F80030062B02D10C2003F0BCFEE2
:100FB0000134D6E7BDF910C0BDF91820DFF8FCB048
:100FC000BDF91C303A4F03930CEB0200022490FB56
:100FD000F4F00192CDF808C008F054FBDBF80010E3
:100FE000BDF912A0BDF91A90BDF9148008F09EFB5E
:100FF000396808F09BFB3060DBF800B00AEB0900B1
:1010000090FBF4F008F03EFB594608F08FFB79683E
:1010100008F08CFB70600398404490FBF4F008F0FB
:1010200031FB594608F082FBB96808F07FFB019A52
:10103000DDF808C0039BB060C2EB0C0BC9EB0A09DA
:10104000C3EB08079BFBF4FB99FBF4F90BEB0900DE
:1010500097FBF4F4204408F015FB164908F01AFC3D
:101060000646584608F00EFB0146304608F012FCD2
:101070002860484608F006FB0146304608F00AFCA6
:101080006860204608F0FEFA0146304608F002FC8F
:101090000949A8600448FFF705FA0BB0BDE8F08FD6
:1010A000C0A2000090A300004090FF1F7487FF1FA4
:1010B000288EFF1F00004040CBA30000188EFF1FAA
:1010C0002DE9F041BE4BA6B000240125597B0294C6
:1010D0008DE83000032203920495224618692346C6
:1010E00002F080FB41F2883003F01EFE29460D20FD
:1010F00003F0BCFD21460D2003F08AFDFFF710FA36
:101100007021282001F096FF71210646282001F069
:1011100091FFAC490546AC48FFF7B1F9234631468B
:101120001022A94803F0A4FA10222946A648FFF786
:10113000D7F9A649A448FFF7B5F97221282001F094
:1011400079FF73210546282001F074FFA049044669
:101150009D48FFF794F929469B48FFF798F92146E7
:101160009948FFF7B3F99021282001F063FF9949CE
:1011700004469548FFF783F9102221469248FFF76D
:1011800088F995499048FFF78DF99121282001F0C1
:1011900051FF924904468C48FFF771F9102221460D
:1011A0008948FFF776F98E498748FFF77BF94FF4B6
:1011B0007A7003F0B9FD2820392101F03BFFC60702
:1011C000044603D580488749FFF76CF9A50703D586
:1011D0007D488549FFF766F9600703D57A4883495A
:1011E000FFF760F9210703D577488149FFF75AF9DE
:1011F000E20603D574487F49FFF754F9A30603D5E7
:1012000071487D49FFF74EF94FF47A7003F08CFD79
:101210003721282001F00EFF372100F0010528209A
:1012200001F008FFC70703D567487449FFF73AF98B
:101230002820372101F0FEFE860703D56248704959
:10124000FFF730F92820372101F0F4FE440703D5D9
:101250005D486C49FFF726F92820372101F0EAFEA6
:10126000000703D558486849FFF71CF937212820A3
:1012700001F0E0FEC10603D553486449FFF712F9B7
:101280000B24002D42D101229B21282001F0EEFEEB
:101290004FF4FA7003F048FD3721282001F0CAFE10
:1012A000372100F00105282001F0C4FEC20703D554
:1012B00045485249FFF7F6F82820372101F0BAFED9
:1012C000830703D540484E49FFF7ECF82820372123
:1012D00001F0B0FE470703D53B484A49FFF7E2F863
:1012E0002820372101F0A6FE060703D536484649D7
:1012F000FFF7D8F82820372101F09CFEC00603D55F
:1013000031484249FFF7CEF8013CBAD137212820B5
:1013100001F090FE410703D42B483D49FFF7C2F886
:101320003C4E4FF47A7003F0FFFC3478002C40F010
:10133000E08228203421224601F098FE2820A021B6
:10134000224601F093FE28203421012201F08EFE76
:1013500022462820342101F089FE2F491A48FFF740
:10136000A1F828205B21032201F080FE28205C21C7
:10137000032201F07BFE28203221022201F076FEBA
:1013800028205521642201F071FE282056211422C4
:1013900001F06CFE28205721142201F067FEB222D2
:1013A0002820582101F062FE1C490748FFF77AF80F
:1013B00028205421224601F059FE282033212FE015
:1013C000B88EFF1FE1A300004090FF1FF8A30000AC
:1013D00009A4000020A4000035A4000046A40000D9
:1013E0005CA400006DA4000086A40000A5A4000079
:1013F000C7A40000E4A4000008A500002BA500007D
:101400004EA500006BA5000081A500009EA5000070
:10141000B2A50000948DFF1FCCA50000E5A500003B
:10142000072201F023FE01223421282001F01EFEB4
:10143000642003F079FC31493148FFF733F8314932
:101440002F48FFF72FF8282064214A2201F00EFED2
:1014500028205421802201F009FE28203A2101F0A1
:10146000E9FD4A28F9D13B21282001F0E3FD264C73
:10147000264F20703C21282001F0DCFD3D216070CA
:10148000282001F0D7FD3E21A070282001F0D2FDD8
:10149000627823781E4DE07043EA02233B80A378F4
:1014A0001C4943EA002028801548FEF7E8FF3988E8
:1014B0001348FEF7ECFF18491148FEF7F3FF1749F0
:1014C0000F48FEF7DCFF29880D48FEF7E0FF1449BE
:1014D0000B48FEF7E7FF282064214B2201F0C6FDF0
:1014E00028203A2101F0A6FDB8462F464B284FF0A0
:1014F000280017D03A2101F09DFDF7E7F9A500007B
:101500004090FF1F12A60000F58DFF1F248EFF1FC5
:10151000068EFF1F32A600005DA6000060A6000038
:101520001AAE00003B2101F085FD3C2120702820EF
:1015300001F080FD3D216070282001F07BFD3E21FF
:10154000A070282001F076FD62782378B94DE07014
:1015500043EA0223B849B9482B80FEF790FF298857
:10156000B648FEF794FFB649B448FEF79BFF282023
:101570006421002201F07AFD00222820542101F08C
:1015800075FD4920002101F026FE08214FF47A70F4
:1015900001F0EEFD4FF4FA6001F0B8FD282064215F
:1015A0004A2201F063FD28205421802201F05EFDD3
:1015B00028203A2101F03EFD4A28F9D13B2128207C
:1015C00001F038FD3C212070282001F033FD3D2141
:1015D0006070282001F02EFD3E21A070282001F02F
:1015E00029FD62782378E07043EA0223A8F80030EE
:1015F000A378944943EA002038809048FEF73FFFE3
:10160000B8F800108D48FEF742FF8F498B48FEF76F
:1016100049FF8E498948FEF732FF39888748FEF72F
:1016200036FF8B498548FEF73DFF282064214B2279
:1016300001F01CFD28203A2101F0FCFC4B28F9D1D7
:101640003B21282001F0F6FC3C212070282001F0ED
:10165000F1FC3D216070282001F0ECFC3E21A070DF
:10166000282001F0E7FC62782378E07043EA022347
:10167000784972482B80FEF702FF29886F48FEF7F1
:1016800006FF6F496D48FEF70DFF282064210022F8
:1016900001F0ECFC00222820542101F0E7FC282076
:1016A000922101F0C7FCC20703D564486A49FEF7DE
:1016B000F9FE2820382101F0BDFCC307044603D5FC
:1016C0005E486649FEF7EEFEA70703D55B4864490E
:1016D000FEF7E8FE650703D558486249FEF7E2FECB
:1016E000200703D555486049FEF7DCFEE10603D527
:1016F00052485E49FEF7D6FEA20603D54F485C4924
:10170000FEF7D0FE28209E2101F094FCC30703D5EC
:101710004A485849FEF7B3FE2820352101F08AFCDB
:10172000C707044603D545485349FEF7BBFEA50746
:1017300003D542485149FEF7B5FE600703D53F483F
:101740004F49FEF7AFFE210703D53C484D49FEF750
:10175000A9FEE20603D539484B49FEF7A3FEA306CE
:1017600003D536484949FEF79DFE4FF47A7003F0E1
:10177000DBFA3621282001F05DFC454904462F485C
:10178000FEF77DFE2D482146FEF796FEE70703D5BE
:101790002A484049FEF773FEA50703D527483E496E
:1017A000FEF76DFE600703D524483C49FEF767FE4F
:1017B000E10603D521483A49FEF761FEA20603D5AA
:1017C0001E483849FEF75BFE630603D51B483649C1
:1017D000FEF755FE35491948FEF751FE45212820F0
:1017E00001F028FC01461548FEF74DFE304913482C
:1017F000FEF758FE2F491148FEF741FE46212820EA
:1018000001F018FC00B200EB800149000B48FEF724
:101810003EFE27490948FEF745FE27490748FEF7DF
:101820002EFE4721282001F005FC00B200EB8001CC
:10183000490043E06C8EFF1F8CA600004090FF1F04
:10184000B4A60000B8A600005DA60000DFA6000058
:101850001AAE000007A700002BA700004CA700004D
:1018600063A700007AA7000094A70000B6A70000B5
:10187000D8A70000F7A7000011A8000023A80000C7
:1018800031A800004FA8000066A800007FA8000053
:1018900097A80000B0A80000D0A80000F1A80000A0
:1018A00009A9000029A900004AA9000062A90000B6
:1018B00074A9000078A900008CA90000B548FEF7C3
:1018C000E6FDB549B348FEF7EDFDB449B148FEF772
:1018D000D6FD4821282001F0ADFB0146AD48FEF7BA
:1018E000D2FDAC48AC49FEF7DDFD4FF47A7003F051
:1018F0001BFA3378002B00F08282FEF76FFE4FF464
:101900007A7003F011FA06ADFEF70AFE002180237B
:101910000A465020009501F0C7FBA1499D48FEF7FB
:10192000C1FD10229DF818109A48FEF7B2FD9D499E
:101930009848FEF7B7FD9DF8191096481022FEF75B
:10194000A8FD94489849FEF7ADFD0024295D914813
:101950001022FEF79EFD01348E489449FEF78FFD5C
:10196000802CF3D10D20012103F080F90D200121FD
:1019700003F04EF98E498748FEF794FD75216820E3
:1019800001F058FB8B4904468248FEF778FD8A49EE
:101990008048FEF774FD102221467E48FEF779FD4F
:1019A00086497C48FEF76BFD7A4871211022FEF7CC
:1019B00097FD712C774840F016828149814D824E07
:1019C000824FFEF76FFD8248FEF732FE8149714873
:1019D000FEF755FD80496F48FEF764FD7F496D486D
:1019E000FEF74DFD7C496B48FEF75CFD7C4969487C
:1019F000FEF745FD78496748FEF754FD794965488B
:101A0000FEF73DFD74496348FEF74CFD7649614899
:101A1000FEF735FD70495F48FEF744FD73495D48A8
:101A2000FEF72DFD6C495B48FEF73CFD4FF47A70E4
:101A300003F07AF9FFF71AF8FEF7FAFFFEF7E4FF72
:101A40006B495448FEF72EFD28463146FFF728F82B
:101A500068495048FEF726FD3068674907F066FE82
:101A600007F0F8F9022402460B4600944948FEF7B5
:101A700048FD7068604907F059FE07F0EBF90094E3
:101A800002460B464348FEF73CFDB0685A495B4EA0
:101A900007F04CFE07F0DEF9009402460B463D4885
:101AA000FEF72FFD56493B48FEF7FCFC286807F07F
:101AB000D1F9009402460B463648FEF722FD6868CD
:101AC00007F0C8F9009402460B463248FEF719FDAC
:101AD000A86807F0BFF900940B4602462D48FEF7B0
:101AE00010FD4FF47A7003F01FF9FFF729F945490B
:101AF0002848FEF7D7FC22226820372101F0B6FAE9
:101B0000FEF70EFD00210C2001F094FA3E49054637
:101B10002048FEF7B4FC28491E48FEF7B0FC2946D1
:101B200010221C48394DFEF7B4FC24491948FEF731
:101B3000A6FC102248211748FEF7D2FC4FF47A7019
:101B400003F0F2F82846FFF755F931491148FEF73E
:101B5000A9FC38463146FFF7D5F92E490D48FEF766
:101B6000A1FC386807F076F9009402460B46094854
:101B7000FEF7C7FC786807F06DF9009402460B4643
:101B80000448FEF7BEFCB86807F064F9009402460A
:101B90000B4641E04090FF1F74A900009FA9000080
:101BA000B2A90000C8A90000D9A90000CEAE00006B
:101BB000EAA900000AAA000013AA000019AA00005E
:101BC00027AA0000B48DFF1F788DFF1F708EFF1FA6
:101BD000C88DFF1F3CAA00006AAA00007DAA000071
:101BE000ABAA0000D9AA000003AB00002DAB000097
:101BF00057AB000071AB000000007A444C8EFF1F11
:101C000083AB000095AB0000C2AB0000288EFF1F25
:101C1000CAAB0000F6AB00007A48FEF772FC7A49C6
:101C20007848FEF73FFC306807F014F9009402464C
:101C30000B467448FEF765FC706807F00BF90094DA
:101C400002460B466F48FEF75CFCB06807F002F9ED
:101C5000009402460B466B48FEF753FC4FF4FA60C3
:101C600003F062F869496748FEF709FC286807F045
:101C7000F1F8009402460B466248FEF742FC6449C4
:101C80006048FEF7FCFB686807F0E4F80094024641
:101C90000B465C48FEF735FC5E495A48FEF7EFFB01
:101CA000A86807F0D7F800940B4602465548FEF79F
:101CB00028FC4FF47A7003F037F8D021762001F039
:101CC000B9F9554904464F48FEF7D9FB53494D48E9
:101CD000FEF7D5FB214610224A48FEF7DAFB5049B1
:101CE0004848FEF7CCFB102258214648FEF7F8FB87
:101CF0004C494448FEF7D6FB4FF47A7003F014F8D1
:101D0000B622E021762001F0B1F9642003F00CF84E
:101D100000F092FF44493B48FEF7C4FB4349394871
:101D2000FEF7ADFB00213748FEF7D0FB40493548B0
:101D3000FEF7A5FB00213348FEF7C8FB3D493148BB
:101D4000FEF79DFB00212F48FEF7C0FB3A492D48C6
:101D5000FEF795FB00212B48FEF7B8FB37492948D1
:101D6000FEF78DFB00212748FEF7B0FB34492548DC
:101D7000FEF785FB00212348FEF7A8FB31492148E7
:101D8000FEF77DFB00211F48FEF7A0FB2E491D48F2
:101D9000FEF775FB00211B48FEF798FB2B491948FD
:101DA000FEF76DFB00211748FEF790FB2849154808
:101DB000FEF765FB00211348FEF788FB2549114813
:101DC000FEF75DFB00210F48FEF780FB22490D481E
:101DD000FEF755FB00210B48FEF778FB4FF47A70B5
:101DE00002F0A2FF0BE01D49FEF749FB0548214622
:101DF0001022FEF74EFB034802F02AFCFEE726B055
:101E0000BDE8F0814090FF1F0DAC000023AC000046
:101E100048AC00006DAC000092AC000013AA0000BA
:101E200019AA0000CEAE00009AAC0000B3AC0000CE
:101E3000BCAC0000C5AC0000CEAC0000D7AC0000CC
:101E4000E0AC0000E9AC0000F2AC0000FBAC00002C
:101E500004AD00000DAD000016AD00001FAD000088
:101E600013B5062204466B4628201A2101F0B8F863
:101E70009DF801209DF8003043EA022323809DF85D
:101E800003209DF8023043EA022363809DF8052079
:101E90009DF8043043EA0223A38002B010BD13B5BD
:101EA000062204466B462820222101F099F89DF86D
:101EB00001209DF8003043EA022323809DF803208F
:101EC0009DF8023043EA022363809DF805209DF8C7
:101ED000043043EA0223A38002B010BD13B50622EA
:101EE00004466B462820122101F07AF89DF8012063
:101EF0009DF8003043EA022323809DF803209DF8DB
:101F0000023043EA022363809DF805209DF80430E7
:101F100043EA0223A38002B010BD07B5282001AB1D
:101F20002A21022201F05CF89DF805009DF804309A
:101F300043EA002000B203B05DF804FB07B5282097
:101F400001AB2E21022201F04BF89DF805009DF80F
:101F5000043043EA002000B203B05DF804FB13B57F
:101F6000062204466B4668203B2101F039F89DF8B3
:101F700000209DF8013043EA022323809DF80220CF
:101F80009DF8033043EA022363809DF804209DF806
:101F9000053043EA0223A38002B010BD13B5062228
:101FA00004466B466820432101F01AF89DF8002092
:101FB0009DF8013043EA022323809DF802209DF81A
:101FC000033043EA022363809DF804209DF8053026
:101FD00043EA0223A38002B010BDFFFFFFFFFFFF13
:101FE0002DE9F04F1F4E337889B0002B40F0D2809E
:101FF0002820352101F01EF8840705464CD52820FD
:10200000502101F017F80446002845D0164917481A
:10201000FEF735FA15482146FEF74EFA112C02D18B
:102020001248134936E0122C02D11048114931E010
:10203000142C02D10D4810492CE0212C02D10B4860
:102040000E4927E0222C02D108480D4922E0242C19
:1020500002D106480B491DE0302C17D103480A492C
:1020600018E000BF948DFF1F97A800004090FF1F4D
:1020700040AD000056AD00006DAD00007BAD00002E
:10208000A0AD0000C6AD0000E3AD0000802C03D180
:10209000B148B249FEF7F3F9E8061ED5B04C204628
:1020A000FFF7DEFEB4F9000007F0ECFAAD4907F0E7
:1020B0003DFBAD4B1860B4F9020007F0E3FAA94903
:1020C00007F034FBA94B1860B4F9040007F0DAFA02
:1020D000A44907F02BFBA64B1860A9061ED5A54CFA
:1020E0002046FFF7DCFEB4F9000007F0CBFAA24966
:1020F00007F01CFBA14B1860B4F9020007F0C2FA0C
:102100009D4907F013FB9E4B1860B4F9040007F0DB
:10211000B9FA994907F00AFB9A4B18602A071ED5AD
:10212000994C2046FFF7DAFEB4F9000007F0AAFA4E
:10213000964907F0FBFA964B1860B4F9020007F0D5
:10214000A1FA924907F0F2FA924B1860B4F9040030
:1021500007F098FA8D4907F0E9FA8F4B18606B0683
:1021600018D5FFF7DAFE8D4B188007F08BFA8C49F3
:1021700007F0DCFA8B4907F0D1F98B4B1860FFF7B9
:10218000DDFE8A4B188007F07DFA854907F0CEFA0C
:10219000874B18603378002B00F08580704C854F9A
:1021A000DFF860822046FFF7DAFE834BB4F90000C7
:1021B0001D6807F067FA294607F0B8FA396807F092
:1021C000ABF9694B1860B4F9020007F05BFA2946D5
:1021D00007F0ACFA796807F09FF9644B1860B4F91E
:1021E0000400644C07F04EFA294607F09FFAB968DC
:1021F000724F07F091F95E4B18602046FFF7CEFE54
:102200006F4BB4F900001D6807F03CFA294607F04F
:102210008DFA5A4B1860B4F9020007F033FA2946D8
:1022200007F084FA564B1860B4F90400564C07F0D6
:1022300029FA294607F07AFA524B18602046FEF731
:1022400037FE604BB4F900001D6807F01BFA294601
:1022500007F06CFAD8F8001007F068FA396807F050
:102260005BF94B4B1860B4F9020007F00BFA2946F2
:1022700007F05CFAD8F8041007F058FA796807F00C
:102280004BF9444B1860B4F9040007F0FBF92946F8
:1022900007F04CFAD8F8081007F048FAB96807F0C8
:1022A0003BF93D4B186002F01FFD474D474B04467C
:1022B00018602868201A07F0E1F9454907F0EAFAA2
:1022C000444B2C60444C18600146206807F026F906
:1022D000424B43491A68206001321A600A6806922C
:1022E000404A069D1068281A3F4DB0F5FA7F2860D5
:1022F00040F25B843D4918483D4D3E4FFEF7BFF824
:10230000194B3D49186807F011FA06F0A3FD0224A5
:1023100002460B4600941048FEF7BFF837490E48B6
:10232000FEF7ADF8114B3449186807F0FFF906F0D5
:1023300091FD009402460B460748FEF7AEF830497F
:102340000548FEF79CF80A4B2B49186807F0EEF990
:1023500006F080FD58E000BF4090FF1FEFAD000089
:102360000C8EFF1F40DAFF395C8EFF1F608EFF1F4F
:10237000648EFF1F448EFF1F08AC1C3E7C8EFF1F27
:10238000808EFF1F848EFF1F128EFF1F07409C3E12
:102390009C8DFF1FA08DFF1FA48DFF1F048EFF1FAC
:1023A0000AD7233C00507D44C08DFF1F1C8EFF1FA9
:1023B000E48DFF1F788DFF1F908DFF1F708EFF1F14
:1023C000EC8DFF1F188EFF1F888DFF1FE08DFF1FF4
:1023D00000247449688EFF1F848DFF1F8C8DFF1FA2
:1023E000588FFF1FE88DFF1F588EFF1F04AE00009F
:1023F0006487FF1F348EFF1F00007A440AAE00007E
:1024000011AE0000288EFF1F009402460B46AA481A
:10241000FEF743F8A949A848FEF744F8A849A6489A
:10242000FEF72DF8A74B186806F014FD009402463D
:102430000B46A148FEF731F8A3499F48FEF71FF865
:10244000A24B186806F006FD009402460B469A4817
:10245000FEF723F89E499848FEF711F89D4B18683F
:1024600006F0F8FC009402460B469348FEF715F878
:1024700099499148FEF716F898498F48FDF7FFFFF4
:10248000974B186807F018FB01468B48FDF7FFFFD4
:1024900094498948FDF7F3FF934B186807F00CFB4C
:1024A00001468548FDF7F3FF90498348FDF7E7FFB4
:1024B0008F4B186807F000FB01467F48FDF7E7FFE8
:1024C0008C497D48FDF7EEFF8B497B48FDF7EAFF1D
:1024D0008A497948FDF7D3FF286806F0BBFC0094D1
:1024E00002460B467448FDF7D8FF85497248FDF750
:1024F000C6FF686806F0AEFC009402460B466E48C4
:10250000FDF7CBFF7F496C48FDF7B9FFA86806F0DF
:10251000A1FC009402460B466748FDF7BEFF7A49CE
:102520006548FDF7ACFFE86806F094FC00940246AD
:102530000B466148FDF7E5FF74495F48FDF7B2FFC0
:1025400073495D48FDF79BFF386806F083FC0094F3
:1025500002460B465848FDF7A0FF6E495648FDF766
:102560008EFF786806F076FC009402460B465248CF
:10257000FDF793FF68495048FDF781FFB86806F002
:1025800069FC009402460B464B48FDF786FF634901
:102590004948FDF774FFF868614F06F05BFC009452
:1025A00002460B464448FDF7ACFF3378C3B100F058
:1025B000D3FC5C4B186000F0EFFB07F05FF85A4962
:1025C00007F068F9386000F0DCFC584B186000F048
:1025D000BFFB07F057F8564907F05CF9554B1860F8
:1025E000D5F804B0D5F808A0D5F80080EE685146BB
:1025F000584607F09BF831460446404607F096F8E7
:102600000146204606F08AFF014606F087FF06F0E5
:1026100021FCCDE904014146404607F087F85946C0
:102620008046584607F082F80146404606F076FF9D
:1026300051468046504607F079F80146404606F07C
:102640006BFF31468046304607F070F80146404641
:1026500006F062FF06F0FEFB02460B46DDE90401D0
:1026600004F0E2FC06F004FFDFF8D080E968C8F867
:1026700000006868304E07F059F8A96804462868D9
:1026800007F054F80146204606F046FF014606F0E2
:1026900045FF06F0DFFB04F073FC06F0E9FE2B6853
:1026A000D5F804B0D5F808A0D5F80C9000F100409A
:1026B0003060594644E000BF4090FF1F18AE000054
:1026C0001CAE00007C8EFF1F22AE0000808EFF1F1C
:1026D00029AE0000848EFF1F30AE000037AE000030
:1026E0009C8DFF1F3DAE0000A08DFF1F44AE00007B
:1026F000A48DFF1F4BAE00004FAE000065AE000082
:102700006BAE000072AE000079AE000080AE00003B
:1027100096AE00009CAE0000A3AE0000AAAE000082
:10272000C08DFF1F988DFF1F0000C846AC8DFF1F96
:102730000000C842E48DFF1FB08DFF1F208EFF1FD9
:102740001846029306F0F2FF49460446504606F04A
:10275000EDFF0146204606F0E1FE014606F0DEFEF2
:1027600006F078FB029B04460D461846194606F013
:10277000DDFF594603465846029306F0D7FF029BF9
:102780000146184606F0C8FE51468346504606F0FC
:10279000CDFF0146584606F0BFFE494682464846F0
:1027A00006F0C4FF0146504606F0B8FE06F052FBA4
:1027B00002460B462046294604F036FC06F058FE39
:1027C0007349DFF8E8910446306806F0AFFF7049BE
:1027D0003060D8F8000006F0A9FF6E4906F09EFEB2
:1027E0000021054607F040F910B9C8F8005005E08F
:1027F0002846694906F092FEC8F80000674E644911
:10280000204606F093FF73683268C9F80000194645
:102810001046D6F80CB0D6F808A00293039206F042
:1028200085FF51460446584606F080FF0146204683
:1028300006F074FE014606F071FE06F00BFB04463E
:102840000D465846594606F071FF039A83461146D5
:10285000104606F06BFF0146584606F05FFE029BED
:1028600083461946184606F061FF0146584606F0B1
:1028700053FE51468346504606F058FF01465846DF
:1028800006F04AFE06F0E6FA02460B4620462946C6
:1028900004F0CAFB06F0ECFD414CB16820603068E2
:1028A00006F044FF71680546F06806F03FFF0146F8
:1028B000284606F031FE014606F030FE06F0CAFA60
:1028C00004F05EFB06F0D4FD364DF368D6F800B098
:1028D000D6F804A0B66800F10040286059461846B2
:1028E000029306F023FF314602465046039206F05B
:1028F0001DFF039A0146104606F010FE014606F041
:102900000DFE06F0A7FA029BCDE904011946184610
:1029100006F00CFF594603465846029306F006FFA0
:10292000029B0146184606F0F7FD51468346504685
:1029300006F0FCFE0146584606F0EEFD31468246A2
:10294000304606F0F3FE0146504606F0E7FD06F07D
:1029500081FA02460B46DDE9040104F065FB06F04E
:1029600087FD0B490646286806F0E0FE0849286006
:1029700020680D4D06F0DAFE064906F0CFFD002175
:10298000824607F071F898B9C4F800A015E000BFBE
:10299000E02E6542CDCC5C410000B443348EFF1F75
:1029A000088EFF1FA88DFF1F008EFF1FF08DFF1FD9
:1029B0005046834906F0B2FD20608249304606F059
:1029C000B5FE814928608148FDF759FDD8F800001F
:1029D00006F040FA02240B46024600947B48FDF7BD
:1029E0005CFD7B497948FDF74AFD7A4A106806F09C
:1029F00031FA009402460B467448FDF74EFD7449C7
:102A00007248FDF73CFDD9F8000006F023FA009467
:102A100002460B466D48FDF774FD6F496B48FDF7A4
:102A20002EFD6E4B186806F015FA009402460B4610
:102A30006648FDF732FD66496448FDF720FD684BA6
:102A4000186806F007FA009402460B465F48FDF747
:102A500024FD5F495D48FDF712FD2868614D06F0D1
:102A6000F9F9009402460B465848FDF74AFD5E49C5
:102A70005648FDF717FD5D495448FDF700FD2868ED
:102A800006F0E8F9009402460B465048FDF705FDB4
:102A900057494E48FDF706FD54494C48FDF7EFFCF9
:102AA00028685449544D06F041FE544906F0F2FEA0
:102AB0004FF0844106F032FD06F0CCF90094024656
:102AC0000B464248FDF7E9FC4D494048FDF7EAFC5A
:102AD0004C493E48FDF7D3FC386806F0BBF900943A
:102AE00002460B463948FDF7D8FC47493748FDF701
:102AF000D9FC3868454906F0CDFE06F0ABF92CA3A9
:102B0000D3E9002304F092FA02460B460020404924
:102B100006F040F828A3D3E9002306F0EFF906F009
:102B2000A7FC3C4928602948FDF7A9FC286806F065
:102B300091F9009402460B462448FDF7AEFC364955
:102B40002248FDF7AFFC35492048FDF7ABFC34497E
:102B50001E48FDF794FC334B186806F08FFD324A8F
:102B6000116806F097FE06F075F9009402460B46D0
:102B70001648FDF792FC2D491448FDF793FC0D20F3
:102B800002F066F8D0F1010138BF00210D2002F0FB
:102B90003FF8274A13680793264A079B1360214A88
:102BA00000231360204A0023136009B0BDE8F08FB2
:102BB000000000E0395BC83F000000A0B3BE014147
:102BC0000000B443E02E6542B1AE00004090FF1F0C
:102BD000CDAE0000B08DFF1FD0AE0000088EFF1FED
:102BE000A88DFF1FE48DFF1FECAE0000F4AE0000C7
:102BF0000DAF000000001041FC8DFF1F0000A04041
:102C000010AF000013AF000029AF000000507D445A
:102C10000000F03F2FAF00003BAF0000CEAE000041
:102C200041AF00008C8DFF1F848DFF1F74A9000031
:102C3000588FFF1FE88DFF1F7FB57620F4210022FB
:102C400000F014FA7620F521002200F00FFA6B460E
:102C500076208821182200F0C3F99DF800309DF8F5
:102C6000012043EA02222E4B1A809DF802309DF883
:102C7000032043EA02222B4B1A809DF804309DF872
:102C8000052043EA0222284B1A809DF806309DF861
:102C9000072043EA0222254B1A809DF808309DF850
:102CA000092043EA0222224B1A809DF80A309DF83F
:102CB0000B2043EA02221F4B1A809DF80C309DF82E
:102CC0000D2043EA02221C4B1A809DF80E309DF81D
:102CD0000F2043EA0222194B1A809DF810309DF80C
:102CE000112043EA0222164B1A809DF812309DF8FB
:102CF000132043EA0222134B1A809DF814309DF8EA
:102D0000152043EA0222104B1A809DF816309DF8D8
:102D1000172043EA02220D4B1A8007B05DF804FB2E
:102D2000928EFF1F948EFF1F968EFF1F9C8EFF1F9B
:102D30009E8EFF1FA08EFF1FA28EFF1F888EFF1F7B
:102D40008A8EFF1F8C8EFF1F8E8EFF1F908EFF1F9F
:102D50000D4B1A88C2EB20135200C2EBE0000B4A65
:102D6000B2F9002050430A4A5B43B2F900201B131A
:102D700053439B1303EBE020064B186000EB8000ED
:102D800080300012704700BF928EFF1F948EFF1F8D
:102D9000968EFF1F988EFF1F654B2DE9F74F1C681D
:102DA000E517B4F5FA3445F1FF35A4FB046704FBDD
:102DB00005F307EB43075F4B19885F4BB3F800C07F
:102DC0005E4B1B8801935E4BB3F90020D31704FBC5
:102DD00003F802FB0588A4FB022343444FEA033BAC
:102DE000584BB3F900804FEAE87906FB09F308FB7A
:102DF0000733A6FB08894FEA023A99444BEA125B73
:102E00004FEA1822DFF84C8142EA096212EB0A020B
:102E10004FEA2923B8F800A043EB0B03003243F537
:102E20000043A2FB0A890AFB03994FEA69024FEAB1
:102E3000E97352EA030877D00FFA81F84FEAE8798C
:102E400006FB09F108FB0711A6FB08670FFA8CF8CF
:102E50004FEAE8790F4404FB09F108FB0511A4FBD4
:102E600008450D444FEA44484FEA4549C0F58010F3
:102E700049EAD43916EB0806DDF8048047EB090768
:102E80004FEAE0794FEAC9750FFA88F845EA50052C
:102E9000C40740464FF0000816EB08064FEAC00989
:102EA00047EB0907A41B65EB070540F63546A4FB75
:102EB000060106FB051106F025FE234CB4F900407F
:102EC0004B13420B42EAC14204FB03F6E51702FB37
:102ED0000566A4FB02456343354402FB0535A4FBAC
:102EE00002232B44540E44EAC3145D16174BB3F966
:102EF0000020241845EB0105D317514300FB0313B1
:102F0000A2FB00011944C20C42EA413212194FEAF5
:102F1000E14343EB0503100A40EA03600C4BB3F9AD
:102F200000402201104400E0002003B0BDE8F08F13
:102F3000988EFF1F8A8EFF1F888EFF1FA28EFF1F95
:102F40009E8EFF1FA08EFF1F908EFF1F8E8EFF1F75
:102F50008C8EFF1F9C8EFF1F07B5762001ABF721DB
:102F6000032200F03DF89DF805009DF804300002B2
:102F700040EA03409DF806301843000903B05DF8AD
:102F800004FB07B5762001ABFA21032200F028F8F4
:102F90009DF805009DF80430000240EA03409DF8CA
:102FA00006301843000903B05DF804FB13B50B4667
:102FB0000021427B0091016900F09DFF02B010BD2D
:102FC00013B513464FF0000E01220C46417B8DE8ED
:102FD00004402246006900F0A3FF02B010BDFFFFCD
:102FE000F8B504460E461248214617461D4600F025
:102FF00019FD31460E4800F02CF900210C48FFF76E
:10300000D5FF3A460A482146FFF7DAFF0022084B6F
:103010001869D0F83811D0F83431994202F101041E
:1030200005D0D6B200F094FF2246A855EFE7F8BDD0
:10303000B88EFF1F70B50C4C05460E46204629463B
:1030400000F0F0FC3146204600F003F92046002154
:10305000FFF7ACFF294601222046FFF7B1FF2069A8
:1030600000F076FFC0B270BDB88EFF1F73B50D4C77
:1030700003460D4620461946164600F0D3FC294665
:10308000204600F0E6F83146204600F0E2F8002342
:103090000093627B21692046012300F02CFF02B0DF
:1030A00070BD00BFB88EFF1F2DE9F04104460E46EB
:1030B0001548069D21469846174600F0B3FC314658
:1030C000114800F0C6F839460F4800F0C2F8002158
:1030D0000D48FFF76BFF0C4821464246FFF770FF93
:1030E0000023094A1069D0F83811D0F834219142F0
:1030F00003F1010405D0DEB200F02AFF2346A855F3
:10310000EFE7BDE8F08100BFB88EFF1F10B50446A1
:1031100060212820E2B2FFF7A9FF28206121220ABE
:10312000FFF7A4FF282062210022FFF79FFF28203D
:1031300063210022FFF79AFF28206421CB22FFF7AA
:1031400095FF282054218022FFF790FF28203A2164
:10315000FFF770FFCB28F9D1282064210022FFF768
:1031600085FF282054210022BDE81040FFF77EBFD4
:1031700038B505460C4628206021EAB2FFF776FFF5
:10318000282061212A0AFFF771FF28206221E2B27C
:10319000FFF76CFF28206321220AFFF767FF282032
:1031A0006421CA22FFF762FF282054218022FFF702
:1031B0005DFF28203A21FFF73DFFCA28F9D12820DA
:1031C00064210022FFF752FF282054210022BDE88D
:1031D0003840FFF74BBF38B50C4640F08005602102
:1031E0002820E2B2FFF742FF28206121C4F3072222
:1031F000FFF73CFF28206221C4F30742FFF736FFA8
:1032000028206321220EFFF731FF282064212A465F
:10321000FFF72CFF282054218022FFF727FF2820CA
:103220003A21FFF707FFA842F9D1282064210022A4
:10323000FFF71CFF282054210022BDE83840FFF78B
:1032400015BF0369D3F83801D3F83431C01A704779
:1032500070470369D3F84422B2F5817F09D8D3F8C7
:103260004422501CC3F844021344012083F83C114B
:103270007047012303710020704730B50469D4F80A
:103280004432B3F5817F1DD8D4F84432D4F8445287
:10329000C3F5817301332C449A4204F59E7402D91C
:1032A000012202711A460023934203D0CD5CE554FB
:1032B0000133F9E70269D2F844121944C2F8441202
:1032C000184630BD01230371002030BD38B5094BCD
:1032D0000360036993F84822022A044608D1D3F810
:1032E00060522DB1284601F099F9284601F0DEFA26
:1032F000204638BD58AF0000C3681A789207FCD545
:1033000002221A707047FFFF002210B5027102738B
:10331000064A02604FF47A74054A84604FF41A74C6
:10332000417304FB0121016110BD00BF58AF0000D3
:103330007887FF1FF8B5C3681B789B0604460E46C6
:1033400000F19A80836880211970C3681221197076
:1033500090F84932012B03D01AB980F8482200E0D6
:103360001A46531E012B00F2898016B94FF0807166
:1033700003E0012E03D14FF00071414B1960022A86
:1033800076D1D4F8605245B9082001F08DFA29466B
:10339000074601F0EFF8C4F86072D4F8605265B1E6
:1033A0002B79102B09D1284601F038F9284601F075
:1033B0007DFA0023C4F860325AE046BB2B683148DE
:1033C0009A8B998B92B242F008029A832A792E4BFB
:1033D00002F1100143F8210053119B0003F16043F7
:1033E00003F56143012102F01F0201FA02F21A60A3
:1033F0002B689A8B998B92B242F002029A832B79B6
:1034000003F1804303F5043396221E7028E0012E59
:1034100027D12B681D489A8B998B92B242F00802F3
:103420009A832A79184B02F1100143F821005311B5
:103430009B0003F1604303F5614302F01F029640D5
:103440001E602B689A8B998B92B242F002029A838B
:103450002B7903F1804303F5043300221A7097227D
:103460001A70002384F85632022384F8483205E0AB
:10347000012084F84802F8BD0020F8BD0120F8BD05
:1034800000E100E06D4400000082FF1F794400006D
:103490008C4B994210B5436804461BD10D2A15D8B0
:1034A000DFE802F02628072C090B57595B0D0F6146
:1034B0001163552144E0192142E0132140E0062127
:1034C0003EE005213CE00120187053E00020187018
:1034D0000D224FE07C48814222D10C2A1CD8DFE823
:1034E00002F007090B0D0F111315173E1942440086
:1034F0002C2125E0242123E01E2121E04F211FE083
:1035000015211DE00F211BE00E2119E00C2117E011
:103510000A2115E0042113E0002018700C2229E094
:103520006A48814229D10B2A21D8DFE802F0060837
:103530000C0E10121416181A1C1E272100E05A2116
:103540001970012016E01C21FAE78521F8E7142103
:10355000F6E74521F4E70D21F2E70B21F0E7092119
:10356000EEE70321ECE70221EAE70021E8E700208B
:1035700018700B22A36904218EE05548814224D1A2
:10358000092A1CD8DFE802F005070B0D0F111315EF
:103590001719952100E055211970012012E08521AD
:1035A000FAE71521F8E74521F6E70C21F4E70A21AF
:1035B000F2E70521F0E70221EEE70021ECE7002029
:1035C00018700922A369032166E0424881421FD195
:1035D000072A17D8DFE802F004060A0C0E101214AE
:1035E0001F2100E08521197001200EE01421FAE767
:1035F0004521F8E70B21F6E70521F4E70221F2E780
:103600000021F0E7002018700722A369022143E09F
:103610003148814210D1052A0AD8DFE802F00305BB
:10362000071D21231D2118E0142116E0432114E079
:103630000020187005221AE0284881421AD1032A76
:1036400012D801A151F822F02936000059360000A5
:1036500061360000653600000B211970012006E07C
:103660000321FAE70021F8E7002018700322A3697C
:10367000012111E01A48814210D122B1012A4FF0F4
:10368000000101D003E00B211970012002E0197044
:1036900000200122A369002119700FE01148814226
:1036A0004FF00000187007D10AB9012000E0002097
:1036B000A36900221A7001E0A369187084F84C22F3
:1036C00010BD00BF00879303007E5603006CDC0230
:1036D0000051250200366E010024F40000127A0029
:1036E00000093D0080841E00F8B51C469DF8183086
:1036F00005462BB1C0680078800601D50020F8BDD2
:10370000002C40F2032640F2646040F2036708BFD9
:103710004FF4197608BF074685F84B4271BB012A62
:1037200014D173B1002C14BF02210021122001F02A
:103730009DFA002C4FF0130014BF0221002101F06C
:1037400095FA012385F84A32224B13E073B1002C1D
:1037500014BF02210021112001F088FA002C4FF043
:10376000100014BF0221002101F080FA002385F827
:103770004A32194B1E6043F8046C29E0012927D115
:10378000042A13D15BB1002C14BF022400241E2094
:10379000214601F06BFA1D20214601F067FA04234F
:1037A00085F84A320D4B1F605F6011E05BB1002C61
:1037B00014BF022400241F20214601F057FA1A20CA
:1037C000214601F053FA032385F84A32044BD1E72E
:1037D0000120F8BD04A004400CA0044000D0044027
:1037E0002CB00440F7B5044616469DF820009DF81D
:1037F0002C700D4621B92A4A116841F0400105E0BC
:10380000012904D1264A116841F08001116000228B
:1038100084F84E2284F84962626936B92023137015
:1038200023681E70E3691E7015E000280CBF20217C
:1038300028211170216801D0834201D25A0000E092
:103840004200D2B20A70E26920B1834234BF400024
:103850005800C0B210700023294600939DF8242020
:103860009DF828302046FFF73FFF94F84A32022B9C
:103870000CBF0C490C493A462046FFF709FE9DF85B
:10388000302020462946FFF755FD94F84922A368C9
:103890000AB9802200E0C0221A7003B0F0BD00BF58
:1038A0003480044000A24A040051250290F84A32B4
:1038B000042B2DE9F7430446894641D8224AD55CBA
:1038C000224AD65C002E3BD0002D39D090F84B32E6
:1038D000002B14BF02210021304601F0C7F9284611
:1038E000012101F095F92846012101F0BFF90B27CC
:1038F000304601F0ADF9014618B9013F17F0FF0756
:103900000CD1002184F84E12009194F84A2294F8C8
:103910004B3220464946FFF7E7FE11E028464FF0BC
:10392000780801F075F94346013B7FF4FDAF0121B2
:10393000284601F06DF9B8F101087FF4FCAFD7E734
:1039400003B0BDE8F08300BF70AF000075AF0000AA
:103950002DE9F041044616461F460D4601F0C4F914
:10396000A3681A789206804602D5B4221A7027E01E
:10397000002E45D001F0B8F9C8EB0000B0423FD3AB
:10398000A3681B789B060FD420462946FFF78EFFBD
:10399000E3681B7803F0200303F0FF0223B9A36858
:1039A00084F84922B0221A70A3681B7803F0200320
:1039B00003F0FF0023B9042384F84E32BDE8F08100
:1039C00094F84832013B012B17D800F04FFF134BFE
:1039D000134A002D14BF19461146097888420CDCA1
:1039E0000F2803DC01203870BDE8F081002D14BFE2
:1039F0001D4615461038C0B228700120BDE8F08180
:103A0000E3681A7802F0200202F0FF03002AAFD127
:103A100084F84932A368B0221A70B1E719E400E0D3
:103A200018E400E00369490083F83C1103690122AE
:103A3000C3F844220022027183F84E227047F7B582
:103A40001E4600238DF80730D0F844320446154650
:103A5000002B00F0AF800EB9D0F86462E368122248
:103A60001A70204632460DF10703FFF771FF002858
:103A700000F0A08094F8483213B19DF8071021B3EC
:103A800001F032F9012384F84D52074684F84E3292
:103A90000025D4F844329D4206D2002E5FD001F0BA
:103AA00023F9C01BB0425AD3D4F844329D4234BFEC
:103AB0000423002384F84E3294F84D32012B08BFC2
:103AC0008022A36818BFB02247E05A1E012A71D88D
:103AD0000120022B84F84E0284F84D52C4F84012A3
:103AE00035D1D4F84432042B31D9D4F8602284F88B
:103AF00056021368D4F84452D97104F59F761F68B2
:103B000018711E6059711368187259729972D972BE
:103B10001368033D6842D860A8B2DD8BD883136870
:103B2000DA8AD882D4F8602220691368B0F1804F15
:103B300099711D69197518615975136833D399689E
:103B400089B3136800221A765A769A76DA76A368D1
:103B5000F0221A70236994F83C211A702AE0621945
:103B6000236992F83C211A702046FFF7C5FBE368F1
:103B70001B78DBB2DA0608D5072384F84E32A36837
:103B800080221A70E368102209E0D90709D50DB91F
:103B9000052300E0062384F84E32A36880221A70C1
:103BA00082E7013575E70021012018725972997278
:103BB000D972C6E703B0F0BD2DE9F34116460022E5
:103BC00004469DF82070099D8DF80720002B00F019
:103BD0001581B3F5827F03D3082380F84E320DE1BF
:103BE000C0F83421C0F85032C0F838210DB9D0F8EF
:103BF0006452E36812221A7020462A460DF1070328
:103C0000FFF7A6FE002800F0F98094F848321BB1B7
:103C10009DF80720002A40D001F066F876000223C4
:103C200084F84E3246F00106236984F84D72F6B2EC
:103C30001E7080462046FFF75FFBE3681A78A36892
:103C4000D2B212F0100F07D0072284F84E22802241
:103C50001A70E368102205E0D20705D5052284F822
:103C60004E2280221A70C9E0032284F84E22D4F832
:103C70005022012A0CBFA822A0221A7023691B78A7
:103C8000D4F83821D4F850329A4280F0B78094F8B2
:103C90004E32032B40F0B28052E0591E012900F24F
:103CA000AD8002218B4284F84E1284F84D723DD1D2
:103CB000D4F85032042B39D9D4F86012206901238A
:103CC00084F856320B68B0F1804FDA711D681A71B2
:103CD00018605A710B6801D39A682AB90022012032
:103CE00018725A729A72DA72D4F860020A6801681D
:103CF000D4F850520F690023137353739373D37323
:103D00008B7104F130020A6102684B7501270F754F
:103D1000177253729372D3720368013D6A429A61BB
:103D2000AAB2D98BDA830368D98ADA82A368F0222F
:103D30001A707600236946F00106F6B21E705DE047
:103D40002046FFF7D9FA002D56D000F0CDFFC8EB82
:103D50000000A84234BF00230123D4F83811D4F85E
:103D60005022023191420FD013B194F855225AB12A
:103D7000D4F83811D4F850220131914219D23BB114
:103D800094F85522AAB903E0A268A8211170EFE7C0
:103D900022691178D4F83821501C2244C4F8380123
:103DA00082F83010002B3FF46BAF012384F85532BA
:103DB00066E7002284F85522A268B02111702269BA
:103DC0001178D4F83821501C2244C4F8380182F804
:103DD00030101BB1042284F84E2201E084F84E32E8
:103DE00094F84D22012ADDD11822013A7FF4FDAF6B
:103DF000A26880211170D5E72B46AEE702B0BDE87E
:103E0000F081036993F84E32043B042B0AD8DFE8B3
:103E100003F0070E050703000120704703207047D9
:103E2000042070470079003018BF0120704702203D
:103E3000704790F84E32B3B190F84E32052B12D045
:103E400090F84E32062B0ED090F84E32072B0AD047
:103E500090F84E32042B06D090F84E02B0F10803D1
:103E60005842584170470120704770B504461546C6
:103E70000AB9D0F8645200F037FF06462046FFF733
:103E8000D8FF88BB002DF9D000F02EFF801BA84280
:103E9000F4D300F029FF801BA8420ED394F84832D7
:103EA000022B0AD194F856323BB12046FFF7C1FFEE
:103EB0000028FAD0042384F84E3294F84E32012BB5
:103EC00015D094F84E32022B11D094F84E32032BB9
:103ED0000DD06023013B7FF4FDAF94F84E02D0F18A
:103EE000010038BF002070BD002DE6D0D1E70423CB
:103EF00084F84E32EDE7F8B5069C07460E461546A7
:103F0000084611461A462346FFF799FD30462946D2
:103F10002246FFF7AAFF3846BDE8F840FFF771BF19
:103F2000F7B5099D04460E460BB900200EE09DF83A
:103F3000207000970195FFF73FFE204631462A4644
:103F4000FFF793FF0028F0D0D4F8380103B0F0BD9C
:103F5000D0F83421D0F838319A4208D2D0F8343130
:103F60005A1CC0F83421184490F8300070474FF0C4
:103F7000FF3070470069FFF7EBBFD0F83421D0F86D
:103F800038319A423DBFD0F83431C01890F8300033
:103F90004FF0FF3070470069FFF7EFBF38B5C268D8
:103FA000836815781978C9B204468806EDB217D52A
:103FB000C9060AD594F85612022900F0C38094F875
:103FC0005612032940F0C580BCE094F85622022A1C
:103FD00000F09D8194F85622032A40F0788196E102
:103FE00015F0100F05F0400304D010201070002BC6
:103FF00000F0A48003F0FF02002B53D094F84E325F
:104000000A2B04D1D4F85832002B40F0208205F05E
:10401000040505F0FF03F5B1092384F84E320023AF
:10402000C4F84432A368D0221A7023691B785B0855
:1040300084F84F32D4F85C3203B19847D4F8443254
:104040000BB984F83C31236994F83C211A700123A0
:10405000C4F8403272E094F84A2284F854320AB923
:10406000122002E0012A02D11120B34908E0032AFC
:1040700002D11E20B14904E0042A04D1AF491F2017
:10408000032200F057FD0A2384F84E320023C4F8BF
:104090003831A368C0221A7023691B785B0884F842
:1040A0004F324BE001F0100101F0FF03F1B115F0C8
:1040B000010513D1D4F84022D4F844329A4207D2F1
:1040C000D4F840325A1C2344C4F8402293F83C519F
:1040D00023691D70A368D0221A702FE0A368C02145
:1040E000197023691B7884F84E2227E094F84A223D
:1040F00084F854320AB9122002E0012A02D11120B8
:104100008D4908E0032A02D11E208C4904E0042ACC
:1041100004D18A491F20032200F00CFD23691A787C
:10412000D4F83831B3F5817FD2B207D8D4F838311A
:10413000591C2344C4F8381183F83020E368022264
:104140001A7038BDD4F860321968898B090643D5D6
:1041500092E094F84E22012A57D105F0100202F0A5
:10416000FF016AB10022072184F8562284F84E121A
:1041700080211970E36812211970C4F8402238BDFB
:1041800015F001050AD084F85612D4F84022002A0E
:104190004CD0062284F84E2280229DE7D4F840229B
:1041A0000132C4F84022D4F844128A4202D384F87F
:1041B0004E525BE094F85622012A1FD1022284F865
:1041C0005622F1221A70D4F860321A795C4B1A70B8
:1041D000236994F83D217FE794F85612032955D1BD
:1041E00011780806FCD51A79564B1A70002384F80A
:1041F0005632D4F84432013BC4F84032D4F840225D
:104200002369224492F83C2166E794F84E22D2B208
:10421000022A27D1E90607D5072284F84E228022F8
:104220001A70E36812228BE7E80701D50522B1E78F
:1042300094F85612012908D184F85622E1221A7006
:10424000D4F860321A793E4B08E0032284F84E22FB
:10425000D4F85022012A0CBFE822E0221A70236908
:104260001B786BE794F84E22042A95D194F84D22DE
:10427000012A91D0B0222FE794F856120229ABD12F
:104280001A79314B1A70A368F02250E02F4A1B793B
:1042900012680121994011423FF450AF2A4A13702D
:1042A000D4F860321A792A4B1A700023EA0684F88F
:1042B00056327FF543AF072284F84E22A268802150
:1042C0001170E26812211170C4F8403238BDD4F880
:1042D0003811D4F85022023191427BD094F84E220A
:1042E000042A03D194F85522002A73D0D4F8382137
:1042F000D4F8503201329A4280F0878094F84E32DE
:10430000042B6AD194F85532002B7ED165E0D4F8A5
:1043100060321A681B79928B12F0800F1AD094F8D1
:104320005622022A16D1084A1370A368E8221A708E
:10433000032384F8563201E71945000025450000A3
:104340001B8000401C8000401F8000402C800040EB
:104350001E80004094F85622032A26D13F4A13704B
:10436000002384F8563294F84E22042A18BF84F8A9
:104370004E32A368B0221A70D4F85032013BC4F810
:104380003831D4F838315A1CC4F838212269234412
:10439000127883F8302094F84D32012B7FF4CEAEA2
:1043A0001823013B7FF4FDAF12E02D4A0121126872
:1043B000994011423FF4C2AE2A4A1370D4F86032D9
:1043C0001A79294B1A70002384F8563284F84E3239
:1043D000A368E1E6E8221A7088E7D4F838315A1C5D
:1043E000C4F8382122692344127883F8302094F8E5
:1043F0004E32042B7FF4A2AE94F85532002B7FF49A
:104400009DAE012384F8553298E694F84E2200239D
:10441000042A84F8553201D084F84E32A368B022C1
:104420001A70D4F838315A1CC4F838212269234450
:10443000127883F8302094F84D32012BD7D118230D
:10444000013B7FF4FDAFA36880221A70CFE7002202
:10445000C4F83421D4F838019847D8E51C800040CE
:104460002C8000401E8000401F8000400148002139
:10447000FFF794BD7887FF1F01480121FFF78EBD2C
:10448000E089FF1F10B5C3681B7803F020030446C2
:1044900003F0FF02EBB990F84A3280F84E220BB9D4
:1044A00012200AE0012B01D1112006E0032B01D1DB
:1044B0001E2002E0042B02D11F2000F081FBD4F863
:1044C00058323BB30022C4F83421D4F8380198475D
:1044D00010BD90F854320133DBB2012B80F8543216
:1044E00004D890F84932012B00D110BD94F84A321B
:1044F0000BB912200AE0012B08BF112006D0032BB4
:1045000008BF1E2002D0042B04D11F20BDE810409C
:1045100000F056BB10BDFFFF01480021FFF7B2BFFE
:104520007887FF1F01480121FFF7ACBFE089FF1F1B
:1045300070B50C4E0C4D0D4C30460021FEF7E4FEDC
:1045400030460B4E2246294605F0B8FD3046012183
:10455000FEF7DAFE304629462246BDE8704005F0F7
:10456000ADBD00BFB88EFF1FCD3200006087FF1FBA
:10457000A48EFF1F30B572B6254C09B9026812B976
:10458000218800230FE003790F2BF9D821881941E6
:10459000C907F5D503F1007303F59063B2EB431F30
:1045A000EED162B630BD41FA03F212F0010227D11A
:1045B00001259D402943218062B6164CD9B2017174
:1045C000256845F00205256054F8045C03F100738A
:1045D00045F0020544F8045C03F590630E4C5B0162
:1045E00082252560A176A1772176E17703601A60A4
:1045F0005A609A60DA601A615A619A61DA6130BD74
:104600000133102BCFD162B600220260037130BD9E
:10461000CC8EFF1F408004400080004003790F2BA8
:1046200010D8094A137072B6084B0279012101FAB9
:1046300002F2198821EA02021A8062B6102303717D
:1046400000230360704700BF1A800040CC8EFF1F1C
:1046500007B5064B1B88ADF80430036801A95B68F9
:104660000222984703B05DF804FB00BF7AAF000058
:1046700070B505468AB022B90368C9B21B6898476D
:104680002CE0012A08BF0A2221B930228DF825200A
:10469000212413E02124B1FBF2F002FB1011C9B276
:1046A00009290AAE94BF303137312644C9B206F821
:1046B000241C014610B1013CE4B2ECE733B1013CEB
:1046C000E4B20AAB23442D2203F8242C2B6801A961
:1046D0005B6828462144C4F1220298470AB070BDA5
:1046E0000029BABF49422D2300230A22FFF7C0BF89
:1046F0002DE9FF47804614461D4610461946002204
:1047000000239DF8309004F06BFE20B105F10047C6
:104710003D46012600E00646334B00270022F9B251
:1047200049450AD2104619462DA3D3E9002304F0C7
:10473000E5FB013702460B46F1E72046294604F027
:104740002BFA0D46044604F073FE074633464046F6
:1047500039460A22FFF78CFF0646B9F1000F3BD01D
:10476000384604F055FBB9F10F0F28BF4FF00F0981
:104770000B4602462946204604F00CFA09F10109CD
:104780002E238DF800305FFA89F94FF0010A0022DC
:10479000164B04F0B3FB0D46044604F049FE04AB8F
:1047A0005344C0B200F1300203F8102C04F040FB77
:1047B0000AF1010702460B46FFB22046294604F0E3
:1047C000E9F94F4501D0BA46E1E7D8F80030404654
:1047D0005B6869464A469847304604B0BDE8F087B2
:1047E000000000A09999B93F0000E03F000024407C
:1047F00008B5FCF765FCFDF7F3FB01F091F8FAE76B
:10480000024B1A6801321A60704700BF588FFF1FB1
:1048100008B50B4C2368580301D500F0B5FB23689D
:10482000590501D501F052FD23681A0501D502F0A2
:1048300087F82368DB04ECD502F002FBE9E700BF50
:104840003480044008B5FFF7E3FFFFFF014B10225F
:104850001A807047002005407047FFFF024A136826
:104860001844106018467047488CFF1FEFF31383FD
:104870009BB9EFF3108098B9EFF3058323B10F2BA9
:1048800004D9084A985C01E04FF48070EFF311837B
:104890003BB1834238BF184670474FF0FF30704736
:1048A00018467047F0E300E005F04ABC05F050BC44
:1048B00010B50023B0FBF2F402FB1400092894BFEA
:1048C00030303730C0B2C85420460CB10133F1E764
:1048D000CA18547022469A4206DA885CCC5C8C5422
:1048E000C8540132013BF6E7084610BD1F4B10B516
:1048F0001C681C60E00304D51D4B1A680AB11B68D4
:104900009847A10304D51A4B5A680AB15B689847C7
:10491000E20704D5164B1A6C0AB11B6C9847A30723
:1049200004D5134B5A6C0AB15B6C9847200704D529
:104930000F4B9A6C0AB19B6C9847610704D50C4BDE
:10494000DA6C0AB1DB6C9847220304D5084B5A6E27
:104950000AB15B6E9847630306D5054BD3F88020F8
:1049600012B1D3F88030984710BD00BFA0A004401A
:10497000D08EFF1F2C4B10B51C681C60200704D57F
:104980002A4B5A6A0AB15B6A9847E10604D5274B5D
:104990009A6A0AB19B6A9847620604D5234BDA6A81
:1049A0000AB1DB6A9847230604D5204B1A6B0AB17B
:1049B0001B6B9847A00604D51C4B5A6B0AB15B6B66
:1049C0009847E10704D5194BDA6B0AB1DB6B9847BE
:1049D000A20704D5154B9A6D0AB19B6D98476307E2
:1049E00004D5124BDA6D0AB1DB6D9847A00504D5EA
:1049F0000E4BDA6E0AB1DB6E9847E10504D50B4B1E
:104A00001A6F0AB11B6F9847620504D5074B5A6F9E
:104A10000AB15B6F9847230504D5044B9A6F0AB11E
:104A20009B6F984710BD00BFA0B00440D08EFF1F01
:104A30001E4B10B51C681C60E00704D51C4B9A681F
:104A40000AB19B689847210604D5194B5A690AB1E7
:104A50005B699847E20604D5154B9A690AB19B69D0
:104A60009847630704D5124BDA690AB1DB699847A6
:104A7000200704D50E4B1A6A0AB11B6A9847A10792
:104A800004D50B4B9A6B0AB19B6B9847A20604D5D1
:104A9000074B1A6D0AB11B6D9847630604D5044B8A
:104AA0005A6D0AB15B6D984710BD00BFA0C00440AD
:104AB000D08EFF1F114B10B51C681C60E00404D59C
:104AC0000F4BDA680AB1DB689847A10404D50C4B98
:104AD0001A690AB11B699847A20604D5084B1A6ED9
:104AE0000AB11B6E9847E30606D5054BD3F8842020
:104AF00012B1D3F88430984710BD00BFA090044095
:104B0000D08EFF1F094B10B51C681C60A20704D58E
:104B1000074B9A6E0AB19B6E9847E30704D5044B86
:104B2000DA6F0AB1DB6F984710BD00BFA0D0044018
:104B3000D08EFF1F212830B531D8042A2FD8DFE8C6
:104B400002F00709050B03000B2306E00A2304E02B
:104B5000082302E00C2300E00923114A114D02EB67
:104B6000C0025468104AC2F89C51104DC2F8A051BE
:104B70000F4DC2F8A4510F4DC2F8A8510E4DC2F806
:104B8000AC5172B622680D4D22F47022226042F0C0
:104B9000807242EA034345F82010236062B630BDBC
:104BA0007CAF0000B54A00000082FF1FED48000006
:104BB00075490000314A0000054B0000D08EFF1FF0
:104BC000094B03EBC0035A6872B6136823F087736E
:104BD00023F4803343F080731360044B002243F8C6
:104BE000202062B6704700BF7CAF0000D08EFF1F50
:104BF000044B054900221A600A60044A1060102222
:104C00001A60704714D0034004D0034000D0034022
:104C1000212810B518D80D4A52F8303093F8804248
:104C20003CB1012211B183F8802010BD83F800212E
:104C300010BD02EBC00043681A6811B142F00302D4
:104C400001E022F002021A6010BD00BF7CAF00003C
:104C5000212806D8044B53F8303093F80002C0B234
:104C600070470020704700BF7CAF0000212810B5BE
:104C700037D81C4A02EBC00301295B68144601D0F7
:104C800004290FD154F83020012082F880024FF41B
:104C9000A2721A601A6804290CBF42F0200222F0A6
:104CA00020021DE052F83020002082F8800211B16D
:104CB0008A1E012A12D84FF4807202291A6003D189
:104CC0001A6842F003020BE003290AD11A6842F085
:104CD00002021A601A6822F0010201E040F2031297
:104CE0001A6010BD7CAF000072B60C4B0C491A68FC
:104CF0000C4B1B68096862B6490102D5322A88BF8D
:104D00000133C2F58C32482102F23F12B2FBF1F2BC
:104D10004FF47A7000FB0320704700BF18E000E0FA
:104D200004ED00E0588FFF1F38B50446FFF7DCFFA5
:104D3000054624B938BD013C0AD005F57A75FFF760
:104D4000D3FF401BB0F57A7FF5D200F0E9FDF6E71E
:104D500038BDFFFF204B4FF4000210B51A604FF032
:104D600080721A604FF000721A604FF080621A6011
:104D70004FF000621A60194B194A1A4C002048F68D
:104D8000FF71186059602823136093601361936169
:104D900013629362136393630922226004F58054C3
:104DA000043420606160A360236144F8042C04F59E
:104DB000FE2420600C4801600C490B608B600C4B9A
:104DC0001A6000F06BFF4FF4C870FFF7ADFFBDE84D
:104DD000104000F0D7BB00BF08E100E004800340B2
:104DE0000C8003400080034008800B400C800B4087
:104DF00000800B40F0B50C4B0C4C1A7842F00205C9
:104E000004EBC50682F00102706009481A7006784A
:104E1000002E0CBF8827C82786F0010647EA01410B
:104E2000067044F83510F0BDC48FFF1F0080FF1FCF
:104E30003C90FF1F431E032B10B510D872B6094AD1
:104E400052F8230048B1416842F82310064A01880D
:104E500032F81340611A22F8131062B610BD002018
:104E600010BD00BFB48FFF1F2492FF1F013803281D
:104E70000AD872B6054B53F82030002013B1013028
:104E80005B68FBE762B67047002070470890FF1F21
:104E900010B572B60123174A1A4412F8012C1207F2
:104EA0001CD59900144A52F831402CB902EB431337
:104EB00008305860114B09E041F0010152F83140CF
:104EC00064B902EBC103083058600D4B42F8313031
:104ED0000C4B1A78013A1A7062B610BD0133052BDB
:104EE000D9D162B6074B00221A70BDE8104000F01D
:104EF000C7BB00BFD8B100000080FF1F8800400082
:104F0000C80040003290FF1F431E032B30B532D83B
:104F1000194A400140F01000104472B6174CE25C90
:104F2000032A09D8DFE802F0160218050830022229
:104F300013E00830042210E01148124A50F82340D0
:104F400014B940F8231002E052F82300416042F8FF
:104F500023100FE0032200E00522E25410F0080FB6
:104F600001F108030A8843600CBF8823C82343EA81
:104F70000243036062B630BD0080FF1F708FFF1FC9
:104F80000890FF1F1890FF1F2DE9F84FAB4F3C789A
:104F9000E4B214F0040F3D4619D0A94B1B78A3B11D
:104FA000A84A117801F0FF0321B1013BDBB2137075
:104FB00003B900BEA44A117801F0FF0329B1013BF7
:104FC000DBB213700BB900F087FC04233B7004F0D4
:104FD000080303F0FF02002B00F067829B4B9C4C00
:104FE0001A78D2B215094FEA920840F0E48104EB36
:104FF000C803596854F83830C3F38303013B0C2BC2
:1050000000F2D681DFE813F095019501D401D401B7
:10501000D401D401D401D401B001D401D401D4010C
:105020000D008C4D0A684B688B486B6001218B4BDF
:1050300044F838302A60DFF85082017092B240F2B2
:10504000816000238242C8F800302361A36117D831
:10505000B2F5D06F80F01E81B2F5817F00F0CF8075
:1050600006D8802A00F0BA80822A00F0BB8031E1A5
:1050700040F202339A4200F0D180B2F5A06F1CE0FA
:1050800042F22100824200F051810ED8B2F5086F41
:1050900000F09E80B2F5106F40F01C81684B6C4EA2
:1050A000AA781A7006F180090AE042F221218A42A8
:1050B00000F0088142F221339A4200F00F8109E1A9
:1050C000336A1B0603D5706A083800F0D9FA08362F
:1050D0004E45F5D10026B146DFF8B0A156F80A00DA
:1050E00028B1D0F804B000F0CBFA5846F8E74AF8F7
:1050F00006005B4BDFF898A1F05056F80A0028B183
:10510000D0F804B000F0BCFA5846F8E7554B4AF81E
:105110000600F050544B23F81900544B19F80320A3
:10512000023A032A08D8DFE802F00204020400224F
:1051300000E0012203F8092009F10109B9F1040F87
:1051400006F10406C8D14A4B00221A7001269A467D
:10515000484A494B3244334412F8012C9B0012F068
:10516000080F1A704FEA860925D000F06BFA38B1A3
:1051700004EB461308305860404B44F8393006E0E1
:105180009AF8003044F8390001338AF8003000F012
:1051900059FA49F0010338B104EBC30208305060FA
:1051A0002E4A44F8332006E044F833009AF80030E1
:1051B00001338AF8003049F00202013649F0030950
:1051C0000023052E44F8323044F83930C0D186E04F
:1051D0001B4B2B4C1B7823700B4683E0284C237011
:1051E00063707EE0AA88042A74D8254C920023704C
:1051F0006370244B9B5C9E0773D5217071E0AA8875
:1052000002F07F02042A65DC6B88002B62D19100DA
:105210001C4A0A44117821F0020159E0AA8802F0E0
:105220007F02042A56DC6B88002B53D19100154A6B
:105230000A44117841F002014AE000BF8020074093
:105240003B90FF1FC58FFF1F5090FF1F902007400E
:105250000080FF1F2890FF1F3C90FF1FC8004000E8
:10526000608FFF1F1890FF1F2492FF1F708FFF1F7A
:105270003290FF1FD8B1000030C8011088004000F4
:105280003390FF1FC02007405C8FFF1FB48FFF1FAC
:105290000890FF1F6A88A9889F4B53F8084CA3F118
:1052A0000C00BCB133F80C6C964209D133F80A6C8F
:1052B0008E4205D1120A032A0CBF2378038911E01C
:1052C0000C33EAE7954A1168954A1160A978954A26
:1052D000117004E0944B0F221A7027E000231C4643
:1052E00000E00223EE88B34238BF1E46402E34BF92
:1052F0003546402520462946FFF77CFD761B2C4489
:1053000003D1402D12D1354603E0402E34BF35463F
:10531000402520462946FFF76DFD761B2C4401D120
:10532000402D03D1814AC8F8004016800122804BED
:105330003DE0804B1A8842F221039A4210D10023AB
:105340007D4AC85C98540133072BF9D11368862B2A
:1053500002D17A4B0F221A7000200146FFF74AFD56
:10536000774B44F8383023E0764E3568B5B1DFF836
:10537000BC81B8F80090B9F1400F34BF4C464024CE
:1053800028462146FFF736FDC4EB09039BB2A8F877
:1053900000300BB9402C00D12B193360654B1A88B3
:1053A000B2F5A06F04D100225A709A78664B1A7039
:1053B00001225F4B6CE004EBC806013D736802F00C
:1053C0000802A3F10800EDB202F0FF01002A36D076
:1053D00000F056F95D485E4B50F82520EAB151685F
:1053E00040F8251002F108017160595D03290BD8BE
:1053F000DFE801F002040608032104E0022102E0D4
:10540000052100E00421595516F0080F12880CBF41
:105410008823C82343EA024342E05A5D032A07D89F
:10542000DFE802F040400204002206E0012204E02E
:1054300016F0080F0CBF022203225A5532E054F82E
:105440003820120C23F8082C22B3DFF834E123F8BB
:10545000061C43F8041C5EF825303E4913B94EF88B
:10546000250002E051F8253058603B4B41F82500FB
:1054700033F815100A4423F8152000F0E3F810B1B2
:105480000830706006E0354B44F838001A78013275
:105490001A7007E02A4B324A16F0080F08BF13466D
:1054A00044F8383008233B7070E5E0071FD52049E9
:1054B0002B482C4C02230B702B4B1A702B4B186073
:1054C00098602B48D8601A619A615C60164B0D2079
:1054D00018702848FF2303702B700274264A13703B
:1054E000264B9F221A7001230B70BDE8F88F21060E
:1054F00004D50D4B0D221A7080232B70A20705D501
:105500001C4B1A78D2B21A7002232B70E30644BFE8
:1055100010232B70BDE8F88FE8B10000588FFF1FF3
:105520003492FF1F6090FF1FC02007403090FF1F84
:10553000942007402890FF1F2C92FF1FC58FFF1F4C
:10554000C80040005C8FFF1F982007400890FF1F95
:10555000708FFF1F608FFF1F2492FF1F3290FF1F6D
:1055600088004000748FFF1FC48FFF1F0080FF1F43
:10557000C88FFF1F882007408C20074084200740E9
:10558000B48FFF1F08B501F0C3FC00221A4B0021A5
:10559000D15098180832882A4160F7D1174A10680C
:1055A00040F48020106002F528326832C3F30720EF
:1055B0001070C3F307401B0E10751376FF2302F81B
:1055C0001C3C02F8143C02F88C3C012302F8083C15
:1055D00082F8641002F8183C094B70226FF4507185
:1055E0001A700B444FF400721A6003F1C04303F5C4
:1055F000C82310221A7008BD0080FF1F34800440A9
:1056000049E400E000F0A0B800F05CB800F080B819
:1056100000F034B900F0A6B8084600F023B90846F7
:10562000114600F0B7B87047044B00221A714FF4CE
:105630007A711A73024A99601A6070474090FF1F8E
:1056400098B0000072B60C4A1168B1FA81F30B2BC6
:1056500002D962B6002070474FF00040D84021EADE
:105660000001116062B6054948225343C818002260
:10567000CA504260704700BF4C8CFF1F0084FF1F60
:105680000C4B4822C31AB3FBF2F30B2B11D80A4A76
:10569000127822B1094A12780AB1FFF7F9BB72B643
:1056A000074A4FF0004121FA03F3116819431160D2
:1056B00062B670470084FF1F3290FF1F3B90FF1FB0
:1056C0004C8CFF1F10B5104C23686BB120684288CA
:1056D000531C0244147A0288934212D3FFF7D0FF7E
:1056E000094B00221A600DE0084B1B7813B94FF0EC
:1056F000FF3010BD0320FFF79DFB20600028E5D19F
:10570000F5E74380204610BD5C90FF1F3B90FF1FD4
:1057100010B50B4C236813B123686BB902E0094B39
:105720001B7813B94FF0FF3010BD0320FFF782FB49
:1057300020600028F0D1F5E75A881344187A10BD8C
:105740005C90FF1F3B90FF1F044B9888044B1B6825
:105750001BB11A885B88D31A184470472492FF1F24
:105760005C90FF1F10B5094B1B786BB1084C20688B
:1057700018B1FFF785FF002323600320FFF75AFBD2
:1057800010B1FFF77DFFF8E710BD00BF3B90FF1F92
:105790005C90FF1F2DE9F8432D4E012307460C4670
:1057A0003370002C4FD02B4D2B68A9462BBB48F6ED
:1057B0000148294B1B7803F0FF020BB9327015E04A
:1057C0000420FFF753FB072808D801233370FFF7A5
:1057D00039FFC9F8000080B91D4B1870B8F10108F5
:1057E0001E4B01D01A782AB101221A704FF0FF30F7
:1057F000BDE8F88300F094F8DBE72968174A488889
:1058000000231370C0F14002944238BF224600F1D9
:10581000080C10448C444880A41A934204D0F85CCD
:105820000CF803000133F8E71F444B883F2B06D9DF
:1058300040230B800420FFF767FB00232B60084BFD
:1058400005221A70ADE734702046BDE8F88300BF2A
:105850005190FF1F5490FF1F3B90FF1F5890FF1F58
:105860005090FF1F07B502AB012103F8010D184648
:10587000FFF790FF03B05DF804FBFFFF2DE9F04157
:10588000114B1B78F3B1114E114B3468114D0127A8
:105890001F7098464CB1002763882F700420238026
:1058A0002146FFF731FB376009E0FFF7CBFE0146E9
:1058B00020B104202C70FFF727FB00E02F7000239D
:1058C00088F80030BDE8F0813B90FF1F5490FF1F27
:1058D0005190FF1F5090FF1F38B50E4B1B7803F0FF
:1058E000FF05ABB90C4C216831B14B880B8004200B
:1058F000FFF70AFB256038BDFFF7A4FE014620B183
:105900000420BDE83840FFF7FFBA044B01221A70AB
:1059100038BD00BF5190FF1F5490FF1F5090FF1FD4
:1059200010B50E4C2378BBB901232370FFF70CFF91
:1059300008B1FFF778FE00F053FC08B100F08AF8D8
:1059400000F088FF08B100F00FF901F015FA08B176
:1059500000F094F90023237010BD00BF6190FF1F79
:1059600008B50368C9B21B68984708BD08B5036845
:10597000C9B21B68984708BD08B50368C9B21B685F
:10598000984708BD08B50368C9B21B68984708BDA9
:10599000034800EB5100B0FBF1F000F0DBB900BFB1
:1059A0000044950810B5064800EB51001446B0FBC2
:1059B000F1F000F0CFF92046BDE8104000F02EBA1B
:1059C0000044950800F054BA084600F085BA08462D
:1059D00000F0D4BA0846114600F09ABA08B5084655
:1059E00000F0F2FA003018BF012008BD08B50846E3
:1059F00000F00CFB003018BF012008BD00F0F0BB28
:105A000000F028BC00F0FCBB00F0CEBB00F03ABCBC
:105A100000F0D4BB08B5084600F01EFB012008BD0D
:105A200008B5084600F018FB012008BD10B508466F
:105A30001446114600F05AFB204610BD38B5084602
:105A40000D4604F035FC04462146284600F04EFB86
:105A5000204638BD7047FFFF044B00221A714FF4F7
:105A60007A711A73024A99601A6070476490FF1F36
:105A7000C0B0000008B50368C9B21B68984708BDEC
:105A800008B50368C9B21B68984708BD08B5036824
:105A9000C9B21B68984708BD08B50368C9B21B683E
:105AA000984708BD034800EB5100B0FBF1F000F04F
:105AB00091BC00BF0044950810B5064800EB5100AA
:105AC0001446B0FBF1F000F085FC2046BDE8104024
:105AD00000F0E4BC0044950800F00ABD084600F060
