:1000000000800020BD010000A95300006D530000D6
:100010006D5300006D5300006D5300006D530000E0
:100020006D5300006D5300006D530000A953000094
:10003000A95300006D530000A95300005D53000058
:10004000A9530000A9530000A9530000A9530000C0
:10005000A9530000A9530000A9530000A9530000B0
:10006000A9530000A9530000A9530000A9530000A0
:10007000A9530000A9530000A9530000A953000090
:10008000A9530000A9530000A9530000A953000080
:10009000A9530000A9530000A9530000A953000070
:1000A000E12B0000F12B0000A9530000A953000030
:1000B000A9530000A9530000A9530000A953000050
:1000C000A9530000A9530000A9530000A953000040
:1000D000A9530000A9530000A9530000A953000030
:1000E000A9530000A9530000A9530000A953000020
:1000F000A95300007D720000A9530000E1790000BF
:10010000A95300005D7F0000A9530000A95300001F
:10011000A9530000A9530000A9530000A9530000EF
:10012000A9530000A9530000A9530000A9530000DF
:10013000A9530000A9530000A9530000A9530000CF
:10014000A9530000A9530000A9530000A9530000BF
:10015000A9530000A9530000A9530000A9530000AF
:10016000A9530000B55B0000A9530000A95300008B
:10017000A9530000A9530000A9530000A95300008F
:10018000A9530000A9530000A9530000A95300007F
:10019000A9530000A9530000A9530000A95300006F
:1001A000A9530000A9530000A9530000A95300005F
:1001B000A9530000A9530000A9530000574B4CF26B
:1001C000205210B51A804DF628121A8000BF00BFC9
:1001D00005F0EEF8524B4FF010621A60514A9A60E7
:1001E000514ADA60A3F53043203B1A6812F480725A
:1001F00004D14E490A604FF4A8521A604C4B1A7849
:10020000110703D51A7842F008021A70494B4A4C7C
:100210004A482A221A704A4A00239918A14203D256
:10022000195899500433F8E7464B474900228B424E
:1002300002D243F8042BFAE74448454900235A58B0
:100240001A500433B3F5DE7FF9D1424B424A802184
:1002500003F8011B9342FBD1404B3C4A1A60404BD0
:100260008A221A70A3F5805324225A70A0221A7091
:100270009A799207FCD59A79D406FCD4394A9379B5
:1002800003F00C03082B374BF9D103221A714022DB
:100290005A719A799006FCD5324A9179314B4906C8
:1002A000FBD5314A314911600221516020221A7078
:1002B0009A7902F00C020C2AFAD12D4B2D4A1A60C1
:1002C0002D4B2E4A1A6000225A60072243F8042C54
:1002D0002B4AC3F80C2D62B605F02CFB134B1B68A0
:1002E000DA0705D5274805F05BFA274B274A1A603D
:1002F000274B1B785B0609D5234C244A236893427D
:1003000004D1204805F04CFA002323600BF032FAA8
:1003100005F054F806F02AFAFEE700BF0E2005406B
:1003200030800440823F04000100002B14D00340C1
:1003300002D0074000E007403C95FF1F68D700004F
:100340006087FF1F3C95FF1F509AFF1F0082FF1F11
:100350000000000000E400E05FE400E008ED00E0E1
:100360000050064000400640448004400000030165
:1003700004800440C010050014E000E0FF76010096
:1003800000002020DC47BC031CE00340A5C3945AB6
:1003900000F00740FFFFFFFFFFFFFFFFFFFFFFFF32
:1003A000FFFFFFFFFFFFFFFFFFFFFFFFFFFFFFFF5D
:1003B000FFFFFFFFFFFFFFFFFFFFFFFFFFFFFFFF4D
:1003C000FFFFFFFFFFFFFFFFFFFFFFFFFFFFFFFF3D
:1003D000FFFFFFFFFFFFFFFFFFFFFFFFFFFFFFFF2D
:1003E000FFFFFFFFFFFFFFFFFFFFFFFFFFFFFFFF1D
:1003F000FFFFFFFFFFFFFFFFFFFFFFFFFFFFFFFF0D
:10040000FFFFFFFFFFFFFFFFFFFFFFFFDEF9FFFF23
:1004100010B5054C237833B9044B13B10448AFF33E
:1004200000800123237010BD3C95FF1F00000000D9
:1004300060D7000008B5064B1BB106480649AFF36C
:1004400000800648036813B1054B03B1984708BD07
:100450000000000060D700004095FF1F3C95FF1F83
:100460000000000038B505460C4608460CF026F89A
:1004700002462B685B6828462146984738BD00BF76
:1004800038B504460D4608460CF018F802462368B5
:100490005B682046294698470546204606F076F9CF
:1004A000284438BD30B583B005469DF8181000913A
:1004B00006F0C2F90446284606F068F9204403B065
:1004C00030BD00BF2DE9F043ADB0964C20464FF44F
:1004D000FA6102F063FC204693494FF4164202F0A1
:1004E00039FC204602F030FC606B03685B688F4982
:1004F000112298470A2005F007FA20460021012220
:1005000002F0A0FC8A4B1869597B002400940194E6
:100510000294884B0393012504952246234601F05B
:10052000E9FB41F2883005F0EFF90D20294605F08E
:1005300079F90D20214605F043F904F08DFC7E4841
:1005400004F0DAFD7D4804F0CBF97D4802F086FE28
:100550007C4B1B78002B5ED1784C204604F028FAA7
:10056000204604F03BFA204604F05EFA764F20461F
:1005700039884A222B4604F06BFA744E20463188A3
:100580004A22032304F064FA714D204629884B2245
:10059000012304F05DFA28206421002204F0E8FC25
:1005A00028205421002204F0E3FC204649210022A7
:1005B00004F0DAFA20464FF47A710822CA2304F0D4
:1005C00091FA20464FF4FA610022CB2304F08AFA14
:1005D000204639884A22012304F03AFA204631881D
:1005E0004A22032304F034FA204629884B220123AF
:1005F00004F02EFA28206421002204F0B9FC2820FF
:100600005421002204F0B4FC204604F0EBFA20460A
:1006100004F0D4FBFFE1484804F0FCFD04F01CFCAE
:100620000CAB0093502000210A46802304F0BEFC4E
:100630003D4C23685B682046464915229847204672
:1006400006F0A4F820469DF830101022002306F092
:10065000ADF823685B6820463F4910229847204642
:1006600006F094F820469DF831101022002306F081
:100670009DF823685B682046384910229847204639
:1006800006F084F80DF12F050DF1AF081027344E58
:10069000204615F8011F3A46002306F087F8236824
:1006A0005B6820463146012298474545F0D10D2030
:1006B000012105F0B7F80D20012105F081F81A4C51
:1006C00023685B68204627491F229847204606F08A
:1006D0005DF86820752104F0A9FC0546712849D011
:1006E00023685B68204620490822984723685B6896
:1006F00020461E49052298472046294610220023FD
:1007000006F054F823685B68204619490D22984783
:10071000204671211022002306F048F8204606F0FA
:1007200035F878E15496FF1F3098FF1F4CC8000041
:100730004096FF1F801A06009095FF1F9495FF1F9B
:10074000F495FF1FE095FF1F2896FF1F9C95FF1F44
:10075000B895FF1F60C8000078C800008CC8000072
:10076000F0CB0000A0C80000C0C80000CCC800004A
:10077000D4C80000A94C2046A949FFF781FEA94F23
:10078000384606A902F00CFF384603F06DF83846EB
:1007900003F04CF8384603F037F82046A249FFF73B
:1007A0006FFEA24EDFF8C88238463146424603F05B
:1007B00075F820469E49FFF763FED8F800009D4972
:1007C0000AF0FAFA09F08CFE02460B460225009563
:1007D0002046FFF767FED8F8040096490AF0ECFAC5
:1007E00009F07EFE02460B4600952046FFF75AFEB2
:1007F000D8F808008F490AF0DFFA09F071FE0246C6
:100800000B4600952046FFF74DFE20468A49FFF72C
:1008100037FE306809F064FE02460B46009520461C
:10082000FFF740FE706809F05BFE02460B4600953C
:100830002046FFF737FEB06809F052FE02460B462D
:1008400000952046FFF72EFE4FF47A7005F05CF815
:10085000384602F093FD20467849FFF711FE6820E4
:100860003721222204F084FB04F0F6FA0C20002148
:1008700004F0DCFB064620467149FFF7F3FD2046F5
:100880007049FFF7EFFD204631461022002305F0A6
:100890008DFF6D4E20463146FFF7E4FD204648218E
:1008A0001022002305F082FF204605F06FFF4FF471
:1008B0007A7005F029F83846394602F0B7FD20462F
:1008C0006249FFF7DDFDDFF8AC91DFF8AC81384617
:1008D0004946424603F06AF920465D49FFF7D0FDDC
:1008E000D9F8000009F0FCFD02460B4600952046B1
:1008F000FFF7D8FDD9F8040009F0F2FD02460B46D7
:1009000000952046FFF7CEFDD9F8080009F0E8FD74
:1009100002460B4600952046FFF7C4FD20464D4990
:10092000FFF7AEFDD8F8000009F0DAFD02460B46ED
:1009300000952046FFF7B6FDD8F8040009F0D0FD79
:1009400002460B4600952046FFF7ACFDD8F808009C
:1009500009F0C6FD02460B4600952046FFF7A2FDB2
:100960004FF4FA6004F0D0FF20463B49FFF77AFDD0
:1009700020463A49FFF776FD386809F0B1FD024696
:100980000B460095204605F057FF20463449FFF7F7
:1009900069FD786809F0A4FD02460B4600952046E3
:1009A00005F04AFF20462F49FFF75CFDB86809F0C3
:1009B00097FD02460B460095204605F03DFF4FF49B
:1009C0007A7004F0A1FF7620D02104F02FFB0546B9
:1009D00020462549FFF746FD2046294610220023E0
:1009E00005F0E4FE20463146FFF73CFD2046582145
:1009F0001022002305F0DAFE4FF47A7004F084FF31
:100A00007620E021B62204F0B3FA642004F07CFFE3
:100A1000164802F027FA2DB0BDE8F0833098FF1F8A
:100A2000E4C80000F495FF1FFCC80000AC95FF1F50
:100A300018C9000000007A442CC9000040C9000019
:100A400070C90000CCC80000D4C8000078C90000FC
:100A5000A4C90000BCC90000D4C90000F4C900004A
:100A6000FCC9000004CA00000CCA00008895FF1FE2
:100A7000D495FF1FE895FF1FA095FF1FFFFFFFFF05
:100A80002DE9F04FA1B0A14B1B680F930F9B33B919
:100A90009E4B1B681093109B012B40F29F869B4B33
:100AA0001B681193119B9A4A13609A4A12689A42E2
:100AB00002D9984A13602DE09A1AF92A2AD9954A40
:100AC0001360954C204602F03FF9606B03685B6849
:100AD000924907229847606B03685B68904901223E
:100AE0009847606B894B1B68129312990A22002366
:100AF00005F05CFE606B03685B688A4908229847D2
:100B0000052004F001FF0A2004F0FEFE204601212A
:100B100002F06CF9844B1B78002B40F041812820B7
:100B2000352104F083FA044610F0020F5DD028202E
:100B3000502104F07BFA0546002856D07B4E3368DE
:100B40005B6830467A4918229847304629460A227F
:100B5000002305F02BFE304605F018FE112D06D1BE
:100B6000304633685B6873491522984711E0122DAF
:100B700006D16E4803685B686F491622984711E0FA
:100B8000142D06D1694803685B686C490D229847AB
:100B900011E0212D06D1654803685B68684924226D
:100BA000984711E0222D06D1604803685B686549CB
:100BB0002522984711E0242D06D15C4803685B6824
:100BC00061491C22984710E0302D06D15748036830
:100BD0005B685E490B22984707E0802D05D153489A
:100BE00003685B685A491422984714F0100F20D00C
:100BF000584D594829461A2204F05EFBB5F9000009
:100C00000AF086F855490AF0D7F8554B1860B5F93F
:100C100002000AF07DF851490AF0CEF8514B1860F5
:100C2000B5F904000AF074F84C490AF0C5F84E4BC7
:100C3000186014F0200F20D04C4D4748294622223E
:100C400004F03AFBB5F900000AF062F848490AF0EE
:100C5000B3F8484B1860B5F902000AF059F8444956
:100C60000AF0AAF8444B1860B5F904000AF050F8ED
:100C70003F490AF0A1F8414B186014F0080F20D04A
:100C80003F4D35482946122204F016FBB5F9000005
:100C90000AF03EF83B490AF08FF83B4B1860B5F973
:100CA00002000AF035F837490AF086F8374B186029
:100CB000B5F904000AF02CF832490AF07DF8344BFB
:100CC000186014F0040F03D02348324904F014FBD9
:100CD00014F0400F00F00E811F4C20462A2104F032
:100CE0002BFB0AF015F82C490AF066F82B4909F09D
:100CF0005BFF089020462E2104F01EFB0AF008F846
:100D000025490AF059F80746F6E000BF3897FF1F5B
:100D1000D095FF1F8C95FF1F5496FF1F1CCA000023
:100D200024CA000028CA0000E095FF1F3098FF1F6A
:100D300034CA000050CA000068CA000080CA00001F
:100D400090CA0000B8CA0000E0CA000000CB000052
:100D50000CCB00002096FF1F9095FF1F40DAFF3953
:100D60007C95FF1F8095FF1F8495FF1F5C95FF1FDB
:100D700008AC1C3E9895FF1F5895FF1F6495FF1FF8
:100D80006C95FF1F07409C3E6895FF1FBC95FF1F99
:100D90007495FF1FC095FF1F0AD7233C00507D4468
:100DA000454C464D204629463B2202F0EBFFE769C1
:100DB000B5F9000009F0ACFF394609F0FDFF404EDF
:100DC000316809F0EFFE3F4B1860B5F9020009F0F9
:100DD0009FFF0146384609F0EFFF716809F0E2FE17
:100DE000394B1860B5F9040009F092FF0146384606
:100DF00009F0E2FFB16809F0D5FE344B1860344DBC
:100E000020462946432202F0BDFF266AB5F90000BC
:100E100009F07EFF314609F0CFFF2E4B1860B5F97F
:100E2000020009F075FF0146304609F0C5FF2A4B64
:100E30001860B5F9040009F06BFF0146304609F06F
:100E4000BBFF264B1860264D2046294602F082FE45
:100E5000676AB5F9000009F05BFF394609F0ACFF9D
:100E6000216809F0A9FF1F4E316809F09BFE1E4B57
:100E70001860B5F9020009F04BFF0146384609F049
:100E80009BFF616809F098FF716809F08BFE174BB2
:100E90001860B5F9040009F03BFF0146384609F037
:100EA0008BFFA16809F088FFB16809F07BFE104B49
:100EB0001860002708971FE0F495FF1F2096FF1F7A
:100EC000D495FF1F7C95FF1F8095FF1F8495FF1F02
:100ED0005C95FF1F9895FF1F5895FF1F6495FF1F96
:100EE0006C95FF1FE895FF1F6895FF1FBC95FF1FBE
:100EF0007495FF1F0027089704F0E4FC06469A4DFE
:100F00002868301A09F000FF98490AF009F80446E9
:100F10002E60974D2868214609F046FE2860954BC3
:100F20001B6803F10048944B1E6806F10046934B82
:100F30001D68934B1868934909F03EFF924909F0E8
:100F4000EFFF0090914B18688E4909F035FF8E49EC
:100F500009F0E6FF01908E4B186800F100408949C6
:100F600009F02AFF884909F0DBFF0290894B1B68D2
:100F70000393894B1B680493884B1B680593069465
:100F80008748414632462B4602F01CFF854B1B68C2
:100F90001393139BB3F5FA7F40F22784824C2368A6
:100FA0005B682046814909229847734B186880493D
:100FB00009F002FF09F094FA02460B46022500955B
:100FC000204605F039FC23685B68204679490A22EF
:100FD0009847684B1868764909F0EEFE09F080FAE8
:100FE00002460B460095204605F026FC23685B6808
:100FF000204671490A229847604B18686C4909F0ED
:10100000DBFE09F06DFA02460B460095204605F01E
:1010100013FC23685B6820466849032298472046F2
:1010200005F0B4FB23685B682046654908229847B1
:10103000564B186809F054FA02460B4600952046B4
:1010400005F0FAFB23685B6820465E490922984751
:101050004B4B186809F044FA02460B4600952046AF
:1010600005F0EAFB23685B68204657490922984748
:10107000474B186809F034FA02460B4600952046A3
:1010800005F0DAFB23685B68204650490622984742
:10109000204605F07BFB23685B6820464C4907220D
:1010A00098473C4B18680AF04DF80146204605F079
:1010B000B9FB23685B682046464908229847364BAF
:1010C00018680AF03FF80146204605F0ABFB23689C
:1010D0005B682046404908229847304B18680AF060
:1010E00031F80146204605F09DFB23685B682046E9
:1010F0003A4903229847204605F048FB23685B687D
:101100002046374915229847204605F03FFB2368C3
:101110005B682046334905229847214EF06809F064
:10112000DFF902460B460095204605F085FB236853
:101130005B6820462C4906229847306909F0D0F9AF
:1011400002460B460095204605F076FB23685B6857
:101150002046264906229847706909F0C1F90246DF
:101160000B46009544E000BF7895FF1F00247449AA
:10117000E495FF1F8095FF1F7C95FF1F8495FF1F3F
:101180005895FF1FDB0F4940000034439895FF1F1F
:101190006495FF1F6895FF1FBC95FF1F7495FF1F87
:1011A000F495FF1F3897FF1F3098FF1F24CB0000D6
:1011B00000007A4430CB00003CCB000048CB00005C
:1011C0004CCB000058CB000064CB000070CB00007B
:1011D00078CB000080CB00008CCB000098CB0000C7
:1011E0009CCB0000B4CB0000BCCB0000C4CB000003
:1011F000204605F021FB23685B682046A5490622AE
:101200009847B06909F06CF902460B4600952046F4
:1012100005F012FB204605F0B9FA23685B6820460A
:101220009D4915229847204605F0B0FA23685B686F
:1012300020469A4905229847994E306809F050F99E
:1012400002460B460095204605F0F6FA23685B68D7
:101250002046944906229847706809F041F90246F1
:101260000B460095204605F0E7FA23685B682046A8
:101270008D4906229847B06809F032F902460B46BC
:101280000095204605F0D8FA23685B682046874918
:1012900006229847F06809F023F902460B460095AC
:1012A000204605F0C9FA204605F070FA804B1B78FD
:1012B000D3B1804C204601F095FE0146204601F056
:1012C000CFFE09F021FD7C4909F02AFE0890204656
:1012D00001F072FE0146204601F09AFE09F018FD69
:1012E000764909F01DFE074614A8754905F0C4FBB0
:1012F000744C204614A903F019FA064614A805F008
:101300006FFB18A8704905F0B7FB204618A903F039
:101310000DFA054618A805F063FB1CA86B4905F0FB
:10132000ABFB20461CA903F001FA04461CA805F0FB
:1013300057FB3046664909F03FFD664909F034FC29
:101340000990002109F0D6FE20B10998624909F000
:101350002BFC099028465E4909F02EFD0A90204694
:101360005B4909F029FD0B904D4ED6F800A0D6F848
:101370000490D6F80CB0D6F808805046494609F0DB
:101380001BFD04465846414609F016FD014620461D
:1013900009F00AFC014609F007FC09F0A1F804462F
:1013A0000D465846594609F007FD834650465146BA
:1013B00009F002FD0146584609F0F6FB8246484610
:1013C000494609F0F9FC0146504609F0EBFB81461D
:1013D0004046414609F0F0FC0146484609F0E2FB70
:1013E00009F07EF802460B462046294607F0A8F889
:1013F00009F084FB82463068B16809F0DDFC0446E0
:10140000F068716809F0D8FC0146204609F0CAFB73
:10141000014609F0C9FB09F063F807F03DF809F04F
:101420006DFB00F1004BD6F80C90D6F80080756883
:10143000B4684846414609F0BFFC064628462146A6
:1014400009F0BAFC0146304609F0AEFB014609F04E
:10145000ABFB09F045F8CDE90C014846494609F0D7
:10146000ABFC06464046414609F0A6FC0146304624
:1014700009F098FB06462846294609F09DFC0146DE
:10148000304609F08FFB05462046214609F094FCC2
:1014900024E000BFCCCB0000D4CB0000ECCB00009C
:1014A000C095FF1FF4CB0000FCCB000004CC000073
:1014B000E095FF1F8895FF1F0000C8460000C84246
:1014C0000CCC0000F495FF1F10CC000014CC0000E1
:1014D000E02E6542CDCC5C410000B4430146284675
:1014E00009F062FB08F0FCFF02460B46DDE90C0147
:1014F00007F026F809F002FB06465046A04909F01D
:101500005BFCA04909F050FB8046002109F0F2FD88
:1015100020B140469C4909F047FB80469B4C23681C
:101520005B6820469A491B229847099808F0D8FF23
:1015300002460B4602250095204605F07DF92368FA
:10154000DFF894925B68204649462A4698470A98F5
:1015500008F0C6FF02460B460095204605F06CF9E0
:1015600023685B68204649462A4698470B9808F04E
:10157000B7FF02460B460095204605F05DF9204670
:1015800005F004F923685B68204682491B229847CE
:10159000404608F0A5FF02460B460095204605F0A0
:1015A0004BF923685B68204649462A4698475846C7
:1015B000734909F001FC08F093FF02460B460095C1
:1015C000204605F039F923685B68204649462A46DB
:1015D000984730466A4909F0EFFB08F081FF024660
:1015E0000B460095204605F027F9204605F0CEF879
:1015F00023685B682046684907229847204605F023
:10160000C5F82368654E5B68204631461822984726
:10161000384608F065FF02460B460095204605F067
:101620000BF923685B6820465D492A4698472046A7
:1016300005F0ACF823685B682046314618229847CD
:101640003846584909F0B8FB574909F069FC4FF092
:10165000844109F0A9FA08F043FF02460B460095C1
:10166000204605F0E9F823685B6820464F492A4682
:101670009847204605F08AF823685B6820464C4965
:1016800015229847089808F02BFF02460B46009554
:10169000204605F0D1F823685B68204645490522BD
:1016A0009847204605F072F80898434909F038FC3D
:1016B00008F016FF2EA3D3E9002306F043FF0646E9
:1016C0000F4623685B6820463C490B229847002060
:1016D0003B4932463B4608F0A3FD27A3D3E900234C
:1016E00008F052FF09F00AFA08F0FAFE02460B462B
:1016F0000095204605F0A0F823685B682046314934
:1017000005229847204605F041F823685B6820468B
:101710002D4901229847204605F038F823685B6878
:1017200020462A49072298474FF07E50284B1968D7
:1017300009F0F6FB08F0D4FE02460B460095204661
:1017400005F07AF823685B6820462249032298470F
:10175000204605F01BF80D2004F056F8D0F10101E9
:1017600038BF00210D2004F02BF83EE0AFF30080DD
:10177000000000E0395BC83F000000A0B3BE01419B
:10178000E02E6542CDCC5C410000B4433098FF1F91
:1017900018CC000038CC000054CC00005CCC000019
:1017A00078CC0000000010410000A0407CCC00007C
:1017B00080CC000098CC000000507D44A0CC0000FC
:1017C0000000F03FACCC0000F0CB0000B4CC000037
:1017D000E495FF1FBCCC000034CC0000044B1B7808
:1017E000002B7FF4DDAAFFF79AB921B0BDE8F08F96
:1017F000E095FF1FAFF3008038B5134D284601F088
:101800002DFB124C28461249224609F09DFF114D2E
:10181000284601F013FD28460F49224609F094FF9F
:101820000E4D284603F058F828460D49224609F087
:101830008BFF0C4D284603F05BFC28460A492246E4
:1018400009F082FF38BD00BF8895FF1F6087FF1F2A
:10185000612E0000F495FF1F593200009495FF1F80
:10186000DD4800009095FF1FF55000000369D3F894
:101870003801D3F83431C01A704700BF704700BF39
:101880000369D3F84422B2F5817F09D8D3F8442202
:10189000501CC3F84402134483F83C1101207047E4
:1018A000012303710020704730B40369D3F8444228
:1018B000B4F5817F1ED8D3F84442C4F58174013455
:1018C000D3F844522B4403F59E73944202D2012272
:1018D0000271224632B18D1811F8014B03F8014B09
:1018E000A942F9D10369D3F844121144C3F8441250
:1018F000104602E001230371002030BC704700BF96
:1019000038B50446084B0360036993F84822022A5D
:1019100008D1D3F864522DB1284604F00DFF2846B3
:1019200004F030FF204638BDC8CC000010B40022BF
:1019300002714FF47A7484600273064A0260417344
:101940004FF41B74044A04FB012101615DF8044B50
:10195000704700BFC8CC00006487FF1F70B5044605
:101960000D46C3681B7813F0200F40F0B6808368E3
:1019700080211970C3681221197090F84932012B27
:101980000BD022B9002380F84832012070BD531ECD
:10199000DBB2012B00F2A38000E0012225B94FF059
:1019A0008071504B196005E0012D03D14FF000719B
:1019B0004C4B1960022A40F08C80D4F864624EB916
:1019C000082004F0DBFE0646002104F057FEC4F8B0
:1019D00064627EB13379102B0CD1304604F0ACFE3A
:1019E000304604F0CFFE0023C4F86432012084F8AE
:1019F000480270BD002D30D133689A8B92B2998B1A
:101A000042F008029A83D4F86432197910313648CA
:101A1000364A42F821001A7953119B0003F16043C2
:101A200003F5614302F01F02012101FA02F21A607C
:101A3000D4F864321B689A8B92B2998B42F00202FE
:101A40009A83D4F864321B7903F1804303F504339D
:101A500000221A7096221A7033E0012D31D1D4F889
:101A600064321B689A8B92B2998B42F008029A8377
:101A7000D4F86432197910311D481C4A42F821000B
:101A80001A7953119B0003F1604303F5614302F09F
:101A90001F02012101FA02F21A60D4F864321B68B5
:101AA0009A8B92B2998B42F002029A83D4F86432F4
:101AB0001B7903F1804303F5043300221A70972247
:101AC0001A70002384F85A32022384F84832012025
:101AD00070BD012084F8480270BD002070BD012057
:101AE00070BD00BF00E100E0E12B00000082FF1F9D
:101AF000F12B000070B4254BA3FB0145AD092D026D
:101B0000A3FB02439B09B5FBF3F5B5F5A05F38DBFA
:101B10001F4A012302E00133382B05D052F8044F4D
:101B2000B5EB042FF7DA93B15A1E194C54F8226022
:101B3000A5EB0626002EB8BF764254F82340A5EB4D
:101B40000425002DB8BF6D42AE42D8BF134642688F
:101B5000104CE45C14700E4A52F82330B1FBF3F3DE
:101B6000C0F84C320C4B994203D9836904221A7095
:101B700009E08369094AA2FB0101C1F30751197009
:101B800001E00023E3E770BC704700BFD34D621053
:101B9000E0CC0000C0CD0000FF6BDC02819F5E1630
:101BA0002DE9F84F06460D4617461C469DF828308D
:101BB000002B00F08480C268127812F0200F75D1DB
:101BC0007DE0012F05D9012D73D1BA1E012A09D953
:101BD00002E04FF0010901E04FF00009B9F1000FF8
:101BE00002D169E04FF00109002B32D096F84B3258
:101BF000002B14BF4FF0020B4FF0000B96F84A3247
:101C0000032B26D8DFE803F0020B141D11205946E0
:101C100003F008FE1020594603F004FE19E01220DC
:101C2000594603F0FFFD1320594603F0FBFD10E079
:101C30001E20594603F0F6FD1D20594603F0F2FD23
:101C400007E01F20594603F0EDFD1A20594603F026
:101C5000E9FD8DB917B1012F07D00DE0214BC3F875
:101C60000080043BC3F8008019E01F4BC3F80080DC
:101C7000043BC3F8008012E0012D10D1022F08D0E0
:101C8000032F0CD1194BC3F800A00433C3F800A0F4
:101C900005E0174BC3F80080043BC3F8008086F8CA
:101CA0004A7286F84B424846BDE8F88F0020BDE8EE
:101CB000F88F0020BDE8F88F4846BDE8F88F002C6B
:101CC00040F203220CBF4FF41978904640F20362B1
:101CD00040F26461002C0CBF8A469246002D7FF4CE
:101CE00072AF6EE704A004400CA0044000D0044092
:101CF0002CB0044070B582B004469DF818000D4623
:101D000029B92F490E6846F040060E6006E0012909
:101D100004D12B490E6846F080060E6084F84922F3
:101D2000002184F851123AB9636920221A7022689E
:101D30001170E269117011E06269002837D12DE05D
:101D40005B00DBB21370E2694300DBB205E04000E8
:101D5000C0B21070E2695B00DBB213700023009325
:101D6000204629469DF81C209DF82030FFF718FFDB
:101D700020461449099AFFF7BDFE204629469DF8E2
:101D80002820FFF7EBFD94F849321BB9A3688022A5
:101D90001A7012E0A368C0221A700EE020211170A0
:101DA00022685B00DBB21370E2690023D5E72821CB
:101DB000117022689842C3D8C9E702B070BD00BF55
:101DC00034800440006CDC022DE9F04F83B0824681
:101DD0008B4690F84A32032B4BD8DFE803F02D30C6
:101DE00002051E261D242CE01F261A2429E0204669
:101DF000494603F0E5FC2B46013B7FF4FDAF20464E
:101E0000414603F0DDFC2B46013B7FF4FDAF30463D
:101E100003F0FAFC18B9013F17F0FF07E7D10021E2
:101E20008AF851129AF84A229AF84B320091504699
:101E30005946FFF7B5FE1CE01126102401E01226DA
:101E400013249AF84B32002B304614BF0221002194
:101E500003F0E8FC2046012103F0B2FC20460121FA
:101E600003F0E0FC0B274FF00009A0254FF001081C
:101E7000CDE703B0BDE8F08F2DE9F843054688466D
:101E80001646994603F01EFD0EB9D5F8686203F0B8
:101E900019FD0746AB681A7812F0200F0ED0B42255
:101EA0001A7032E0EC68247814F0200F06D1002379
:101EB00085F84932AB68B0221A7006E0002EF1D0E6
:101EC00003F000FDC01B8642ECD8AB681B7813F012
:101ED000200F0ED128464146FFF776FFEB681B78AE
:101EE00013F0200F05D1002385F84932AB68B022EA
:101EF0001A70AB681B7803F0200303F0FF0023B9CE
:101F0000042385F85132BDE8F88395F84832013B47
:101F1000DBB2012B38D803F05BFAB8F1000F03D025
:101F2000B8F1010F03D005E01A4B1B7804E01A4BFF
:101F30001B7801E0174B1B78834228DB0F2804DC59
:101F4000012089F80000BDE8F883B8F1000F03D044
:101F5000B8F1010F08D00FE0A0F11002D2B20D4B82
:101F60001A700120BDE8F883A0F11002D2B20A4B2A
:101F70001A700120BDE8F883A0F11002D2B2054B1F
:101F80001A700120BDE8F8830120BDE8F883012024
:101F9000BDE8F88318E400E019E400E003694900B3
:101FA00083F83C1103690122C3F844220023037122
:101FB000026982F8513270472DE9F04383B005463B
:101FC00014461F4600238DF80730D0F84432002B0A
:101FD00000F0C7800FB9D0F86872EB6812221A704F
:101FE00028463A460DF10703FFF746FF002800F0A8
:101FF000B88095F848321BB19DF80720002A53D0CD
:1020000003F060FC8146012385F8513285F8504287
:1020100000264FF002082AE02B69AA1992F83C2109
:102020001A70EC68217811F0020FFBD084F8008060
:10203000EB681978C9B211F0100F08D0072285F8A3
:10204000512210221A70AB6880221A7089E011F0B8
:10205000010F0BD01EB9052385F8513202E006238B
:1020600085F85132AB6880221A707AE00136D5F8D3
:1020700044329E4207D2002FCED003F023FCC9EB9E
:1020800000008742C8D8D5F84432B3428CBF04233D
:10209000002385F8513295F85032012BAB680CBF04
:1020A0008022B0221A705CE05A1ED2B2012A58D89F
:1020B000012285F8512285F850420022C5F84022BD
:1020C000022B14D1D5F84432042B18D80FE0136832
:1020D0009B6833B9136800210120187259729972F4
:1020E000D972136800221A765A769A76DA76AB6835
:1020F000F0221A702B6995F83C211A7031E0012307
:1021000085F85A32D5F8642205F59F70D5F8444217
:10211000033C11680B6800230860116801200871F6
:102120004B711168CB71116808724B728B72CB7254
:1021300011686042C8601068C18BA1B2C183126887
:10214000D08AD182D5F864222969106804690161B6
:1021500010680375437510688371B1F1804FB9D36E
:10216000B5E703B0BDE8F0832DE9F04383B0044642
:1021700016469DF828700B9D00208DF80700002B57
:1021800000F04D81B3F5827F03D3082384F85132E8
:1021900045E1C4F854320023C4F83431C4F838316E
:1021A0000DB9D4F86852E36812221A7020462A4604
:1021B0000DF10703FFF760FE002800F0308194F86E
:1021C000483223B19DF80720002A00F0958003F0E3
:1021D00079FB8046022384F8513284F850722369D7
:1021E000720042F00102D2B21A70E268137813F062
:1021F000020FFBD002231370E2681378DBB213F0F6
:10220000100F08D0072384F8513210231370A368ED
:1022100080221A7003E113F0010F06D0052384F821
:102220005132A36880221A70F9E0032384F85132F6
:10223000D4F85432012BA3680CBFA822A0221A7034
:1022400023691B780226002745E00B7813F0020F64
:10225000FBD00E70002D00F0AA8003F033FBC8EB1A
:10226000000085428CBF00230123D4F838110231CD
:10227000D4F85422914205D03BB194F8592222B9A6
:1022800000E03B46A26882F80090D4F83811013192
:10229000D4F85422914280F09F80002B00F091806E
:1022A00094F85922002A40F0AA808AE0042284F897
:1022B000512201E084F8517294F85022012A06D18B
:1022C0002022013A7FF4FDAFA2688021117023B172
:1022D000012384F859324FF0A809D4F83821D4F8F2
:1022E00054329A4280F09B8094F85132DBB2032B37
:1022F00040F09580E168A8E75A1ED2B2012A00F2A8
:102300008E80022284F8512284F85072934244D184
:10231000D4F85432042B40D9012384F85A32D4F82B
:10232000643221691868026800220160186802712D
:1023300042711868C271B1F1804F02D31A68926875
:1023400032B91A6800210120107251729172D17253
:102350001A680023137353739373D373D4F86422EE
:1023600004F13005D4F85402013811680F690D6189
:10237000116801250D754B7511688B7111680D720F
:102380004B728B72CB721368414299611368D98B7F
:1023900081B2D9831368DA8AD982A368F0221A70CD
:1023A0002369720042F00102D2B21A7037E0D4F809
:1023B00038210232D4F854329A423FF462AF3B469D
:1023C00063E722691178D4F83821501CC4F8380129
:1023D000224482F830107AE784F85972A268B0215A
:1023E000117022691178D4F83821501CC4F83801D2
:1023F000224482F83010002B3FF45CAF56E784F89B
:102400005972A268B021117022691178D4F838216C
:10241000501CC4F83801224482F8301046E703B05B
:10242000BDE8F083036993F85132043B042B0CD8C8
:10243000DFE803F0091005070300012070470320BF
:10244000704704207047042070470079003018BF9F
:10245000012070470220704790F8513213F0FF0FAF
:102460001BD090F85132DBB2052B18D090F85132C6
:10247000DBB2062B15D090F85132DBB2072B12D00D
:1024800090F85132DBB2042B0FD090F85102C0B259
:10249000082814BF00200120704701207047012048
:1024A000704701207047012070470120704700BF2E
:1024B00070B50446154603F005FA0DB9D4F8685214
:1024C00003F000FA06462046FFF7C6FF00283AD17F
:1024D000002DF8D003F0F6F9801B8542F3D803F005
:1024E000F1F9801B854210D894F84832022B0CD1A8
:1024F00094F85A3213F0FF0F07D02046FFF7ACFFD5
:102500000028FAD0042384F8513294F85132DBB217
:10251000012B09D094F85132DBB2022B04D094F88D
:102520005132DBB2032B02D1042384F851328023D1
:10253000013B7FF4FDAF94F8513213F0FF0F14BF4D
:102540000020012070BD002DDFD0C8E7F8B5074698
:102550000E461546069C084611461A462346FFF7C6
:102560002BFD304629462246FFF7A2FF3846FFF7EB
:1025700059FFF8BD70B582B004460D461E468BB1BA
:102580009DF8183000930799019129463346FFF7CB
:10259000EBFD20462946079AFFF78AFF20B1D4F8C1
:1025A000380102E0002000E0002002B070BD00BF52
:1025B000D0F83421D0F838319A4208D2D0F83431EA
:1025C0005A1CC0F83421184490F8300070474FF07E
:1025D000FF30704708B50069FFF7EAFF08BD00BF8C
:1025E000D0F83421D0F838319A423DBFD0F8343198
:1025F000C01890F830004FF0FF30704708B5006900
:10260000FFF7EEFF08BD00BF38B50446C268157875
:10261000EDB281680B78DBB213F0200F00F0C381BC
:1026200013F0100F00F0058190F85A32DBB2022B44
:1026300004D090F85A32DBB2032B4CD1D4F8641298
:102640000B689B8B03F080039BB2002B00F085820C
:1026500094F85A32DBB2022B40F07F8273E2137897
:1026600013F0800FFBD00A79B54B1A70002384F861
:102670005A32D4F84432013BC4F840322369D4F8CA
:102680004022224492F83C211A7020E0AD4B1A6897
:102690000B7901219940114219D0AB4A1370D4F83B
:1026A00064321A79A94B1A70002384F85A3215F053
:1026B000100F0CD0072384F85132E36812221A70ED
:1026C000A36880221A700023C4F8403238BDE36842
:1026D00002221A7038BD90F85132DBB2012B56D16C
:1026E00015F0100F0DD0002380F85A32072180F822
:1026F000511212211170826880211170C0F840328D
:1027000038BD15F0010F0FD0002380F85A32D0F8F1
:1027100040321BB9052380F8513202E0062380F8CD
:10272000513280230B702EE0D0F840320133C0F8D4
:102730004032D0F8442293420AD3002380F8513229
:1027400090F85032012B0CBF8023B0230B701AE09D
:1027500090F85A32DBB2012B0ED1022380F85A32A4
:10276000F1230B70D0F864321A79794B1A7003692F
:1027700090F83D211A7006E00369D0F84022024427
:1027800092F83C211A70E36802221A7038BD90F862
:102790005132DBB2022B36D115F0100F08D00723CF
:1027A00080F8513212231370836880221A7038BD6A
:1027B00015F0010F05D0052380F8513280230B70EE
:1027C0001DE090F85A32DBB2012B0CD1022380F8C5
:1027D0005A32E1230B70D0F864321A795C4B1A70CC
:1027E00003691B780BE0032380F85132D0F8543290
:1027F000012B0CBFE823E0230B7003691B78E3680F
:1028000002221A7038BD90F85132DBB2042B0AD183
:1028100090F85032012B0CBF8023B0230B70C3689B
:1028200002221A7038BD80230B70C36802221A700E
:1028300038BD90F85A32DBB2022B04D090F85A32ED
:10284000DBB2032B56D1D4F864321A68928B02F0B3
:10285000800292B2002A00F0918194F85A22D2B2FA
:10286000022A40F08B817FE11A79354B1A700023E0
:1028700084F85A3294F85132DBB2042B1CBF002387
:1028800084F85132A368B0221A70D4F85432013B54
:10289000C4F83831D4F838315A1CC4F838212269C8
:1028A0001278234483F8302094F85032012B1DD144
:1028B0002023013B7FF4FDAFA36880221A7015E04E
:1028C000204A12681B790121994011420ED01F4AFB
:1028D0001370D4F864321A791B4B1A70002384F8F1
:1028E0005A3284F85132A36880221A70E3680222B7
:1028F0001A7038BDD0F838210232D0F854329A42DA
:1029000000F0438190F85132DBB2042B04D190F8EF
:102910005932002B00F03981D4F838210132D4F833
:1029200054329A4280F03F8194F85132DBB2042B4A
:1029300040F02E8194F85932002B40F0348127E189
:102940001C8000402C8000401F8000401E80004002
:102950001B800040002384F85132A368B0221A7013
:10296000D4F838315A1CC4F838212269127823442B
:1029700083F8302094F85032012B06D12023013BFC
:102980007FF4FDAFA36880221A7094F85132DBB255
:10299000042B04D194F85932002B00F00E81E36827
:1029A00002221A7038BD15F0100F08D010231370D2
:1029B00015F0400F06D1C36802221A7038BD15F019
:1029C000400F60D094F85132DBB20A2B04D1D4F816
:1029D0005C32002B40F0F58015F0040F1ED0092367
:1029E00084F851320023C4F84432A368D0221A700C
:1029F00023691B785B0884F85232D4F8603203B143
:102A00009847D4F844320BB984F83C31236994F8E0
:102A10003C211A700123C4F8403230E0002384F8CE
:102A2000583294F84A32012B05D112206949032209
:102A300002F056FE15E02BB911206649032202F080
:102A40004FFE0EE0022B05D11E206349032202F047
:102A500047FE06E0032B04D11F205F49032202F04A
:102A60003FFE0A2384F851320023C4F83831A368AA
:102A7000C0221A7023691B785B0884F85232E3681D
:102A800002221A7038BD13F0100F20D015F0010F7C
:102A900015D1D0F84022D0F844329A4208D2D0F86A
:102AA00040325A1CC0F84022034493F83C2100E015
:102AB000002223691A70A368D0221A703FE0C02355
:102AC0000B7003691B78002380F8513237E090F8CF
:102AD0005132DBB20A2B32D1002380F8583290F801
:102AE0004A32012B05D112203A49032202F0F8FDA7
:102AF00015E02BB911203749032202F0F1FD0EE059
:102B0000022B05D11E203449032202F0E9FD06E024
:102B1000032B04D11F203049032202F0E1FD236979
:102B20001B78DAB2D4F83831B3F5817F07D8D4F8FE
:102B30003831591CC4F83811234483F83020E36835
:102B400002221A7038BD0A79244B1A70A368F02249
:102B50001A70032384F85A32B9E594F85A32DBB27A
:102B6000032B7FF493AD7AE51A791C4B1A70A36896
:102B7000E8221A70032384F85A32B7E694F85A22EE
:102B8000D2B2032A7FF49CAE6EE6E8230B70C3E654
:102B9000D4F838315A1CC4F83821226912782344F9
:102BA00083F83020F1E6002384F8593294F851324A
:102BB000DBB2042B7FF4CEAECFE6012384F859328A
:102BC000EDE60023C4F83431D4F83801D4F85C328F
:102BD000984701E7A52C0000B52C00001F8000409D
:102BE00008B502480021FFF70FFD08BD6487FF1FED
:102BF00008B502480121FFF707FD08BDD089FF1F76
:102C000010B50446C3681B7813F0200F24D10023AD
:102C100080F8513290F84A32012B03D1122002F091
:102C2000A7FD0FE01BB9112002F0A2FD0AE0022B64
:102C300003D11E2002F09CFD04E0032B02D11F20D3
:102C400002F096FDD4F85C3253B30022C4F834216C
:102C5000D4F83801984710BD90F858320133DBB2F0
:102C600080F85832012B03D890F84932012B17D045
:102C700094F84A32012B03D1122002F079FD10BDE5
:102C80001BB9112002F074FD10BD022B03D11E20D0
:102C900002F06EFD10BD032B02D11F2002F068FD73
:102CA00010BD00BF08B502480021FFF7A9FF08BD0D
:102CB0006487FF1F08B502480121FFF7A1FF08BD87
:102CC000D089FF1F70B50B4E30460021FEF72EFE57
:102CD000094D0A4C30462946224608F035FD084E7B
:102CE00030460121FEF722FE30462946224608F0F2
:102CF0002BFD70BD4096FF1F011900006087FF1F6C
:102D00002C96FF1F70B582B0044699B90D4B1B6815
:102D10000093009A4368D31A312B0BD80326094D30
:102D2000304602F0F1FD2B680093009A6368D31AD5
:102D3000312BF5D9034B1B680193019B636002B0F3
:102D400070BD00BF3897FF1F08B50021FFF7DAFFFD
:102D500008BD00BFF8B541631B240C4D0C4E0D4F50
:102D600002E0C82002F0D0FD2B7813F0FF0F09D04D
:102D7000337813F0030F05D03A68074B1B68D31A5A
:102D8000182B01D8013CECD1F8BD00BF1C98FF1FE7
:102D90002C98FF1F3897FF1F489AFF1F08B5002384
:102DA00083634360084609B102F0AEFD08BD00BF71
:102DB00038B504460D46406B03685B680949062236
:102DC0009847606B29460A22002303F0EFFC606BF2
:102DD00003685B68044908229847322002F094FD9A
:102DE00038BD00BFF8CD000000CE000070B504462D
:102DF0000D46037A23B3606B03689B6898470028ED
:102E0000F9D0002614E0606B0368DB689847C3B212
:102E1000632B06D0762B02D0582B09D107E0C0B225
:102E200070BD20462946FFF7C3FF632070BD2672A0
:102E3000606B03689B6898470028E4DC632070BDE2
:102E4000632070BD38B50446154621B101230372D5
:102E50000021FFF7CBFF257238BD00BF704700BFD0
:102E6000704700BF00B587B0424B1B78424A1278CA
:102E7000920042EA4312414B1B781A437620F42118
:102E8000D2B202F075F83E4B1B783E4A12785201DE
:102E900042EA83027620F52102F0FC0202F068F893
:102EA0007620882118226B4602F0E6F89DF8012072
:102EB0009DF8003043EA0222334B1A809DF803202C
:102EC0009DF8023043EA0222304B1A809DF805201B
:102ED0009DF8043043EA02222D4B1A809DF807200A
:102EE0009DF8063043EA02222A4B1A809DF80920F9
:102EF0009DF8083043EA0222274B1A809DF80B20E8
:102F00009DF80A3043EA0222244B1A809DF80D20D6
:102F10009DF80C3043EA0222214B1A809DF80F20C5
:102F20009DF80E3043EA02221E4B1A809DF81120B4
:102F30009DF8103043EA02221B4B1A809DF81320A3
:102F40009DF8123043EA0222184B1A809DF8152092
:102F50009DF8143043EA0222154B1A809DF8172081
:102F60009DF8163043EA0222124B1A8007B05DF832
:102F700004FB00BF3F8CFF1F3D8CFF1F3E8CFF1FDB
:102F80003C8CFF1F408CFF1F9096FF1FA896FF1FD1
:102F9000AA96FF1F9296FF1F9496FF1F9696FF1FFB
:102FA0009896FF1F9A96FF1F9C96FF1F9E96FF1FE5
:102FB000A096FF1FA296FF1F00B583B07620FA21CE
:102FC000032201AB02F058F89DF804309DF805008B
:102FD000000240EA03409DF806301843001103B098
:102FE0005DF804FB00B583B07620F721032201AB26
:102FF00002F042F89DF804309DF80500000240EA16
:1030000003409DF806301843001103B05DF804FB3F
:103010000F4B1A88C2EB21135200C2EBE1010D4A9B
:10302000B2F9002002FB01F103FB03F31B130A4A70
:10303000B2F9002002FB03F39B1303EBE121074BE2
:10304000196001EB810101F180000012704700BF9F
:103050009096FF1FA896FF1FAA96FF1FA496FF1F1A
:103060002DE9F04F83B08C466A4B1868C117B0F554
:10307000FA3041F1FF3100FB01F3A0FB004505EB05
:103080004305654BB3F800A0644B1B880093644B69
:103090001B880193634BB3F90020D31702FB01F6A1
:1030A00000FB0366A2FB002333444FEA033949EADD
:1030B00012594FEA02385C4BB3F90060F71704FB72
:1030C00007F306FB0533A4FB06671F44320A42EAF6
:1030D00007623B1212EB080243EB0903003243F58F
:1030E0000043524EB6F80080A2FB086708FB037746
:1030F0007A10FB1752EA030600F087800FFA8AFA6B
:103100004FEAEA7B04FB0BF60AFB0565A4FB0AAB5E
:10311000AB44009E36B2F71706FB01F100FB071522
:10312000A6FB000129444D0445EAD03544041AEBBE
:10313000040A4BEB050BCCF5801C4FEAEC75E90754
:1031400041EA5C014FEACC70019C24B22646F500AE
:10315000002414EB0A0445EB0B05041B61EB050589
:10316000261945EB0507361947EB0507B90141EA72
:103170009661B001361847EB0107B90041EA967134
:10318000B000061941EB0507B90041EA9671B0009D
:10319000001941EB050107F0FBFF420B42EAC14277
:1031A0004B13234CB4F90040E51704FB03F602FB74
:1031B0000566A4FB0245354402FB05F504FB0355F7
:1031C000A2FB04232B44540E44EAC3145D162418B6
:1031D00045EB0105174BB3F90020D31702FB01F1B2
:1031E00000FB0313A2FB00011944C20C42EA413266
:1031F000CB14121943EB0503100A40EA03600E4B8F
:10320000B3F900402201104400E0002003B0BDE803
:10321000F08F00BFA496FF1F9C96FF1F9A96FF1F7A
:103220009896FF1F9496FF1F9696FF1F9296FF1F7A
:10323000A296FF1FA096FF1F9E96FF1F002202600E
:10324000426082604FF07E51C160026142618261E2
:10325000022280F828207047704700BF2DE9F04116
:103260000B253F4CDFF810813E4F28209B21012287
:1032700001F07EFE4FF4FA7002F046FB2820372161
:1032800001F0D4FE00F001062820372101F0CEFE27
:1032900010F0010F08D023685B68204641462222C7
:1032A0009847204603F072FA2820372101F0BEFE2D
:1032B00010F0020F08D023685B68204639461C22B4
:1032C0009847204603F062FA2820372101F0AEFE2D
:1032D00010F0040F08D023685B68204622491522AD
:1032E0009847204603F052FA2820372101F09EFE2D
:1032F00010F0080F08D023685B6820461B491C2289
:103300009847204603F042FA2820372101F08EFE2C
:1033100010F0100F08D023685B6820461449132270
:103320009847204603F032FA013D01D0002E9CD090
:103330002820372101F07AFE10F0040F09D1084C43
:1033400023685B6820460B4919229847204603F002
:103350001DFA4FF47A7002F0D7FABDE8F08100BF91
:103360003098FF1F88CE0000A8CE0000C0CE00001D
:10337000E0CE0000F4CE000064CE000008B5682066
:103380006B21002201F0F4FD642002F0BDFA6820F8
:103390006B21012201F0ECFDC82002F0B5FA682093
:1033A0001A21032201F0E4FD68201921042201F012
:1033B000DFFD68201B2101F039FE20F01A00194BB7
:1033C0001A7840EAC20268201B2102F0FD0201F0D7
:1033D000CFFD68201C2101F029FE20F01800124BBF
:1033E0001A7840EAC20268201C21D2B201F0C0FD66
:1033F00068201D2101F01AFE00F0F00268201D2156
:1034000042F0030201F0B4FD68203721222201F0CE
:10341000AFFD68203821012201F0AAFD642002F0EE
:1034200073FA08BDAC96FF1FAD96FF1F30B583B091
:1034300005460C460C200A21002201F099FD1420BB
:1034400002F062FA0C200A210F2201F091FD1420F3
:1034500002F05AFA0C201021032201AB01F00CFEFD
:103460009DF80400803807F053FC4FF06E5107F0D0
:10347000A3FC4FF07E5107F097FB20609DF80500FC
:10348000803807F045FC4FF06E5107F095FC4FF087
:103490007E5107F089FB60609DF80600803807F0D8
:1034A00037FC4FF06E5107F087FC4FF07E5107F06C
:1034B0007BFBA0600C200A21002201F059FD1420A2
:1034C00002F022FA074B1A7895F8283043EA0212E4
:1034D0000C200A21D2B201F04BFD142002F014FAA4
:1034E00003B030BD418CFF1F2DE9F0470C46154657
:1034F0001E46C8274FF068094FF03B0A4FF00608F8
:10350000484651464246234601F0B6FD227863788C
:1035100043EA02232A8813442B80A278E37843EA03
:1035200002236A8813446B802279637943EA022379
:10353000AA881344AB80484643214246234601F003
:103540009BFD2278637843EA022332881344338058
:10355000A278E37843EA02237288134473802279C5
:10356000637943EA0223B2881344B380013FC7D191
:1035700000230A49EA5E81FB0240D217C2EBA01287
:10358000EA52F25E81FB0240D217C2EBA012F25265
:103590000233062BEED1BDE8F08700BF1F85EB514B
:1035A0002DE9F04F93B004460F4600268DF80860D1
:1035B0008DF809608DF80A608DF80B608DF80C604D
:1035C0008DF80D6068201921324601F0D1FC682089
:1035D0001A21022201F0CCFC68201B21012201F0FB
:1035E000C7FC68201D21022201F0C2FC68201C21BA
:1035F000012201F0BDFC204602A906AA04ABFFF798
:1036000073FF68201C21E02201F0B2FC68201B211E
:10361000E02201F0ADFC192002F076F9204602A963
:1036200008AA0AABFFF760FF68201C21324601F0B0
:103630009FFC68201B21324601F09AFC192002F001
:1036400063F968200D2101F0F1FC834668200E210A
:1036500001F0ECFC824668200F2101F0E7FC814676
:103660006820314601F0E2FC80466820012101F02B
:10367000DDFC00906820022101F0D8FC01905CA5DF
:10368000D5E90045584607F03FFB4FF07E5107F063
:1036900089FA06F025FF02460B462046294604F02B
:1036A00051FF55A3D3E9002306F06EFF07F026FA79
:1036B0000C90504607F028FB4FF07E5107F072FA4D
:1036C00006F00EFF02460B462046294604F03AFF5C
:1036D00049A3D3E9002306F057FF07F00FFA0D9036
:1036E000484607F011FB4FF07E5107F05BFA06F0F9
:1036F000F7FE02460B462046294604F023FF3EA370
:10370000D3E9002306F040FF07F0F8F90E90404699
:1037100007F0FAFA4FF07E5107F044FA06F0E0FEA7
:1037200002460B462046294604F00CFF32A3D3E99B
:10373000002306F029FF07F0E1F90F90009807F049
:10374000E3FA4FF07E5107F02DFA06F0C9FE02466B
:103750000B462046294604F0F5FE27A3D3E90023B3
:1037600006F012FF07F0CAF91090019807F0CCFAA2
:103770004FF07E5107F016FA06F0B2FE02460B46F5
:103780002046294604F0DEFE1BA3D3E9002306F001
:10379000FBFE07F0B3F911903446DFF864800CADFE
:1037A00008ABF05E06ABF35EC01A07F0B1FA414613
:1037B00007F002FB615907F0B3FB385107EB04092E
:1037C0000AABF05E04ABF35EC01A07F0A1FA414603
:1037D00007F0F2FA2B19D96807F0A2FBC9F80C0020
:1037E00002360434062EDBD113B0BDE8F08F00BFE3
:1037F000000000C0F528F03F000000000078A44061
:103800000000C842AFF30080054B1B7813B1012BB9
:1038100003D07047034B43627047034B43627047CA
:10382000418CFF1FFFEBBF40FFEBBF3F094B1B78F5
:10383000032B0ED8DFE803F00205080B064B0362EA
:103840007047064B03627047054B03627047054B98
:1038500003627047AC96FF1F0000FA3B00007A3C01
:103860000000FA3C00007A3D0B4B1B78032B12D86A
:10387000DFE803F002060A0E4FF06253C36170479F
:103880004FF06453C36170474FF06653C361704794
:103890004FF06853C3617047AD96FF1F2DE9F04F9D
:1038A00087B00091019268206B21802201F060FBBB
:1038B000642002F029F868206B21012201F058FBF6
:1038C00068206C21002201F053FBC82002F01CF894
:1038D00068203821002201F04BFB682023210022C0
:1038E00001F046FB68206B21002201F041FB6820BB
:1038F0002421002201F03CFB68206A21002201F013
:1039000037FB68206A210C2201F032FB0F2001F006
:10391000FBFF68201A21012201F02AFB68201921EF
:10392000002201F025FB68201B21002201F020FB72
:1039300068201C21002201F01BFB68206A21402224
:1039400001F016FB68202321782201F011FB2820CA
:1039500001F0DAFF68202321002201F009FB682032
:103960007221022203AB01F087FB9DF80CB09DF899
:103970000D3043EA0B2B754BA3FB0B2B5FEADB0BE4
:1039800042D00024254627462646A246A146A04608
:10399000682074210C220DEB020301F06DFB9DF8F1
:1039A0000C209DF80D3043EA02230AFA83FA9DF8B1
:1039B0000E209DF80F3043EA022309FA83F99DF89F
:1039C00010209DF8113043EA022308FA83F89DF88D
:1039D00012209DF8133043EA022305FA83F59DF87F
:1039E00014209DF8153043EA022307FA83F79DF867
:1039F00016209DF8173043EA022306FA83F60134B5
:103A0000A3B25B45C4D305E000252F462E46AA4647
:103A1000A946A8469AFBFBFA99FBFBF998FBFBF831
:103A200095FBFBF597FBFBF796FBFBF6B8F1000F58
:103A3000CCBFA8F5804808F580486A42002AB8BF84
:103A400003329310C2F387228DF80C208DF80D30CD
:103A50007B42002BB8BF033399109B128DF80E30B8
:103A60008DF80F107342002BB8BF033399109B12CF
:103A70008DF810308DF811106820132101F078FABC
:103A8000682014219DF80D2001F072FA682015219C
:103A90009DF80E2001F06CFA682016219DF80F2089
:103AA00001F066FA682017219DF8102001F060FAF5
:103AB000682018219DF8112001F05AFA284607F0D5
:103AC00027F9234907F02CFA009B1860384607F0C5
:103AD0001FF91F4907F024FA009A5060304607F09A
:103AE00017F91B4907F01CFA009B986068207721A2
:103AF000022203AB01F0C0FA68207A21022203AB54
:103B000001F0BAFA68207D21022203AB01F0B4FA79
:103B1000504607F0FDF84FF0625107F04DF9019A59
:103B20001060484607F0F4F84FF0625107F044F98E
:103B3000019B5860404607F0EBF84FF0625107F0E8
:103B40003BF9019A906007B0BDE8F08FABAAAAAA32
:103B50000000034310B582B00C460C20022101F096
:103B600065FA10F0010F1FD00C20032107226B46CD
:103B700001F082FA9DF8063013F0080F14D19DF879
:103B800001209DF8003043EA022323809DF80320A2
:103B90009DF8023043EA022363809DF805209DF8DA
:103BA000043043EA0223A38002B010BD2DE9F04F98
:103BB00089B004460D4616466D4B186802909A88E7
:103BC000ADF80C2053F8080F04909B88ADF8143022
:103BD0000023ADF81830ADF81A30ADF81C30654F41
:103BE0003B685B68384664493A229847384602F099
:103BF000CDFD4FF47A6001F087FE94F82830022B57
:103C000000F0A780062B2ED1A6E020463946FFF70C
:103C1000A1FF4B46DA5B03F1080E69463EF901004D
:103C200011B2884202DA68462EF8002004A9585ED4
:103C300011B28842C4BF04A95A520233062BE9D1FB
:103C400094F82830022B03D1872001F05DFE04E0B8
:103C5000062B02D1584601F057FE08F101081FFA61
:103C600088F39A45D1D8BDF908B0BDF910A0BDF9C7
:103C70000A90BDF91280BDF90C70BDF914300193A2
:103C80000BEB0A0303EBD370401007F041F8616AB5
:103C900007F092F8216807F08FF8286009EB080315
:103CA00003EBD370401007F033F8616A07F084F833
:103CB000616807F081F86860019B3B4403EBD370B7
:103CC000401007F025F8616A07F076F8A16807F060
:103CD00073F8A860CAEB0B0A0AEBDA7A4FEA6A0AB1
:103CE000C8EB090808EBD8784FEA6808DDF804E06B
:103CF000CEEB070707EBD7777D100AEB08002844C7
:103D000007F006F81D4907F00BF90446504606F087
:103D1000FFFF0146204607F003F93060404606F0F9
:103D2000F7FF0146204607F0FBF87060284606F0D2
:103D3000EFFF0146204607F0F3F8B0600D4C236812
:103D40005B6820460E4915229847204602F01EFD6A
:103D50000BE04FF0800A01E040F2DC5A4FF000081F
:103D600006AFC1464FF00C0B4FE709B0BDE8F08F2E
:103D700054CE00003098FF1F10CF000000004040DC
:103D80004CCF000010B582B00C466820D1B206229C
:103D90006B4601F071F99DF800209DF8013043EA6F
:103DA000022323809DF802209DF8033043EA02237A
:103DB00063809DF804209DF8053043EA0223A38028
:103DC00002B010BD2DE9F04F99B083460E4615465E
:103DD0001C46C36807930369069343690493836988
:103DE0000393084606F0E8FF81462846294606F078
:103DF000E3FF80462046214606F0DEFF07464846A0
:103E0000414606F0D1FE80464046394606F0CCFEDB
:103E100004F014FD8246002107F062F9002840F00A
:103E200080842598014606F0C7FF81462698014602
:103E300006F0C2FF80464846414606F0B5FE0890AF
:103E40002798014606F0B8FF07464846414606F067
:103E5000ABFE80464046394606F0A6FE04F0EEFC76
:103E60000746002107F03CF9002840F05A840798E3
:103E7000014606F099FE0C900698014606F094FE65
:103E80000D900498014606F08FFE0E9003980146AF
:103E900006F08AFE13900798014606F08DFF0B90FE
:103EA0000798069906F088FF11900798049906F084
:103EB00083FF14900698014606F07EFF099006984D
:103EC000039906F079FF10900498014606F074FFFC
:103ED00008900398014606F06FFF0A904FF07E505D
:103EE000514607F01DF812904FF07E50394607F00A
:103EF00017F807462598394606F05EFF8246269851
:103F0000394606F059FF01902798394606F054FFCC
:103F100002900C98019906F04FFF05900C980299B9
:103F200006F04AFF074650460B9906F045FF8046CB
:103F30000598039906F040FF0146404606F032FE20
:103F400080463846049906F037FF0146404606F0A1
:103F50002BFE80465046099906F02EFF014640464A
:103F600006F022FE80460D98019906F025FF04997F
:103F700006F022FF0146404606F016FE80460D98E8
:103F8000029906F019FF039906F016FF0146404614
:103F900006F00AFE80465046089906F00DFF0146DD
:103FA000404606F0FFFD804650460A9906F004FFA1
:103FB0000146404606F0F6FD80460D98514606F053
:103FC000FBFE0F900C98514606F0F6FE039906F0A2
:103FD000F3FE814601980B9906F0EEFE0146484635
:103FE00006F0E2FD81460698394606F0E5FE0146F8
:103FF000484606F0D7FD07460F98049906F0DCFE08
:104000000146384606F0D0FD07460198099906F0AA
:10401000D3FE0146384606F0C5FD074601980899CB
:1040200006F0CAFE0146384606F0BEFD07460E9869
:10403000029906F0C1FE039906F0BEFE014638461D
:1040400006F0B2FD074601980A9906F0B5FE014652
:10405000384606F0A7FD07464046414606F0ACFE4E
:1040600080463846394606F0A7FE0146404606F02F
:104070009BFD04F0E3FB814607984FF0404106F0BA
:104080009BFE514606F098FE049906F095FE074601
:104090000698059906F090FE0146384606F084FD24
:1040A000074602980B9906F087FE0146384606F04F
:1040B0007BFD074603980F9906F07EFE01463846C1
:1040C00006F072FD07460298099906F075FE014652
:1040D000384606F067FD07460E98019906F06CFE1B
:1040E000039906F069FE0146384606F05DFD074675
:1040F0000298089906F060FE0146384606F052FD27
:10410000074602980A9906F057FE0146384606F01F
:104110004BFD0746014606F047FD159010980146F5
:1041200006F042FD804604980C9906F045FE0146D3
:10413000404606F037FD80463046129906F03CFEB8
:104140000146404606F02EFD05901198014606F006
:104150002BFD064603980E9906F02EFE01463046CA
:1041600006F022FD06462846129906F025FE014675
:10417000304606F017FD0B903846049906F01CFEF9
:1041800016904FF07C50089906F00CFD0A9906F045
:1041900009FD494606F010FE05461098149906F0F0
:1041A00001FD394606F008FE0146284606F0FCFCF3
:1041B000514606F0F7FC824609F100430F9338465A
:1041C000069906F0F9FD17900698049906F0F4FD9B
:1041D00005460798039906F0EFFD0146284606F0CC
:1041E000E1FC494606F0E8FD05460498039906F00F
:1041F000E3FD0146119806F0D7FC394606F0DCFDD8
:104200000146284606F0D0FC019906F0CBFC0A9046
:104210004846049906F0D0FD06461498109906F019
:10422000C3FC494606F0C8FD05464FF07C5009998D
:1042300006F0B8FC089906F0B5FC394606F0BCFD5E
:104240000146284606F0B0FC029906F0ABFC804619
:104250000E9B03F10040059906F0AEFD05460B9854
:104260000D9906F0A9FD0146284606F09DFC05467D
:104270001698514606F0A0FD0146284606F092FC2D
:1042800005460F98039906F097FD179906F08CFCE8
:104290000A9906F091FD0146284606F085FC054680
:1042A0003046414606F088FD0146284606F07CFC73
:1042B00001900998014606F077FC01464FF07E50C8
:1042C00006F070FC05460898014606F06DFC0146B4
:1042D000284606F067FC05462046129906F06CFD5C
:1042E0000146284606F05EFC05463846039906F06E
:1042F00063FD02903846079906F05EFD089013981A
:10430000059906F059FD04460C980B9906F054FDEA
:104310000146204606F048FC044606984FF08141CD
:1043200006F04AFD294606F047FD0146204606F004
:1043300039FC04465046029906F03EFD01462046EF
:1043400006F032FC04463046089906F02DFC014682
:104350000A9806F031FD0146204606F025FC044689
:104360004846039906F028FD06461598069906F07A
:1043700023FD0146304606F015FC0146404606F096
:104380001BFD0146204606F00FFC064648464946FE
:1043900006F00AFC00F100444846069906F00CFDC0
:1043A00009900C9B03F10041059806F005FD0746B6
:1043B00013980B9906F000FD0146384606F0F4FB11
:1043C000074604984FF0814106F0F6FC0146284666
:1043D00006F0F2FC0146384606F0E4FB05462046AE
:1043E000049906F0E9FC089906F0DCFB014650460A
:1043F00006F0E2FC0146284606F0D6FB0546029888
:10440000099906F0D1FB01460A9806F0D5FC014651
:10441000284606F0C9FB05464846079906F0CCFC3D
:1044200007461598049906F0C7FC0146384606F081
:10443000B9FB0146404606F0BFFC0146284606F09F
:10444000B3FB05460D98059906F0B6FC07460E9895
:104450000B9906F0B1FC0146384606F0A5FB07466D
:104460000398214606F0A8FC0146179806F09CFB2D
:104470000146504606F0A0FC0146384606F094FB83
:10448000044607980F9906F097FC0146169806F027
:104490008BFB01460A9806F08FFC0146204606F089
:1044A00083FB04464046099906F086FC01462046F7
:1044B00006F07AFB04460198014606F07DFC824630
:1044C0003046314606F078FC81465046494606F0B3
:1044D0006BFB07462846294606F06EFC80463846A8
:1044E000414606F061FB02902046214606F064FC3E
:1044F00007465046494606F057FB81464846414626
:1045000006F052FB80464046394606F04DFB04F06B
:1045100095F901464FF07E5006F002FD8046069B5D
:1045200003F10040229906F047FC074604982399BE
:1045300006F042FC0146384606F034FB0746039875
:10454000249906F039FC0146384606F02BFB4FF063
:104550007C5106F031FC07460198414606F02CFCE0
:10456000714906F029FC0146384606F01BFB2899E4
:1045700006F022FC079906F017FB074607982299D8
:1045800006F01AFC81460498249906F015FC0146B1
:10459000484606F009FB81460398239906F00CFC77
:1045A0000146484606F0FEFA4FF07C5106F004FC46
:1045B00081463046414606F0FFFB5B4906F0FCFBB6
:1045C0000146484606F0EEFA289906F0F5FB0699F2
:1045D00006F0EAFA06460798239906F0EDFB8146B5
:1045E0000698249906F0E8FB0146484606F0DAFAF8
:1045F00081460398229906F0DFFB0146484606F003
:10460000D3FA4FF07C5106F0D7FB8146284641464D
:1046100006F0D2FB444906F0CFFB0146484606F0BF
:10462000C1FA289906F0C8FB049906F0BDFA0546C0
:104630000798249906F0C0FB81460698239906F056
:10464000BBFB0146484606F0AFFA81460498229922
:1046500006F0B2FB0146484606F0A4FA4FF07C5142
:1046600006F0AAFB81462046414606F0A5FB2E49EE
:1046700006F0A2FB0146484606F094FA289906F097
:104680009BFB039906F090FA04463846394606F03B
:1046900093FB03903046314606F08EFB824603982A
:1046A000514606F081FA80462846294606F084FBEA
:1046B00081464046494606F077FA04902046214656
:1046C00006F07AFB80460398514606F06DFA824662
:1046D0005046494606F068FA81464846414606F08B
:1046E00063FA04F0ABF801464FF07E5006F018FC78
:1046F00080463846414606F05FFBCBF80C0030465A
:10470000414606F059FBCBF810002846414606F01A
:1047100053FBCBF814002046414606F04DFBCBF886
:10472000180019B0BDE8F08F0EC71A3F2DE9F84305
:1047300004460D460846624902F0B2F928B92846F7
:10474000604902F0ADF9002844D0D4F810806769C0
:10475000D4F80C90A6694046394606F02DFB044675
:104760004846314606F028FB0146204606F01CFA72
:10477000014606F019FA05F0B3FE04460D46484618
:10478000494606F019FB81464046414606F014FBB7
:104790000146484606F008FA80463846394606F093
:1047A0000BFB0146404606F0FDF907463046314610
:1047B00006F002FB0146384606F0F4F905F090FEDB
:1047C00002460B462046294603F0BAFE06F096F94B
:1047D000BDE8F88328463C4902F062F920B9284632
:1047E0003A4902F05DF9C8B12069A16906F0E4FA1E
:1047F0000546E068616906F0DFFA0146284606F0E2
:10480000D1F9014606F0D0F905F06AFE03F044FE46
:1048100006F074F900F10040BDE8F88328462C4901
:1048200002F03EF928B928462A4902F039F9002851
:1048300044D0D4F80C90D4F810806769A669484633
:10484000414606F0B9FA04463846314606F0B4FA55
:104850000146204606F0A8F9014606F0A5F905F044
:104860003FFE04460D464846494606F0A5FA8146F5
:104870004046414606F0A0FA0146484606F092F945
:1048800080463846394606F097FA0146404606F01B
:1048900089F907463046314606F08EFA0146384619
:1048A00006F082F905F01CFE02460B46204629461A
:1048B00003F046FE06F022F9BDE8F883BDE8F88370
:1048C0000CCC000064CF000010CC000068CF0000CA
:1048D00014CC00009CCC0000704700BF704700BFA4
:1048E00038B52820392100F0A1FB044610F0010F53
:1048F00009D0284D2B685B6828462749182298471D
:10490000284601F043FF14F0020F09D0214D2B6817
:104910005B68284621491E229847284601F036FF49
:1049200014F0040F09D01B4D2B685B6828461C4906
:1049300021229847284601F029FF14F0080F09D0DA
:10494000144D2B685B68284616491C229847284658
:1049500001F01CFF14F0100F09D00E4D2B685B689E
:104960002846114923229847284601F00FFF14F0EA
:10497000200F09D0074C23685B6820460B49222290
:104980009847204601F002FF4FF47A7000F0BCFF18
:1049900038BD00BF3098FF1F6CCF000088CF0000EB
:1049A000A8CF0000CCCF0000ECCF000010D000005A
:1049B00008B528203421002200F0DAFA2820A021AE
:1049C000002200F0D5FA28203421012200F0D0FA8C
:1049D00028203421002200F0CBFA08BD08B5282099
:1049E0005B21032200F0C4FA28205C21032200F09E
:1049F000BFFA28203221022200F0BAFA28205521DD
:104A0000642200F0B5FA28205621142200F0B0FAF2
:104A100028205721142200F0ABFA28205821B22276
:104A200000F0A6FA08BD00BF08B5282054210022D6
:104A300000F09EFA28203321072200F099FA28205E
:104A40003421012200F094FA642000F05DFF08BDDB
:104A5000F0B583B014461F4628206421D2B200F07E
:104A600087FA28205421802200F082FA28203A2157
:104A700000F0DCFAA04207D028263A253046294625
:104A800000F0D4FAA042F9D128203B2100F0CEFA60
:104A90008DF8040028203C2100F0C8FA8DF80500AC
:104AA00028203D2100F0C2FA8DF8060028203E2182
:104AB00000F0BCFA8DF80700094C02AB3B4413F838
:104AC000041C13F8053C204643EA012101F0AAFE2C
:104AD000204601F05BFE642000F016FF03B0F0BD3D
:104AE0003098FF1FF8B51C46CBB20F0A12B1D6B2F0
:104AF000150A01E000252E46282060211A4600F004
:104B000037FA282061213A4600F032FA2820622143
:104B1000324600F02DFA282063212A4600F028FAB8
:104B200028206421E2B200F023FA282054218022B8
:104B300000F01EFA28203A2100F078FAA04207D0AF
:104B400028263A253046294600F070FAA042F9D1CD
:104B500028206421002200F00BFA28205421002292
:104B600000F006FAF8BD00BF70B5154641F08004AC
:104B700028206021D2B200F0FBF928206121C5F382
:104B8000072200F0F5F928206221C5F3074200F062
:104B9000EFF9282063212A0E00F0EAF92820642189
:104BA000224600F0E5F928205421802200F0E0F9A7
:104BB00028203A2100F03AFA844207D028263A25E4
:104BC0003046294600F032FA8442F9D12820642187
:104BD000002200F0CDF928205421002200F0C8F96D
:104BE00070BD00BF10B52820922100F01FFA10F010
:104BF000010F09D0624C23685B68204661491F227F
:104C00009847204601F0C2FD2820382100F00EFA16
:104C100001381F284DD8DFE800F0101A4C244C4C06
:104C20004C2E4C4C4C4C4C4C4C384C4C4C4C4C4CF6
:104C30004C4C4C4C4C4C4C4C4C42514C23685B689B
:104C40002046514915229847204601F09FFD4C4CC3
:104C500023685B6820464D4915229847204601F09D
:104C600095FD474C23685B682046494918229847C0
:104C7000204601F08BFD424C23685B682046454985
:104C800020229847204601F081FD3D4C23685B6857
:104C90002046414920229847204601F077FD384CB4
:104CA00023685B6820463D491D229847204601F055
:104CB0006DFD28209E2100F0B9F910F0010F05D0FC
:104CC0002F4803685B683649192298472820352108
:104CD00000F0ACF901381F284DD8DFE800F0101AB9
:104CE0004C244C4C4C2E4C4C4C4C4C4C4C384C4C5E
:104CF0004C4C4C4C4C4C4C4C4C4C4C4C4C42204C2A
:104D000023685B682046274910229847204601F017
:104D10003DFD1B4C23685B68204623490C229847C5
:104D2000204601F033FD164C23685B6820461F497E
:104D30001C229847204601F029FD114C23685B682E
:104D400020461B4915229847204601F01FFD0C4CB8
:104D500023685B682046174917229847204601F0D0
:104D600015FD074C23685B682046134916229847B7
:104D7000204601F00BFDC82000F0C6FD10BD00BFAD
:104D80003098FF1F34D0000054D000006CD00000D9
:104D900084D00000A0D00000C4D00000E8D0000003
:104DA00008D1000024D1000038D1000048D1000013
:104DB00068D1000080D1000098D1000008B52820FB
:104DC000362100F033F901381F2835D8DFE800F02C
:104DD0001016341C3434342234343434343434280B
:104DE0003434343434343434343434343434342E89
:104DF000124803685B6812491F2298470F480368EE
:104E00005B681049202298470C4803685B680E498C
:104E100017229847094803685B680C491F22984786
:104E2000064803685B680A492022984703480368DC
:104E30005B6808491722984708BD00BF3098FF1FDC
:104E4000B0D10000D0D10000F4D100000CD200009D
:104E50002CD2000050D200002DE9F04383B03B4C2F
:104E600023685B6820463A490B229847204601F0A8
:104E70008DFC01244FF00008364D344FDFF8EC90E4
:104E8000E6B228463146FDF789F829696A7B002396
:104E9000009328460123FDF759FBF8B93B685B688E
:104EA00038462D491E2298470F2E05D83B685B686F
:104EB00038462A49012298473846214610220023C5
:104EC00001F074FC3B685B6838462549032298472B
:104ED000384601F05BFC08F1010818E0042816D1FF
:104EE0003B685B68384649461A2298470F2E05D81A
:104EF0003B685B6838461949012298473846214685
:104F00001022002301F052FC384601F03FFC01342E
:104F10007F2CB5D1B8F1000F0AD10C4C23685B6827
:104F20002046104915229847204601F02FFC09E041
:104F3000064C23685B6820460B49052298472046AB
:104F400001F024FC03B0BDE8F08300BF3098FF1FE0
:104F500068D200004096FF1F74D2000094D2000077
:104F600098D20000B8D20000D0D200009CD200003D
:104F700070B582B003460E4615460B4C20461946C6
:104F8000FDF70CF820463146FCF77AFC204629460E
:104F9000FCF776FC2169627B002300932046012305
:104FA000FDF7D4FA02B070BD4096FF1F2DE9F04323
:104FB00083B007468946154698460A9E1A4C2046F5
:104FC0003946FCF7EBFF20464946FCF759FC2046E2
:104FD0002946FCF755FC2169627B00250095204697
:104FE0002B46FDF7B3FA2069617B012300930195FD
:104FF0003A464346FDF7BEFA2069D0F83821D0F88A
:1050000034319A420DD02C46074FE5B2FDF7D0FA65
:1050100070553869D0F83821D0F8343101349A42CB
:10502000F3D103B0BDE8F0834096FF1F70B582B0A6
:1050300006460D460F4C20463146FCF7AFFF204692
:105040002946FCF71DFC2169627B0025009520465E
:105050002B46FDF77BFA2069617B012300930195C4
:105060003246FDF787FA2069FDF7A2FAC0B202B016
:1050700070BD00BF4096FF1F2DE9F04182B007468A
:105080000D4690461E46194C20463946FCF786FFD1
:1050900020462946FCF7F4FB2169627B0025009538
:1050A00020462B46FDF752FA2069617B01230093CD
:1050B00001953A464346FDF75DFA2069D0F838215C
:1050C000D0F834319A420DD02C46084FE5B2FDF7A6
:1050D0006FFA70553869D0F83811D0F8342101349E
:1050E0009142F3D102B0BDE8F08100BF4096FF1FAE
:1050F000704700BF704700BF70B528207021FFF7D0
:1051000095FF064628207121FFF790FF0546394C90
:1051100023685B6820463849162298472046314666
:105120001022002301F042FB2046294610220023D2
:1051300001F03CFB204601F029FB23685B68204618
:105140002E4911229847204601F020FB2820722189
:10515000FFF76CFF064628207321FFF767FF05461F
:1051600023685B6820462649162298472046314628
:1051700001F058FB2046294601F054FB204601F07F
:1051800005FB28209021FFF751FF054623685B6847
:1051900020461C4914229847204629461022002305
:1051A00001F004FB23685B682046174910229847EA
:1051B000204601F0EBFA28209121FFF737FF054642
:1051C00023685B68204611491522984720462946E6
:1051D0001022002301F0EAFA23685B6820460C499C
:1051E00010229847204601F0D1FA4FF47A7000F06F
:1051F0008BFB70BD3098FF1FD8D20000F0D20000AA
:1052000004D300001CD3000034D3000048D30000B6
:1052100060D3000010B528205421FFF707FF40F0AD
:10522000010228205421D2B2FFF7A2FE184C2368B5
:105230005B682046174917229847204601F0A6FAD6
:105240002820A0210122FFF793FE28209E21FFF7AE
:10525000EDFE10F0010F0CD023685B6820460E496C
:105260001C229847204601F091FA642000F04CFB84
:1052700010BD074C23685B682046084928229847E0
:10528000204601F083FA642000F03EFB10BD00BF11
:105290003098FF1F74D300008CD30000ACD3000003
:1052A0004B788878000400EB03200B781844CB7807
:1052B00000EB0360704700BF10B582B00C46282099
:1052C000D1B206226B46FFF7D7FE9DF801209DF86C
:1052D000003043EA022323809DF803209DF802302A
:1052E00043EA022363809DF805209DF8043043EAD9
:1052F0000223A38002B010BD30B585B005460C4630
:105300002820002110226B46FFF7B6FE284669468A
:10531000FFF7C6FF2060284601A9FFF7C1FF6060C4
:10532000284602A9FFF7BCFFA060284603A9FFF7A3
:10533000B7FFE06005B030BD00B583B02820C9B22A
:10534000022201ABFFF798FE9DF805009DF804309E
:1053500043EA002000B203B05DF804FB024B1A6878
:1053600001321A60704700BF3897FF1F08B50D4C17
:10537000236813F4802F01D000F01CFC236813F481
:10538000806F01D001F07AFF236813F4006F01D021
:1053900002F026FB236813F4805FE9D002F0DEFD03
:1053A000E6E700BF3480044008B5FFF7DFFF00BF29
:1053B0001022014B1A80704700200540704700BF43
:1053C000024A13681844106018467047448CFF1F47
:1053D000EFF31383ABB9EFF31083ABB9EFF30583AE
:1053E00023B10F2B05D9094A985C03E04FF4807074
:1053F00000E00020EFF311833BB1834238BF184631
:1054000070474FF0FF30704700207047F0E300E036
:1054100010B5154B1C681C6014F4805F05D0134B4D
:10542000DB6813B1114BDB68984714F4005F05D0BB
:105430000E4B1B6913B10D4B1B69984714F0200FDD
:1054400005D00A4B1B6E13B1084B1B6E984714F026
:10545000100F07D0054BD3F884301BB1034BD3F8A2
:105460008430984710BD00BFA0900440B096FF1F45
:1054700010B5274B1C681C6014F4803F05D0254BE9
:105480001B6813B1234B1B68984714F4003F05D0E9
:10549000204B5B6813B11F4B5B68984714F0010FFA
:1054A00005D01C4B1B6C13B11A4B1B6C984714F0A6
:1054B000020F05D0174B5B6C13B1164B5B6C984712
:1054C00014F0080F05D0134B9B6C13B1114B9B6C60
:1054D000984714F0040F05D00E4BDB6C13B10D4B45
:1054E000DB6C984714F4002F05D00A4B5B6E13B1A8
:1054F000084B5B6E984714F4802F07D0054BD3F808
:1055000080301BB1034BD3F88030984710BD00BFEB
:10551000A0A00440B096FF1F10B5384B1C681C605B
:1055200014F0080F05D0364B5B6A13B1344B5B6A3D
:10553000984714F0100F05D0314B9B6A13B1304BD4
:105540009B6A984714F0400F05D02D4BDB6A13B1CE
:105550002B4BDB6A984714F0800F05D0284B1B6B50
:1055600013B1274B1B6B984714F0200F05D0244B29
:105570005B6B13B1224B5B6B984714F0010F05D0A6
:105580001F4BDB6B13B11E4BDB6B984714F0020F04
:1055900005D01B4B9B6D13B1194B9B6D984714F0B5
:1055A000040F05D0164BDB6D13B1154BDB6D98471F
:1055B00014F4007F05D0124BDB6E13B1104BDB6E81
:1055C000984714F4807F05D00D4B1B6F13B10C4B23
:1055D0001B6F984714F4806F05D0094B5B6F13B1B4
:1055E000074B5B6F984714F4006F05D0044B9B6F1B
:1055F00013B1034B9B6F984710BD00BFA0B0044090
:10560000B096FF1F10B5264B1C681C6014F0010FEC
:1056100005D0244B9B6813B1224B9B68984714F02C
:10562000800F05D01F4B5B6913B11E4B5B69984718
:1056300014F0100F05D01B4B9B6913B1194B9B69DC
:10564000984714F0040F05D0164BDB6913B1154BC6
:10565000DB69984714F0080F05D0124B1B6A13B191
:10566000104B1B6A984714F0020F05D00D4B9B6B33
:1056700013B10C4B9B6B984714F0200F05D0094BCE
:105680001B6D13B1074B1B6D984714F0400F05D0ED
:10569000044B5B6D13B1034B5B6D984710BD00BFAE
:1056A000A0C00440B096FF1F10B50B4B1C681C60D7
:1056B00014F0020F05D0094B9B6E13B1074B9B6E84
:1056C000984714F0010F05D0044BDB6F13B1034B67
:1056D000DB6F984710BD00BFA0D00440B096FF1FFD
:1056E00030B4212831D8042A2FD8DFE802F0070986
:1056F000050B03000B2406E00A2404E0082402E062
:105700000C2400E00924124B03EBC0035A68114B30
:10571000114DC3F89C51114DC3F8A051104DC3F861
:10572000A451104DC3F8A8510F4DC3F8AC5172B637
:10573000136823F4702313600C4D45F8201043F0D8
:10574000807343EA0444146062B630BC704700BF03
:10575000D8D300000082FF1F1154000071540000D4
:105760001955000005560000A9560000B096FF1F0D
:10577000094B03EBC0035A6872B6136823F08773B2
:1057800023F4803343F0807313600022034B43F80B
:10579000202062B6704700BFD8D30000B096FF1F2C
:1057A000044B00221A6004490A60044A1060102267
:1057B0001A60704714D0034004D0034000D0034067
:1057C00021281ED80F4B53F8303093F8802212F066
:1057D000FF0F08D019B1012283F880207047012201
:1057E00083F800217047074B03EBC000436821B1E9
:1057F0001A6842F003021A6070471A6822F0020227
:105800001A607047D8D30000212806D8044B53F8FB
:10581000303093F80002C0B270470020704700BFDC
:10582000D8D3000021284AD8254B03EBC0035B687E
:10583000012911D004291DD0214A52F8302000201E
:1058400082F8800200292FD0022931D003291FD0ED
:1058500040F203121A607047194A52F830200121B1
:1058600082F880124FF4A2721A601A6822F02002A5
:105870001A607047124A52F83020012182F88012D3
:105880004FF4A2721A601A6842F020021A60704740
:105890004FF480721A601A6842F002021A601A68A5
:1058A00022F001021A6070474FF480721A6070474C
:1058B0004FF480721A601A6842F003021A6070474F
:1058C000D8D3000072B60C4B1B680C4A12680C4906
:1058D000096862B611F0806F02D0322B88BF0132A6
:1058E000C3F5BB33FF330749A1FB03039B094FF407
:1058F0007A7000FB0230704718E000E03897FF1F15
:1059000004ED00E0ABAAAAAA38B50546FFF7DAFF16
:10591000044625B938BD013D0AD004F57A74FFF775
:10592000D1FF001BB0F57A7FF5D201F0D5F8F6E78C
:1059300038BD00BF10B5264B4FF400021A604FF07F
:1059400080721A604FF000721A604FF080621A6025
:105950004FF000621A6000201E4B18604BF6FF717A
:105960000433196028231C4A13600832136008327C
:105970001360083213600832136008321360083273
:105980001360083213600922144C226004F580541D
:10599000043420600434216004342360083423601C
:1059A000143C226004F5FE24043420600C4801609D
:1059B0000C490B6008310B600B4B1A6001F0AEF81C
:1059C0004FF4C870FFF7A0FF00F074FC10BD00BFDB
:1059D00008E100E0048003400C80034000800340A5
:1059E00008800B400C800B4000800B4030B40E4B05
:1059F0001B7843F002020D4C04EBC20460600C48BB
:105A0000007800280CBF8824C82444EA0141074DCF
:105A100045F8321080F00100054A107083F0010350
:105A2000014A137030BC7047A497FF1F0080FF1F0E
:105A30001D98FF1F10B4431E032B11D872B60A4ADB
:105A400052F8230050B14268074941F82320074A21
:105A500032F813400188611A22F8131062B600E090
:105A600000205DF8044B70479497FF1F389AFF1F82
:105A7000013803280DD872B6074B53F820302BB1EC
:105A8000002001305B68002BFBD100E0002062B6F3
:105A900070470020704700BFE897FF1F38B572B607
:105AA00001231B491B4C5A1812F8012C12F0080F45
:105AB00024D09A0054F832506DB9164B03EBC20152
:105AC00008304860144943F83210144B1A78013AF0
:105AD0001A7062B638BD42F0010254F832506DB906
