:1000000000800020BD010000613B0000253B000096
:10001000253B0000253B0000253B0000253B000060
:10002000253B0000253B0000253B0000613B000014
:10003000613B0000253B0000613B0000153B0000D8
:10004000613B0000613B0000613B0000613B000040
:10005000613B0000613B0000613B0000613B000030
:10006000613B0000613B0000613B0000613B000020
:10007000613B0000613B0000613B0000613B000010
:10008000613B0000613B0000613B0000613B000000
:10009000613B0000613B0000613B0000613B0000F0
:1000A0005121000061210000613B0000613B000024
:1000B000613B0000613B0000613B0000613B0000D0
:1000C000613B0000613B0000613B0000613B0000C0
:1000D000613B0000613B0000613B0000613B0000B0
:1000E000613B0000613B0000613B0000613B0000A0
:1000F000613B000001560000613B0000655D0000AF
:10010000613B0000E1620000613B0000613B0000D8
:10011000613B0000613B0000613B0000613B00006F
:10012000613B0000613B0000613B0000613B00005F
:10013000613B0000613B0000613B0000613B00004F
:10014000613B0000613B0000613B0000613B00003F
:10015000613B0000613B0000613B0000613B00002F
:10016000613B000069410000613B0000613B000011
:10017000613B0000613B0000613B0000613B00000F
:10018000613B0000613B0000613B0000613B0000FF
:10019000613B0000613B0000613B0000613B0000EF
:1001A000613B0000613B0000613B0000613B0000DF
:1001B000613B0000613B0000613B0000574B4CF28B
:1001C000205210B51A804DF628121A8000BF00BFC9
:1001D00003F0CAFC524B4FF010621A60514A9A6009
:1001E000514ADA60A3F53043203B1A6812F480725A
:1001F00004D14E490A604FF4A8521A604C4B1A7849
:10020000110703D51A7842F008021A70494B4A4C7C
:100210004A482A221A704A4A00239918A14203D256
:10022000195899500433F8E7464B474900228B424E
:1002300002D243F8042BFAE74448454900235A58B0
:100240001A500433B3F5DE7FF9D1424B424A802184
:1002500003F8011B9342FBD1404B3C4A1A60404BD0
:100260008A221A70A3F5805324225A70A0221A7091
:100270009A799207FCD59A79D406FCD4394A9379B5
:1002800003F00C03082B374BF9D103221A714022DB
:100290005A719A799006FCD5324A9179314B4906C8
:1002A000FBD5314A314911600221516020221A7078
:1002B0009A7902F00C020C2AFAD12D4B2D4A1A60C1
:1002C0002D4B2E4A1A6000225A60072243F8042C54
:1002D0002B4AC3F80C2D62B603F006FE134B1B68C5
:1002E000DA0705D5274803F035FD274B274A1A6062
:1002F000274B1B785B0609D5234C244A236893427D
:1003000004D1204803F026FD0023236007F00EFCF3
:1003100003F030FC04F004FDFEE700BF0E200540B2
:1003200030800440823F04000100002B14D00340C1
:1003300002D0074000E00740EC96FF1FA0900000AD
:100340006087FF1FEC96FF1F209BFF1F0082FF1F8F
:100350000000000000E400E05FE400E008ED00E0E1
:100360000050064000400640448004400000030165
:1003700004800440C010050014E000E0FF76010096
:1003800000002020988FED021CE00340A5C3945A82
:1003900000F00740FFFFFFFFFFFFFFFFFFFFFFFF32
:1003A000FFFFFFFFFFFFFFFFFFFFFFFFFFFFFFFF5D
:1003B000FFFFFFFFFFFFFFFFFFFFFFFFFFFFFFFF4D
:1003C000FFFFFFFFFFFFFFFFFFFFFFFFFFFFFFFF3D
:1003D000FFFFFFFFFFFFFFFFFFFFFFFFFFFFFFFF2D
:1003E000FFFFFFFFFFFFFFFFFFFFFFFFFFFFFFFF1D
:1003F000FFFFFFFFFFFFFFFFFFFFFFFFFFFFFFFF0D
:10040000FFFFFFFFFFFFFFFFFFFFFFFFDEF9FFFF23
:1004100010B5054C237833B9044B13B10448AFF33E
:1004200000800123237010BDEC96FF1F0000000028
:10043000A090000008B5064B1BB106480649AFF373
:1004400000800648036813B1054B03B1984708BD07
:1004500000000000A0900000F096FF1FEC96FF1F28
:1004600000000000014B0360704700BF988400004B
:10047000014B0360704700BF38850000406870473B
:10048000F0B583B0064601920F1E18DB43689F4209
:1004900015DA0368DB68114698477268013A97429B
:1004A00009DA9300F468E51855F8045CE550013A60
:1004B000043BBA42F6D1F368019843F8270003B031
:1004C000F0BD00BFF0B583B001914568002D16DD89
:1004D000C468BDF8046000231946BDF90670E25AED
:1004E000B24208D1E218B2F90220BA4203D103683D
:1004F0009B69984703E001310433A942EFD103B06F
:10050000F0BD00BF82B00192002906DB436899422A
:1005100003DAC368019843F8210002B0704700BFB6
:1005200082B0C36853F8210001900020BDF8043068
:1005300063F30F00BDF8063063F31F4002B070474D
:10054000C0687047C0687047C06800EB81007047A2
:10055000C06800EB81007047C0687047C068704792
:100560004268C06800EB8200704700BF4268C06804
:1005700000EB8200704700BF406870472DE9F843E8
:1005800007469146B1F1000817DB4368984514DA35
:100590000368DB68114698477C68013CA04509DA8E
:1005A000A300FD68EE1856F8046CEE50013C043BC5
:1005B0004445F6D1FB6843F82890BDE8F88300BFB6
:1005C0002DE9F04180460F464668002E19DDC568CA
:1005D000286807F063FA002480B106E055F8040F9C
:1005E000394607F05BFA48B100E00024D8F8003043
:1005F0009B69404621469847BDE8F0810134B442EA
:10060000ECD1BDE8F08100BF002905DB43689942C9
:10061000BCBFC36843F82120704700BFC36853F8CC
:1006200021007047C0687047C0687047C06800EB21
:1006300081007047C06800EB81007047C068704758
:10064000C06870474268C06800EB8200704700BF16
:100650004268C06800EB8200704700BF70B5044676
:100660004268C36843F822104368013343608268DC
:1006700093421CDB5600B6F1FE5F94BFB0004FF012
:10068000FF3004F059FB05466368002B09DD0023A9
:100690001A46E168C958E950013204336168914251
:1006A000F7DCE06808B104F04FFBE560A66070BDC0
:1006B00070B582B0044602AB43F8041D4168C268BD
:1006C000186842F82100636801336360A2689342AE
:1006D0001CDB5600B6F1FE5F94BFB0004FF0FF3058
:1006E00004F02AFB05466368002B09DD00231A4647
:1006F000E168C958E9500132043361689142F7DC7E
:10070000E06808B104F020FBE560A66002B070BDAF
:1007100070B50446002941DB436899423EDA83689C
:10072000013B002B0CDD8B000131A268914203DA02
:10073000E268D0184068D050043362688A42F3DC23
:100740006368013B6360A668F21A934226DA06EBFF
:10075000D6767610002E04DD3046B6F1FE5F17D84F
:1007600001E001200646800004F0E6FA0546002E6E
:1007700007DDB1000023E268D258EA5004338B420F
:10078000F9D1E06808B104F0DFFAE560A66070BD59
:100790004FF0FF3004F0D0FA0546EAE770BD00BF25
:1007A00070B50446002941DB436899423EDA83680C
:1007B000013B002B0CDD8B000131A268914203DA72
:1007C000E268D0184068D050043362688A42F3DC93
:1007D0006368013B6360A668F21A934226DA06EB6F
:1007E000D6767610002E04DD3046B6F1FE5F17D8BF
:1007F00001E001200646800004F09EFA0546002E26
:1008000007DDB1000023E268D258EA5004338B427E
:10081000F9D1E06808B104F097FAE560A66070BD10
:100820004FF0FF3004F088FA0546EAE770BD00BFDC
:1008300010B50446044B0360C06808B104F084FAA4
:10084000024B2360204610BDE8840000988400001D
:1008500010B50446044B0360C06808B104F074FA94
:10086000024B2360204610BD8885000038850000BB
:1008700010B50446064B0360C06808B104F064FA82
:10088000044B2360204604F05BFA204610BD00BFF5
:10089000E88400009884000010B50446064B03600D
:1008A000C06808B104F050FA044B2360204604F0FD
:1008B00047FA204610BD00BF88850000388500003B
:1008C00010B50446024B036004F03AFA204610BD0E
:1008D0009884000010B50446024B036004F030FA1F
:1008E000204610BD388500002DE9F04786B0574CF2
:1008F00020464FF4FA6101F009FD554F2046394674
:100900004FF4E13201F0DEFC204601F0D5FC606BD3
:1009100003685B684F49112298470A2003F0CEFA1A
:1009200020460021012201F045FD4B4B1869597BFF
:100930000025009501950295484B039301260496E6
:100940002A462B4600F08EFC41F2883003F0B6FABE
:100950000D20314603F040FA0D20294603F00AFA33
:100960000E20314603F038FA0E20314603F002FA29
:1009700002F03CFE3A4802F04BFF3A4C204602F0AF
:10098000B3FB394801F06CFE204602F049FCDFF869
:10099000E0A02046BAF800104A22334602F05EFC7E
:1009A000DFF8D0902046B9F800104A22032302F065
:1009B00055FCDFF8C4802046B8F800104B223346BF
:1009C00002F04CFC282064212A4602F09DFE2820DB
:1009D00054212A4602F098FE204649212A4602F078
:1009E000ABFC20464FF47A710822CA2302F062FC65
:1009F00020464FF4FA612A46CB2302F05BFC2046E6
:100A0000BAF800104A22334602F028FC2046B9F812
:100A100000104A22032302F021FC2046B8F80010FF
:100A20004B22334602F01AFC204602F0C3FC20465B
:100A300002F08EFD3B685B6838460C4906229847F9
:100A4000384604F085F906B0BDE8F087CC97FF1F63
:100A50000099FF1FD0850000B897FF1F801A06007D
:100A60003497FF1F3897FF1F5C97FF1FE485000036
:100A7000A097FF1F4097FF1F8897FF1F2DE9F04F9A
:100A800099B0994E0B9600250C950A240D942820B8
:100A900004F052F90E900F9610951194282004F04E
:100AA0004BF912904FF02809904C2820352102F084
:100AB00049FE054610F0020F02D08D4802F0B6FF45
:100AC00015F0100F0BD08B4B00938B4B01938B4B7E
:100AD000029387488A491A228A4B02F085FF15F053
:100AE000200F0BD0884B0093884B0193884B0293C7
:100AF0007F4888492222884B02F076FF15F0080FC4
:100B00000BD0864B0093864B0193864B029378481B
:100B100085491222854B02F067FF15F0040F03D0C0
:100B20007348834902F02EFF15F0400F0CD00023CC
:100B3000009317AD01957F4800211A460B4601F03E
:100B400073FD284602F062FE03F096F906467A4DE0
:100B50002868301A06F0B6FD784906F0BFFE8046D8
:100B60002E60774D2868414606F0FCFC2860614EF7
:100B7000336803F1004B634F3B6803F1004A5E4D5D
:100B80002B680993604B1868214606F0F3FD6D4908
:100B900006F0A4FE0090604B1868214606F0EAFDBE
:100BA000684906F09BFE0190584B186800F1004020
:100BB000214606F0DFFD634906F090FE02905B4B94
:100BC0001B680393554B1B680493554B1B68059397
:100BD000CDF818805C4859465246099B01F0CCFD7F
:100BE00038685A4906F0C6FD07463068574906F08E
:100BF000C1FD06462868554906F0BCFD0246384648
:100C0000314601F0E3FB0E9B0C9A43F822000C9B4B
:100C100001330C930D9EB3421CDB7600B6F1FE5FF0
:100C200094BFB0004FF0FF3004F086F805460C9BEF
:100C3000002B09DD00231A460E99C958E9500132EC
:100C400004330C998A42F7DB0E9808B104F07CF863
:100C50000E950D96322003F031F9B9F101097FF4B8
:100C600024AF0BA80FA9052201F0D2FB384D139534
:100C7000002314930A231593282004F05DF816909E
:100C80000FA813A940F21A424FF47A7301F0FCFB4B
:100C9000304E13A8314601F097FC2F4C23685B6857
:100CA00020462E49072298472046318804F09CF8B8
:100CB000204604F04DF81395169808B104F044F856
:100CC000274B1393084B0F93129808B104F03CF88C
:100CD000244B0F93044B0B930E9808B104F034F897
:100CE00019B0BDE8F08F00BFE8840000DB0F494079
:100CF0003497FF1F2897FF1F2C97FF1F40DAFF39FB
:100D00009897FF1F2497FF1F0897FF1F4497FF1F07
:100D100008AC1C3E9097FF1F3C97FF1F3097FF1FAA
:100D20001C97FF1F07409C3E1497FF1F1097FF1F43
:100D30004897FF1F5897FF1F2097FF1F00247449F3
:100D40008C97FF1F000034435C97FF1F00007A441C
:100D5000888500000C97FF1F0099FF1FEC8500009D
:100D6000388500009884000038B5134D284601F0FE
:100D700057FC124C28461249224606F0C1FE114D7E
:100D8000284601F05DFC28460F49224606F0B8FED1
:100D90000E4D284602F0A4F928460D49224606F0D9
:100DA000AFFE0C4D284602F02FFD28460A49224688
:100DB00006F0A6FE38BD00BF5897FF1F3C88FF1FF6
:100DC000252600005C97FF1F5D2600003897FF1F57
:100DD000E53000003497FF1F0D3800000369D3F899
:100DE0003801D3F83431C01A704700BF704700BFD4
:100DF0000369D3F84422B2F5817F09D8D3F844229D
:100E0000501CC3F84402134483F83C11012070477E
:100E1000012303710020704730B40369D3F84442C2
:100E2000B4F5817F1ED8D3F84442C4F581740134EF
:100E3000D3F844522B4403F59E73944202D201220C
:100E40000271224632B18D1811F8014B03F8014BA3
:100E5000A942F9D10369D3F844121144C3F84412EA
:100E6000104602E001230371002030BC704700BF30
:100E700038B50446084B0360036993F84822022AF8
:100E800008D1D3F864522DB1284603F02FFF28462D
:100E900003F056FF204638BD0086000010B4002243
:100EA00002714FF47A7484600273064A02604173DF
:100EB0004FF41B74044A04FB012101615DF8044BEB
:100EC000704700BF008600004088FF1F70B50446D1
:100ED0000D46C3681B7813F0200F40F0B68083687E
:100EE00080211970C3681221197090F84932012BC2
:100EF0000BD022B9002380F84832012070BD531E68
:100F0000DBB2012B00F2A38000E0012225B94FF0F3
:100F10008071504B196005E0012D03D14FF0007135
:100F20004C4B1960022A40F08C80D4F864624EB9B0
:100F3000082003F0FDFE0646002103F079FEC4F808
:100F400064627EB13379102B0CD1304603F0CEFEB3
:100F5000304603F0F5FE0023C4F86432012084F823
:100F6000480270BD002D30D133689A8B92B2998BB4
:100F700042F008029A83D4F8643219791031364865
:100F8000364A42F821001A7953119B0003F160435D
:100F900003F5614302F01F02012101FA02F21A6017
:100FA000D4F864321B689A8B92B2998B42F0020299
:100FB0009A83D4F864321B7903F1804303F5043338
:100FC00000221A7096221A7033E0012D31D1D4F824
:100FD00064321B689A8B92B2998B42F008029A8312
:100FE000D4F86432197910311D481C4A42F82100A6
:100FF0001A7953119B0003F1604303F5614302F03A
:101000001F02012101FA02F21A60D4F864321B684F
:101010009A8B92B2998B42F002029A83D4F864328E
:101020001B7903F1804303F5043300221A709722E1
:101030001A70002384F85A32022384F848320120BF
:1010400070BD012084F8480270BD002070BD0120F1
:1010500070BD00BF00E100E0512100000082FF1FD1
:101060006121000070B4254BA3FB0145AD092D02A1
:10107000A3FB02439B09B5FBF3F5B5F5A05F38DB95
:101080001F4A012302E00133382B05D052F8044FE8
:10109000B5EB042FF7DA93B15A1E194C54F82260BD
:1010A000A5EB0626002EB8BF764254F82340A5EBE8
:1010B0000425002DB8BF6D42AE42D8BF134642682A
:1010C000104CE45C14700E4A52F82330B1FBF3F379
:1010D000C0F84C320C4B994203D9836904221A7030
:1010E00009E08369094AA2FB0101C1F307511970A4
:1010F00001E00023E3E770BC704700BFD34D6210EE
:1011000018860000F8860000FF6BDC02819F5E16E7
:101110002DE9F84F06460D4617461C469DF8283027
:10112000002B00F08480C268127812F0200F75D175
:101130007DE0012F05D9012D73D1BA1E012A09D9ED
:1011400002E04FF0010901E04FF00009B9F1000F92
:1011500002D169E04FF00109002B32D096F84B32F2
:10116000002B14BF4FF0020B4FF0000B96F84A32E1
:10117000032B26D8DFE803F0020B141D112059467B
:1011800002F02AFE1020594602F026FE19E0122035
:10119000594602F021FE1320594602F01DFE10E0D0
:1011A0001E20594602F018FE1D20594602F014FE7A
:1011B00007E01F20594602F00FFE1A20594602F0A0
:1011C0000BFE8DB917B1012F07D00DE0214BC3F8ED
:1011D0000080043BC3F8008019E01F4BC3F8008077
:1011E000043BC3F8008012E0012D10D1022F08D07B
:1011F000032F0CD1194BC3F800A00433C3F800A08F
:1012000005E0174BC3F80080043BC3F8008086F864
:101210004A7286F84B424846BDE8F88F0020BDE888
:10122000F88F0020BDE8F88F4846BDE8F88F002C05
:1012300040F203220CBF4FF41978904640F203624B
:1012400040F26461002C0CBF8A469246002D7FF468
:1012500072AF6EE704A004400CA0044000D004402C
:101260002CB0044070B582B004469DF818000D46BD
:1012700029B92F490E6846F040060E6006E00129A4
:1012800004D12B490E6846F080060E6084F849228E
:10129000002184F851123AB9636920221A70226839
:1012A0001170E269117011E06269002837D12DE0F8
:1012B0005B00DBB21370E2694300DBB205E0400083
:1012C000C0B21070E2695B00DBB2137000230093C0
:1012D000204629469DF81C209DF82030FFF718FF76
:1012E00020461449099AFFF7BDFE204629469DF87D
:1012F0002820FFF7EBFD94F849321BB9A368802240
:101300001A7012E0A368C0221A700EE0202111703A
:1013100022685B00DBB21370E2690023D5E7282165
:10132000117022689842C3D8C9E702B070BD00BFEF
:1013300034800440006CDC022DE9F04F83B082461B
:101340008B4690F84A32032B4BD8DFE803F02D3060
:1013500002051E261D242CE01F261A2429E0204603
:10136000494602F007FD2B46013B7FF4FDAF2046C6
:10137000414602F0FFFC2B46013B7FF4FDAF3046B7
:1013800002F01CFD18B9013F17F0FF07E7D100215B
:101390008AF851129AF84A229AF84B320091504634
:1013A0005946FFF7B5FE1CE01126102401E0122675
:1013B00013249AF84B32002B304614BF022100212F
:1013C00002F00AFD2046012102F0D4FC2046012152
:1013D00002F002FD0B274FF00009A0254FF0010895
:1013E000CDE703B0BDE8F08F2DE9F8430546884608
:1013F0001646994602F040FD0EB9D5F8686202F033
:101400003BFD0746AB681A7812F0200F0ED0B422CD
:101410001A7032E0EC68247814F0200F06D1002313
:1014200085F84932AB68B0221A7006E0002EF1D080
:1014300002F022FDC01B8642ECD8AB681B7813F08B
:10144000200F0ED128464146FFF776FFEB681B7848
:1014500013F0200F05D1002385F84932AB68B02284
:101460001A70AB681B7803F0200303F0FF0023B968
:10147000042385F85132BDE8F88395F84832013BE2
:10148000DBB2012B38D802F081FBB8F1000F03D09A
:10149000B8F1010F03D005E01A4B1B7804E01A4B9A
:1014A0001B7801E0174B1B78834228DB0F2804DCF4
:1014B000012089F80000BDE8F883B8F1000F03D0DF
:1014C000B8F1010F08D00FE0A0F11002D2B20D4B1D
:1014D0001A700120BDE8F883A0F11002D2B20A4BC5
:1014E0001A700120BDE8F883A0F11002D2B2054BBA
:1014F0001A700120BDE8F8830120BDE8F8830120BF
:10150000BDE8F88318E400E019E400E0036949004D
:1015100083F83C1103690122C3F8442200230371BC
:10152000026982F8513270472DE9F04383B00546D5
:1015300014461F4600238DF80730D0F84432002BA4
:1015400000F0C7800FB9D0F86872EB6812221A70E9
:1015500028463A460DF10703FFF746FF002800F042
:10156000B88095F848321BB19DF80720002A53D067
:1015700002F082FC8146012385F8513285F8504201
:1015800000264FF002082AE02B69AA1992F83C21A4
:101590001A70EC68217811F0020FFBD084F80080FB
:1015A000EB681978C9B211F0100F08D0072285F83E
:1015B000512210221A70AB6880221A7089E011F053
:1015C000010F0BD01EB9052385F8513202E0062326
:1015D00085F85132AB6880221A707AE00136D5F86E
:1015E00044329E4207D2002FCED002F045FCC9EB18
:1015F00000008742C8D8D5F84432B3428CBF0423D8
:10160000002385F8513295F85032012BAB680CBF9E
:101610008022B0221A705CE05A1ED2B2012A58D839
:10162000012285F8512285F850420022C5F8402257
:10163000022B14D1D5F84432042B18D80FE01368CC
:101640009B6833B91368002101201872597299728E
:10165000D972136800221A765A769A76DA76AB68CF
:10166000F0221A702B6995F83C211A7031E00123A1
:1016700085F85A32D5F8642205F59F70D5F84442B2
:10168000033C11680B680023086011680120087191
:101690004B711168CB71116808724B728B72CB72EF
:1016A00011686042C8601068C18BA1B2C183126822
:1016B000D08AD182D5F86422296910680469016151
:1016C00010680375437510688371B1F1804FB9D309
:1016D000B5E703B0BDE8F0832DE9F04383B00446DD
:1016E00016469DF828700B9D00208DF80700002BF2
:1016F00000F04D81B3F5827F03D3082384F8513283
:1017000045E1C4F854320023C4F83431C4F8383108
:101710000DB9D4F86852E36812221A7020462A469E
:101720000DF10703FFF760FE002800F0308194F808
:10173000483223B19DF80720002A00F0958002F07E
:101740009BFB8046022384F8513284F8507223694F
:10175000720042F00102D2B21A70E268137813F0FC
:10176000020FFBD002231370E2681378DBB213F090
:10177000100F08D0072384F8513210231370A36888
:1017800080221A7003E113F0010F06D0052384F8BC
:101790005132A36880221A70F9E0032384F8513291
:1017A000D4F85432012BA3680CBFA822A0221A70CF
:1017B00023691B780226002745E00B7813F0020FFF
:1017C000FBD00E70002D00F0AA8002F055FBC8EB94
:1017D000000085428CBF00230123D4F83811023168
:1017E000D4F85422914205D03BB194F8592222B941
:1017F00000E03B46A26882F80090D4F8381101312D
:10180000D4F85422914280F09F80002B00F0918008
:1018100094F85922002A40F0AA808AE0042284F831
:10182000512201E084F8517294F85022012A06D125
:101830002022013A7FF4FDAFA2688021117023B10C
:10184000012384F859324FF0A809D4F83821D4F88C
:1018500054329A4280F09B8094F85132DBB2032BD1
:1018600040F09580E168A8E75A1ED2B2012A00F242
:101870008E80022284F8512284F85072934244D11F
:10188000D4F85432042B40D9012384F85A32D4F8C6
:1018900064322169186802680022016018680271C8
:1018A00042711868C271B1F1804F02D31A68926810
:1018B00032B91A6800210120107251729172D172EE
:1018C0001A680023137353739373D373D4F8642289
:1018D00004F13005D4F85402013811680F690D6124
:1018E000116801250D754B7511688B7111680D72AA
:1018F0004B728B72CB721368414299611368D98B1A
:1019000081B2D9831368DA8AD982A368F0221A7067
:101910002369720042F00102D2B21A7037E0D4F8A3
:1019200038210232D4F854329A423FF462AF3B4637
:1019300063E722691178D4F83821501CC4F83801C3
:10194000224482F830107AE784F85972A268B021F4
:10195000117022691178D4F83821501CC4F838016C
:10196000224482F83010002B3FF45CAF56E784F835
:101970005972A268B021117022691178D4F8382107
:10198000501CC4F83801224482F8301046E703B0F6
:10199000BDE8F083036993F85132043B042B0CD863
:1019A000DFE803F00910050703000120704703205A
:1019B000704704207047042070470079003018BF3A
:1019C000012070470220704790F8513213F0FF0F4A
:1019D0001BD090F85132DBB2052B18D090F8513261
:1019E000DBB2062B15D090F85132DBB2072B12D0A8
:1019F00090F85132DBB2042B0FD090F85102C0B2F4
:101A0000082814BF002001207047012070470120E2
:101A1000704701207047012070470120704700BFC8
:101A200070B50446154602F027FA0DB9D4F868528D
:101A300002F022FA06462046FFF7C6FF00283AD1F8
:101A4000002DF8D002F018FA801B8542F3D802F07E
:101A500013FA801B854210D894F84832022B0CD11F
:101A600094F85A3213F0FF0F07D02046FFF7ACFF6F
:101A70000028FAD0042384F8513294F85132DBB2B2
:101A8000012B09D094F85132DBB2022B04D094F828
:101A90005132DBB2032B02D1042384F8513280236C
:101AA000013B7FF4FDAF94F8513213F0FF0F14BFE8
:101AB0000020012070BD002DDFD0C8E7F8B5074633
:101AC0000E461546069C084611461A462346FFF761
:101AD0002BFD304629462246FFF7A2FF3846FFF786
:101AE00059FFF8BD70B582B004460D461E468BB155
:101AF0009DF8183000930799019129463346FFF766
:101B0000EBFD20462946079AFFF78AFF20B1D4F85B
:101B1000380102E0002000E0002002B070BD00BFEC
:101B2000D0F83421D0F838319A4208D2D0F8343184
:101B30005A1CC0F83421184490F8300070474FF018
:101B4000FF30704708B50069FFF7EAFF08BD00BF26
:101B5000D0F83421D0F838319A423DBFD0F8343132
:101B6000C01890F830004FF0FF30704708B500699A
:101B7000FFF7EEFF08BD00BF38B50446C268157810
:101B8000EDB281680B78DBB213F0200F00F0C38157
:101B900013F0100F00F0058190F85A32DBB2022BDF
:101BA00004D090F85A32DBB2032B4CD1D4F8641233
:101BB0000B689B8B03F080039BB2002B00F08582A7
:101BC00094F85A32DBB2022B40F07F8273E2137832
:101BD00013F0800FFBD00A79B54B1A70002384F8FC
:101BE0005A32D4F84432013BC4F840322369D4F865
:101BF0004022224492F83C211A7020E0AD4B1A6832
:101C00000B7901219940114219D0AB4A1370D4F8D5
:101C100064321A79A94B1A70002384F85A3215F0ED
:101C2000100F0CD0072384F85132E36812221A7087
:101C3000A36880221A700023C4F8403238BDE368DC
:101C400002221A7038BD90F85132DBB2012B56D106
:101C500015F0100F0DD0002380F85A32072180F8BC
:101C6000511212211170826880211170C0F8403227
:101C700038BD15F0010F0FD0002380F85A32D0F88C
:101C800040321BB9052380F8513202E0062380F868
:101C9000513280230B702EE0D0F840320133C0F86F
:101CA0004032D0F8442293420AD3002380F85132C4
:101CB00090F85032012B0CBF8023B0230B701AE038
:101CC00090F85A32DBB2012B0ED1022380F85A323F
:101CD000F1230B70D0F864321A79794B1A700369CA
:101CE00090F83D211A7006E00369D0F840220244C2
:101CF00092F83C211A70E36802221A7038BD90F8FD
:101D00005132DBB2022B36D115F0100F08D0072369
:101D100080F8513212231370836880221A7038BD04
:101D200015F0010F05D0052380F8513280230B7088
:101D30001DE090F85A32DBB2012B0CD1022380F85F
:101D40005A32E1230B70D0F864321A795C4B1A7066
:101D500003691B780BE0032380F85132D0F854322A
:101D6000012B0CBFE823E0230B7003691B78E368A9
:101D700002221A7038BD90F85132DBB2042B0AD11E
:101D800090F85032012B0CBF8023B0230B70C36836
:101D900002221A7038BD80230B70C36802221A70A9
:101DA00038BD90F85A32DBB2022B04D090F85A3288
:101DB000DBB2032B56D1D4F864321A68928B02F04E
:101DC000800292B2002A00F0918194F85A22D2B295
:101DD000022A40F08B817FE11A79354B1A7000237B
:101DE00084F85A3294F85132DBB2042B1CBF002322
:101DF00084F85132A368B0221A70D4F85432013BEF
:101E0000C4F83831D4F838315A1CC4F83821226962
:101E10001278234483F8302094F85032012B1DD1DE
:101E20002023013B7FF4FDAFA36880221A7015E0E8
:101E3000204A12681B790121994011420ED01F4A95
:101E40001370D4F864321A791B4B1A70002384F88B
:101E50005A3284F85132A36880221A70E368022251
:101E60001A7038BDD0F838210232D0F854329A4274
:101E700000F0438190F85132DBB2042B04D190F88A
:101E80005932002B00F03981D4F838210132D4F8CE
:101E900054329A4280F03F8194F85132DBB2042BE5
:101EA00040F02E8194F85932002B40F0348127E124
:101EB0001C8000402C8000401F8000401E8000409D
:101EC0001B800040002384F85132A368B0221A70AE
:101ED000D4F838315A1CC4F83821226912782344C6
:101EE00083F8302094F85032012B06D12023013B97
:101EF0007FF4FDAFA36880221A7094F85132DBB2F0
:101F0000042B04D194F85932002B00F00E81E368C1
:101F100002221A7038BD15F0100F08D0102313706C
:101F200015F0400F06D1C36802221A7038BD15F0B3
:101F3000400F60D094F85132DBB20A2B04D1D4F8B0
:101F40005C32002B40F0F58015F0040F1ED0092301
:101F500084F851320023C4F84432A368D0221A70A6
:101F600023691B785B0884F85232D4F8603203B1DD
:101F70009847D4F844320BB984F83C31236994F87B
:101F80003C211A700123C4F8403230E0002384F869
:101F9000583294F84A32012B05D1122069490322A4
:101FA00001F016FE15E02BB911206649032201F05D
:101FB0000FFE0EE0022B05D11E206349032201F023
:101FC00007FE06E0032B04D11F205F49032201F026
:101FD000FFFD0A2384F851320023C4F83831A36886
:101FE000C0221A7023691B785B0884F85232E368B8
:101FF00002221A7038BD13F0100F20D015F0010F17
:1020000015D1D0F84022D0F844329A4208D2D0F804
:1020100040325A1CC0F84022034493F83C2100E0AF
:10202000002223691A70A368D0221A703FE0C023EF
:102030000B7003691B78002380F8513237E090F869
:102040005132DBB20A2B32D1002380F8583290F89B
:102050004A32012B05D112203A49032201F0B8FD82
:1020600015E02BB911203749032201F0B1FD0EE034
:10207000022B05D11E203449032201F0A9FD06E000
:10208000032B04D11F203049032201F0A1FD236955
:102090001B78DAB2D4F83831B3F5817F07D8D4F899
:1020A0003831591CC4F83811234483F83020E368D0
:1020B00002221A7038BD0A79244B1A70A368F022E4
:1020C0001A70032384F85A32B9E594F85A32DBB215
:1020D000032B7FF493AD7AE51A791C4B1A70A36831
:1020E000E8221A70032384F85A32B7E694F85A2289
:1020F000D2B2032A7FF49CAE6EE6E8230B70C3E6EF
:10210000D4F838315A1CC4F8382122691278234493
:1021100083F83020F1E6002384F8593294F85132E4
:10212000DBB2042B7FF4CEAECFE6012384F8593224
:10213000EDE60023C4F83431D4F83801D4F85C3229
:10214000984701E715220000252200001F8000406B
:1021500008B502480021FFF70FFD08BD4088FF1FAA
:1021600008B502480121FFF707FD08BDAC8AFF1F33
:1021700010B50446C3681B7813F0200F24D1002348
:1021800080F8513290F84A32012B03D1122001F02D
:1021900097FD0FE01BB9112001F092FD0AE0022B20
:1021A00003D11E2001F08CFD04E0032B02D11F207F
:1021B00001F086FDD4F85C3253B30022C4F8342118
:1021C000D4F83801984710BD90F858320133DBB28B
:1021D00080F85832012B03D890F84932012B17D0E0
:1021E00094F84A32012B03D1122001F069FD10BD91
:1021F0001BB9112001F064FD10BD022B03D11E207C
:1022000001F05EFD10BD032B02D11F2001F058FD2F
:1022100010BD00BF08B502480021FFF7A9FF08BDA7
:102220004088FF1F08B502480121FFF7A1FF08BD44
:10223000AC8AFF1F70B50B4E30460021FEF72EFE14
:10224000094D0A4C30462946224605F059FC084EF5
:1022500030460121FEF722FE30462946224605F08F
:102260004FFC70BDB897FF1F710E00003C88FF1F28
:10227000A497FF1F70B582B0044699B90D4B1B6837
:102280000093009A4368D31A312B0BD80326094DCB
:10229000304601F013FE2B680093009A6368D31A4E
:1022A000312BF5D9034B1B680193019B636002B08E
:1022B00070BD00BF0898FF1F08B50021FFF7DAFFC7
:1022C00008BD00BFF8B541631B240C4D0C4E0D4FEB
:1022D00002E0C82001F0F2FD2B7813F0FF0F09D0C7
:1022E000337813F0030F05D03A68074B1B68D31AF5
:1022F000182B01D8013CECD1F8BD00BFEC98FF1FB2
:10230000FC98FF1F0898FF1F189BFF1F08B50023AC
:1023100083634360084609B101F0D0FD08BD00BFEA
:1023200038B504460D46406B03685B6809490622D0
:102330009847606B29460A22002302F019FD606B62
:1023400003685B68044908229847322001F0B6FD13
:1023500038BD00BF308700003887000070B50446E4
:102360000D46037A23B3606B03689B689847002887
:10237000F9D0002614E0606B0368DB689847C3B2AD
:10238000632B06D0762B02D0582B09D107E0C0B2C0
:1023900070BD20462946FFF7C3FF632070BD26723B
:1023A000606B03689B6898470028E4DC632070BD7D
:1023B000632070BD38B50446154621B10123037270
:1023C0000021FFF7CBFF257238BD00BFF8B50646E8
:1023D0000D4614463046314605F0CCF906462846EF
:1023E000294605F0C7F90146304605F0BBF8054619
:1023F0002046214605F0BEF90146284605F0B2F810
:1024000004F06CFD04F032FA05F056F8F8BD00BF98
:102410002DE9F84F05468B469246104605F056F9D1
:1024200001464FF07E5005F059FA81460027D0460C
:102430001AE02B681B6B2846E1199847034648466B
:10244000196805F097F90146304605F08BF8064605
:102450000134A045EDDC00E00026DBF80030DB684D
:1024600058463146984701372B689B68284698475D
:10247000CAEB0000874205DABAF1000FECDD002458
:102480000026D6E7BDE8F88F2DE9F04F85B0044669
:102490000F460092019301254FF0000BAA4687E0FA
:1024A000A9466E1E23681B6B204631469847D0F81C
:1024B000008023681B6B2046294698470346404608
:1024C000196805F0FFFA00282AD023681B6B204604
:1024D000691C9847D0F8008023681B6B204629466A
:1024E000984703464046196805F0ECFAC0B12368E6
:1024F0001B6B2046294698478046009805F0E6F871
:102500000146D8F8000005F0F1FA48B1ADF80C50DA
:10251000ADF80EA03B68DB6838460399984746E063
:1025200023681B6B204631469847066823681B6B5F
:1025300020462946984703463046196805F0CCFAEC
:1025400000282BD023681B6B204609F10101984716
:10255000066823681B6B2046294698470346304689
:10256000196805F0B9FAC8B123681B6B20462946E3
:1025700098470646019805F0A9F80146306805F02D
:1025800097FA58B1ADF80C504FF0FF33ADF80E305C
:102590003B68DB6838460399984708E0ADF80C5073
:1025A000ADF80EB03B68DB683846039998470135B3
:1025B00023689B682046984701388542FFF670AF34
:1025C00005B0BDE8F08F00BF70B504460E4600258B
:1025D0001FE02368DB6A204629469847B0F902309D
:1025E000012B15D10EE02368DB6A20462946984767
:1025F000B0F90230B3F1FF3F03D1338801333380A8
:1026000006E0013523689B68204698478542EADB4F
:10261000013523689B68204698478542D9DB70BD09
:10262000704700BF704700BF10B5039C20462A21A9
:1026300001F0C8F920462E2101F0C4F910BD00BFF9
:1026400000220260426082604FF07E51C1600261F0
:1026500042618261022280F828207047704700BFE3
:102660002DE9F0410B253D4CDFF808813C4F282037
:102670009B21012201F048F84FF4FA7001F01EFC92
:102680002820372101F05EF800F0010628203721CC
:1026900001F058F810F0010F08D023685B6820465D
:1026A000414622229847204602F052FB282037213B
:1026B00001F048F810F0020F08D023685B6820464C
:1026C00039461C229847204602F042FB2820372139
:1026D00001F038F810F0040F08D023685B6820463A
:1026E000204915229847204602F032FB2820372146
:1026F00001F028F810F0080F08D023685B68204626
:1027000019491C229847204602F022FB2820372135
:1027100001F018F810F0100F08D023685B6820460D
:10272000124913229847204602F012FB013D01D0C6
:10273000002E9CD02820372101F004F810F0040F5F
:1027400009D1064C23685B6820460949192298473D
:10275000204602F0FDFABDE8F08100BF0099FF1F9E
:10276000B0870000D0870000E887000008880000DC
:102770001C8800008C8700002DE9F04F99B083463B
:102780000E4615461C46C3680793036906934369C2
:10279000049383690393084604F0ECFF81462846BE
:1027A000294604F0E7FF80462046214604F0E2FF78
:1027B00007464846414604F0D5FE80464046394625
:1027C00004F0D0FE04F0A8F88246002105F066F976
:1027D000002840F080842598014604F0CBFF814614
:1027E0002698014604F0C6FF80464846414604F05C
:1027F000B9FE08902798014604F0BCFF07464846FA
:10280000414604F0AFFE80464046394604F0AAFE39
:1028100004F082F80746002105F040F9002840F056
:102820005A840798014604F09DFE0C9006980146D4
:1028300004F098FE0D900498014604F093FE0E906B
:102840000398014604F08EFE13900798014604F0A9
:1028500091FF0B900798069904F08CFF1190079850
:10286000049904F087FF14900698014604F082FF53
:1028700009900698039904F07DFF10900498014692
:1028800004F078FF08900398014604F073FF0A9063
:102890004FF07E50514605F021F812904FF07E50D7
:1028A000394605F01BF807462598394604F062FFC3
:1028B00082462698394604F05DFF019027983946F4
:1028C00004F058FF02900C98019904F053FF059012
:1028D0000C98029904F04EFF074650460B9904F0FD
:1028E00049FF80460598039904F044FF014640469D
:1028F00004F036FE80463846049904F03BFF01465A
:10290000404604F02FFE80465046099904F032FFFD
:102910000146404604F026FE80460D98019904F0D9
:1029200029FF049904F026FF0146404604F01AFEF0
:1029300080460D98029904F01DFF039904F01AFFD8
:102940000146404604F00EFE80465046089904F0C9
:1029500011FF0146404604F003FE804650460A99A6
:1029600004F008FF0146404604F0FAFD80460D9849
:10297000514604F0FFFE0F900C98514604F0FAFE09
:10298000039904F0F7FE814601980B9904F0F2FEDA
:102990000146484604F0E6FD81460698394604F0B3
:1029A000E9FE0146484604F0DBFD07460F9804990E
:1029B00004F0E0FE0146384604F0D4FD07460198D5
:1029C000099904F0D7FE0146384604F0C9FD0746D0
:1029D0000198089904F0CEFE0146384604F0C2FD85
:1029E00007460E98029904F0C5FE039904F0C2FE52
:1029F0000146384604F0B6FD074601980A9904F0EE
:102A0000B9FE0146384604F0ABFD07464046414654
:102A100004F0B0FE80463846394604F0ABFE01466D
:102A2000404604F09FFD03F077FF814607984FF082
:102A3000404104F09FFE514604F09CFE049904F0CE
:102A400099FE07460698059904F094FE014638461B
:102A500004F088FD074602980B9904F08BFE0146AE
:102A6000384604F07FFD074603980F9904F082FE74
:102A70000146384604F076FD07460298099904F0AD
:102A800079FE0146384604F06BFD07460E98019921
:102A900004F070FE039904F06DFE0146384604F020
:102AA00061FD07460298089904F064FE0146384625
:102AB00004F056FD074602980A9904F05BFE0146B1
:102AC000384604F04FFD0746014604F04BFD1590D3
:102AD0001098014604F046FD804604980C9904F0D5
:102AE00049FE0146404604F03BFD804630461299BF
:102AF00004F040FE0146404604F032FD0590119876
:102B0000014604F02FFD064603980E9904F032FEAC
:102B10000146304604F026FD06462846129904F088
:102B200029FE0146304604F01BFD0B9038460499FF
:102B300004F020FE16904FF07C50089904F010FD30
:102B40000A9904F00DFD494604F014FE054610985C
:102B5000149904F005FD394604F00CFE01462846A0
:102B600004F000FD514604F0FBFC824609F10043ED
:102B70000F933846069904F0FDFD179006980499C6
:102B800004F0F8FD05460798039904F0F3FD0146AB
:102B9000284604F0E5FC494604F0ECFD054604989F
:102BA000039904F0E7FD0146119804F0DBFC394677
:102BB00004F0E0FD0146284604F0D4FC019904F03D
:102BC000CFFC0A904846049904F0D4FD06461498B8
:102BD000109904F0C7FC494604F0CCFD05464FF0BF
:102BE0007C50099904F0BCFC089904F0B9FC394602
:102BF00004F0C0FD0146284604F0B4FC029904F03C
:102C0000AFFC80460E9B03F10040059904F0B2FD35
:102C100005460B980D9904F0ADFD0146284604F0D9
:102C2000A1FC05461698514604F0A4FD014628462D
:102C300004F096FC05460F98039904F09BFD179944
:102C400004F090FC0A9904F095FD0146284604F032
:102C500089FC05463046414604F08CFD0146284675
:102C600004F080FC01900998014604F07BFC0146C9
:102C70004FF07E5004F074FC05460898014604F0BD
:102C800071FC0146284604F06BFC0546204612996B
:102C900004F070FD0146284604F062FC0546384603
:102CA000039904F067FD02903846079904F062FD2D
:102CB00008901398059904F05DFD04460C980B9953
:102CC00004F058FD0146204604F04CFC04460698EA
:102CD0004FF0814104F04EFD294604F04BFD0146C2
:102CE000204604F03DFC04465046029904F042FDA3
:102CF0000146204604F036FC04463046089904F0AC
:102D000031FC01460A9804F035FD0146204604F0E6
:102D100029FC04464846039904F02CFD0646159804
:102D2000069904F027FD0146304604F019FC0146DF
:102D3000404604F01FFD0146204604F013FC064601
:102D40004846494604F00EFC00F100444846069906
:102D500004F010FD09900C9B03F10041059804F06C
:102D600009FD074613980B9904F004FD0146384607
:102D700004F0F8FB074604984FF0814104F0FAFC98
:102D80000146284604F0F6FC0146384604F0E8FB0C
:102D900005462046049904F0EDFC089904F0E0FB98
:102DA0000146504604F0E6FC0146284604F0DAFBF2
:102DB00005460298099904F0D5FB01460A9804F0EB
:102DC000D9FC0146284604F0CDFB05464846079944
:102DD00004F0D0FC07461598049904F0CBFC01469A
:102DE000384604F0BDFB0146404604F0C3FC0146F2
:102DF000284604F0B7FB05460D98059904F0BAFC87
:102E000007460E980B9904F0B5FC0146384604F0CD
:102E1000A9FB07460398214604F0ACFC014617982D
:102E200004F0A0FB0146504604F0A4FC01463846DD
:102E300004F098FB044607980F9904F09BFC0146A8
:102E4000169804F08FFB01460A9804F093FC0146A3
:102E5000204604F087FB04464046099904F08AFCAA
:102E60000146204604F07EFB04460198014604F02A
:102E700081FC82463046314604F07CFC8146504657
:102E8000494604F06FFB07462846294604F072FCC9
:102E900080463846414604F065FB029020462146B4
:102EA00004F068FC07465046494604F05BFB814647
:102EB0004846414604F056FB80464046394604F0F9
:102EC00051FB03F029FD01464FF07E5004F006FD52
:102ED0008046069B03F10040229904F04BFC074614
:102EE0000498239904F046FC0146384604F038FB68
:102EF00007460398249904F03DFC0146384604F047
:102F00002FFB4FF07C5104F035FC074601984146F9
:102F100004F030FC714904F02DFC0146384604F001
:102F20001FFB289904F026FC079904F01BFB0746B9
:102F30000798229904F01EFC81460498249904F015
:102F400019FC0146484604F00DFB8146039823997D
:102F500004F010FC0146484604F002FB4FF07C519F
:102F600004F008FC81463046414604F003FC5B490E
:102F700004F000FC0146484604F0F2FA289904F0F7
:102F8000F9FB069904F0EEFA06460798239904F037
:102F9000F1FB81460698249904F0ECFB0146484673
:102FA00004F0DEFA81460398229904F0E3FB01461F
:102FB000484604F0D7FA4FF07C5104F0DBFB814621
:102FC0002846414604F0D6FB444904F0D3FB0146B1
:102FD000484604F0C5FA289904F0CCFB049904F0A3
:102FE000C1FA05460798249904F0C4FB8146069867
:102FF000239904F0BFFB0146484604F0B3FA81462A
:103000000498229904F0B6FB0146484604F0A8FA59
:103010004FF07C5104F0AEFB81462046414604F05F
:10302000A9FB2E4904F0A6FB0146484604F098FA95
:10303000289904F09FFB039904F094FA044638465B
:10304000394604F097FB03903046314604F092FB7A
:1030500082460398514604F085FA80462846294660
:1030600004F088FB81464046494604F07BFA049010
:103070002046214604F07EFB80460398514604F02A
:1030800071FA82465046494604F06CFA8146484639
:10309000414604F067FA03F03FFC01464FF07E50D2
:1030A00004F01CFC80463846414604F063FBCBF834
:1030B0000C003046414604F05DFBCBF8100028467A
:1030C000414604F057FBCBF814002046414604F07B
:1030D00051FBCBF8180019B0BDE8F08F0EC71A3FAE
:1030E000704700BF704700BF38B52820392100F075
:1030F00029FB044610F0010F09D0264D2B685B68B0
:103100002846254918229847284601F021FE14F048
:10311000020F09D01F4D2B685B6828461F491E22ED
:103120009847284601F014FE14F0040F09D0194DF9
:103130002B685B6828461A4921229847284601F0E7
:1031400007FE14F0080F09D0124D2B685B68284663
:1031500014491C229847284601F0FAFD14F0100F7C
:1031600009D00C4D2B685B6828460F4923229847ED
:10317000284601F0EDFD14F0200F09D0054C23681E
:103180005B682046094922229847204601F0E0FD6D
:1031900038BD00BF0099FF1F8C880000A888000080
:1031A000C8880000EC8800000C890000308900000D
:1031B00008B528205B21032200F0A6FA28205C2114
:1031C000032200F0A1FA28203221022200F09CFA0A
:1031D00028205521642200F097FA28205621142235
:1031E00000F092FA28205721142200F08DFA2820AE
:1031F0005821B22200F088FA08BD00BF08B5282087
:103200005421002200F080FA28203321072200F008
:103210007BFA28203421012200F076FA08BD00BF95
:1032200010B5044628203421002200F06DFA282031
:10323000A021002200F068FA28203421012200F0A9
:1032400063FA28203421002200F05EFA2046FFF7BE
:10325000AFFF2046FFF7D2FF10BD00BF70B5144688
:1032600028206421D2B200F04FFA28205421802275
:1032700000F04AFA28203A2100F064FAA04207D070
:1032800028263A253046294600F05CFAA042F9D1BA
:1032900028203B2100F056FA28203C2100F052FA69
:1032A00028203D2100F04EFA28203E2100F04AFA65
:1032B00070BD00BFF8B51C46CBB20F0A12B1D6B232
:1032C000150A01E000252E46282060211A4600F04C
:1032D0001BFA282061213A4600F016FA28206221C4
:1032E000324600F011FA282063212A4600F00CFA39
:1032F00028206421E2B200F007FA2820542180221D
:1033000000F002FA28203A2100F01CFAA04207D06F
:1033100028263A253046294600F014FAA042F9D171
:1033200028206421002200F0EFF9282054210022F7
:1033300000F0EAF9F8BD00BF70B5154641F0800411
:1033400028206021D2B200F0DFF928206121C5F3E6
:10335000072200F0D9F928206221C5F3074200F0C6
:10336000D3F9282063212A0E00F0CEF92820642109
:10337000224600F0C9F928205421802200F0C4F927
:1033800028203A2100F0DEF9844207D028263A2589
:103390003046294600F0D6F98442F9D1282064212C
:1033A000002200F0B1F928205421002200F0ACF9ED
:1033B00070BD00BF10B528206421002200F0A4F9E0
:1033C00028205421002200F09FF92820922100F0AB
:1033D000B9F910F0010F09D0504C23685B68204602
:1033E0004F491F229847204601F0B2FC282038217F
:1033F00000F0A8F9013807282DD8DFE800F0040E06
:103400002C182C2C2C22454C23685B6820464549FF
:1034100015229847204601F09BFC404C23685B68CE
:103420002046414915229847204601F091FC3B4C2B
:1034300023685B6820463D4918229847204601F0E2
:1034400087FC364C23685B68204639492022984720
:10345000204601F07DFC28209E2100F073F910F039
:10346000010F05D02D4803685B683249192298473F
:103470002820352100F066F901381F284DD8DFE8F3
:1034800000F0101A4C244C4C4C2E4C4C4C4C4C4CD8
:103490004C384C4C4C4C4C4C4C4C4C4C4C4C4C4C80
:1034A0004C421E4C23685B682046234910229847F3
:1034B000204601F04DFC194C23685B6820461F49EB
:1034C0000C229847204601F043FC144C23685B68AB
:1034D00020461B491C229847204601F039FC0F4C1E
:1034E00023685B682046174915229847204601F05B
:1034F0002FFC0A4C23685B68204613491722984723
:10350000204601F025FC054C23685B6820460F49E6
:1035100016229847204601F01BFC10BD0099FF1FA2
:1035200054890000748900008C890000A48900007F
:10353000C0890000E4890000008A0000148A0000AD
:10354000248A0000448A00005C8A0000748A00001B
:1035500008B52820362100F0F5F801381F2835D8A5
:10356000DFE800F01016341C3434342234343434A0
:103570003434342834343434343434343434343417
:103580003434342E124803685B6812491F2298476E
:103590000F4803685B681049202298470C4803686D
:1035A0005B680E4917229847094803685B680C4915
:1035B0001F229847064803685B680A4920229847FB
:1035C000034803685B6808491722984708BD00BF95
:1035D0000099FF1F8C8A0000AC8A0000D08A00008E
:1035E000E88A0000088B00002C8B00002DE9F043D6
:1035F00083B03C4C23685B6820463B490B229847CC
:10360000204601F0A5FB01244FF00008374D354F4F
:10361000DFF8F090E6B228463146FDF777FF01204B
:1036200000F04CFC29696A7B0023009328460123A3
:10363000FEF744FAF8B93B685B6838462C491E220D
:1036400098470F2E05D83B685B6838462949012208
:103650009847384621461022002301F089FB3B6839
:103660005B683846244903229847384601F070FBCE
:1036700008F1010818E0042816D13B685B68384659
:1036800049461A2298470F2E05D83B685B68384692
:10369000184901229847384621461022002301F09C
:1036A00067FB384601F054FB01347F2CB2D1B8F1EE
:1036B000000F0AD10B4C23685B6820460F49152286
:1036C0009847204601F044FB09E0064C23685B68FC
:1036D00020460B4905229847204601F039FB03B0EC
:1036E000BDE8F0830099FF1F448B0000B897FF1FCF
:1036F000508B0000708B0000748B0000948B0000D6
:10370000AC8B0000788B000070B582B003460E468B
:1037100015460B4C20461946FDF7F8FE204631466B
:10372000FDF766FB20462946FDF762FB2169627BB7
:103730000023009320460123FEF7C0F902B070BDBC
:10374000B897FF1F70B582B006460D460F4C204655
:103750003146FDF7DBFE20462946FDF749FB21698E
:10376000627B0025009520462B46FEF7A7F92069CD
:10377000617B0123009301953246FEF7B3F920697E
:10378000FEF7CEF9C0B202B070BD00BFB897FF1F00
:103790002DE9F04182B007460D4690461E46194C71
:1037A00020463946FDF7B2FE20462946FDF720FBAC
:1037B0002169627B0025009520462B46FEF77EF9A5
:1037C0002069617B0123009301953A464346FEF749
:1037D00089F92069D0F83821D0F834319A420DD0D7
:1037E0002C46084FE5B2FEF79BF970553869D0F8C2
:1037F0003811D0F8342101349142F3D102B0BDE840
:10380000F08100BFB897FF1F704700BF704700BF2F
:1038100070B528207021FFF795FF064628207121FA
:10382000FFF790FF0546394C23685B68204638490E
:1038300016229847204631461022002301F098FABC
:10384000204629461022002301F092FA204601F07A
:103850007FFA23685B6820462E491122984720464C
:1038600001F076FA28207221FFF76CFF0646282027
:103870007321FFF767FF054623685B6820462649EA
:10388000162298472046314601F0AEFA20462946D6
:1038900001F0AAFA204601F05BFA28209021FFF7F8
:1038A00051FF054623685B6820461C49142298474F
:1038B000204629461022002301F05AFA23685B684B
:1038C0002046174910229847204601F041FA282047
:1038D0009121FFF737FF054623685B6820461149B1
:1038E00015229847204629461022002301F040FA6D
:1038F00023685B6820460C4910229847204601F057
:1039000027FA4FF47A7000F0D9FA70BD0099FF1FC2
:10391000B48B0000CC8B0000E08B0000F88B000023
:10392000108C0000248C00003C8C00004B788878C0
:10393000000400EB03200B781844CB7800EB036005
:10394000704700BF10B582B00C462820D1B20622C5
:103950006B46FFF71DFF9DF801209DF8003043EAFC
:10396000022323809DF803209DF8023043EA0223BE
:1039700063809DF805209DF8043043EA0223A3806C
:1039800002B010BD30B585B005460C462820002198
:1039900010226B46FFF7FCFE28466946FFF7C6FF7C
:1039A0002060284601A9FFF7C1FF6060284602A9F0
:1039B000FFF7BCFFA060284603A9FFF7B7FFE06050
:1039C00005B030BD00B583B02820C9B2022201ABDA
:1039D000FFF7DEFE9DF805009DF8043043EA002065
:1039E00000B203B05DF804FB70B50D461E46069CA0
:1039F000FFF7A8FFB5F9000003F068FE214603F0C9
:103A0000B9FE3060B5F9020003F060FE214603F014
:103A1000B1FE049B1860B5F9040003F057FE21467F
:103A200003F0A8FE059B186070BD00BF38B52820C4
:103A30005021FFF787FE0446002856D02B4D2B68F7
:103A40005B6828462A4918229847284621460A22B8
:103A5000002301F08DF9284601F07AF9112C06D1E6
:103A600028462B685B6823491522984711E0122CE1
:103A700006D11E4803685B681F491622984711E06B
:103A8000142C06D1194803685B681C490D2298471D
:103A900011E0212C06D1154803685B6818492422DF
:103AA000984711E0222C06D1104803685B6815493D
:103AB0002522984711E0242C06D10C4803685B6846
:103AC00011491C22984738BD302C06D1074803689D
:103AD0005B680E490B22984738BD802C05D10348FE
:103AE00003685B680A491422984738BD0099FF1F94
:103AF000B48C0000D08C0000E88C0000008D000029
:103B0000108D0000388D0000608D0000808D000059
:103B10008C8D0000024B1A6801321A60704700BF9A
:103B20000898FF1F08B50D4C236813F4802F01D0AF
:103B300000F01AFB236813F4806F01D001F060FDE0
:103B4000236813F4006F01D002F00CF9236813F41A
:103B5000805FE9D002F0C4FBE6E700BF3480044098
:103B600008B5FFF7DFFF00BF1022014B1A80704736
:103B700000200540704700BF024A136818441060D7
:103B800018467047188DFF1FFEE700BFEFF3138341
:103B9000ABB9EFF31083ABB9EFF3058323B10F2B70
:103BA00005D9094A985C03E04FF4807000E00020DA
:103BB000EFF311833BB1834238BF184670474FF093
:103BC000FF30704700207047F0E300E0704700BF0F
:103BD00030B421285AD8042A58D8DFE802F007095F
:103BE000050B03000B2206E00A2204E0082202E093
:103BF0000C2200E009221404254B03EBC0004368AB
:103C0000244A2548C2F89C012448C2F8A00124484F
:103C1000C2F8A4012348C2F8A8012348C2F8AC01A5
:103C200003F14042A2F592227C2A18D903F14040C8
:103C3000A0F594207C2814D903F14042A2F59622E5
:103C40007C2A10D903F14042A2F598227C2A0CD993
:103C500003F14042A2F59A227C2A08D916E0134DBE
:103C600006E0134D04E0134D02E0134D00E0134D48
:103C700072B61A6822F470221A60C3F3840045F801
:103C8000201042F0807214431C6062B630BC704752
:103C9000A48D00000082FF1F1188FF1FE587FF1F12
:103CA000B987FF1F8D87FF1F6187FF1F1C8DFF1FB7
:103CB000548DFF1FA48DFF1FD48DFF1FF48DFF1F98
:103CC0001D4B03EBC000436803F14042A2F5922272
:103CD0007C2A18D903F14042A2F594227C2A14D9F7
:103CE00003F14042A2F596227C2A10D903F140420A
:103CF000A2F598227C2A0CD903F14042A2F59A221F
:103D00007C2A08D970470D4906E00D4904E00D49A9
:103D100002E00D4900E00D4972B61A6822F0877280
:103D200022F4803242F080721A60C3F38403084A9E
:103D300041F8232062B67047A48D00001C8DFF1F40
:103D4000548DFF1FA48DFF1FD48DFF1FF48DFF1F07
:103D5000CD3B0000044B00221A6004490A60044A6B
:103D6000106010221A60704714D0034004D0034042
:103D700000D0034021281ED80F4B53F8303093F861
:103D8000802212F0FF0F08D019B1012283F88020A1
:103D90007047012283F800217047074B03EBC000F6
:103DA000436821B11A6842F003021A6070471A682A
:103DB00022F002021A607047A48D0000212806D864
:103DC000044B53F8303093F80002C0B27047002023
:103DD000704700BFA48D000021284AD8254B03EB73
:103DE000C0035B68012911D004291DD0214A52F873
:103DF0003020002082F8800200292FD0022931D003
:103E000003291FD040F203121A607047194A52F872
:103E10003020012182F880124FF4A2721A601A68D1
:103E200022F020021A607047124A52F83020012115
:103E300082F880124FF4A2721A601A6842F02002CF
:103E40001A6070474FF480721A601A6842F00202DA
:103E50001A601A6822F001021A6070474FF48072EB
:103E60001A6070474FF480721A601A6842F00302B9
:103E70001A607047A48D000072B60C4B1B680C4A88
:103E800012680C49096862B611F0806F02D0322BBB
:103E900088BF0132C3F5BB33FF330749A1FB0303DE
:103EA0009B094FF47A7000FB0230704718E000E085
:103EB0000898FF1F04ED00E0ABAAAAAA38B5054692
:103EC000FFF7DAFF044625B938BD013D0AD004F5F5
:103ED0007A74FFF7D1FF001BB0F57A7FF5D200F0BE
:103EE000BDFFF6E738BD00BF10B5264B4FF400020A
:103EF0001A604FF080721A604FF000721A604FF033
:103F000080621A604FF000621A6000201E4B186039
:103F10004BF6FF710433196028231C4A13600832E2
:103F200013600832136008321360083213600832DD
:103F3000136008321360083213600922144C2260A7
:103F400004F5805404342060043421600434236078
:103F500008342360143C226004F5FE2404342060FD
:103F60000C4801600C490B6008310B600B4B1A6068
:103F700000F096FF4FF4C870FFF7A0FF00F074FC4C
:103F800010BD00BF08E100E0048003400C80034046
:103F90000080034008800B400C800B4000800B40E9
:103FA00030B40E4B1B7843F002020D4C04EBC204FC
:103FB00060600C48007800280CBF8824C82444EABC
:103FC0000141074D45F8321080F00100054A10709C
:103FD00083F00103014A137030BC70477498FF1FCF
:103FE0000080FF1FED98FF1F10B4431E032B11D854
:103FF00072B60A4A52F8230050B14268074941F8A4
:104000002320074A32F813400188611A22F813105E
:1040100062B600E000205DF8044B70476498FF1F13
:10402000089BFF1F013803280DD872B6074B53F8C1
:1040300020302BB1002001305B68002BFBD100E069
:10404000002062B670470020704700BFB898FF1F7D
:1040500038B572B601231B491B4C5A1812F8012CB3
:1040600012F0080F24D09A0054F832506DB9164B54
:1040700003EBC20108304860144943F83210144B76
:104080001A78013A1A7062B638BD42F0010254F84B
:1040900032506DB90C4B03EBC201083048600D493A
:1040A00043F832100A4B1A78013A1A7062B638BDDA
:1040B0000133052BD1D162B60022054B1A7000F0F6
:1040C00037FC38BDE08E00000080FF1F88004000F4
:1040D000E298FF1FC800400010B4431E032B37D8DE
:1040E000400140F010001C4A104472B61B4AD25CDA
:1040F000032A09D8DFE802F019021B050830022262
:1041000016E00830042213E0154A52F823201AB9A9
:10411000134A42F8231003E0124A52F82320516058
:10412000104A42F8231062B612E0032200E0052292
:104130000A4CE25401F10803436000F00803002B2D
:104140000CBF8823C8230A8843EA0243036062B68F
:104150005DF8044B704700BF0080FF1F2098FF1FD1
:10416000B898FF1FC898FF1F2DE9F84FA34CDFF840
:10417000E092DFF8E0A2DFF8E0B22578EDB215F0CA
:10418000040F1DD09E4B1B7813F0FF0F16D09D4BD4
:104190001B7803F0FF022BB1531EDBB2994A137058
:1041A00003B900BE984B1B7803F0FF0233B1531ED6
:1041B000DBB2954A13700BB900F016FD042323708F
:1041C00015F0080F00F0E48299F80030DBB21D0909
:1041D00040F021828D4D9E0805EBC6035A6855F8C4
:1041E0003630C3F38303013B0C2B00F21082DFE86F
:1041F00013F0CB01CB010E020E020E020E020E02D4
:104200000E02E8010E020E020E020D008049136834
:104210000B6052684A607F4A45F8362000227E498A
:104220000A607A490A618A6101217C4A11709BB255
:1042300040F28162934218D8B3F5D06F2ED2B3F515
:10424000817F00F01E8106D8802B00F0C980822B70
:1042500000F0CC8066E140F20232934200F0268109
:10426000B3F5A06F00F062815CE142F2210293425B
:1042700000F0868107D8B3F5086F00F0AB80B3F586
:10428000106F11D04EE142F22122934200F04181A1
:1042900042F22132934200F0498143E1604B5D6874
:1042A000002D40F0188130E1594B9A78544B1A7028
:1042B000564D05F180062B6A13F0800F03D0686A13
:1042C000083800F035FB0835B542F4D1DFF88C81B1
:1042D00000263746534AB05828B1456800F028FBFD
:1042E0000DB12846F9E700234E4973504E4AB350AA
:1042F0004E4BF05828B1456800F01AFB0DB1284626
:10430000F9E7002349497350494AB35028F8023F5E
:10431000484BFB5C023B032B0AD8DFE803F00206A4
:1043200002060022434BDA5502E00122414BDA55E6
:1043300001370436102ECDD100223F4B1A700125D3
:104340003E4EDFF81C81314F05EB080313F8013CAA
:1043500006F8043B13F0080F2DD000F0C9FA48B15D
:10436000A90007EB451200F108035360344A47F8EF
:10437000312007E0AB00002247F833202E4B1A789B
:1043800001321A7000F0B4FA58B1AB0043F00103E7
:1043900007EBC30100F108024A601E4A47F83320C8
:1043A00009E0AB0043F00103002247F83320224B21
:1043B0001A7801321A70AA0042F00201002347F86D
:1043C000313042F0030247F8323001351D4B9E4236
:1043D000BAD11EE20A4B1B781B4D2B700127AAE0B5
:1043E000194D00232B706B700227A4E0084B9B88AB
:1043F000042B37D90F22154B1A70C1E080200740DB
:10440000EC98FF1F7598FF1FEE98FF1F0080FF1F9D
:10441000D898FF1FC80040000C98FF1FED98FF1FA1
:10442000E48E00006498FF1F1098FF1FB898FF1FCC
:10443000C898FF1F2098FF1FE298FF1FC420074065
:1044400088004000D4200740E498FF1FC0200740A8
:10445000902007409420074098200740069BFF1FAC
:10446000E08E0000A04A0021117051709F4A12F89E
:10447000233013F0020F5CD09B4D01232B700227D9
:1044800059E09B4B9B8803F07F03042B02DC984A86
:1044900052881AB10F22954B1A7071E0934A12F8A4
:1044A000231021F0020102F82310B2E1904B9B8807
:1044B00003F07F03042B02DC8D4A52881AB10F22CD
:1044C0008A4B1A705CE0894A12F8231041F002010D
:1044D00002F823109DE1864B5E889F88854BA3F1EF
:1044E0000C02114633F80C0CB04209D133F80A0C17
:1044F000B84205D1360A032E0CBF2F7817891AE06F
:104500000D690C330C32002DEBD10F22774B1A7052
:1045100036E0794B1A68794B1A60754B9A78784B6C
:104520001A7076E10F22714B1A7029E000273D4680
:1045300001E002276C4D6E4BDB889F4228BF1F466F
:10454000402F34BF3E46402628463146FFF728FD1F
:104550003544BF1B03D13F2E00F2608110E0402F95
:1045600034BF3E46402628463146FFF719FD354404
:10457000BF1B01D13F2E03D9624B1D60624B1F80D0
:1045800001238AF8003042E0594B198842F2210396
:10459000994212D15D4BD81D12F8011B03F8011F7F
:1045A0008342F9D15A4B1B68862B02D10F22594BFB
:1045B0001A7000200146FFF7F3FC574B45F83630E0
:1045C00025E0504B1E68BEB14F4FB7F80080B8F1E0
:1045D000400F34BF4546402530462946FFF7E0FCF2
:1045E000C5EB08039BB23B800BB9402D01D135448C
:1045F00000E00025434B1D603D4B1B88B3F5A06FC9
:1046000005D13B4B00225A709B788BF80030012378
:104610008AF80030B9E0414E9F0806EBC708D8F889
:104620000420A2F10800013DEDB213F0080F47D0BD
:1046300000F07EF93A4B53F825304BB35A683849AD
:1046400041F8252003F10802C8F80420354A525DDC
:10465000032A12D8DFE802F002060A0E0321314ACB
:1046600051550AE002212F4A515506E005212D4AF5
:10467000515502E004212B4A515518F0080F0CBF88
:104680008822C8221B8842EA034346F837307CE080
:10469000244B5B5D032B0BD8DFE803F07777020632
:1046A0000022204B5A5570E001221E4B5A556CE0F7
:1046B00018F0080F0CBF022203221A4B5A5564E06F
:1046C00056F837301B0C22F8083C002B55D000233D
:1046D00022F8063C42F8043C134B53F825302BBB20
:1046E000114B43F8250025E0E498FF1FC020074048
:1046F000D898FF1FF08E00000898FF1F189BFF1F1F
:10470000FC98FF1F0C98FF1FE098FF1F0F9BFF1FD7
:10471000109BFF1F7598FF1FC80040000080FF1FFF
:10472000B898FF1F2098FF1F6498FF1F3F4B53F856
:10473000253058603D4B43F825003D4B33F81510AC
:1047400032F8082C0A4423F8152000F0D1F860B1A3
:1047500000F10803C8F8043018F0080F354B364A4A
:1047600008BF134646F837300FE0002346F83730CD
:10477000324B1A7801321A7007E018F0080F2D4BEF
:104780002D4A08BF134646F8373008232370F4E457
:1047900015F0010F22D02A4902230B700022294B69
:1047A0001A70294B24481860284C5C60986028488F
:1047B000D8601A619A610D20264B1870FF23264895
:1047C00003700838037018300270244A13709F2257
:1047D000234B1A7001230B70BDE8F88F15F0800F82
:1047E00005D00D221B4B1A708022403B1A7015F029
:1047F000020F06D0184B1A78D2B21A700222083B68
:104800001A7015F0100F0ED01022164B1A70BDE85A
:10481000F88F00200146FFF7C3FBB1E628460021D0
:10482000FFF7BEFBACE6BDE8F88F00BF1098FF1F96
:10483000089BFF1FC800400088004000E298FF1F4F
:10484000942007407498FF1F0080FF1F2498FF1FCB
:104850007898FF1FC0200740882007408C20074021
:10486000842007408020074008B501F0ADFD0023FB
:104870001B491A465A50C81842600833882BF9D190
:10488000184B1A6842F480221A60154BC3F30721B3
:10489000154A1170C3F30741143211701B0E043214
:1048A0001370FF23343A137008321370783A137080
:1048B00001238432137000216C3211707C3A137022
:1048C00070220A4B1A704FF40072A3F241331A603F
:1048D000102203F1C04303F5C8231A7008BD00BFBE
:1048E0000080FF1F348004409C20074049E400E022
:1048F00072B60D4B1A68B2FA82F30B2B02D962B66C
:10490000002070474FF00041D94022EA01020649D9
:104910000A6062B6054903EBC303DB00C818002236
:10492000CA504260704700BFFC8DFF1F0084FF1F0C
:1049300008B50F4BC31A0F4AA2FB03131B090B2B1D
:1049400014D80D4A12783AB10C4A127812F0FF0FBF
:1049500002D0FFF77DFB08BD72B6094A4FF0004157
:1049600021FA03F311681943116062B608BD00BF54
:104970000084FF1F398EE338E298FF1FEC98FF1F79
:10498000FC8DFF1F10B5134B1B6853B9124B1B78DE
:1049900013F0FF0F18D00320FFF726FB0D4B186014
:1049A000A8B10C4B186843885A1C03441C7A03882E
:1049B0009A4206D3FFF7BCFF0022064B1A6020463E
:1049C00010BD4280204610BD4FF0FF3010BD4FF0AB
:1049D000FF3010BDF898FF1FEC98FF1F08B50D4B76
:1049E0001B6883B90C4B1B7813F0FF0F08D0032012
:1049F000FFF7FAFA074B186028B94FF0FF3008BDEF
:104A00004FF0FF3008BD034B1B685A881344187AD7
:104A100008BD00BFF898FF1FEC98FF1F044B988853
:104A2000044B1B681BB11A885B88D31A1844704763
:104A3000089BFF1FF898FF1F10B50B4B1B7813F056
:104A4000FF0F0FD0094B186820B1FFF771FF00224C
:104A5000064B1A6003242046FFF7C6FA10B1FFF791
:104A600067FFF8E710BD00BFEC98FF1FF898FF1F25
:104A70002DE9F04704460122374B1A700E460029F3
:104A800064D0DFF8E080DFF8E0909A46334FD8F842
:104A9000003083BB99F8003013F0FF0F06D10022DD
:104AA0002D4B1A704FF0FF30BDE8F0874AF2F92520
:104AB0000420FFF7B7FA07280AD801238AF8003044
:104AC000FFF716FFC8F80000A8B900238AF80030E5
:104AD000013D01D03B7833B10122204B1A704FF0D9
:104AE000FF30BDE8F08700F0B9F999F8003013F015
:104AF000FF0FDDD1D3E700233B70D8F800104A88C0
:104B0000C2F14005AE4238BF354602F108030B44FE
:104B10002A444A80761B3DB1254414F8012B03F842
:104B2000012BAC42F9D100E025464B883F2B07D939
:104B300040230B800420FFF7CFFA0023C8F8003091
:104B40000522074B1A700EB12C46A0E70020024B3D
:104B50001870BDE8F08700BFEF98FF1FF498FF1FA3
:104B6000EE98FF1FF098FF1FEC98FF1F00B583B071
:104B700002AB03F8010D18460121FFF779FF03B0DE
:104B80005DF804FB10B5144B1B7813F0FF0F21D018
:104B90000122124B1A70124B196851B10024114BAB
:104BA0001C704B880B800420FFF796FA0C4B1C609E
:104BB0000DE0FFF79DFE014630B10022094B1A704F
:104BC0000420FFF789FA02E00122064B1A70002246
:104BD000024B1A7010BD00BFEC98FF1FEF98FF1F2B
:104BE000F098FF1FEE98FF1F08B50E4B1B7813F0CF
:104BF000FF0F16D10C4B196841B14B880B80042074
:104C0000FFF76AFA0022084B1A6008BDFFF770FE32
:104C1000014618B10420FFF75FFA08BD0122034BDB
:104C20001A7008BDEF98FF1FF098FF1FEE98FF1F46
:104C300030B472B699B902688AB103790F2B0ED8D5
:104C400027490988194111F0010F08D003F10073B9
:104C500003F59063B2EB431F01D162B63EE0204BF7
:104C60001D882946002341FA03F212F0010F2DD1CD
:104C7000012202FA03F42543194A158062B6DAB21A
:104C8000027118490C6844F002040C6004390C6885
:104C900044F002040C60822413490C601A310A703B
:104CA00004310A7006390A7007310A7003F1007383
:104CB00003F590635B01036000221A605A609A60FA
:104CC000DA601A615A619A61DA6107E00133102BE8
:104CD000C9D162B6002303601023037130BC704752
:104CE000FE98FF1F408004400080004003790F2B96
:104CF00010D8094A137072B6084B0279012101FAE3
:104D000002F2198821EA02021A8062B610230371A6
:104D100000230360704700BF1A800040FE98FF1F09
:104D200008B5FBF7E1FDFBF7A9FE00F097F8FAE7FD
:104D300008B502F023FF08BD08B502F01FFF08BD4B
:104D400008B502F023FF08BD08B502F01FFF08BD3B
:104D500000B583B0054B1B88ADF8043003685B6871
:104D600001A90222984703B05DF804FBB48E00004D
:104D7000F0B58BB0164622B903681B68C9B29847D4
:104D80002FE0012A08BF0A2621B930228DF82520FC
:104D9000212417E021243746B1FBF6F506FB151553
:104DA000EDB22246092D94BF30353735EDB20DF105
:104DB000280E724402F8245CB1FBF7F111B1013CFA
:104DC000E4B2E9E733B1013CE4B20AAB23442D225B
:104DD00003F8242C03685B6801A92144C4F1220272
:104DE00098470BB0F0BD00BF08B50029BABF4942D3
:104DF0002D2300230A22FFF7BBFF08BD08B5FFF7EC
:104E00000DFE08BD08B5FFF7BDFD08BD08B5FFF7ED
:104E1000E5FD08BD08B5FFF7B5FE08BD08B5FFF70D
:104E20000BFE08BD08B50846FFF7A0FE08BD00BF91
:104E300008B508461146FFF71BFE08BD704700BFC6
:104E4000044B00221A714FF47A7199601A73024A66
:104E50001A6070470099FF1FC08E000008B50F4B05
:104E60001B78CBB901220D4B1A70FFF7D7FD08B1A3
:104E7000FFF7E4FF00F03AFB08B101F07BFB00F024
:104E8000E7FE08B101F018FC01F0B4F908B101F037
:104E9000B5FC0022014B1A7008BD00BF1099FF1F1E
:104EA00060223A4B1A70E12201331A70384B1B789A
:104EB000082B10D1012203F1804303F56C331A60F3
:104EC000132334490B6001F5FF2101F2FC710A60E4
:104ED000314A13601FE00A2B0DD139222F4B1A6083
:104EE00013232C490B6001F5FF2101F2FC710A60CC
:104EF000294A13600FE00C2B0CBF35223D22274BB3
:104F00001A60122323490B6001F5FF2101F2FC71A5
:104F10000A60214A1360224B1B7833B10123214AD6
:104F2000136002F50022136005E000231D4A1360A0
:104F300002F5002213601C4B1B78012B06D880233E
:104F40001A4A136002F5002213601AE0042B06D8F7
:104F50008423164A136002F50022136011E0082B27
:104F600006D88523114A136002F50022136008E079
:104F7000102B94BF862387230C4A136002F500226E
:104F8000136001220A4B1A70704700BF00400740AF
:104F9000008EFF1F0CB003400CB00B4008B0034064
:104FA0001299FF1F20B00340018EFF1F24B0034061
:104FB0001199FF1F30B40023B0FBF2F402FB14047C
:104FC0001D46092C94BF30343734E4B2CC54B0FBC6
:104FD000F2F008B10133EFE70D4400226A7093420A
:104FE00007DD885CCC5C8C54C8540132013B9A428A
:104FF000F7DB084630BC7047254B1A6842F48062E4
:105000001A600023234A1370234A1370234A137033
:10501000234A1370234A1370234B1B7813B1152BAB
:1050200005D008E040F21332204B1A6003E040F252
:1050300013321F4B1A601F4B1B78012B02D0052B1C
:1050400005D008E04FF451721B4B1A6003E04FF497
:1050500051721A4B1A60C0F34432194B1A70C0F3E4
:1050600047125A7000F01F00987204229A700221B1
:10507000D9745A7588221A743C22DA704022114B76
:105080001A704FF40052A3F229331A60704700BF20
:1050900034800440A099FF1F1999FF1FA899FF1F92
:1050A000A199FF1F1899FF1F5C99FF1F40A00440A2
:1050B00018C00440028EFF1F44A004401CC00440DE
:1050C00000A006402DE400E0164B9B7803F0EC03B3
:1050D00000F00302134310F0040F18BF43F0100355
:1050E000104A937000F00F03042B04D113469279F9
:1050F00042F040029A710B4B5A7902F0EF0210F025
:10510000100F18BF42F01002064B5A719B7903F042
:10511000EF0310F0200F18BF43F01003014A937102
:10512000704700BF00A0064010B5144B1B6813F475
:10513000806F21D0124B1B7813F0FF0F06D0104C5C
:10514000FFF78CFE237813F0FF0FF9D14FF40052D4
:105150000C4B1A6000230C4AD37040F203120B4927
:105160000A6004310A600A4A13700A4A13700A4B33
:105170001B680BB101221A7010BD00BF34800440BF
:105180001899FF1F84E100E000A0064040A0044001
:10519000A099FF1F1999FF1F1499FF1F10B504460E
:1051A000094A137813F0FF0FFBD120460121FEF7C7
:1051B00013FE20460021FEF7DDFD044B53F834209A
:1051C000034B1A6010BD00BF1899FF1FA48D00008B
:1051D000A499FF1F10B40C4609B140F08000184B91
:1051E0001B78984228D0174A126812F4806F21D099
:1051F00003F07F03012B02D0052B04D006E0002230
:10520000114B1A6002E00022104B1A60002C0CBFF8
:105210004422602200F07F03012B02D0052B05D031
:1052200008E042F44072084B1A6003E042F4407216
:10523000064B1A60024B18705DF8044B704700BFB4
:10524000028EFF1F3480044044A004401CC0044070
:10525000114B1B7898421ED0104A126812F4806FCE
:1052600017D013B1152B04D006E000220C4B1A60A6
:1052700002E000220B4B1A6010B1152805D008E09F
:1052800040F21332064B1A6003E040F21332054B32
:105290001A60014B187070475C99FF1F34800440FE
:1052A00040A0044018C0044010B50D4B1B6813F417
:1052B000806F12D021280CD80A4C0B4B53F8303099
:1052C00023600121FEF788FD236800221A70012067
:1052D00010BD0020034B186010BD002010BD00BFA2
:1052E000348004401499FF1FA48D0000114B1B68EB
:1052F00013F4806F1BD0122804D140F202320E4BFF
:105300001A600DE0142804D140F202320B4B1A60EF
:1053100006E00B4B5A7B02F0FE025A7300207047E6
:10532000074B5A7B42F001025A730120704700205C
:10533000704700BF348004400CA0044014C00440F7
:1053400000A006402DE9F04107461F4B1B6813F4EF
:10535000806F37D01D4B1B680BB101221A701C4B9C
:105360001C780134402C28BF00241A4D1A4EDFF857
:105370006C8017E0FEF70AFC40280FDC337913F04D
:10538000800F0FD02B780133402B28BF002318F853
:105390000320D2B2F271DBB22B7003E0FF2801DDF3
:1053A000FFF75CFD2B78DBB29C42E3D0FFB20B4BE6
:1053B0001F5501220A4B1A70E4B2054B1C70BC2227
:1053C000054BDA70BDE8F08134800440A499FF1FDA
:1053D000A899FF1FA199FF1F00A006401C99FF1F5D
:1053E0001899FF1F2DE9F84F0746284B1B6813F447
:1053F000806F49D0264B1B680BB101221A7007EB56
:10540000010B5F453DD2DFF89890224EDFF88C808B
:10541000DFF890A099F800400134402C28BF002408
:105420003578EDB2A54220D1BC2388F80330FEF7D1
:10543000ADFB402811DC98F8043013F0800F10D039
:1054400033780133402B28BF00231AF80320D2B24F
:1054500088F80720DBB2337003E0FF2801DDFFF797
:10546000FDFC3378DBB29D42E1D017F8013B0AF82E
:1054700004300122084B1A70E4B289F800405F45FD
:10548000C8D1BC22054BDA70BDE8F88F34800440E7
:10549000A499FF1FA199FF1F1899FF1F00A00640A4
:1054A000A899FF1F1C99FF1F10B5064B1B7813F01E
:1054B000FF0F06D0034CFFF7D1FC237813F0FF0F4A
:1054C000F9D110BD1899FF1F064B1B78DBB2064AB5
:1054D0001278D2B293422CBF3F3202F1FF32D01A7F
:1054E000704700BFA899FF1FA199FF1F054B1878AF
:1054F000C0B2054B1B78DBB2984238BF4030C01AAF
:10550000704700BFA099FF1F1999FF1F10B4184BD7
:105510001A78D2B2174B1B78DBB29A4218D00133FB
:105520003F2B18D81449C85CC0B2DCB211490C70CA
:1055300012490968C9B19A4203D300E00023D31A83
:1055400001E04032D31A1A2B0FDC00230B700CE061
:105550004FF0FF3009E0084B1878C0B20021054B2E
:105560001970064B19680029E8D15DF8044B7047A3
:10557000A099FF1F1999FF1F6099FF1F1499FF1F22
:10558000094B1A78D2B2094B1B78DBB29A4207D08A
:105590000133402B28BF0023054AD05CC0B27047BE
:1055A0004FF0FF30704700BFA099FF1F1999FF1FF0
:1055B0006099FF1F0D4B1B6813F4806F14D00C4BC8
:1055C000DA7802F0CB02DA7040225A74DA7842F0CC
:1055D0003402DA70074B1A78D2B2074B1A70074BB5
:1055E0001B680BB100221A70704700BF3480044062
:1055F00000A006401999FF1FA099FF1F1499FF1FD3
:1056000070B43D4B1B7913F0300F33D072B63A4B68
:105610009B7D03F0FF022BB9374BDA7940225A7495
:1056200062B627E062B6354B1978C9B2344B1C78A4
:10563000E4B2314D334EEB79D8B24B1C402B28BF2E
:105640000023A3421CBFF0541946531E13F0FF025F
:10565000F1D1CAB2294B1A702B4B1B6853B1A1422E
:105660002EBFC4EB0101C4F1400409192729C4BFAE
:1056700001221A70204BDA78D2B212F0800F27D0B4
:105680001B7913F0800F23D0204B1C78E4B2204B01
:105690001B78DBB29C4210D017491E4D01E0A3429B
:1056A0000BD00133402B28BF00230879E85CC0B23F
:1056B000C871087DC0B20728F1D9DBB214490B705C
:1056C0000D4B1B7913F0800F02D07C210A4BD9704F
:1056D00012F0400F0ED0084B1B7913F0400F09D089
:1056E00000220D4B1A700D4B1B6803B11A703C223F
:1056F000014BDA7070BC704700A00640A099FF1FF4
:105700001999FF1F6099FF1F1499FF1FA899FF1F88
:10571000A199FF1F1C99FF1F1899FF1FA499FF1F34
:10572000254B1A6842F400621A600023234A137062
:10573000234A1370234A1370234A1370234A1370A9
:10574000234B1B78092B02D01A2B05D008E040F21E
:105750001332204B1A6003E040F213321E4B1A60E2
:105760001E4B1B780A2B02D01F2B05D008E04FF4EC
:1057700051721B4B1A6003E04FF45172194B1A60BF
:10578000C0F34432184B1A70C0F347125A7000F03D
:105790001F00987204229A700221D9745A758822C7
:1057A0001A743C22DA704022104B1A704FF40042F7
:1057B000A3F22B331A607047348004401C9AFF1FF9
:1057C000B199FF1F249AFF1F1D9AFF1FB099FF1F59
:1057D000038EFF1F0CB0044004D00440048EFF1F52
:1057E00010B0044000D0044000B006402FE400E0B8
:1057F000164B9B7803F0EC0300F00302134310F008
:10580000040F18BF43F01003104A937000F00F0309
:10581000042B04D11346927942F040029A710B4B4B
:105820005A7902F0EF0210F0100F18BF42F0100288
:10583000064B5A719B7903F0EF0310F0200F18BF4D
:1058400043F01003014A9371704700BF00B0064057
:1058500010B5224B1B6813F4006F3ED0204B1B7811
:1058600013F0FF0F06D01E4CFFF7F8FA237813F061
:10587000FF0FF9D14FF400421A4B1A6000221A4B65
:10588000DA701A4B1B78092B02D01A2B05D008E0CE
:1058900040F20312164B1A6003E040F20312154B5C
:1058A0001A60154B1B7803F07F030A2B02D01F2BC5
:1058B00005D008E040F20312104B1A6003E040F2FA
:1058C00003120F4B1A6000230E4A13700E4A137016
:1058D0000E4B1B680BB101221A7010BD34800440BE
:1058E000B099FF1F84E100E000B00640038EFF1F67
:1058F0000CB0044004D00440048EFF1F10B00440DC
:1059000000D004401C9AFF1FB199FF1FAC99FF1FE4
:1059100010B50446094A137813F0FF0FFBD1204657
:105920000121FEF759FA20460021FEF723FA044B25
:1059300053F83420034B1A6010BD00BFB099FF1F0D
:10594000A48D0000209AFF1F10B40C4609B140F04E
:105950008000184B1B78984228D0174A126812F41E
:10596000006F21D003F07F030A2B02D01F2B04D03D
:1059700006E00022114B1A6002E00022104B1A6070
:10598000002C0CBF4422602200F07F030A2B02D0BF
:105990001F2B05D008E042F44072084B1A6003E068
:1059A00042F44072064B1A60024B18705DF8044BCB
:1059B000704700BF048EFF1F3480044010B00440C5
:1059C00000D00440124B1B78984220D0114A126834
:1059D00012F4006F19D0092B02D01A2B04D006E064
:1059E00000220D4B1A6002E000220C4B1A600928BD
:1059F00002D01A2805D008E040F21332064B1A6094
:105A000003E040F21332054B1A60014B18707047E7
:105A1000038EFF1F348004400CB0044004D00440C7
:105A200010B50D4B1B6813F4006F12D021280CD851
:105A30000A4C0B4B53F8303023600121FEF7CCF9B0
:105A4000236800221A70012010BD0020034B18604B
:105A500010BD002010BD00BF34800440AC99FF1F72
:105A6000A48D00000D4B1B6813F4006F13D0172892
:105A70000AD140F202320A4B1A600A4B5A7B42F0BA
:105A800001025A7301207047064B5A7B02F0FE0256
:105A90005A73002070470020704700BF34800440D4
:105AA00008B0044000B006402DE9F04107461F4B06
:105AB0001B6813F4006F37D01D4B1B680BB101221C
:105AC0001A701C4B1C780134282C28BF00241A4D56
:105AD0001A4EDFF86C8017E0FEF758F840280FDC0C
