:1000000000800020BD010000B95300007D530000B6
:100010007D5300007D5300007D5300007D530000A0
:100020007D5300007D5300007D530000B953000054
:10003000B95300007D530000B95300006D53000018
:10004000B9530000B9530000B9530000B953000080
:10005000B9530000B9530000B9530000B953000070
:10006000B9530000B9530000B9530000B953000060
:10007000B9530000B9530000B9530000B953000050
:10008000B9530000B9530000B9530000B953000040
:10009000B9530000B9530000B9530000B953000030
:1000A000E12B0000F12B0000B9530000B953000010
:1000B000B9530000B9530000B9530000B953000010
:1000C000B9530000B9530000B9530000B953000000
:1000D000B9530000B9530000B9530000B9530000F0
:1000E000B9530000B9530000B9530000B9530000E0
:1000F000B95300008D720000B9530000F17900007F
:10010000B95300006D7F0000B9530000B9530000DF
:10011000B9530000B9530000B9530000B9530000AF
:10012000B9530000B9530000B9530000B95300009F
:10013000B9530000B9530000B9530000B95300008F
:10014000B9530000B9530000B9530000B95300007F
:10015000B9530000B9530000B9530000B95300006F
:10016000B9530000C55B0000B9530000B95300004B
:10017000B9530000B9530000B9530000B95300004F
:10018000B9530000B9530000B9530000B95300003F
:10019000B9530000B9530000B9530000B95300002F
:1001A000B9530000B9530000B9530000B95300001F
:1001B000B9530000B9530000B9530000574B4CF23B
:1001C000205210B51A804DF628121A8000BF00BFC9
:1001D00005F0F6F8524B4FF010621A60514A9A60DF
:1001E000514ADA60A3F53043203B1A6812F480725A
:1001F00004D14E490A604FF4A8521A604C4B1A7849
:10020000110703D51A7842F008021A70494B4A4C7C
:100210004A482A221A704A4A00239918A14203D256
:10022000195899500433F8E7464B474900228B424E
:1002300002D243F8042BFAE74448454900235A58B0
:100240001A500433B3F5DE7FF9D1424B424A802184
:1002500003F8011B9342FBD1404B3C4A1A60404BD0
:100260008A221A70A3F5805324225A70A0221A7091
:100270009A799207FCD59A79D406FCD4394A9379B5
:1002800003F00C03082B374BF9D103221A714022DB
:100290005A719A799006FCD5324A9179314B4906C8
:1002A000FBD5314A314911600221516020221A7078
:1002B0009A7902F00C020C2AFAD12D4B2D4A1A60C1
:1002C0002D4B2E4A1A6000225A60072243F8042C54
:1002D0002B4AC3F80C2D62B605F034FB134B1B6898
:1002E000DA0705D5274805F063FA274B274A1A6035
:1002F000274B1B785B0609D5234C244A236893427D
:1003000004D1204805F054FA002323600BF03AFA98
:1003100005F05CF806F032FAFEE700BF0E2005405B
:1003200030800440823F04000100002B14D00340C1
:1003300002D0074000E007403C95FF1F78D700003F
:100340006087FF1F3C95FF1F509AFF1F0082FF1F11
:100350000000000000E400E05FE400E008ED00E0E1
:100360000050064000400640448004400000030165
:1003700004800440C010050014E000E0FF76010096
:100380000000202088A96E021CE00340A5C3945AF7
:1003900000F00740FFFFFFFFFFFFFFFFFFFFFFFF32
:1003A000FFFFFFFFFFFFFFFFFFFFFFFFFFFFFFFF5D
:1003B000FFFFFFFFFFFFFFFFFFFFFFFFFFFFFFFF4D
:1003C000FFFFFFFFFFFFFFFFFFFFFFFFFFFFFFFF3D
:1003D000FFFFFFFFFFFFFFFFFFFFFFFFFFFFFFFF2D
:1003E000FFFFFFFFFFFFFFFFFFFFFFFFFFFFFFFF1D
:1003F000FFFFFFFFFFFFFFFFFFFFFFFFFFFFFFFF0D
:10040000FFFFFFFFFFFFFFFFFFFFFFFFDEF9FFFF23
:1004100010B5054C237833B9044B13B10448AFF33E
:1004200000800123237010BD3C95FF1F00000000D9
:1004300070D7000008B5064B1BB106480649AFF35C
:1004400000800648036813B1054B03B1984708BD07
:100450000000000070D700004095FF1F3C95FF1F73
:100460000000000038B505460C4608460CF02EF892
:1004700002462B685B6828462146984738BD00BF76
:1004800038B504460D4608460CF020F802462368AD
:100490005B682046294698470546204606F07EF9C7
:1004A000284438BD30B583B005469DF8181000913A
:1004B00006F0CAF90446284606F070F9204403B055
:1004C00030BD00BF2DE9F043ADB0964C20464FF44F
:1004D000FA6102F063FC204693494FF4164202F0A1
:1004E00039FC204602F030FC606B03685B688F4982
:1004F000112298470A2005F00FFA20460021012218
:1005000002F0A0FC8A4B1869597B002400940194E6
:100510000294884B0393012504952246234601F05B
:10052000E9FB41F2883005F0F7F90D20294605F086
:1005300081F90D20214605F04BF90E20294605F0E2
:1005400079F90D20294605F043F904F08DFC7A482D
:1005500004F0DAFD794804F0CBF9794802F07EFE28
:10056000784B1B78002B5ED1744C204604F028FA9F
:10057000204604F03BFA204604F05EFA724F204613
:1005800039884A222B4604F06BFA704E2046318897
:100590004A22032304F064FA6D4D204629884B2239
:1005A000012304F05DFA28206421002204F0E8FC15
:1005B00028205421002204F0E3FC20464921002297
:1005C00004F0DAFA20464FF47A710822CA2304F0C4
:1005D00091FA20464FF4FA610022CB2304F08AFA04
:1005E000204639884A22012304F03AFA204631880D
:1005F0004A22032304F034FA204629884B2201239F
:1006000004F02EFA28206421002204F0B9FC2820EE
:100610005421002204F0B4FC204604F0EBFA2046FA
:1006200004F0D4FBF7E1444804F0FCFD04F01CFCAA
:100630000CAB0093502000210A46802304F0BEFC3E
:10064000394C23685B68204642491522984720466A
:1006500006F0A4F820469DF830101022002306F082
:10066000ADF823685B6820463B4910229847204636
:1006700006F094F820469DF831101022002306F071
:100680009DF823685B68204634491022984720462D
:1006900006F084F80DF12F050DF1AF081027304E4C
:1006A000204615F8011F3A46002306F087F8236814
:1006B0005B6820463146012298474545F0D11A4CE7
:1006C00023685B68204627491F229847204606F08A
:1006D00065F86820752104F0B1FC0546712849D001
:1006E00023685B68204620490822984723685B6896
:1006F00020461E49052298472046294610220023FD
:1007000006F05CF823685B68204619490D2298477B
:10071000204671211022002306F050F8204606F0F2
:100720003DF878E15496FF1F3098FF1F5CC8000029
:100730004096FF1F801A06008C95FF1F9095FF1FA3
:10074000F495FF1FE095FF1F2896FF1F9895FF1F48
:10075000B495FF1F70C8000088C800009CC8000046
:1007600000CC0000B0C80000D0C80000DCC8000009
:10077000E4C80000A94C2046A949FFF781FEA94F13
:10078000384606A902F014FF384603F075F83846DB
:1007900003F054F8384603F03FF82046A249FFF72B
:1007A0006FFEA24EDFF8C88238463146424603F05B
:1007B0007DF820469E49FFF763FED8F800009D496A
:1007C0000AF002FB09F094FE02460B460225009552
:1007D0002046FFF767FED8F8040096490AF0F4FABD
:1007E00009F086FE02460B4600952046FFF75AFEAA
:1007F000D8F808008F490AF0E7FA09F079FE0246B6
:100800000B4600952046FFF74DFE20468A49FFF72C
:1008100037FE306809F06CFE02460B460095204614
:10082000FFF740FE706809F063FE02460B46009534
:100830002046FFF737FEB06809F05AFE02460B4625
:1008400000952046FFF72EFE4FF47A7005F064F80D
:10085000384602F099FD20467849FFF711FE6820DE
:100860003721222204F08CFB04F0FEFA0C20002138
:1008700004F0E4FB064620467149FFF7F3FD2046ED
:100880007049FFF7EFFD204631461022002305F0A6
:1008900095FF6D4E20463146FFF7E4FD2046482186
:1008A0001022002305F08AFF204605F077FF4FF461
:1008B0007A7005F031F83846394602F0BDFD204621
:1008C0006249FFF7DDFDDFF8AC91DFF8AC81384617
:1008D0004946424603F072F920465D49FFF7D0FDD4
:1008E000D9F8000009F004FE02460B4600952046A8
:1008F000FFF7D8FDD9F8040009F0FAFD02460B46CF
:1009000000952046FFF7CEFDD9F8080009F0F0FD6C
:1009100002460B4600952046FFF7C4FD20464D4990
:10092000FFF7AEFDD8F8000009F0E2FD02460B46E5
:1009300000952046FFF7B6FDD8F8040009F0D8FD71
:1009400002460B4600952046FFF7ACFDD8F808009C
:1009500009F0CEFD02460B4600952046FFF7A2FDAA
:100960004FF4FA6004F0D8FF20463B49FFF77AFDC8
:1009700020463A49FFF776FD386809F0B9FD02468E
:100980000B460095204605F05FFF20463449FFF7EF
:1009900069FD786809F0ACFD02460B4600952046DB
:1009A00005F052FF20462F49FFF75CFDB86809F0BB
:1009B0009FFD02460B460095204605F045FF4FF48B
:1009C0007A7004F0A9FF7620D02104F037FB0546A9
:1009D00020462549FFF746FD2046294610220023E0
:1009E00005F0ECFE20463146FFF73CFD204658213D
:1009F0001022002305F0E2FE4FF47A7004F08CFF21
:100A00007620E021B62204F0BBFA642004F084FFD3
:100A1000164802F027FA2DB0BDE8F0833098FF1F8A
:100A2000F4C80000F495FF1F0CC90000A895FF1F33
:100A300028C9000000007A443CC9000050C90000E9
:100A400080C90000DCC80000E4C8000088C90000BC
:100A5000B4C90000CCC90000E4C9000004CA000009
:100A60000CCA000014CA00001CCA0000BC95FF1F7D
:100A7000D495FF1FE895FF1F9C95FF1FFFFFFFFF09
:100A80002DE9F04FA1B0A14B1B680F930F9B33B919
:100A90009E4B1B681093109B012B40F29F869B4B33
:100AA0001B681193119B9A4A13609A4A12689A42E2
:100AB00002D9984A13602DE09A1AF92A2AD9954A40
:100AC0001360954C204602F03FF9606B03685B6849
:100AD000924907229847606B03685B68904901223E
:100AE0009847606B894B1B68129312990A22002366
:100AF00005F064FE606B03685B688A4908229847CA
:100B0000052004F009FF0A2004F006FF2046012119
:100B100002F06CF9844B1B78002B40F041812820B7
:100B2000352104F08BFA044610F0020F5DD0282026
:100B3000502104F083FA0546002856D07B4E3368D6
:100B40005B6830467A4918229847304629460A227F
:100B5000002305F033FE304605F020FE112D06D1AE
:100B6000304633685B6873491522984711E0122DAF
:100B700006D16E4803685B686F491622984711E0FA
:100B8000142D06D1694803685B686C490D229847AB
:100B900011E0212D06D1654803685B68684924226D
:100BA000984711E0222D06D1604803685B686549CB
:100BB0002522984711E0242D06D15C4803685B6824
:100BC00061491C22984710E0302D06D15748036830
:100BD0005B685E490B22984707E0802D05D153489A
:100BE00003685B685A491422984714F0100F20D00C
:100BF000584D594829461A2204F066FBB5F9000001
:100C00000AF08EF855490AF0DFF8554B1860B5F92F
:100C100002000AF085F851490AF0D6F8514B1860E5
:100C2000B5F904000AF07CF84C490AF0CDF84E4BB7
:100C3000186014F0200F20D04C4D4748294622223E
:100C400004F042FBB5F900000AF06AF848490AF0DE
:100C5000BBF8484B1860B5F902000AF061F8444946
:100C60000AF0B2F8444B1860B5F904000AF058F8DD
:100C70003F490AF0A9F8414B186014F0080F20D042
:100C80003F4D35482946122204F01EFBB5F90000FD
:100C90000AF046F83B490AF097F83B4B1860B5F963
:100CA00002000AF03DF837490AF08EF8374B186019
:100CB000B5F904000AF034F832490AF085F8344BEB
:100CC000186014F0040F03D02348324904F01CFBD1
:100CD00014F0400F00F00E811F4C20462A2104F032
:100CE00033FB0AF01DF82C490AF06EF82B4909F085
:100CF00063FF089020462E2104F026FB0AF010F82E
:100D000025490AF061F80746F6E000BF3897FF1F53
:100D1000D095FF1F8895FF1F5496FF1F2CCA000017
:100D200034CA000038CA0000E095FF1F3098FF1F4A
:100D300044CA000060CA000078CA000090CA0000DF
:100D4000A0CA0000C8CA0000F0CA000010CB000012
:100D50001CCB00002096FF1F8C95FF1F40DAFF3947
:100D60007C95FF1F8095FF1F8495FF1F5C95FF1FDB
:100D700008AC1C3E9495FF1F5895FF1F6495FF1FFC
:100D80006C95FF1F07409C3E6895FF1FB895FF1F9D
:100D90007495FF1FC095FF1F0AD7233C00507D4468
:100DA000454C464D204629463B2202F0F3FFE769B9
:100DB000B5F9000009F0B4FF39460AF005F8404ED5
:100DC000316809F0F7FE3F4B1860B5F9020009F0F1
:100DD000A7FF0146384609F0F7FF716809F0EAFEFF
:100DE000394B1860B5F9040009F09AFF01463846FE
:100DF00009F0EAFFB16809F0DDFE344B1860344DAC
:100E000020462946432202F0C5FF266AB5F90000B4
:100E100009F086FF314609F0D7FF2E4B1860B5F96F
:100E2000020009F07DFF0146304609F0CDFF2A4B54
:100E30001860B5F9040009F073FF0146304609F067
:100E4000C3FF264B1860264D2046294602F08AFE35
:100E5000676AB5F9000009F063FF394609F0B4FF8D
:100E6000216809F0B1FF1F4E316809F0A3FE1E4B47
:100E70001860B5F9020009F053FF0146384609F041
:100E8000A3FF616809F0A0FF716809F093FE174B9A
:100E90001860B5F9040009F043FF0146384609F02F
:100EA00093FFA16809F090FFB16809F083FE104B31
:100EB0001860002708971FE0F495FF1F2096FF1F7A
:100EC000D495FF1F7C95FF1F8095FF1F8495FF1F02
:100ED0005C95FF1F9495FF1F5895FF1F6495FF1F9A
:100EE0006C95FF1FE895FF1F6895FF1FB895FF1FC2
:100EF0007495FF1F0027089704F0ECFC06469A4DF6
:100F00002868301A09F008FF98490AF011F80446D9
:100F10002E60974D2868214609F04EFE2860954BBB
:100F20001B6803F10048944B1E6806F10046934B82
:100F30001D68934B1868934909F046FF924909F0E0
:100F4000F7FF0090914B18688E4909F03DFF8E49DC
:100F500009F0EEFF01908E4B186800F100408949BE
:100F600009F032FF884909F0E3FF0290894B1B68C2
:100F70000393894B1B680493884B1B680593069465
:100F80008748414632462B4602F024FF854B1B68BA
:100F90001393139BB3F5FA7F40F22784824C2368A6
:100FA0005B682046814909229847734B186880493D
:100FB00009F00AFF09F09CFA02460B46022500954B
:100FC000204605F041FC23685B68204679490A22E7
:100FD0009847684B1868764909F0F6FE09F088FAD8
:100FE00002460B460095204605F02EFC23685B6800
:100FF000204671490A229847604B18686C4909F0ED
:10100000E3FE09F075FA02460B460095204605F00E
:101010001BFC23685B6820466849032298472046EA
:1010200005F0BCFB23685B682046654908229847A9
:10103000564B186809F05CFA02460B4600952046AC
:1010400005F002FC23685B6820465E490922984748
:101050004B4B186809F04CFA02460B4600952046A7
:1010600005F0F2FB23685B68204657490922984740
:10107000474B186809F03CFA02460B46009520469B
:1010800005F0E2FB23685B6820465049062298473A
:10109000204605F083FB23685B6820464C49072205
:1010A00098473C4B18680AF055F80146204605F071
:1010B000C1FB23685B682046464908229847364BA7
:1010C00018680AF047F80146204605F0B3FB23688C
:1010D0005B682046404908229847304B18680AF060
:1010E00039F80146204605F0A5FB23685B682046D9
:1010F0003A4903229847204605F050FB23685B6875
:101100002046374915229847204605F047FB2368BB
:101110005B682046334905229847214EF06809F064
:10112000E7F902460B460095204605F08DFB236843
:101130005B6820462C4906229847306909F0D8F9A7
:1011400002460B460095204605F07EFB23685B684F
:101150002046264906229847706909F0C9F90246D7
:101160000B46009544E000BF7895FF1F00247449AA
:10117000E495FF1F8095FF1F7C95FF1F8495FF1F3F
:101180005895FF1FDB0F4940000034439495FF1F23
:101190006495FF1F6895FF1FB895FF1F7495FF1F8B
:1011A000F495FF1F3897FF1F3098FF1F34CB0000C6
:1011B00000007A4440CB00004CCB000058CB00002C
:1011C0005CCB000068CB000074CB000080CB00003B
:1011D00088CB000090CB00009CCB0000A8CB000087
:1011E000ACCB0000C4CB0000CCCB0000D4CB0000C3
:1011F000204605F029FB23685B682046A5490622A6
:101200009847B06909F074F902460B4600952046EC
:1012100005F01AFB204605F0C1FA23685B682046FA
:101220009D4915229847204605F0B8FA23685B6867
:1012300020469A4905229847994E306809F058F996
:1012400002460B460095204605F0FEFA23685B68CF
:101250002046944906229847706809F049F90246E9
:101260000B460095204605F0EFFA23685B682046A0
:101270008D4906229847B06809F03AF902460B46B4
:101280000095204605F0E0FA23685B682046874910
:1012900006229847F06809F02BF902460B460095A4
:1012A000204605F0D1FA204605F078FA804B1B78ED
:1012B000D3B1804C204601F095FE0146204601F056
:1012C000CFFE09F029FD7C4909F032FE0890204646
:1012D00001F072FE0146204601F09AFE09F020FD61
:1012E000764909F025FE074614A8754905F0CCFBA0
:1012F000744C204614A903F021FA064614A805F000
:1013000077FB18A8704905F0BFFB204618A903F029
:1013100015FA054618A805F06BFB1CA86B4905F0EB
:10132000B3FB20461CA903F009FA04461CA805F0EB
:101330005FFB3046664909F047FD664909F03CFC11
:101340000990002109F0DEFE20B10998624909F0F8
:1013500033FC099028465E4909F036FD0A90204684
:101360005B4909F031FD0B904D4ED6F800A0D6F840
:101370000490D6F80CB0D6F808805046494609F0DB
:1013800023FD04465846414609F01EFD014620460D
:1013900009F012FC014609F00FFC09F0A9F8044617
:1013A0000D465846594609F00FFD834650465146B2
:1013B00009F00AFD0146584609F0FEFB8246484600
:1013C000494609F001FD0146504609F0F3FB81460C
:1013D0004046414609F0F8FC0146484609F0EAFB60
:1013E00009F086F802460B462046294607F0B0F879
:1013F00009F08CFB82463068B16809F0E5FC0446D0
:10140000F068716809F0E0FC0146204609F0D2FB63
:10141000014609F0D1FB09F06BF807F045F809F037
:1014200075FB00F1004BD6F80C90D6F8008075687B
:10143000B4684846414609F0C7FC0646284621469E
:1014400009F0C2FC0146304609F0B6FB014609F03E
:10145000B3FB09F04DF8CDE90C014846494609F0C7
:10146000B3FC06464046414609F0AEFC0146304614
:1014700009F0A0FB06462846294609F0A5FC0146CE
:10148000304609F097FB05462046214609F09CFCB2
:1014900024E000BFDCCB0000E4CB0000FCCB00006C
:1014A000C095FF1F04CC00000CCC000014CC000041
:1014B000E095FF1FBC95FF1F0000C8460000C84212
:1014C0001CCC0000F495FF1F20CC000024CC0000B1
:1014D000E02E6542CDCC5C410000B4430146284675
:1014E00009F06AFB09F004F802460B46DDE90C013D
:1014F00007F02EF809F00AFB06465046A04909F00D
:1015000063FCA04909F058FB8046002109F0FAFD70
:1015100020B140469C4909F04FFB80469B4C236814
:101520005B6820469A491B229847099808F0E0FF1B
:1015300002460B4602250095204605F085F92368F2
:10154000DFF894925B68204649462A4698470A98F5
:1015500008F0CEFF02460B460095204605F074F9D0
:1015600023685B68204649462A4698470B9808F04E
:10157000BFFF02460B460095204605F065F9204660
:1015800005F00CF923685B68204682491B229847C6
:10159000404608F0ADFF02460B460095204605F098
:1015A00053F923685B68204649462A4698475846BF
:1015B000734909F009FC08F09BFF02460B460095B1
:1015C000204605F041F923685B68204649462A46D3
:1015D000984730466A4909F0F7FB08F089FF024650
:1015E0000B460095204605F02FF9204605F0D6F869
:1015F00023685B682046684907229847204605F023
:10160000CDF82368654E5B6820463146182298471E
:10161000384608F06DFF02460B460095204605F05F
:1016200013F923685B6820465D492A46984720469F
:1016300005F0B4F823685B682046314618229847C5
:101640003846584909F0C0FB574909F071FC4FF082
:10165000844109F0B1FA08F04BFF02460B460095B1
:10166000204605F0F1F823685B6820464F492A467A
:101670009847204605F092F823685B6820464C495D
:1016800015229847089808F033FF02460B4600954C
:10169000204605F0D9F823685B68204645490522B5
:1016A0009847204605F07AF80898434909F040FC2D
:1016B00008F01EFF2EA3D3E9002306F04BFF0646D9
:1016C0000F4623685B6820463C490B229847002060
:1016D0003B4932463B4608F0ABFD27A3D3E9002344
:1016E00008F05AFF09F012FA08F002FF02460B4612
:1016F0000095204605F0A8F823685B68204631492C
:1017000005229847204605F049F823685B68204683
:101710002D4901229847204605F040F823685B6870
:1017200020462A49072298474FF07E50284B1968D7
:1017300009F0FEFB08F0DCFE02460B460095204651
:1017400005F082F823685B68204622490322984707
:10175000204605F023F80D2004F05EF8D0F10101D9
:1017600038BF00210D2004F033F83EE0AFF30080D5
:10177000000000E0395BC83F000000A0B3BE01419B
:10178000E02E6542CDCC5C410000B4433098FF1F91
:1017900028CC000048CC000064CC00006CCC0000D9
:1017A00088CC0000000010410000A0408CCC00005C
:1017B00090CC0000A8CC000000507D44B0CC0000CC
:1017C0000000F03FBCCC000000CC0000C4CC000006
:1017D000E495FF1FCCCC000044CC0000044B1B78E8
:1017E000002B7FF4DDAAFFF79AB921B0BDE8F08F96
:1017F000E095FF1FAFF3008038B5134D284601F088
:101800002DFB124C28461249224609F0A5FF114D26
:10181000284601F013FD28460F49224609F09CFF97
:101820000E4D284603F060F828460D49224609F07F
:1018300093FF0C4D284603F063FC28460A492246D4
:1018400009F08AFF38BD00BFBC95FF1F6087FF1FEE
:10185000612E0000F495FF1F593200009095FF1F84
:10186000ED4800008C95FF1F055100000369D3F877
:101870003801D3F83431C01A704700BF704700BF39
:101880000369D3F84422B2F5817F09D8D3F8442202
:10189000501CC3F84402134483F83C1101207047E4
:1018A000012303710020704730B40369D3F8444228
:1018B000B4F5817F1ED8D3F84442C4F58174013455
:1018C000D3F844522B4403F59E73944202D2012272
:1018D0000271224632B18D1811F8014B03F8014B09
:1018E000A942F9D10369D3F844121144C3F8441250
:1018F000104602E001230371002030BC704700BF96
:1019000038B50446084B0360036993F84822022A5D
:1019100008D1D3F864522DB1284604F015FF2846AB
:1019200004F038FF204638BDD8CC000010B40022A7
:1019300002714FF47A7484600273064A0260417344
:101940004FF41B74044A04FB012101615DF8044B50
:10195000704700BFD8CC00006487FF1F70B50446F5
:101960000D46C3681B7813F0200F40F0B6808368E3
:1019700080211970C3681221197090F84932012B27
:101980000BD022B9002380F84832012070BD531ECD
:10199000DBB2012B00F2A38000E0012225B94FF059
:1019A0008071504B196005E0012D03D14FF000719B
:1019B0004C4B1960022A40F08C80D4F864624EB916
:1019C000082004F0E3FE0646002104F05FFEC4F8A0
:1019D00064627EB13379102B0CD1304604F0B4FE32
:1019E000304604F0D7FE0023C4F86432012084F8A6
:1019F000480270BD002D30D133689A8B92B2998B1A
:101A000042F008029A83D4F86432197910313648CA
:101A1000364A42F821001A7953119B0003F16043C2
:101A200003F5614302F01F02012101FA02F21A607C
:101A3000D4F864321B689A8B92B2998B42F00202FE
:101A40009A83D4F864321B7903F1804303F504339D
:101A500000221A7096221A7033E0012D31D1D4F889
:101A600064321B689A8B92B2998B42F008029A8377
:101A7000D4F86432197910311D481C4A42F821000B
:101A80001A7953119B0003F1604303F5614302F09F
:101A90001F02012101FA02F21A60D4F864321B68B5
:101AA0009A8B92B2998B42F002029A83D4F86432F4
:101AB0001B7903F1804303F5043300221A70972247
:101AC0001A70002384F85A32022384F84832012025
:101AD00070BD012084F8480270BD002070BD012057
:101AE00070BD00BF00E100E0E12B00000082FF1F9D
:101AF000F12B000070B4254BA3FB0145AD092D026D
:101B0000A3FB02439B09B5FBF3F5B5F5A05F38DBFA
:101B10001F4A012302E00133382B05D052F8044F4D
:101B2000B5EB042FF7DA93B15A1E194C54F8226022
:101B3000A5EB0626002EB8BF764254F82340A5EB4D
:101B40000425002DB8BF6D42AE42D8BF134642688F
:101B5000104CE45C14700E4A52F82330B1FBF3F3DE
:101B6000C0F84C320C4B994203D9836904221A7095
:101B700009E08369094AA2FB0101C1F30751197009
:101B800001E00023E3E770BC704700BFD34D621053
:101B9000F0CC0000D0CD0000FF6BDC02819F5E1610
:101BA0002DE9F84F06460D4617461C469DF828308D
:101BB000002B00F08480C268127812F0200F75D1DB
:101BC0007DE0012F05D9012D73D1BA1E012A09D953
:101BD00002E04FF0010901E04FF00009B9F1000FF8
:101BE00002D169E04FF00109002B32D096F84B3258
:101BF000002B14BF4FF0020B4FF0000B96F84A3247
:101C0000032B26D8DFE803F0020B141D11205946E0
:101C100003F010FE1020594603F00CFE19E01220CC
:101C2000594603F007FE1320594603F003FE10E067
:101C30001E20594603F0FEFD1D20594603F0FAFD13
:101C400007E01F20594603F0F5FD1A20594603F01E
:101C5000F1FD8DB917B1012F07D00DE0214BC3F86D
:101C60000080043BC3F8008019E01F4BC3F80080DC
:101C7000043BC3F8008012E0012D10D1022F08D0E0
:101C8000032F0CD1194BC3F800A00433C3F800A0F4
:101C900005E0174BC3F80080043BC3F8008086F8CA
:101CA0004A7286F84B424846BDE8F88F0020BDE8EE
:101CB000F88F0020BDE8F88F4846BDE8F88F002C6B
:101CC00040F203220CBF4FF41978904640F20362B1
:101CD00040F26461002C0CBF8A469246002D7FF4CE
:101CE00072AF6EE704A004400CA0044000D0044092
:101CF0002CB0044070B582B004469DF818000D4623
:101D000029B92F490E6846F040060E6006E0012909
:101D100004D12B490E6846F080060E6084F84922F3
:101D2000002184F851123AB9636920221A7022689E
:101D30001170E269117011E06269002837D12DE05D
:101D40005B00DBB21370E2694300DBB205E04000E8
:101D5000C0B21070E2695B00DBB213700023009325
:101D6000204629469DF81C209DF82030FFF718FFDB
:101D700020461449099AFFF7BDFE204629469DF8E2
:101D80002820FFF7EBFD94F849321BB9A3688022A5
:101D90001A7012E0A368C0221A700EE020211170A0
:101DA00022685B00DBB21370E2690023D5E72821CB
:101DB000117022689842C3D8C9E702B070BD00BF55
:101DC00034800440006CDC022DE9F04F83B0824681
:101DD0008B4690F84A32032B4BD8DFE803F02D30C6
:101DE00002051E261D242CE01F261A2429E0204669
:101DF000494603F0EDFC2B46013B7FF4FDAF204646
:101E0000414603F0E5FC2B46013B7FF4FDAF304635
:101E100003F002FD18B9013F17F0FF07E7D10021D9
:101E20008AF851129AF84A229AF84B320091504699
:101E30005946FFF7B5FE1CE01126102401E01226DA
:101E400013249AF84B32002B304614BF0221002194
:101E500003F0F0FC2046012103F0BAFC20460121EA
:101E600003F0E8FC0B274FF00009A0254FF0010814
:101E7000CDE703B0BDE8F08F2DE9F843054688466D
:101E80001646994603F026FD0EB9D5F8686203F0B0
:101E900021FD0746AB681A7812F0200F0ED0B4224D
:101EA0001A7032E0EC68247814F0200F06D1002379
:101EB00085F84932AB68B0221A7006E0002EF1D0E6
:101EC00003F008FDC01B8642ECD8AB681B7813F00A
:101ED000200F0ED128464146FFF776FFEB681B78AE
:101EE00013F0200F05D1002385F84932AB68B022EA
:101EF0001A70AB681B7803F0200303F0FF0023B9CE
:101F0000042385F85132BDE8F88395F84832013B47
:101F1000DBB2012B38D803F063FAB8F1000F03D01D
:101F2000B8F1010F03D005E01A4B1B7804E01A4BFF
:101F30001B7801E0174B1B78834228DB0F2804DC59
:101F4000012089F80000BDE8F883B8F1000F03D044
:101F5000B8F1010F08D00FE0A0F11002D2B20D4B82
:101F60001A700120BDE8F883A0F11002D2B20A4B2A
:101F70001A700120BDE8F883A0F11002D2B2054B1F
:101F80001A700120BDE8F8830120BDE8F883012024
:101F9000BDE8F88318E400E019E400E003694900B3
:101FA00083F83C1103690122C3F844220023037122
:101FB000026982F8513270472DE9F04383B005463B
:101FC00014461F4600238DF80730D0F84432002B0A
:101FD00000F0C7800FB9D0F86872EB6812221A704F
:101FE00028463A460DF10703FFF746FF002800F0A8
:101FF000B88095F848321BB19DF80720002A53D0CD
:1020000003F068FC8146012385F8513285F850427F
:1020100000264FF002082AE02B69AA1992F83C2109
:102020001A70EC68217811F0020FFBD084F8008060
:10203000EB681978C9B211F0100F08D0072285F8A3
:10204000512210221A70AB6880221A7089E011F0B8
:10205000010F0BD01EB9052385F8513202E006238B
:1020600085F85132AB6880221A707AE00136D5F8D3
:1020700044329E4207D2002FCED003F02BFCC9EB96
:1020800000008742C8D8D5F84432B3428CBF04233D
:10209000002385F8513295F85032012BAB680CBF04
:1020A0008022B0221A705CE05A1ED2B2012A58D89F
:1020B000012285F8512285F850420022C5F84022BD
:1020C000022B14D1D5F84432042B18D80FE0136832
:1020D0009B6833B9136800210120187259729972F4
:1020E000D972136800221A765A769A76DA76AB6835
:1020F000F0221A702B6995F83C211A7031E0012307
:1021000085F85A32D5F8642205F59F70D5F8444217
:10211000033C11680B6800230860116801200871F6
:102120004B711168CB71116808724B728B72CB7254
:1021300011686042C8601068C18BA1B2C183126887
:10214000D08AD182D5F864222969106804690161B6
:1021500010680375437510688371B1F1804FB9D36E
:10216000B5E703B0BDE8F0832DE9F04383B0044642
:1021700016469DF828700B9D00208DF80700002B57
:1021800000F04D81B3F5827F03D3082384F85132E8
:1021900045E1C4F854320023C4F83431C4F838316E
:1021A0000DB9D4F86852E36812221A7020462A4604
:1021B0000DF10703FFF760FE002800F0308194F86E
:1021C000483223B19DF80720002A00F0958003F0E3
:1021D00081FB8046022384F8513284F850722369CF
:1021E000720042F00102D2B21A70E268137813F062
:1021F000020FFBD002231370E2681378DBB213F0F6
:10220000100F08D0072384F8513210231370A368ED
:1022100080221A7003E113F0010F06D0052384F821
:102220005132A36880221A70F9E0032384F85132F6
:10223000D4F85432012BA3680CBFA822A0221A7034
:1022400023691B780226002745E00B7813F0020F64
:10225000FBD00E70002D00F0AA8003F03BFBC8EB12
:10226000000085428CBF00230123D4F838110231CD
:10227000D4F85422914205D03BB194F8592222B9A6
:1022800000E03B46A26882F80090D4F83811013192
:10229000D4F85422914280F09F80002B00F091806E
:1022A00094F85922002A40F0AA808AE0042284F897
:1022B000512201E084F8517294F85022012A06D18B
:1022C0002022013A7FF4FDAFA2688021117023B172
:1022D000012384F859324FF0A809D4F83821D4F8F2
:1022E00054329A4280F09B8094F85132DBB2032B37
:1022F00040F09580E168A8E75A1ED2B2012A00F2A8
:102300008E80022284F8512284F85072934244D184
:10231000D4F85432042B40D9012384F85A32D4F82B
:10232000643221691868026800220160186802712D
:1023300042711868C271B1F1804F02D31A68926875
:1023400032B91A6800210120107251729172D17253
:102350001A680023137353739373D373D4F86422EE
:1023600004F13005D4F85402013811680F690D6189
:10237000116801250D754B7511688B7111680D720F
:102380004B728B72CB721368414299611368D98B7F
:1023900081B2D9831368DA8AD982A368F0221A70CD
:1023A0002369720042F00102D2B21A7037E0D4F809
:1023B00038210232D4F854329A423FF462AF3B469D
:1023C00063E722691178D4F83821501CC4F8380129
:1023D000224482F830107AE784F85972A268B0215A
:1023E000117022691178D4F83821501CC4F83801D2
:1023F000224482F83010002B3FF45CAF56E784F89B
:102400005972A268B021117022691178D4F838216C
:10241000501CC4F83801224482F8301046E703B05B
:10242000BDE8F083036993F85132043B042B0CD8C8
:10243000DFE803F0091005070300012070470320BF
:10244000704704207047042070470079003018BF9F
:10245000012070470220704790F8513213F0FF0FAF
:102460001BD090F85132DBB2052B18D090F85132C6
:10247000DBB2062B15D090F85132DBB2072B12D00D
:1024800090F85132DBB2042B0FD090F85102C0B259
:10249000082814BF00200120704701207047012048
:1024A000704701207047012070470120704700BF2E
:1024B00070B50446154603F00DFA0DB9D4F868520C
:1024C00003F008FA06462046FFF7C6FF00283AD177
:1024D000002DF8D003F0FEF9801B8542F3D803F0FD
:1024E000F9F9801B854210D894F84832022B0CD1A0
:1024F00094F85A3213F0FF0F07D02046FFF7ACFFD5
:102500000028FAD0042384F8513294F85132DBB217
:10251000012B09D094F85132DBB2022B04D094F88D
:102520005132DBB2032B02D1042384F851328023D1
:10253000013B7FF4FDAF94F8513213F0FF0F14BF4D
:102540000020012070BD002DDFD0C8E7F8B5074698
:102550000E461546069C084611461A462346FFF7C6
:102560002BFD304629462246FFF7A2FF3846FFF7EB
:1025700059FFF8BD70B582B004460D461E468BB1BA
:102580009DF8183000930799019129463346FFF7CB
:10259000EBFD20462946079AFFF78AFF20B1D4F8C1
:1025A000380102E0002000E0002002B070BD00BF52
:1025B000D0F83421D0F838319A4208D2D0F83431EA
:1025C0005A1CC0F83421184490F8300070474FF07E
:1025D000FF30704708B50069FFF7EAFF08BD00BF8C
:1025E000D0F83421D0F838319A423DBFD0F8343198
:1025F000C01890F830004FF0FF30704708B5006900
:10260000FFF7EEFF08BD00BF38B50446C268157875
:10261000EDB281680B78DBB213F0200F00F0C381BC
:1026200013F0100F00F0058190F85A32DBB2022B44
:1026300004D090F85A32DBB2032B4CD1D4F8641298
:102640000B689B8B03F080039BB2002B00F085820C
:1026500094F85A32DBB2022B40F07F8273E2137897
:1026600013F0800FFBD00A79B54B1A70002384F861
:102670005A32D4F84432013BC4F840322369D4F8CA
:102680004022224492F83C211A7020E0AD4B1A6897
:102690000B7901219940114219D0AB4A1370D4F83B
:1026A00064321A79A94B1A70002384F85A3215F053
:1026B000100F0CD0072384F85132E36812221A70ED
:1026C000A36880221A700023C4F8403238BDE36842
:1026D00002221A7038BD90F85132DBB2012B56D16C
:1026E00015F0100F0DD0002380F85A32072180F822
:1026F000511212211170826880211170C0F840328D
:1027000038BD15F0010F0FD0002380F85A32D0F8F1
:1027100040321BB9052380F8513202E0062380F8CD
:10272000513280230B702EE0D0F840320133C0F8D4
:102730004032D0F8442293420AD3002380F8513229
:1027400090F85032012B0CBF8023B0230B701AE09D
:1027500090F85A32DBB2012B0ED1022380F85A32A4
:10276000F1230B70D0F864321A79794B1A7003692F
:1027700090F83D211A7006E00369D0F84022024427
:1027800092F83C211A70E36802221A7038BD90F862
:102790005132DBB2022B36D115F0100F08D00723CF
:1027A00080F8513212231370836880221A7038BD6A
:1027B00015F0010F05D0052380F8513280230B70EE
:1027C0001DE090F85A32DBB2012B0CD1022380F8C5
:1027D0005A32E1230B70D0F864321A795C4B1A70CC
:1027E00003691B780BE0032380F85132D0F8543290
:1027F000012B0CBFE823E0230B7003691B78E3680F
:1028000002221A7038BD90F85132DBB2042B0AD183
:1028100090F85032012B0CBF8023B0230B70C3689B
:1028200002221A7038BD80230B70C36802221A700E
:1028300038BD90F85A32DBB2022B04D090F85A32ED
:10284000DBB2032B56D1D4F864321A68928B02F0B3
:10285000800292B2002A00F0918194F85A22D2B2FA
:10286000022A40F08B817FE11A79354B1A700023E0
:1028700084F85A3294F85132DBB2042B1CBF002387
:1028800084F85132A368B0221A70D4F85432013B54
:10289000C4F83831D4F838315A1CC4F838212269C8
:1028A0001278234483F8302094F85032012B1DD144
:1028B0002023013B7FF4FDAFA36880221A7015E04E
:1028C000204A12681B790121994011420ED01F4AFB
:1028D0001370D4F864321A791B4B1A70002384F8F1
:1028E0005A3284F85132A36880221A70E3680222B7
:1028F0001A7038BDD0F838210232D0F854329A42DA
:1029000000F0438190F85132DBB2042B04D190F8EF
:102910005932002B00F03981D4F838210132D4F833
:1029200054329A4280F03F8194F85132DBB2042B4A
:1029300040F02E8194F85932002B40F0348127E189
:102940001C8000402C8000401F8000401E80004002
:102950001B800040002384F85132A368B0221A7013
:10296000D4F838315A1CC4F838212269127823442B
:1029700083F8302094F85032012B06D12023013BFC
:102980007FF4FDAFA36880221A7094F85132DBB255
:10299000042B04D194F85932002B00F00E81E36827
:1029A00002221A7038BD15F0100F08D010231370D2
:1029B00015F0400F06D1C36802221A7038BD15F019
:1029C000400F60D094F85132DBB20A2B04D1D4F816
:1029D0005C32002B40F0F58015F0040F1ED0092367
:1029E00084F851320023C4F84432A368D0221A700C
:1029F00023691B785B0884F85232D4F8603203B143
:102A00009847D4F844320BB984F83C31236994F8E0
:102A10003C211A700123C4F8403230E0002384F8CE
:102A2000583294F84A32012B05D112206949032209
:102A300002F05EFE15E02BB911206649032202F078
:102A400057FE0EE0022B05D11E206349032202F03F
:102A50004FFE06E0032B04D11F205F49032202F042
:102A600047FE0A2384F851320023C4F83831A368A2
:102A7000C0221A7023691B785B0884F85232E3681D
:102A800002221A7038BD13F0100F20D015F0010F7C
:102A900015D1D0F84022D0F844329A4208D2D0F86A
:102AA00040325A1CC0F84022034493F83C2100E015
:102AB000002223691A70A368D0221A703FE0C02355
:102AC0000B7003691B78002380F8513237E090F8CF
:102AD0005132DBB20A2B32D1002380F8583290F801
:102AE0004A32012B05D112203A49032202F000FE9E
:102AF00015E02BB911203749032202F0F9FD0EE051
:102B0000022B05D11E203449032202F0F1FD06E01C
:102B1000032B04D11F203049032202F0E9FD236971
:102B20001B78DAB2D4F83831B3F5817F07D8D4F8FE
:102B30003831591CC4F83811234483F83020E36835
:102B400002221A7038BD0A79244B1A70A368F02249
:102B50001A70032384F85A32B9E594F85A32DBB27A
:102B6000032B7FF493AD7AE51A791C4B1A70A36896
:102B7000E8221A70032384F85A32B7E694F85A22EE
:102B8000D2B2032A7FF49CAE6EE6E8230B70C3E654
:102B9000D4F838315A1CC4F83821226912782344F9
:102BA00083F83020F1E6002384F8593294F851324A
:102BB000DBB2042B7FF4CEAECFE6012384F859328A
:102BC000EDE60023C4F83431D4F83801D4F85C328F
:102BD000984701E7A52C0000B52C00001F8000409D
:102BE00008B502480021FFF70FFD08BD6487FF1FED
:102BF00008B502480121FFF707FD08BDD089FF1F76
:102C000010B50446C3681B7813F0200F24D10023AD
:102C100080F8513290F84A32012B03D1122002F091
:102C2000AFFD0FE01BB9112002F0AAFD0AE0022B54
:102C300003D11E2002F0A4FD04E0032B02D11F20CB
:102C400002F09EFDD4F85C3253B30022C4F8342164
:102C5000D4F83801984710BD90F858320133DBB2F0
:102C600080F85832012B03D890F84932012B17D045
:102C700094F84A32012B03D1122002F081FD10BDDD
:102C80001BB9112002F07CFD10BD022B03D11E20C8
:102C900002F076FD10BD032B02D11F2002F070FD63
:102CA00010BD00BF08B502480021FFF7A9FF08BD0D
:102CB0006487FF1F08B502480121FFF7A1FF08BD87
:102CC000D089FF1F70B50B4E30460021FEF72EFE57
:102CD000094D0A4C30462946224608F03DFD084E73
:102CE00030460121FEF722FE30462946224608F0F2
:102CF00033FD70BD4096FF1F011900006087FF1F64
:102D00002C96FF1F70B582B0044699B90D4B1B6815
:102D10000093009A4368D31A312B0BD80326094D30
:102D2000304602F0F9FD2B680093009A6368D31ACD
:102D3000312BF5D9034B1B680193019B636002B0F3
:102D400070BD00BF3897FF1F08B50021FFF7DAFFFD
:102D500008BD00BFF8B541631B240C4D0C4E0D4F50
:102D600002E0C82002F0D8FD2B7813F0FF0F09D045
:102D7000337813F0030F05D03A68074B1B68D31A5A
:102D8000182B01D8013CECD1F8BD00BF1C98FF1FE7
:102D90002C98FF1F3897FF1F489AFF1F08B5002384
:102DA00083634360084609B102F0B6FD08BD00BF69
:102DB00038B504460D46406B03685B680949062236
:102DC0009847606B29460A22002303F0F7FC606BEA
:102DD00003685B68044908229847322002F09CFD92
:102DE00038BD00BF08CE000010CE000070B504460C
:102DF0000D46037A23B3606B03689B6898470028ED
:102E0000F9D0002614E0606B0368DB689847C3B212
:102E1000632B06D0762B02D0582B09D107E0C0B225
:102E200070BD20462946FFF7C3FF632070BD2672A0
:102E3000606B03689B6898470028E4DC632070BDE2
:102E4000632070BD38B50446154621B101230372D5
:102E50000021FFF7CBFF257238BD00BF704700BFD0
:102E6000704700BF00B587B0424B1B78424A1278CA
:102E7000920042EA4312414B1B781A437620F42118
:102E8000D2B202F07DF83E4B1B783E4A12785201D6
:102E900042EA83027620F52102F0FC0202F070F88B
:102EA0007620882118226B4602F0EEF89DF801206A
:102EB0009DF8003043EA0222334B1A809DF803202C
:102EC0009DF8023043EA0222304B1A809DF805201B
:102ED0009DF8043043EA02222D4B1A809DF807200A
:102EE0009DF8063043EA02222A4B1A809DF80920F9
:102EF0009DF8083043EA0222274B1A809DF80B20E8
:102F00009DF80A3043EA0222244B1A809DF80D20D6
:102F10009DF80C3043EA0222214B1A809DF80F20C5
:102F20009DF80E3043EA02221E4B1A809DF81120B4
:102F30009DF8103043EA02221B4B1A809DF81320A3
:102F40009DF8123043EA0222184B1A809DF8152092
:102F50009DF8143043EA0222154B1A809DF8172081
:102F60009DF8163043EA0222124B1A8007B05DF832
:102F700004FB00BF3F8CFF1F3D8CFF1F3E8CFF1FDB
:102F80003C8CFF1F408CFF1F9096FF1FA896FF1FD1
:102F9000AA96FF1F9296FF1F9496FF1F9696FF1FFB
:102FA0009896FF1F9A96FF1F9C96FF1F9E96FF1FE5
:102FB000A096FF1FA296FF1F00B583B07620FA21CE
:102FC000032201AB02F060F89DF804309DF8050083
:102FD000000240EA03409DF806301843001103B098
:102FE0005DF804FB00B583B07620F721032201AB26
:102FF00002F04AF89DF804309DF80500000240EA0E
:1030000003409DF806301843001103B05DF804FB3F
:103010000F4B1A88C2EB21135200C2EBE1010D4A9B
:10302000B2F9002002FB01F103FB03F31B130A4A70
:10303000B2F9002002FB03F39B1303EBE121074BE2
:10304000196001EB810101F180000012704700BF9F
:103050009096FF1FA896FF1FAA96FF1FA496FF1F1A
:103060002DE9F04F83B08C466A4B1868C117B0F554
:10307000FA3041F1FF3100FB01F3A0FB004505EB05
:103080004305654BB3F800A0644B1B880093644B69
:103090001B880193634BB3F90020D31702FB01F6A1
:1030A00000FB0366A2FB002333444FEA033949EADD
:1030B00012594FEA02385C4BB3F90060F71704FB72
:1030C00007F306FB0533A4FB06671F44320A42EAF6
:1030D00007623B1212EB080243EB0903003243F58F
:1030E0000043524EB6F80080A2FB086708FB037746
:1030F0007A10FB1752EA030600F087800FFA8AFA6B
:103100004FEAEA7B04FB0BF60AFB0565A4FB0AAB5E
:10311000AB44009E36B2F71706FB01F100FB071522
:10312000A6FB000129444D0445EAD03544041AEBBE
:10313000040A4BEB050BCCF5801C4FEAEC75E90754
:1031400041EA5C014FEACC70019C24B22646F500AE
:10315000002414EB0A0445EB0B05041B61EB050589
:10316000261945EB0507361947EB0507B90141EA72
:103170009661B001361847EB0107B90041EA967134
:10318000B000061941EB0507B90041EA9671B0009D
:10319000001941EB050108F003F8420B42EAC14275
:1031A0004B13234CB4F90040E51704FB03F602FB74
:1031B0000566A4FB0245354402FB05F504FB0355F7
:1031C000A2FB04232B44540E44EAC3145D162418B6
:1031D00045EB0105174BB3F90020D31702FB01F1B2
:1031E00000FB0313A2FB00011944C20C42EA413266
:1031F000CB14121943EB0503100A40EA03600E4B8F
:10320000B3F900402201104400E0002003B0BDE803
:10321000F08F00BFA496FF1F9C96FF1F9A96FF1F7A
:103220009896FF1F9496FF1F9696FF1F9296FF1F7A
:10323000A296FF1FA096FF1F9E96FF1F002202600E
:10324000426082604FF07E51C160026142618261E2
:10325000022280F828207047704700BF2DE9F04116
:103260002820372101F0EAFE10F0010F67D10B256D
:103270003E4CDFF810813E4F28209B21012201F0B7
:103280007FFE4FF4FA7002F047FB2820372101F04F
:10329000D5FE00F001062820372101F0CFFE10F006
:1032A000010F08D023685B682046414622229847D8
:1032B000204603F073FA2820372101F0BFFE10F0FA
:1032C000020F08D023685B68204639461C229847C5
:1032D000204603F063FA2820372101F0AFFE10F0FA
:1032E000040F08D023685B682046224915229847BE
:1032F000204603F053FA2820372101F09FFE10F0FA
:10330000080F08D023685B6820461B491C22984799
:10331000204603F043FA2820372101F08FFE10F0F9
:10332000100F08D023685B68204614491322984781
:10333000204603F033FA013D01D0002E9CD0282016
:10334000372101F07BFE10F0040F09D1074C2368F0
:103350005B6820460A4919229847204603F01EFA66
:103360004FF47A7002F0D8FABDE8F0813098FF1F70
:1033700098CE0000B8CE0000D0CE0000F0CE000005
:1033800004CF000074CE000008B568206B21002235
:1033900001F0F6FD642002F0BFFA68206B210122E3
:1033A00001F0EEFDC82002F0B7FA68201A210322CE
:1033B00001F0E6FD68201921042201F0E1FD6820FA
:1033C0001B2101F03BFE20F01A00194B1A7840EA4D
:1033D000C20268201B2102F0FD0201F0D1FD68202D
:1033E0001C2101F02BFE20F01800124B1A7840EA45
:1033F000C20268201C21D2B201F0C2FD68201D214A
:1034000001F01CFE00F0F00268201D2142F00302D2
:1034100001F0B6FD68203721222201F0B1FD6820BD
:103420003821012201F0ACFD642002F075FA08BDDC
:10343000AC96FF1FAD96FF1F30B583B005460C4616
:103440000C200A21002201F09BFD142002F064FAF6
:103450000C200A210F2201F093FD142002F05CFAE7
:103460000C201021032201AB01F00EFE9DF8040098
:10347000803807F055FC4FF06E5107F0A5FC4FF077
:103480007E5107F099FB20609DF80500803807F019
:1034900047FC4FF06E5107F097FC4FF07E5107F05C
:1034A0008BFB60609DF80600803807F039FC4FF018
:1034B0006E5107F089FC4FF07E5107F07DFBA06054
:1034C0000C200A21002201F05BFD142002F024FAF6
:1034D000074B1A7895F8283043EA02120C200A218B
:1034E000D2B201F04DFD142002F016FA03B030BD47
:1034F000418CFF1F2DE9F0470C4615461E46C82794
:103500004FF068094FF03B0A4FF006084846514615
:103510004246234601F0B8FD2278637843EA02234D
:103520002A8813442B80A278E37843EA02236A882E
:1035300013446B802279637943EA0223AA881344F7
:10354000AB80484643214246234601F09DFD227848
:10355000637843EA0223328813443380A278E37805
:1035600043EA02237288134473802279637943EA21
:103570000223B2881344B380013FC7D100230A4914
:10358000EA5E81FB0240D217C2EBA012EA52F25E61
:1035900081FB0240D217C2EBA012F2520233062B7B
:1035A000EED1BDE8F08700BF1F85EB51FFFFFFFFA5
:1035B0002DE9F04F93B004460F4600268DF80860C1
:1035C0008DF809608DF80A608DF80B608DF80C603D
:1035D0008DF80D6068201921324601F0D1FC682079
:1035E0001A21022201F0CCFC68201B21012201F0EB
:1035F000C7FC68201D21022201F0C2FC68201C21AA
:10360000012201F0BDFC204602A906AA04ABFFF787
:1036100071FF68201C21E02201F0B2FC68201B2110
:10362000E02201F0ADFC192002F076F9204602A953
:1036300008AA0AABFFF75EFF68201C21324601F0A2
:103640009FFC68201B21324601F09AFC192002F0F1
:1036500063F968200D2101F0F1FC834668200E21FA
:1036600001F0ECFC824668200F2101F0E7FC814666
:103670006820314601F0E2FC80466820012101F01B
:10368000DDFC00906820022101F0D8FC01905CA5CF
:10369000D5E90045584607F03FFB4FF07E5107F053
:1036A00089FA06F025FF02460B462046294604F01B
:1036B00051FF55A3D3E9002306F06EFF07F026FA69
:1036C0000C90504607F028FB4FF07E5107F072FA3D
:1036D00006F00EFF02460B462046294604F03AFF4C
:1036E00049A3D3E9002306F057FF07F00FFA0D9026
:1036F000484607F011FB4FF07E5107F05BFA06F0E9
:10370000F7FE02460B462046294604F023FF3EA35F
:10371000D3E9002306F040FF07F0F8F90E90404689
:1037200007F0FAFA4FF07E5107F044FA06F0E0FE97
:1037300002460B462046294604F00CFF32A3D3E98B
:10374000002306F029FF07F0E1F90F90009807F039
:10375000E3FA4FF07E5107F02DFA06F0C9FE02465B
:103760000B462046294604F0F5FE27A3D3E90023A3
:1037700006F012FF07F0CAF91090019807F0CCFA92
:103780004FF07E5107F016FA06F0B2FE02460B46E5
:103790002046294604F0DEFE1BA3D3E9002306F0F1
:1037A000FBFE07F0B3F911903446DFF864800CADEE
:1037B00008ABF05E06ABF35EC01A07F0B1FA414603
:1037C00007F002FB615907F0B3FB385107EB04091E
:1037D0000AABF05E04ABF35EC01A07F0A1FA4146F3
:1037E00007F0F2FA2B19D96807F0A2FBC9F80C0010
:1037F00002360434062EDBD113B0BDE8F08F00BFD3
:10380000000000C0F528F03F000000000078A44050
:103810000000C842AFF30080054B1B7813B1012BA9
:1038200003D07047034B43627047034B43627047BA
:10383000418CFF1FFFEBBF40FFEBBF3F094B1B78E5
:10384000032B0ED8DFE803F00205080B064B0362DA
:103850007047064B03627047054B03627047054B88
:1038600003627047AC96FF1F0000FA3B00007A3CF1
:103870000000FA3C00007A3D0B4B1B78032B12D85A
:10388000DFE803F002060A0E4FF06253C36170478F
:103890004FF06453C36170474FF06653C361704784
:1038A0004FF06853C3617047AD96FF1F2DE9F04F8D
:1038B00087B00091019268206B21802201F060FBAB
:1038C000642002F029F868206B21012201F058FBE6
:1038D00068206C21002201F053FBC82002F01CF884
:1038E00068203821002201F04BFB682023210022B0
:1038F00001F046FB68206B21002201F041FB6820AB
:103900002421002201F03CFB68206A21002201F002
:1039100037FB68206A210C2201F032FB0F2001F0F6
:10392000FBFF68201A21012201F02AFB68201921DF
:10393000002201F025FB68201B21002201F020FB62
:1039400068201C21002201F01BFB68206A21402214
:1039500001F016FB68202321782201F011FB2820BA
:1039600001F0DAFF68202321002201F009FB682022
:103970007221022203AB01F087FB9DF80CB09DF889
:103980000D3043EA0B2B754BA3FB0B2B5FEADB0BD4
:1039900042D00024254627462646A246A146A046F8
:1039A000682074210C220DEB020301F06DFB9DF8E1
:1039B0000C209DF80D3043EA02230AFA83FA9DF8A1
:1039C0000E209DF80F3043EA022309FA83F99DF88F
:1039D00010209DF8113043EA022308FA83F89DF87D
:1039E00012209DF8133043EA022305FA83F59DF86F
:1039F00014209DF8153043EA022307FA83F79DF857
:103A000016209DF8173043EA022306FA83F60134A4
:103A1000A3B25B45C4D305E000252F462E46AA4637
:103A2000A946A8469AFBFBFA99FBFBF998FBFBF821
:103A300095FBFBF597FBFBF796FBFBF6B8F1000F48
:103A4000CCBFA8F5804808F580486A42002AB8BF74
:103A500003329310C2F387228DF80C208DF80D30BD
:103A60007B42002BB8BF033399109B128DF80E30A8
:103A70008DF80F107342002BB8BF033399109B12BF
:103A80008DF810308DF811106820132101F078FAAC
:103A9000682014219DF80D2001F072FA682015218C
:103AA0009DF80E2001F06CFA682016219DF80F2079
:103AB00001F066FA682017219DF8102001F060FAE5
:103AC000682018219DF8112001F05AFA284607F0C5
:103AD00027F9234907F02CFA009B1860384607F0B5
:103AE0001FF91F4907F024FA009A5060304607F08A
:103AF00017F91B4907F01CFA009B98606820772192
:103B0000022203AB01F0C0FA68207A21022203AB43
:103B100001F0BAFA68207D21022203AB01F0B4FA69
:103B2000504607F0FDF84FF0625107F04DF9019A49
:103B30001060484607F0F4F84FF0625107F044F97E
:103B4000019B5860404607F0EBF84FF0625107F0D8
:103B50003BF9019A906007B0BDE8F08FABAAAAAA22
:103B60000000034310B582B00C460C20022101F086
:103B700065FA10F0010F1FD00C20032107226B46BD
:103B800001F082FA9DF8063013F0080F14D19DF869
:103B900001209DF8003043EA022323809DF8032092
:103BA0009DF8023043EA022363809DF805209DF8CA
:103BB000043043EA0223A38002B010BD2DE9F04F88
:103BC00089B004460D4616466D4B186802909A88D7
:103BD000ADF80C2053F8080F04909B88ADF8143012
:103BE0000023ADF81830ADF81A30ADF81C30654F31
:103BF0003B685B68384664493A229847384602F089
:103C0000CDFD4FF47A6001F087FE94F82830022B46
:103C100000F0A780062B2ED1A6E020463946FFF7FC
:103C2000A1FF4B46DA5B03F1080E69463EF901003D
:103C300011B2884202DA68462EF8002004A9585EC4
:103C400011B28842C4BF04A95A520233062BE9D1EB
:103C500094F82830022B03D1872001F05DFE04E0A8
:103C6000062B02D1584601F057FE08F101081FFA51
:103C700088F39A45D1D8BDF908B0BDF910A0BDF9B7
:103C80000A90BDF91280BDF90C70BDF91430019392
:103C90000BEB0A0303EBD370401007F041F8616AA5
:103CA00007F092F8216807F08FF8286009EB080305
:103CB00003EBD370401007F033F8616A07F084F823
:103CC000616807F081F86860019B3B4403EBD370A7
:103CD000401007F025F8616A07F076F8A16807F050
:103CE00073F8A860CAEB0B0A0AEBDA7A4FEA6A0AA1
:103CF000C8EB090808EBD8784FEA6808DDF804E05B
:103D0000CEEB070707EBD7777D100AEB08002844B6
:103D100007F006F81D4907F00BF90446504606F077
:103D2000FFFF0146204607F003F93060404606F0E9
:103D3000F7FF0146204607F0FBF87060284606F0C2
:103D4000EFFF0146204607F0F3F8B0600D4C236802
:103D50005B6820460E4915229847204602F01EFD5A
:103D60000BE04FF0800A01E040F2DC5A4FF000080F
:103D700006AFC1464FF00C0B4FE709B0BDE8F08F1E
:103D800064CE00003098FF1F20CF000000004040AC
:103D90005CCF000010B582B00C466820D1B206227C
:103DA0006B4601F071F99DF800209DF8013043EA5F
:103DB000022323809DF802209DF8033043EA02236A
:103DC00063809DF804209DF8053043EA0223A38018
:103DD00002B010BD2DE9F04F99B083460E4615464E
:103DE0001C46C36807930369069343690493836978
:103DF0000393084606F0E8FF81462846294606F068
:103E0000E3FF80462046214606F0DEFF074648468F
:103E1000414606F0D1FE80464046394606F0CCFECB
:103E200004F014FD8246002107F062F9002840F0FA
:103E300080842598014606F0C7FF814626980146F2
:103E400006F0C2FF80464846414606F0B5FE08909F
:103E50002798014606F0B8FF07464846414606F057
:103E6000ABFE80464046394606F0A6FE04F0EEFC66
:103E70000746002107F03CF9002840F05A840798D3
:103E8000014606F099FE0C900698014606F094FE55
:103E90000D900498014606F08FFE0E90039801469F
:103EA00006F08AFE13900798014606F08DFF0B90EE
:103EB0000798069906F088FF11900798049906F074
:103EC00083FF14900698014606F07EFF099006983D
:103ED000039906F079FF10900498014606F074FFEC
:103EE00008900398014606F06FFF0A904FF07E504D
:103EF000514607F01DF812904FF07E50394607F0FA
:103F000017F807462598394606F05EFF8246269840
:103F1000394606F059FF01902798394606F054FFBC
:103F200002900C98019906F04FFF05900C980299A9
:103F300006F04AFF074650460B9906F045FF8046BB
:103F40000598039906F040FF0146404606F032FE10
:103F500080463846049906F037FF0146404606F091
:103F60002BFE80465046099906F02EFF014640463A
:103F700006F022FE80460D98019906F025FF04996F
:103F800006F022FF0146404606F016FE80460D98D8
:103F9000029906F019FF039906F016FF0146404604
:103FA00006F00AFE80465046089906F00DFF0146CD
:103FB000404606F0FFFD804650460A9906F004FF91
:103FC0000146404606F0F6FD80460D98514606F043
:103FD000FBFE0F900C98514606F0F6FE039906F092
:103FE000F3FE814601980B9906F0EEFE0146484625
:103FF00006F0E2FD81460698394606F0E5FE0146E8
:10400000484606F0D7FD07460F98049906F0DCFEF7
:104010000146384606F0D0FD07460198099906F09A
:10402000D3FE0146384606F0C5FD074601980899BB
:1040300006F0CAFE0146384606F0BEFD07460E9859
:10404000029906F0C1FE039906F0BEFE014638460D
:1040500006F0B2FD074601980A9906F0B5FE014642
:10406000384606F0A7FD07464046414606F0ACFE3E
:1040700080463846394606F0A7FE0146404606F01F
:104080009BFD04F0E3FB814607984FF0404106F0AA
:104090009BFE514606F098FE049906F095FE0746F1
:1040A0000698059906F090FE0146384606F084FD14
:1040B000074602980B9906F087FE0146384606F03F
:1040C0007BFD074603980F9906F07EFE01463846B1
:1040D00006F072FD07460298099906F075FE014642
:1040E000384606F067FD07460E98019906F06CFE0B
:1040F000039906F069FE0146384606F05DFD074665
:104100000298089906F060FE0146384606F052FD16
:10411000074602980A9906F057FE0146384606F00F
:104120004BFD0746014606F047FD159010980146E5
:1041300006F042FD804604980C9906F045FE0146C3
:10414000404606F037FD80463046129906F03CFEA8
:104150000146404606F02EFD05901198014606F0F6
:104160002BFD064603980E9906F02EFE01463046BA
:1041700006F022FD06462846129906F025FE014665
:10418000304606F017FD0B903846049906F01CFEE9
:1041900016904FF07C50089906F00CFD0A9906F035
:1041A00009FD494606F010FE05461098149906F0E0
:1041B00001FD394606F008FE0146284606F0FCFCE3
:1041C000514606F0F7FC824609F100430F9338464A
:1041D000069906F0F9FD17900698049906F0F4FD8B
:1041E00005460798039906F0EFFD0146284606F0BC
:1041F000E1FC494606F0E8FD05460498039906F0FF
:10420000E3FD0146119806F0D7FC394606F0DCFDC7
:104210000146284606F0D0FC019906F0CBFC0A9036
:104220004846049906F0D0FD06461498109906F009
:10423000C3FC494606F0C8FD05464FF07C5009997D
:1042400006F0B8FC089906F0B5FC394606F0BCFD4E
:104250000146284606F0B0FC029906F0ABFC804609
:104260000E9B03F10040059906F0AEFD05460B9844
:104270000D9906F0A9FD0146284606F09DFC05466D
:104280001698514606F0A0FD0146284606F092FC1D
:1042900005460F98039906F097FD179906F08CFCD8
:1042A0000A9906F091FD0146284606F085FC054670
:1042B0003046414606F088FD0146284606F07CFC63
:1042C00001900998014606F077FC01464FF07E50B8
:1042D00006F070FC05460898014606F06DFC0146A4
:1042E000284606F067FC05462046129906F06CFD4C
:1042F0000146284606F05EFC05463846039906F05E
:1043000063FD02903846079906F05EFD0890139809
:10431000059906F059FD04460C980B9906F054FDDA
:104320000146204606F048FC044606984FF08141BD
:1043300006F04AFD294606F047FD0146204606F0F4
:1043400039FC04465046029906F03EFD01462046DF
:1043500006F032FC04463046089906F02DFC014672
:104360000A9806F031FD0146204606F025FC044679
:104370004846039906F028FD06461598069906F06A
:1043800023FD0146304606F015FC0146404606F086
:104390001BFD0146204606F00FFC064648464946EE
:1043A00006F00AFC00F100444846069906F00CFDB0
:1043B00009900C9B03F10041059806F005FD0746A6
:1043C00013980B9906F000FD0146384606F0F4FB01
:1043D000074604984FF0814106F0F6FC0146284656
:1043E00006F0F2FC0146384606F0E4FB054620469E
:1043F000049906F0E9FC089906F0DCFB01465046FA
:1044000006F0E2FC0146284606F0D6FB0546029877
:10441000099906F0D1FB01460A9806F0D5FC014641
:10442000284606F0C9FB05464846079906F0CCFC2D
:1044300007461598049906F0C7FC0146384606F071
:10444000B9FB0146404606F0BFFC0146284606F08F
:10445000B3FB05460D98059906F0B6FC07460E9885
:104460000B9906F0B1FC0146384606F0A5FB07465D
:104470000398214606F0A8FC0146179806F09CFB1D
:104480000146504606F0A0FC0146384606F094FB73
:10449000044607980F9906F097FC0146169806F017
:1044A0008BFB01460A9806F08FFC0146204606F079
:1044B00083FB04464046099906F086FC01462046E7
:1044C00006F07AFB04460198014606F07DFC824620
:1044D0003046314606F078FC81465046494606F0A3
:1044E0006BFB07462846294606F06EFC8046384698
:1044F000414606F061FB02902046214606F064FC2E
:1045000007465046494606F057FB81464846414615
:1045100006F052FB80464046394606F04DFB04F05B
:1045200095F901464FF07E5006F002FD8046069B4D
:1045300003F10040229906F047FC074604982399AE
:1045400006F042FC0146384606F034FB0746039865
:10455000249906F039FC0146384606F02BFB4FF053
:104560007C5106F031FC07460198414606F02CFCD0
:10457000714906F029FC0146384606F01BFB2899D4
:1045800006F022FC079906F017FB074607982299C8
:1045900006F01AFC81460498249906F015FC0146A1
:1045A000484606F009FB81460398239906F00CFC67
:1045B0000146484606F0FEFA4FF07C5106F004FC36
:1045C00081463046414606F0FFFB5B4906F0FCFBA6
:1045D0000146484606F0EEFA289906F0F5FB0699E2
:1045E00006F0EAFA06460798239906F0EDFB8146A5
:1045F0000698249906F0E8FB0146484606F0DAFAE8
:1046000081460398229906F0DFFB0146484606F0F2
:10461000D3FA4FF07C5106F0D7FB8146284641463D
:1046200006F0D2FB444906F0CFFB0146484606F0AF
:10463000C1FA289906F0C8FB049906F0BDFA0546B0
:104640000798249906F0C0FB81460698239906F046
:10465000BBFB0146484606F0AFFA81460498229912
:1046600006F0B2FB0146484606F0A4FA4FF07C5132
:1046700006F0AAFB81462046414606F0A5FB2E49DE
:1046800006F0A2FB0146484606F094FA289906F087
:104690009BFB039906F090FA04463846394606F02B
:1046A00093FB03903046314606F08EFB824603981A
:1046B000514606F081FA80462846294606F084FBDA
:1046C00081464046494606F077FA04902046214646
:1046D00006F07AFB80460398514606F06DFA824652
:1046E0005046494606F068FA81464846414606F07B
:1046F00063FA04F0ABF801464FF07E5006F018FC68
:1047000080463846414606F05FFBCBF80C00304649
:10471000414606F059FBCBF810002846414606F00A
:1047200053FBCBF814002046414606F04DFBCBF876
:10473000180019B0BDE8F08F0EC71A3F2DE9F843F5
:1047400004460D460846624902F0B2F928B92846E7
:10475000604902F0ADF9002844D0D4F810806769B0
:10476000D4F80C90A6694046394606F02DFB044665
:104770004846314606F028FB0146204606F01CFA62
:10478000014606F019FA05F0B3FE04460D46484608
:10479000494606F019FB81464046414606F014FBA7
:1047A0000146484606F008FA80463846394606F083
:1047B0000BFB0146404606F0FDF907463046314600
:1047C00006F002FB0146384606F0F4F905F090FECB
:1047D00002460B462046294603F0BAFE06F096F93B
:1047E000BDE8F88328463C4902F062F920B9284622
:1047F0003A4902F05DF9C8B12069A16906F0E4FA0E
:104800000546E068616906F0DFFA0146284606F0D1
:10481000D1F9014606F0D0F905F06AFE03F044FE36
:1048200006F074F900F10040BDE8F88328462C49F1
:1048300002F03EF928B928462A4902F039F9002841
:1048400044D0D4F80C90D4F810806769A669484623
:10485000414606F0B9FA04463846314606F0B4FA45
:104860000146204606F0A8F9014606F0A5F905F034
:104870003FFE04460D464846494606F0A5FA8146E5
:104880004046414606F0A0FA0146484606F092F935
:1048900080463846394606F097FA0146404606F00B
:1048A00089F907463046314606F08EFA0146384609
:1048B00006F082F905F01CFE02460B46204629460A
:1048C00003F046FE06F022F9BDE8F883BDE8F88360
:1048D0001CCC000074CF000020CC000078CF00007A
:1048E00024CC0000ACCC0000704700BF704700BF74
:1048F00038B52820392100F0A1FB044610F0010F43
:1049000009D0284D2B685B6828462749182298470C
:10491000284601F043FF14F0020F09D0214D2B6807
:104920005B68284621491E229847284601F036FF39
:1049300014F0040F09D01B4D2B685B6828461C49F6
:1049400021229847284601F029FF14F0080F09D0CA
:10495000144D2B685B68284616491C229847284648
:1049600001F01CFF14F0100F09D00E4D2B685B688E
:104970002846114923229847284601F00FFF14F0DA
:10498000200F09D0074C23685B6820460B49222280
:104990009847204601F002FF4FF47A7000F0BCFF08
:1049A00038BD00BF3098FF1F7CCF000098CF0000BB
:1049B000B8CF0000DCCF0000FCCF000020D000000A
:1049C00008B528203421002200F0DAFA2820A0219E
:1049D000002200F0D5FA28203421012200F0D0FA7C
:1049E00028203421002200F0CBFA08BD08B5282089
:1049F0005B21032200F0C4FA28205C21032200F08E
:104A0000BFFA28203221022200F0BAFA28205521CC
:104A1000642200F0B5FA28205621142200F0B0FAE2
:104A200028205721142200F0ABFA28205821B22266
:104A300000F0A6FA08BD00BF08B5282054210022C6
:104A400000F09EFA28203321072200F099FA28204E
:104A50003421012200F094FA642000F05DFF08BDCB
:104A6000F0B583B014461F4628206421D2B200F06E
:104A700087FA28205421802200F082FA28203A2147
:104A800000F0DCFAA04207D028263A253046294615
:104A900000F0D4FAA042F9D128203B2100F0CEFA50
:104AA0008DF8040028203C2100F0C8FA8DF805009C
:104AB00028203D2100F0C2FA8DF8060028203E2172
:104AC00000F0BCFA8DF80700094C02AB3B4413F828
:104AD000041C13F8053C204643EA012101F0AAFE1C
:104AE000204601F05BFE642000F016FF03B0F0BD2D
:104AF0003098FF1FF8B51C46CBB20F0A12B1D6B2E0
:104B0000150A01E000252E46282060211A4600F0F3
:104B100037FA282061213A4600F032FA2820622133
:104B2000324600F02DFA282063212A4600F028FAA8
:104B300028206421E2B200F023FA282054218022A8
:104B400000F01EFA28203A2100F078FAA04207D09F
:104B500028263A253046294600F070FAA042F9D1BD
:104B600028206421002200F00BFA28205421002282
:104B700000F006FAF8BD00BF70B5154641F080049C
:104B800028206021D2B200F0FBF928206121C5F372
:104B9000072200F0F5F928206221C5F3074200F052
:104BA000EFF9282063212A0E00F0EAF92820642179
:104BB000224600F0E5F928205421802200F0E0F997
:104BC00028203A2100F03AFA844207D028263A25D4
:104BD0003046294600F032FA8442F9D12820642177
:104BE000002200F0CDF928205421002200F0C8F95D
:104BF00070BD00BF10B52820922100F01FFA10F000
:104C0000010F09D0624C23685B68204661491F226E
:104C10009847204601F0C2FD2820382100F00EFA06
:104C200001381F284DD8DFE800F0101A4C244C4CF6
:104C30004C2E4C4C4C4C4C4C4C384C4C4C4C4C4CE6
:104C40004C4C4C4C4C4C4C4C4C42514C23685B688B
:104C50002046514915229847204601F09FFD4C4CB3
:104C600023685B6820464D4915229847204601F08D
:104C700095FD474C23685B682046494918229847B0
:104C8000204601F08BFD424C23685B682046454975
:104C900020229847204601F081FD3D4C23685B6847
:104CA0002046414920229847204601F077FD384CA4
:104CB00023685B6820463D491D229847204601F045
:104CC0006DFD28209E2100F0B9F910F0010F05D0EC
:104CD0002F4803685B6836491922984728203521F8
:104CE00000F0ACF901381F284DD8DFE800F0101AA9
:104CF0004C244C4C4C2E4C4C4C4C4C4C4C384C4C4E
:104D00004C4C4C4C4C4C4C4C4C4C4C4C4C42204C19
:104D100023685B682046274910229847204601F007
:104D20003DFD1B4C23685B68204623490C229847B5
:104D3000204601F033FD164C23685B6820461F496E
:104D40001C229847204601F029FD114C23685B681E
:104D500020461B4915229847204601F01FFD0C4CA8
:104D600023685B682046174917229847204601F0C0
:104D700015FD074C23685B682046134916229847A7
:104D8000204601F00BFDC82000F0C6FD10BD00BF9D
:104D90003098FF1F44D0000064D000007CD0000099
:104DA00094D00000B0D00000D4D00000F8D00000B3
:104DB00018D1000034D1000048D1000058D10000C3
:104DC00078D1000090D10000A8D1000008B52820BB
:104DD000362100F033F901381F2835D8DFE800F01C
:104DE0001016341C343434223434343434343428FB
:104DF0003434343434343434343434343434342E79
:104E0000124803685B6812491F2298470F480368DD
:104E10005B681049202298470C4803685B680E497C
:104E200017229847094803685B680C491F22984776
:104E3000064803685B680A492022984703480368CC
:104E40005B6808491722984708BD00BF3098FF1FCC
:104E5000C0D10000E0D1000004D200001CD200004C
:104E60003CD2000060D200002DE9F04383B03B4CFF
:104E700023685B6820463A490B229847204601F098
:104E80008DFC01244FF00008364D344FDFF8EC90D4
:104E9000E6B228463146FDF781F829696A7B00238E
:104EA000009328460123FDF751FBF8B93B685B6886
:104EB00038462D491E2298470F2E05D83B685B685F
:104EC00038462A49012298473846214610220023B5
:104ED00001F074FC3B685B6838462549032298471B
:104EE000384601F05BFC08F1010818E0042816D1EF
:104EF0003B685B68384649461A2298470F2E05D80A
:104F00003B685B6838461949012298473846214674
:104F10001022002301F052FC384601F03FFC01341E
:104F20007F2CB5D1B8F1000F0AD10C4C23685B6817
:104F30002046104915229847204601F02FFC09E031
:104F4000064C23685B6820460B490522984720469B
:104F500001F024FC03B0BDE8F08300BF3098FF1FD0
:104F600078D200004096FF1F84D20000A4D2000037
:104F7000A8D20000C8D20000E0D20000ACD20000ED
:104F800070B582B003460E4615460B4C20461946B6
:104F9000FDF704F820463146FCF772FC204629460E
:104FA000FCF76EFC2169627B0023009320460123FD
:104FB000FDF7CCFA02B070BD4096FF1F2DE9F0431B
:104FC00083B007468946154698460A9E1A4C2046E5
:104FD0003946FCF7E3FF20464946FCF751FC2046E2
:104FE0002946FCF74DFC2169627B0025009520468F
:104FF0002B46FDF7ABFA2069617B012300930195F5
:105000003A464346FDF7B6FA2069D0F83821D0F881
:1050100034319A420DD02C46074FE5B2FDF7C8FA5D
:1050200070553869D0F83821D0F8343101349A42BB
:10503000F3D103B0BDE8F0834096FF1F70B582B096
:1050400006460D460F4C20463146FCF7A7FF20468A
:105050002946FCF715FC2169627B00250095204656
:105060002B46FDF773FA2069617B012300930195BC
:105070003246FDF77FFA2069FDF79AFAC0B202B016
:1050800070BD00BF4096FF1F2DE9F04182B007467A
:105090000D4690461E46194C20463946FCF77EFFC9
:1050A00020462946FCF7ECFB2169627B0025009530
:1050B00020462B46FDF74AFA2069617B01230093C5
:1050C00001953A464346FDF755FA2069D0F8382154
:1050D000D0F834319A420DD02C46084FE5B2FDF796
:1050E00067FA70553869D0F83811D0F83421013496
:1050F0009142F3D102B0BDE8F08100BF4096FF1F9E
:10510000704700BF704700BF70B528207021FFF7BF
:1051100095FF064628207121FFF790FF0546394C80
:1051200023685B6820463849162298472046314656
:105130001022002301F042FB2046294610220023C2
:1051400001F03CFB204601F029FB23685B68204608
:105150002E4911229847204601F020FB2820722179
:10516000FFF76CFF064628207321FFF767FF05460F
:1051700023685B6820462649162298472046314618
:1051800001F058FB2046294601F054FB204601F06F
:1051900005FB28209021FFF751FF054623685B6837
:1051A00020461C49142298472046294610220023F5
:1051B00001F004FB23685B682046174910229847DA
:1051C000204601F0EBFA28209121FFF737FF054632
:1051D00023685B68204611491522984720462946D6
:1051E0001022002301F0EAFA23685B6820460C498C
:1051F00010229847204601F0D1FA4FF47A7000F05F
:105200008BFB70BD3098FF1FE8D2000000D3000078
:1052100014D300002CD3000044D3000058D3000066
:1052200070D3000010B528205421FFF707FF40F08D
:10523000010228205421D2B2FFF7A2FE184C2368A5
:105240005B682046174917229847204601F0A6FAC6
:105250002820A0210122FFF793FE28209E21FFF79E
:10526000EDFE10F0010F0CD023685B6820460E495C
:105270001C229847204601F091FA642000F04CFB74
:1052800010BD074C23685B682046084928229847D0
:10529000204601F083FA642000F03EFB10BD00BF01
:1052A0003098FF1F84D300009CD30000BCD30000C3
:1052B0004B788878000400EB03200B781844CB78F7
:1052C00000EB0360704700BF10B582B00C46282089
:1052D000D1B206226B46FFF7D7FE9DF801209DF85C
:1052E000003043EA022323809DF803209DF802301A
:1052F00043EA022363809DF805209DF8043043EAC9
:105300000223A38002B010BD30B585B005460C461F
:105310002820002110226B46FFF7B6FE284669467A
:10532000FFF7C6FF2060284601A9FFF7C1FF6060B4
:10533000284602A9FFF7BCFFA060284603A9FFF793
:10534000B7FFE06005B030BD00B583B02820C9B21A
:10535000022201ABFFF798FE9DF805009DF804308E
:1053600043EA002000B203B05DF804FB024B1A6868
:1053700001321A60704700BF3897FF1F08B50D4C07
:10538000236813F4802F01D000F01CFC236813F471
:10539000806F01D001F07AFF236813F4006F01D011
:1053A00002F026FB236813F4805FE9D002F0DEFDF3
:1053B000E6E700BF3480044008B5FFF7DFFF00BF19
:1053C0001022014B1A80704700200540704700BF33
:1053D000024A13681844106018467047448CFF1F37
:1053E000EFF31383ABB9EFF31083ABB9EFF305839E
:1053F00023B10F2B05D9094A985C03E04FF4807064
:1054000000E00020EFF311833BB1834238BF184620
:1054100070474FF0FF30704700207047F0E300E026
:1054200010B5154B1C681C6014F4805F05D0134B3D
:10543000DB6813B1114BDB68984714F4005F05D0AB
:105440000E4B1B6913B10D4B1B69984714F0200FCD
:1054500005D00A4B1B6E13B1084B1B6E984714F016
:10546000100F07D0054BD3F884301BB1034BD3F892
:105470008430984710BD00BFA0900440B096FF1F35
:1054800010B5274B1C681C6014F4803F05D0254BD9
:105490001B6813B1234B1B68984714F4003F05D0D9
:1054A000204B5B6813B11F4B5B68984714F0010FEA
:1054B00005D01C4B1B6C13B11A4B1B6C984714F096
:1054C000020F05D0174B5B6C13B1164B5B6C984702
:1054D00014F0080F05D0134B9B6C13B1114B9B6C50
:1054E000984714F0040F05D00E4BDB6C13B10D4B35
:1054F000DB6C984714F4002F05D00A4B5B6E13B198
:10550000084B5B6E984714F4802F07D0054BD3F8F7
:1055100080301BB1034BD3F88030984710BD00BFDB
:10552000A0A00440B096FF1F10B5384B1C681C604B
:1055300014F0080F05D0364B5B6A13B1344B5B6A2D
:10554000984714F0100F05D0314B9B6A13B1304BC4
:105550009B6A984714F0400F05D02D4BDB6A13B1BE
:105560002B4BDB6A984714F0800F05D0284B1B6B40
:1055700013B1274B1B6B984714F0200F05D0244B19
:105580005B6B13B1224B5B6B984714F0010F05D096
:105590001F4BDB6B13B11E4BDB6B984714F0020FF4
:1055A00005D01B4B9B6D13B1194B9B6D984714F0A5
:1055B000040F05D0164BDB6D13B1154BDB6D98470F
:1055C00014F4007F05D0124BDB6E13B1104BDB6E71
:1055D000984714F4807F05D00D4B1B6F13B10C4B13
:1055E0001B6F984714F4806F05D0094B5B6F13B1A4
:1055F000074B5B6F984714F4006F05D0044B9B6F0B
:1056000013B1034B9B6F984710BD00BFA0B004407F
:10561000B096FF1F10B5264B1C681C6014F0010FDC
:1056200005D0244B9B6813B1224B9B68984714F01C
:10563000800F05D01F4B5B6913B11E4B5B69984708
:1056400014F0100F05D01B4B9B6913B1194B9B69CC
:10565000984714F0040F05D0164BDB6913B1154BB6
:10566000DB69984714F0080F05D0124B1B6A13B181
:10567000104B1B6A984714F0020F05D00D4B9B6B23
:1056800013B10C4B9B6B984714F0200F05D0094BBE
:105690001B6D13B1074B1B6D984714F0400F05D0DD
:1056A000044B5B6D13B1034B5B6D984710BD00BF9E
:1056B000A0C00440B096FF1F10B50B4B1C681C60C7
:1056C00014F0020F05D0094B9B6E13B1074B9B6E74
:1056D000984714F0010F05D0044BDB6F13B1034B57
:1056E000DB6F984710BD00BFA0D00440B096FF1FED
:1056F00030B4212831D8042A2FD8DFE802F0070976
:10570000050B03000B2406E00A2404E0082402E051
:105710000C2400E00924124B03EBC0035A68114B20
:10572000114DC3F89C51114DC3F8A051104DC3F851
:10573000A451104DC3F8A8510F4DC3F8AC5172B627
:10574000136823F4702313600C4D45F8201043F0C8
:10575000807343EA0444146062B630BC704700BFF3
:10576000E8D300000082FF1F215400008154000094
:105770002955000015560000B9560000B096FF1FCD
:10578000094B03EBC0035A6872B6136823F08773A2
:1057900023F4803343F0807313600022034B43F8FB
:1057A000202062B6704700BFE8D30000B096FF1F0C
:1057B000044B00221A6004490A60044A1060102257
:1057C0001A60704714D0034004D0034000D0034057
:1057D00021281ED80F4B53F8303093F8802212F056
:1057E000FF0F08D019B1012283F8802070470122F1
:1057F00083F800217047074B03EBC000436821B1D9
:105800001A6842F003021A6070471A6822F0020216
:105810001A607047E8D30000212806D8044B53F8DB
:10582000303093F80002C0B270470020704700BFCC
:10583000E8D3000021284AD8254B03EBC0035B685E
:10584000012911D004291DD0214A52F8302000200E
:1058500082F8800200292FD0022931D003291FD0DD
:1058600040F203121A607047194A52F830200121A1
:1058700082F880124FF4A2721A601A6822F0200295
:105880001A607047124A52F83020012182F88012C3
:105890004FF4A2721A601A6842F020021A60704730
:1058A0004FF480721A601A6842F002021A601A6895
:1058B00022F001021A6070474FF480721A6070473C
:1058C0004FF480721A601A6842F003021A6070473F
:1058D000E8D3000072B60C4B1B680C4A12680C49E6
:1058E000096862B611F0806F02D0322B88BF013296
:1058F000C3F5BB33FF330749A1FB03039B094FF4F7
:105900007A7000FB0230704718E000E03897FF1F04
:1059100004ED00E0ABAAAAAA38B50546FFF7DAFF06
:10592000044625B938BD013D0AD004F57A74FFF765
:10593000D1FF001BB0F57A7FF5D201F0D5F8F6E77C
:1059400038BD00BF10B5264B4FF400021A604FF06F
:1059500080721A604FF000721A604FF080621A6015
:105960004FF000621A6000201E4B18604BF6FF716A
:105970000433196028231C4A13600832136008326C
:105980001360083213600832136008321360083263
:105990001360083213600922144C226004F580540D
:1059A000043420600434216004342360083423600C
:1059B000143C226004F5FE24043420600C4801608D
:1059C0000C490B6008310B600B4B1A6001F0AEF80C
:1059D0004FF4C870FFF7A0FF00F074FC10BD00BFCB
:1059E00008E100E0048003400C8003400080034095
:1059F00008800B400C800B4000800B4030B40E4BF5
:105A00001B7843F002020D4C04EBC20460600C48AA
:105A1000007800280CBF8824C82444EA0141074DBF
:105A200045F8321080F00100054A107083F0010340
:105A3000014A137030BC7047A497FF1F0080FF1FFE
:105A40001D98FF1F10B4431E032B11D872B60A4ACB
:105A500052F8230050B14268074941F82320074A11
:105A600032F813400188611A22F8131062B600E080
:105A700000205DF8044B70479497FF1F389AFF1F72
:105A8000013803280DD872B6074B53F820302BB1DC
:105A9000002001305B68002BFBD100E0002062B6E3
:105AA00070470020704700BFE897FF1F38B572B6F7
:105AB00001231B491B4C5A1812F8012C12F0080F35
:105AC00024D09A0054F832506DB9164B03EBC20142
:105AD00008304860144943F83210144B1A78013AE0
