:1000000000800020BD010000613D0000253D000092
:10001000253D0000253D0000253D0000253D000058
:10002000253D0000253D0000253D0000613D00000C
:10003000613D0000253D0000613D0000153D0000D0
:10004000613D0000613D0000613D0000613D000038
:10005000613D0000613D0000613D0000613D000028
:10006000613D0000613D0000613D0000613D000018
:10007000613D0000613D0000613D0000613D000008
:10008000613D0000613D0000613D0000613D0000F8
:10009000613D0000613D0000613D0000613D0000E8
:1000A0006520000075200000613D0000613D0000FA
:1000B000613D0000613D0000613D0000613D0000C8
:1000C000613D0000613D0000613D0000613D0000B8
:1000D000613D0000613D0000613D0000613D0000A8
:1000E000613D0000613D0000613D0000613D000098
:1000F000613D0000555B0000613D0000B9620000F9
:10010000613D000035680000613D0000613D000078
:10011000613D0000613D0000613D0000613D000067
:10012000613D0000613D0000613D0000613D000057
:10013000613D0000613D0000613D0000613D000047
:10014000613D0000613D0000613D0000613D000037
:10015000613D0000613D0000613D0000613D000027
:10016000613D000071450000613D0000613D0000FF
:10017000613D0000613D0000613D0000613D000007
:10018000613D0000613D0000613D0000613D0000F7
:10019000613D0000613D0000613D0000613D0000E7
:1001A000613D0000613D0000613D0000613D0000D7
:1001B000613D0000613D0000613D0000574B4CF285
:1001C000205210B51A804DF628121A8000BF00BFC9
:1001D00003F0CAFD524B4FF010621A60514A9A6008
:1001E000514ADA60A3F53043203B1A6812F480725A
:1001F00004D14E490A604FF4A8521A604C4B1A7849
:10020000110703D51A7842F008021A70494B4A4C7C
:100210004A482A221A704A4A00239918A14203D256
:10022000195899500433F8E7464B474900228B424E
:1002300002D243F8042BFAE74448454900235A58B0
:100240001A500433B3F5DE7FF9D1424B424A802184
:1002500003F8011B9342FBD1404B3C4A1A60404BD0
:100260008A221A70A3F5805324225A70A0221A7091
:100270009A799207FCD59A79D406FCD4394A9379B5
:1002800003F00C03082B374BF9D103221A714022DB
:100290005A719A799006FCD5324A9179314B4906C8
:1002A000FBD5314A314911600221516020221A7078
:1002B0009A7902F00C020C2AFAD12D4B2D4A1A60C1
:1002C0002D4B2E4A1A6000225A60072243F8042C54
:1002D0002B4AC3F80C2D62B604F00AF8134B1B68C6
:1002E000DA0705D5274803F039FF274B274A1A605C
:1002F000274B1B785B0609D5234C244A236893427D
:1003000004D1204803F02AFF0023236007F0D8FE21
:1003100003F030FD04F008FFFEE700BF0E200540AB
:1003200030800440823F04000100002B14D00340C1
:1003300002D0074000E007403495FF1F7096000090
:100340006087FF1F3495FF1FF099FF1F0082FF1F7A
:100350000000000000E400E05FE400E008ED00E0E1
:100360000050064000400640448004400000030165
:1003700004800440C010050014E000E0FF76010096
:1003800000002020D92FA8021CE00340A5C3945AE6
:1003900000F00740FFFFFFFFFFFFFFFFFFFFFFFF32
:1003A000FFFFFFFFFFFFFFFFFFFFFFFFFFFFFFFF5D
:1003B000FFFFFFFFFFFFFFFFFFFFFFFFFFFFFFFF4D
:1003C000FFFFFFFFFFFFFFFFFFFFFFFFFFFFFFFF3D
:1003D000FFFFFFFFFFFFFFFFFFFFFFFFFFFFFFFF2D
:1003E000FFFFFFFFFFFFFFFFFFFFFFFFFFFFFFFF1D
:1003F000FFFFFFFFFFFFFFFFFFFFFFFFFFFFFFFF0D
:10040000FFFFFFFFFFFFFFFFFFFFFFFFDEF9FFFF23
:1004100010B5054C237833B9044B13B10448AFF33E
:1004200000800123237010BD3495FF1F00000000E1
:100430007096000008B5064B1BB106480649AFF39D
:1004400000800648036813B1054B03B1984708BD07
:1004500000000000709600003895FF1F3495FF1FC4
:100460000000000040687047C06800EB81007047E2
:10047000014B0360704700BF308A00002DE9F8434C
:1004800007469146B1F1000817DB4368984514DA36
:100490000368DB68114698477C68013CA04509DA8F
:1004A000A300FD68EE1856F8046CEE50013C043BC6
:1004B0004445F6D1FB6843F82890BDE8F88300BFB7
:1004C0002DE9F04180460F464668002E19DDC568CB
:1004D000286807F0ADFD002480B106E055F8040F50
:1004E000394607F0A5FD48B100E00024D8F80030F7
:1004F0009B69404621469847BDE8F0810134B442EB
:10050000ECD1BDE8F08100BF002905DB43689942CA
:10051000BCBFC36843F82120704700BFC36853F8CD
:1005200021007047C0687047C0687047C06800EB22
:1005300081007047C0687047C06870474268C068F3
:1005400000EB8200704700BF4268C06800EB820089
:10055000704700BF70B504464268C36843F8221074
:10056000436801334360826893421CDB5600B6F156
:10057000FE5F94BFB0004FF0FF3004F0E1FD054690
:100580006368002B09DD00231A46E168C958E95069
:100590000132043361689142F7DCE06808B104F08D
:1005A000D7FDE560A66070BD70B50446002941DB4B
:1005B000436899423EDA8368013B002B0CDD8B00D7
:1005C0000131A268914203DAE268D0184068D05045
:1005D000043362688A42F3DC6368013B6360A668A7
:1005E000F21A934226DA06EBD6767610002E04DD58
:1005F0003046B6F1FE5F17D801E0012006468000C4
:1006000004F09EFD0546002E07DDB1000023E268E0
:10061000D258EA5004338B42F9D1E06808B104F0B3
:1006200097FDE560A66070BD4FF0FF3004F088FDD7
:100630000546EAE770BD00BF10B50446044B0360F1
:10064000C06808B104F084FD024B2360204610BD51
:10065000808A0000308A000010B50446064B036013
:10066000C06808B104F074FD044B2360204604F018
:100670006BFD204610BD00BF808A0000308A00005C
:1006800010B50446024B036004F05EFD204610BD29
:10069000308A00002DE9F04387B0514C20464FF4DA
:1006A000FA6101F0BDFD20464E494FF4E13201F000
:1006B00093FD204601F08AFD606B03685B684A4940
:1006C000112298470A2003F0FDFD20460021012257
:1006D00001F0FAFD454B1869597B002500950195FD
:1006E0000295434B0393012604962A462B4600F0BD
:1006F00043FD41F2883003F0E5FD0D20314603F063
:100700006FFD0D20294603F039FD0E20314603F020
:1007100067FD0E20314603F031FD03F067F83548E0
:1007200003F076F9344C204602F0DEFD334802F047
:1007300097F8204602F074FEDFF8C8902046B9F81A
:1007400000104A22334602F089FEDFF8BC802046C2
:10075000B8F800104A22032302F080FE284F2046FA
:1007600039884B22334602F079FE282064212A463C
:1007700003F0CAF8282054212A4603F0C5F8204681
:1007800049212A4602F0D8FE20464FF47A71082209
:10079000CA2302F08FFE20464FF4FA612A46CB238B
:1007A00002F088FE2046B9F800104A22334602F0D3
:1007B00055FE2046B8F800104A22032302F04EFEF0
:1007C000204639884B22334602F048FE204602F08C
:1007D000F1FE204602F0BCFF07B0BDE8F08300BF89
:1007E0001496FF1FD097FF1FC88A00000096FF1FB6
:1007F000801A06007C95FF1F8095FF1FA495FF1FA0
:10080000D095FF1FE895FF1F8895FF1F2DE9F04F3A
:10081000ADF5995D83B0AA4F0D9700250E950A2678
:100820000F96282004F08CFC109012AC119744F81D
:100830000459A660282004F083FCE0602E46DFF80F
:10084000F0B22820352103F07DF8044610F0020FA5
:1008500002D09C4803F0EAF914F0100F0BD09A4B29
:1008600000939A4B01939A4A0292964899491A2208
:10087000994B03F0B9F914F0200F0BD0974B00936C
:10088000974B0193974B02938E4897492222974B9F
:1008900003F0AAF914F0080F0BD0954B0093954B79
:1008A0000193954A0292874894491222944B03F08F
:1008B0009BF914F0040F03D08248924903F062F9C7
:1008C00014F0400F0ED0002300930DF5995404341A
:1008D00001948D4800211A460B4601F0A5FF2046E1
:1008E00003F094F803F0CCFC0546884C2068281AE5
:1008F00007F0B2F9864907F0BBFA82462560854CBD
:100900002068514607F0F8F82060DFF8BC81D8F87D
:10091000003003F100430993DFF8BC91D9F80030AF
:1009200003F100430A93694F3A680B926B4B1868C6
:10093000594607F0E9F9784907F09AFA00906B4DAB
:100940002868594607F0E0F9734907F091FA0190D9
:10095000634C236803F10040594607F0D5F96E490E
:1009600007F086FA0290664B1B680393604B1B6886
:100970000493604B1B680593CDF818A0674809994C
:100980000A9A0B9B01F0F8FFD9F80000644907F0C0
:10099000BBF9814619ABF050D8F80000604907F068
:1009A000B3F98046E1ABF05038685D4907F0ACF927
:1009B00007460DF2A463F05028685A4907F058FA28
:1009C0000DF6C4139851454A1068564907F050FA7D
:1009D0000DF6E44398512068524907F049FA0DF5A5
:1009E000805304339851484641463A4601F0A2FDEF
:1009F0000E9A109B43F822000E9B01330E930F9D1D
:100A0000AB421CDB6D00B5F1FE5F94BFA8004FF058
:100A1000FF3004F095FB04460E9B002B09DD0023FC
:100A20001A461099C958E150013204330E998A428E
:100A3000F7DB109808B104F08BFB10940F9532206F
:100A400003F040FC0436B6F5487F7FF4FAAE0DA8FB
:100A500011A9052201F090FD15A811A901F0C8FD0A
:100A6000129B002B40F3EF800025A846DFF8C490CE
:100A70002D4CDFF8C4A099F80030012B0DD123686C
:100A80005B682046514638229847204604F064FBB4
:100A900099F80030013389F8003019ABE85806F0B6
:100AA000C7FC02460B4602270097204604F0ACFB29
:100AB00023681E4E5B682046314601223EE000BF9F
:100AC000808A00007C95FF1F7095FF1F7495FF1FA3
:100AD00040DAFF39E095FF1F6C95FF1F5095FF1F0F
:100AE0008C95FF1F08AC1C3ED895FF1F8495FF1FF7
:100AF0007895FF1F6495FF1F07409C3E5C95FF1F84
:100B00005895FF1F9095FF1FA095FF1F6895FF1F29
:100B100000247449D495FF1F00003443A495FF1F9F
:100B200000007A4400000343D097FF1F188B000099
:100B3000DB0F49406487FF1FDC8A00009847E1AB68
:100B4000E85806F075FC02460B460097204604F074
:100B50005BFB23685B6820463146012298470DF213
:100B6000A463E85806F064FC02460B460097204652
:100B700004F04AFB23685B6820463146012298470F
:100B80000DF6C413E85806F053FC02460B460097D6
:100B9000204604F039FB23685B6820463146012279
:100BA00098470DF6E443E85806F042FC02460B462F
:100BB0000097204604F028FB23685B6820463146F6
:100BC000012298470DF580530433E85806F030FCB5
:100BD00002460B460097204604F016FB23685B682C
:100BE0002046314601229847149B585906F020FCB4
:100BF00002460B460097204604F006FB23685B681C
:100C00002046314601229847189B2046595B04F044
:100C1000EFFA23685B682046314601229847189B0B
:100C20002B442046B3F9021004F0E2FA23685B6813
:100C3000204610490122984708F101080435129B0B
:100C40009845FFF618AF16990139012911DD18985A
:100C5000094B1A88012300EB8304B4F90240012CEC
:100C600002D10132053392B201338B42F3DB024BE6
:100C70001A80FEE7D88A00005495FF1F38B5134D3F
:100C8000284601F0CDFD124C28461249224607F0B5
:100C900001FA114D284601F0D3FD28460F4922469E
:100CA00007F0F8F90E4D284602F01AFB28460D49C8
:100CB000224607F0EFF90C4D284602F0A5FE284623
:100CC0000A49224607F0E6F938BD00BFA095FF1F8C
:100CD0006087FF1F25280000A495FF1F5D280000E6
:100CE0008095FF1FE53200007C95FF1F0D3A000044
:100CF0000369D3F83801D3F83431C01A704700BF04
:100D0000704700BF0369D3F84422B2F5817F09D848
:100D1000D3F84422501CC3F84402134483F83C1116
:100D200001207047012303710020704730B403692C
:100D3000D3F84442B4F5817F1ED8D3F84442C4F5B9
:100D400081740134D3F844522B4403F59E739442CA
:100D500002D201220271224632B18D1811F8014BE4
:100D600003F8014BA942F9D10369D3F844121144A5
:100D7000C3F84412104602E001230371002030BC86
:100D8000704700BF38B50446084B0360036993F809
:100D90004822022A08D1D3F864522DB1284604F023
:100DA000A9F9284604F0D0F9204638BD288B000068
:100DB00010B4002202714FF47A7484600273064A00
:100DC000026041734FF41B74044A04FB012101616A
:100DD0005DF8044B704700BF288B00006887FF1F39
:100DE00070B504460D46C3681B7813F0200F40F021
:100DF000B680836880211970C3681221197090F839
:100E00004932012B0BD022B9002380F8483201204F
:100E100070BD531EDBB2012B00F2A38000E0012263
:100E200025B94FF08071504B196005E0012D03D1B9
:100E30004FF000714C4B1960022A40F08C80D4F8BE
:100E400064624EB9082004F077F90646002104F0E8
:100E5000F3F8C4F864627EB13379102B0CD13046BC
:100E600004F048F9304604F06FF90023C4F8643206
:100E7000012084F8480270BD002D30D133689A8B70
:100E800092B2998B42F008029A83D4F864321979AD
:100E900010313648364A42F821001A7953119B0026
:100EA00003F1604303F5614302F01F02012101FADF
:100EB00002F21A60D4F864321B689A8B92B2998B52
:100EC00042F002029A83D4F864321B7903F1804322
:100ED00003F5043300221A7096221A7033E0012DB4
:100EE00031D1D4F864321B689A8B92B2998B42F05C
:100EF00008029A83D4F86432197910311D481C4ACB
:100F000042F821001A7953119B0003F1604303F565
:100F1000614302F01F02012101FA02F21A60D4F8C3
:100F200064321B689A8B92B2998B42F002029A83C8
:100F3000D4F864321B7903F1804303F504330022B3
:100F40001A7097221A70002384F85A32022384F808
:100F50004832012070BD012084F8480270BD002095
:100F600070BD012070BD00BF00E100E06520000001
:100F70000082FF1F7520000070B4254BA3FB0145C4
:100F8000AD092D02A3FB02439B09B5FBF3F5B5F5B3
:100F9000A05F38DB1F4A012302E00133382B05D064
:100FA00052F8044FB5EB042FF7DA93B15A1E194CDF
:100FB00054F82260A5EB0626002EB8BF764254F8FE
:100FC0002340A5EB0425002DB8BF6D42AE42D8BF2B
:100FD00013464268104CE45C14700E4A52F82330F9
:100FE000B1FBF3F3C0F84C320C4B994203D983693F
:100FF00004221A7009E08369094AA2FB0101C1F3C6
:101000000751197001E00023E3E770BC704700BF8F
:10101000D34D6210408B0000208C0000FF6BDC027F
:10102000819F5E162DE9F84F06460D4617461C4671
:101030009DF82830002B00F08480C268127812F0EE
:10104000200F75D17DE0012F05D9012D73D1BA1E76
:10105000012A09D902E04FF0010901E04FF000092F
:10106000B9F1000F02D169E04FF00109002B32D035
:1010700096F84B32002B14BF4FF0020B4FF0000BD1
:1010800096F84A32032B26D8DFE803F0020B141D32
:101090001120594603F0A4F81020594603F0A0F897
:1010A00019E01220594603F09BF81320594603F02B
:1010B00097F810E01E20594603F092F81D2059467B
:1010C00003F08EF807E01F20594603F089F81A2034
:1010D000594603F085F88DB917B1012F07D00DE0FF
:1010E000214BC3F80080043BC3F8008019E01F4B7C
:1010F000C3F80080043BC3F8008012E0012D10D13A
:10110000022F08D0032F0CD1194BC3F800A00433D1
:10111000C3F800A005E0174BC3F80080043BC3F8F8
:10112000008086F84A7286F84B424846BDE8F88F40
:101130000020BDE8F88F0020BDE8F88F4846BDE8E4
:10114000F88F002C40F203220CBF4FF41978904620
:1011500040F2036240F26461002C0CBF8A46924662
:10116000002D7FF472AF6EE704A004400CA0044091
:1011700000D004402CB0044070B582B004469DF805
:1011800018000D4629B92F490E6846F040060E603A
:1011900006E0012904D12B490E6846F080060E6056
:1011A00084F84922002184F851123AB96369202257
:1011B0001A7022681170E269117011E062690028EA
:1011C00037D12DE05B00DBB21370E2694300DBB284
:1011D00005E04000C0B21070E2695B00DBB2137042
:1011E00000230093204629469DF81C209DF82030BE
:1011F000FFF718FF20461449099AFFF7BDFE204665
:1012000029469DF82820FFF7EBFD94F849321BB9D9
:10121000A36880221A7012E0A368C0221A700EE040
:101220002021117022685B00DBB21370E269002399
:10123000D5E72821117022689842C3D8C9E702B0C7
:1012400070BD00BF34800440006CDC022DE9F04F1B
:1012500083B082468B4690F84A32032B4BD8DFE8A6
:1012600003F02D3002051E261D242CE01F261A2413
:1012700029E02046494602F081FF2B46013B7FF4DE
:10128000FDAF2046414602F079FF2B46013B7FF43B
:10129000FDAF304602F096FF18B9013F17F0FF0787
:1012A000E7D100218AF851129AF84A229AF84B3273
:1012B000009150465946FFF7B5FE1CE01126102458
:1012C00001E0122613249AF84B32002B304614BF4B
:1012D0000221002102F084FF2046012102F04EFF8E
:1012E0002046012102F07CFF0B274FF00009A025CA
:1012F0004FF00108CDE703B0BDE8F08F2DE9F843CA
:10130000054688461646994602F0BAFF0EB9D5F84A
:10131000686202F0B5FF0746AB681A7812F0200F3A
:101320000ED0B4221A7032E0EC68247814F0200F4A
:1013300006D1002385F84932AB68B0221A7006E066
:10134000002EF1D002F09CFFC01B8642ECD8AB68A7
:101350001B7813F0200F0ED128464146FFF776FF89
:10136000EB681B7813F0200F05D1002385F8493274
:10137000AB68B0221A70AB681B7803F0200303F04F
:10138000FF0023B9042385F85132BDE8F88395F8AE
:101390004832013BDBB2012B38D802F0F7FCB8F140
:1013A000000F03D0B8F1010F03D005E01A4B1B78F2
:1013B00004E01A4B1B7801E0174B1B78834228DBB3
:1013C0000F2804DC012089F80000BDE8F883B8F19B
:1013D000000F03D0B8F1010F08D00FE0A0F1100208
:1013E000D2B20D4B1A700120BDE8F883A0F11002B3
:1013F000D2B20A4B1A700120BDE8F883A0F11002A6
:10140000D2B2054B1A700120BDE8F8830120BDE877
:10141000F8830120BDE8F88318E400E019E400E057
:101420000369490083F83C1103690122C3F844228F
:1014300000230371026982F8513270472DE9F043AD
:1014400083B0054614461F4600238DF80730D0F8B8
:101450004432002B00F0C7800FB9D0F86872EB68F7
:1014600012221A7028463A460DF10703FFF746FF8D
:10147000002800F0B88095F848321BB19DF807208D
:10148000002A53D002F0FCFE8146012385F8513238
:1014900085F8504200264FF002082AE02B69AA196D
:1014A00092F83C211A70EC68217811F0020FFBD001
:1014B00084F80080EB681978C9B211F0100F08D0D9
:1014C000072285F8512210221A70AB6880221A7008
:1014D00089E011F0010F0BD01EB9052385F85132B8
:1014E00002E0062385F85132AB6880221A707AE058
:1014F0000136D5F844329E4207D2002FCED002F0FA
:10150000BFFEC9EB00008742C8D8D5F84432B342C9
:101510008CBF0423002385F8513295F85032012BFB
:10152000AB680CBF8022B0221A705CE05A1ED2B2A7
:10153000012A58D8012285F8512285F8504200220C
:10154000C5F84022022B14D1D5F84432042B18D808
:101550000FE013689B6833B91368002101201872EB
:1015600059729972D972136800221A765A769A764D
:10157000DA76AB68F0221A702B6995F83C211A7064
:1015800031E0012385F85A32D5F8642205F59F70C1
:10159000D5F84442033C11680B68002308601168C9
:1015A000012008714B711168CB71116808724B7280
:1015B0008B72CB7211686042C8601068C18BA1B297
:1015C000C1831268D08AD182D5F864222969106853
:1015D0000469016110680375437510688371B1F186
:1015E000804FB9D3B5E703B0BDE8F0832DE9F043F0
:1015F00083B0044616469DF828700B9D00208DF898
:101600000700002B00F04D81B3F5827F03D3082340
:1016100084F8513245E1C4F854320023C4F834311F
:10162000C4F838310DB9D4F86852E36812221A7040
:1016300020462A460DF10703FFF760FE002800F060
:10164000308194F8483223B19DF80720002A00F039
:10165000958002F015FE8046022384F8513284F80A
:1016600050722369720042F00102D2B21A70E2682D
:10167000137813F0020FFBD002231370E268137883
:10168000DBB213F0100F08D0072384F85132102377
:101690001370A36880221A7003E113F0010F06D0C3
:1016A000052384F85132A36880221A70F9E00323DD
:1016B00084F85132D4F85432012BA3680CBFA8220D
:1016C000A0221A7023691B780226002745E00B78B8
:1016D00013F0020FFBD00E70002D00F0AA8002F074
:1016E000CFFDC8EB000085428CBF00230123D4F856
:1016F00038110231D4F85422914205D03BB194F80C
:10170000592222B900E03B46A26882F80090D4F842
:1017100038110131D4F85422914280F09F80002B7F
:1017200000F0918094F85922002A40F0AA808AE0C3
:10173000042284F8512201E084F8517294F8502276
:10174000012A06D12022013A7FF4FDAFA268802150
:10175000117023B1012384F859324FF0A809D4F84D
:101760003821D4F854329A4280F09B8094F8513258
:10177000DBB2032B40F09580E168A8E75A1ED2B295
:10178000012A00F28E80022284F8512284F85072DD
:10179000934244D1D4F85432042B40D9012384F825
:1017A0005A32D4F864322169186802680022016054
:1017B0001868027142711868C271B1F1804F02D38A
:1017C0001A68926832B91A680021012010725172A9
:1017D0009172D1721A680023137353739373D37386
:1017E000D4F8642204F13005D4F8540201381168A9
:1017F0000F690D61116801250D754B7511688B71AD
:1018000011680D724B728B72CB72136841429961F1
:101810001368D98B81B2D9831368DA8AD982A36815
:10182000F0221A702369720042F00102D2B21A70DB
:1018300037E0D4F838210232D4F854329A423FF4D7
:1018400062AF3B4663E722691178D4F83821501C17
:10185000C4F83801224482F830107AE784F85972CB
:10186000A268B021117022691178D4F83821501C77
:10187000C4F83801224482F83010002B3FF45CAFEA
:1018800056E784F85972A268B02111702269117864
:10189000D4F83821501CC4F83801224482F83010A2
:1018A00046E703B0BDE8F083036993F85132043B87
:1018B000042B0CD8DFE803F0091005070300012012
:1018C0007047032070470420704704207047007958
:1018D000003018BF012070470220704790F8513245
:1018E00013F0FF0F1BD090F85132DBB2052B18D04C
:1018F00090F85132DBB2062B15D090F85132DBB2A2
:10190000072B12D090F85132DBB2042B0FD090F895
:101910005102C0B2082814BF0020012070470120E6
:101920007047012070470120704701207047012057
:10193000704700BF70B50446154602F0A1FC0DB912
:10194000D4F8685202F09CFC06462046FFF7C6FF1A
:1019500000283AD1002DF8D002F092FC801B85427D
:10196000F3D802F08DFC801B854210D894F84832E1
:10197000022B0CD194F85A3213F0FF0F07D02046F7
:10198000FFF7ACFF0028FAD0042384F8513294F812
:101990005132DBB2012B09D094F85132DBB2022B69
:1019A00004D094F85132DBB2032B02D1042384F823
:1019B00051328023013B7FF4FDAF94F8513213F094
:1019C000FF0F14BF0020012070BD002DDFD0C8E73D
:1019D000F8B507460E461546069C084611461A46B7
:1019E0002346FFF72BFD304629462246FFF7A2FF8C
:1019F0003846FFF759FFF8BD70B582B004460D4672
:101A00001E468BB19DF81830009307990191294625
:101A10003346FFF7EBFD20462946079AFFF78AFF7A
:101A200020B1D4F8380102E0002000E0002002B02C
:101A300070BD00BFD0F83421D0F838319A4208D2B6
:101A4000D0F834315A1CC0F83421184490F83000D2
:101A500070474FF0FF30704708B50069FFF7EAFFA5
:101A600008BD00BFD0F83421D0F838319A423DBFCC
:101A7000D0F83431C01890F830004FF0FF30704784
:101A800008B50069FFF7EEFF08BD00BF38B5044692
:101A9000C2681578EDB281680B78DBB213F0200FC5
:101AA00000F0C38113F0100F00F0058190F85A3256
:101AB000DBB2022B04D090F85A32DBB2032B4CD1AC
:101AC000D4F864120B689B8B03F080039BB2002B4D
:101AD00000F0858294F85A32DBB2022B40F07F820C
:101AE00073E2137813F0800FFBD00A79B54B1A70AC
:101AF000002384F85A32D4F84432013BC4F840320F
:101B00002369D4F84022224492F83C211A7020E044
:101B1000AD4B1A680B7901219940114219D0AB4A9B
:101B20001370D4F864321A79A94B1A70002384F820
:101B30005A3215F0100F0CD0072384F85132E368A5
:101B400012221A70A36880221A700023C4F840324F
:101B500038BDE36802221A7038BD90F85132DBB20A
:101B6000012B56D115F0100F0DD0002380F85A32FA
:101B7000072180F8511212211170826880211170A2
:101B8000C0F8403238BD15F0010F0FD0002380F8A7
:101B90005A32D0F840321BB9052380F8513202E0A6
:101BA000062380F8513280230B702EE0D0F84032AB
:101BB0000133C0F84032D0F8442293420AD30023C4
:101BC00080F8513290F85032012B0CBF8023B023A3
:101BD0000B701AE090F85A32DBB2012B0ED10223BF
:101BE00080F85A32F1230B70D0F864321A79794BAD
:101BF0001A70036990F83D211A7006E00369D0F865
:101C00004022024492F83C211A70E36802221A70C2
:101C100038BD90F85132DBB2022B36D115F0100FDF
:101C200008D0072380F85132122313708368802272
:101C30001A7038BD15F0010F05D0052380F8513218
:101C400080230B701DE090F85A32DBB2012B0CD1CF
:101C5000022380F85A32E1230B70D0F864321A79EB
:101C60005C4B1A7003691B780BE0032380F8513238
:101C7000D0F85432012B0CBFE823E0230B7003692A
:101C80001B78E36802221A7038BD90F85132DBB23B
:101C9000042B0AD190F85032012B0CBF8023B023C3
:101CA0000B70C36802221A7038BD80230B70C368A2
:101CB00002221A7038BD90F85A32DBB2022B04D0DF
:101CC00090F85A32DBB2032B56D1D4F864321A683A
:101CD000928B02F0800292B2002A00F0918194F877
:101CE0005A22D2B2022A40F08B817FE11A79354B19
:101CF0001A70002384F85A3294F85132DBB2042B64
:101D00001CBF002384F85132A368B0221A70D4F8A3
:101D10005432013BC4F83831D4F838315A1CC4F875
:101D2000382122691278234483F8302094F8503205
:101D3000012B1DD12023013B7FF4FDAFA36880223E
:101D40001A7015E0204A12681B790121994011424E
:101D50000ED01F4A1370D4F864321A791B4B1A70D4
:101D6000002384F85A3284F85132A36880221A7012
:101D7000E36802221A7038BDD0F838210232D0F858
:101D800054329A4200F0438190F85132DBB2042B76
:101D900004D190F85932002B00F03981D4F8382161
:101DA0000132D4F854329A4280F03F8194F8513293
:101DB000DBB2042B40F02E8194F85932002B40F016
:101DC000348127E11C8000402C8000401F800040AF
:101DD0001E8000401B800040002384F85132A3681D
:101DE000B0221A70D4F838315A1CC4F8382122694C
:101DF0001278234483F8302094F85032012B06D116
:101E00002023013B7FF4FDAFA36880221A7094F871
:101E10005132DBB2042B04D194F85932002B00F07C
:101E20000E81E36802221A7038BD15F0100F08D039
:101E30001023137015F0400F06D1C36802221A70E8
:101E400038BD15F0400F60D094F85132DBB20A2B48
:101E500004D1D4F85C32002B40F0F58015F0040F6B
:101E60001ED0092384F851320023C4F84432A368F9
:101E7000D0221A7023691B785B0884F85232D4F898
:101E8000603203B19847D4F844320BB984F83C313E
:101E9000236994F83C211A700123C4F8403230E0E1
:101EA000002384F8583294F84A32012B05D11220CD
:101EB0006949032202F0F2F815E02BB911206649B6
:101EC000032202F0EBF80EE0022B05D11E2063493D
:101ED000032202F0E3F806E0032B04D11F205F4940
:101EE000032202F0DBF80A2384F851320023C4F8FD
:101EF0003831A368C0221A7023691B785B0884F804
:101F00005232E36802221A7038BD13F0100F20D04D
:101F100015F0010F15D1D0F84022D0F844329A4282
:101F200008D2D0F840325A1CC0F84022034493F83B
:101F30003C2100E0002223691A70A368D0221A70A5
:101F40003FE0C0230B7003691B78002380F85132F7
:101F500037E090F85132DBB20A2B32D1002380F8FF
:101F6000583290F84A32012B05D112203A49032207
:101F700002F094F815E02BB911203749032202F042
:101F80008DF80EE0022B05D11E203449032202F009
:101F900085F806E0032B04D11F203049032202F00C
:101FA0007DF823691B78DAB2D4F83831B3F5817F34
:101FB00007D8D4F83831591CC4F83811234483F8B1
:101FC0003020E36802221A7038BD0A79244B1A7057
:101FD000A368F0221A70032384F85A32B9E594F802
:101FE0005A32DBB2032B7FF493AD7AE51A791C4B9E
:101FF0001A70A368E8221A70032384F85A32B7E6ED
:1020000094F85A22D2B2032A7FF49CAE6EE6E823FB
:102010000B70C3E6D4F838315A1CC4F83821226951
:102020001278234483F83020F1E6002384F85932F3
:1020300094F85132DBB2042B7FF4CEAECFE601230D
:1020400084F85932EDE60023C4F83431D4F838016D
:10205000D4F85C32984701E72921000039210000BB
:102060001F80004008B502480021FFF70FFD08BDA2
:102070006887FF1F08B502480121FFF707FD08BD6B
:10208000D489FF1F10B50446C3681B7813F0200FD6
:1020900024D1002380F8513290F84A32012B03D129
:1020A000122002F043F80FE01BB9112002F03EF8B5
:1020B0000AE0022B03D11E2002F038F804E0032BC3
:1020C00002D11F2002F032F8D4F85C3253B3002260
:1020D000C4F83421D4F83801984710BD90F858322C
:1020E0000133DBB280F85832012B03D890F8493223
:1020F000012B17D094F84A32012B03D1122002F0A1
:1021000015F810BD1BB9112002F010F810BD022BFC
:1021100003D11E2002F00AF810BD032B02D11F20AC
:1021200002F004F810BD00BF08B502480021FFF717
:10213000A9FF08BD6887FF1F08B502480121FFF706
:10214000A1FF08BDD489FF1F70B50B4E304600219A
:10215000FEF72EFE094D0A4C30462946224605F070
:1021600099FF084E30460121FEF722FE30462946EF
:10217000224605F08FFF70BD0096FF1F850D000001
:102180006087FF1FEC95FF1F70B582B0044699B9B8
:102190000D4B1B680093009A4368D31A312B0BD860
:1021A0000326094D304602F08DF82B680093009A03
:1021B0006368D31A312BF5D9034B1B680193019B3C
:1021C000636002B070BD00BFD896FF1F08B5002144
:1021D000FFF7DAFF08BD00BFF8B541631B240C4DC3
:1021E0000C4E0D4F02E0C82002F06CF82B7813F073
:1021F000FF0F09D0337813F0030F05D03A68074B6F
:102200001B68D31A182B01D8013CECD1F8BD00BFD4
:10221000BC97FF1FCC97FF1FD896FF1FE899FF1FA1
:1022200008B5002383634360084609B102F04AF809
:1022300008BD00BF38B504460D46406B03685B68B7
:10224000094906229847606B29460A22002302F0BA
:1022500093FF606B03685B6804490822984732204B
:1022600002F030F838BD00BF588C0000608C0000D0
:1022700070B504460D46037A23B3606B03689B6810
:1022800098470028F9D0002614E0606B0368DB68EB
:102290009847C3B2632B06D0762B02D0582B09D1B6
:1022A00007E0C0B270BD20462946FFF7C3FF632098
:1022B00070BD2672606B03689B6898470028E4DC59
:1022C000632070BD632070BD38B50446154621B14A
:1022D000012303720021FFF7CBFF257238BD00BF39
:1022E000014B0360704700BFC08C0000C06800EB6A
:1022F0008100704740687047F0B583B00646019290
:102300000F1E18DB43689F4215DA0368DB6811462D
:1023100098477268013A974209DA9300F468E51821
:1023200055F8045CE550013A043BBA42F6D1F36833
:10233000019843F8270003B0F0BD00BFF0B583B0AB
:1023400001914568002D16DDC468BDF804600023C6
:102350001946BDF90670E25AB24208D1E218B2F944
:102360000220BA4203D103689B69984703E0013118
:102370000433A942EFD103B0F0BD00BF82B0019297
:10238000002906DB4368994203DAC368019843F8E1
:10239000210002B0704700BF82B0C36853F821002B
:1023A00001900020BDF8043063F30F00BDF8063043
:1023B00063F31F4002B07047C0687047C068704741
:1023C000C06800EB81007047C0687047C068704704
:1023D0004268C06800EB8200704700BF4268C06876
:1023E00000EB8200704700BF70B582B0044602ABBC
:1023F00043F8041D4168C268186842F82100636808
:1024000001336360A26893421CDB5600B6F1FE5FA5
:1024100094BFB0004FF0FF3002F092FE05466368B3
:10242000002B09DD00231A46E168C958E950013242
:10243000043361689142F7DCE06808B102F088FE7D
:10244000E560A66002B070BD70B50446002941DBAE
:10245000436899423EDA8368013B002B0CDD8B0018
:102460000131A268914203DAE268D0184068D05086
:10247000043362688A42F3DC6368013B6360A668E8
:10248000F21A934226DA06EBD6767610002E04DD99
:102490003046B6F1FE5F17D801E001200646800005
:1024A00002F04EFE0546002E07DDB1000023E26873
:1024B000D258EA5004338B42F9D1E06808B102F0F7
:1024C00047FEE560A66070BD4FF0FF3002F038FEB9
:1024D0000546EAE770BD00BF10B50446044B036033
:1024E000C06808B102F034FE024B2360204610BDE4
:1024F000108D0000C08C000010B50446064B036030
:10250000C06808B102F024FE044B2360204602F0AC
:102510001BFE204610BD00BF108D0000C08C0000C7
:1025200010B50446024B036002F00EFE204610BDBB
:10253000C08C0000F8B506460D46144630463146BC
:1025400005F0E2FB06462846294605F0DDFB01467C
:10255000304605F0D1FA05462046214605F0D4FB69
:102560000146284605F0C8FA04F062FF04F000FCBA
:1025700005F06CFAF8BD00BF2DE9F84F05468B4613
:102580009246104605F06CFB01464FF07E5005F078
:102590006FFC81460027D0461AE02B681B6B28464B
:1025A000E119984703464846196805F0ADFB014616
:1025B000304605F0A1FA06460134A045EDDC00E006
:1025C0000026DBF80030DB68584631469847013773
:1025D0002B689B6828469847CAEB0000874205DABB
:1025E000BAF1000FECDD00240026D6E7BDE8F88F35
:1025F0002DE9F84F04460D46864B036000234360E7
:102600000A238360282002F09BFDE0604FF002085F
:1026100001264FF00009DFF804A2EFE0771E2B68D7
:102620001B6B284639469847D0F800B02B681B6BC7
:1026300028463146984703465846196805F00CFD70
:1026400000284CD02B681B6B284641469847D0F891
:1026500000B02B681B6B2846314698470346584606
:10266000196805F0F9FC002839D02B681B6B284647
:10267000314698470068514605F002FD78B362681C
:10268000E36803EB820123F8226001234B80636837
:1026900001336360A2689342C0F2AD804FEA420BFF
:1026A000BBF1FE5F94BF4FEA8B004FF0FF3002F0AA
:1026B00047FD07466368002B09DD4B464A46E16843
:1026C000C958F9500132043361688A42F7DBE06887
:1026D00008B102F03DFDE760C4F808B08BE02B685C
:1026E0001B6B28463946984707682B681B6B2846A2
:1026F0003146984703463846196805F0B7FC00286C
:102700004BD02B681B6B28464146984707682B68BF
:102710001B6B28463146984703463846196805F032
:10272000A5FC002839D02B681B6B284631469847FA
:102730000068394905F086FC78B36268E36803EB0A
:10274000820123F822604FF6FF734B8063680133E8
:102750006360A26893424EDB4FEA420BBBF1FE5F1F
:1027600094BF4FEA8B004FF0FF3002F0E9FC0746C0
:102770006368002B09DD4B464A46E168C958F950A9
:102780000132043361688A42F7DBE06808B102F085
:10279000DFFCE760C4F808B02DE06268E36803EB93
:1027A000820123F82260A1F802906368013363601C
:1027B000A26893421FDB4FEA420BBBF1FE5F94BF5E
:1027C0004FEA8B004FF0FF3002F0BAFC0746636817
:1027D000002B09DD4B464A46E168C958F9500132E1
:1027E000043361688A42F7DBE06808B102F0B0FCAC
:1027F000E760C4F808B0013608F101082B689B684F
:102800002846984701388642FFF608AF2046BDE8C3
:10281000F88F00BF108D000000806D44004083449D
:10282000704700BF704700BF10B5039C20462A21A7
:1028300001F0C8F920462E2101F0C4F910BD00BFF7
:1028400000220260426082604FF07E51C1600261EE
:1028500042618261022280F828207047704700BFE1
:102860002DE9F0410B253D4CDFF808813C4F282035
:102870009B21012201F048F84FF4FA7001F022FD8B
:102880002820372101F05EF800F0010628203721CA
:1028900001F058F810F0010F08D023685B6820465B
:1028A000414622229847204602F056FC2820372134
:1028B00001F048F810F0020F08D023685B6820464A
:1028C00039461C229847204602F046FC2820372132
:1028D00001F038F810F0040F08D023685B68204638
:1028E000204915229847204602F036FC282037213F
:1028F00001F028F810F0080F08D023685B68204624
:1029000019491C229847204602F026FC282037212E
:1029100001F018F810F0100F08D023685B6820460B
:10292000124913229847204602F016FC013D01D0BF
:10293000002E9CD02820372101F004F810F0040F5D
:1029400009D1064C23685B6820460949192298473B
:10295000204602F001FCBDE8F08100BFD097FF1FC8
:102960007C8D00009C8D0000B48D0000D48D000093
:10297000E88D0000588D00002DE9F04F99B0834696
:102980000E4615461C46C3680793036906934369C0
:10299000049383690393084605F0B6F981462846F7
:1029A000294605F0B1F980462046214605F0ACF9EC
:1029B00007464846414605F09FF88046404639465E
:1029C00005F09AF804F02AFA8246002105F030FB5F
:1029D000002840F080842598014605F095F981464D
:1029E0002698014605F090F980464846414605F094
:1029F00083F808902798014605F086F9074648466F
:102A0000414605F079F880464046394605F074F8AD
:102A100004F004FA0746002105F00AFB002840F004
:102A20005A840798014605F067F80C90069801460D
:102A300005F062F80D900498014605F05DF80E90DF
:102A40000398014605F058F813900798014605F0E1
:102A50005BF90B900798069905F056F911900798C5
:102A6000049905F051F914900698014605F04CF9C7
:102A700009900698039905F047F9109004980146CB
:102A800005F042F908900398014605F03DF90A90D7
:102A90004FF07E50514605F0EBF912904FF07E500A
:102AA000394605F0E5F907462598394605F02CF931
:102AB00082462698394605F027F90190279839462D
:102AC00005F022F902900C98019905F01DF9059086
:102AD0000C98029905F018F9074650460B9905F035
:102AE00013F980460598039905F00EF90146404612
:102AF00005F000F880463846049905F005F90146CE
:102B0000404604F0F9FF80465046099905F0FCF86C
:102B10000146404604F0F0FF80460D98019905F00B
:102B2000F3F8049905F0F0F80146404604F0E4FF9C
:102B300080460D98029905F0E7F8039905F0E4F84E
:102B40000146404604F0D8FF80465046089905F0FB
:102B5000DBF80146404604F0CDFF804650460A9916
:102B600005F0D2F80146404604F0C4FF80460D98B7
:102B7000514605F0C9F80F900C98514605F0C4F87D
:102B8000039905F0C1F8814601980B9905F0BCF84E
:102B90000146484604F0B0FF81460698394605F0E4
:102BA000B3F80146484604F0A5FF07460F9804997C
:102BB00005F0AAF80146384604F09EFF0746019842
:102BC000099905F0A1F80146384604F093FF07463D
:102BD0000198089905F098F80146384604F08CFFF2
:102BE00007460E98029905F08FF8039905F08CF8C6
:102BF0000146384604F080FF074601980A9905F01F
:102C000083F80146384604F075FF074640464146C2
:102C100005F07AF880463846394605F075F80146E1
:102C2000404604F069FF04F0F9F8814607984FF038
:102C3000404105F069F8514605F066F8049905F041
:102C400063F807460698059905F05EF80146384690
:102C500004F052FF074602980B9905F055F801461B
:102C6000384604F049FF074603980F9905F04CF8E1
:102C70000146384604F040FF07460298099905F0DE
:102C800043F80146384604F035FF07460E9801998F
:102C900005F03AF8039905F037F80146384604F094
:102CA0002BFF07460298089905F02EF80146384692
:102CB00004F020FF074602980A9905F025F801461E
:102CC000384604F019FF0746014604F015FF159039
:102CD0001098014604F010FF804604980C9905F006
:102CE00013F80146404604F005FF8046304612992D
:102CF00005F00AF80146404604F0FCFE05901198E4
:102D0000014604F0F9FE064603980E9904F0FCFF14
:102D10000146304604F0F0FE06462846129904F0BB
:102D2000F3FF0146304604F0E5FE0B903846049967
:102D300004F0EAFF16904FF07C50089904F0DAFE98
:102D40000A9904F0D7FE494604F0DEFF05461098C4
:102D5000149904F0CFFE394604F0D6FF0146284608
:102D600004F0CAFE514604F0C5FE824609F1004354
:102D70000F933846069904F0C7FF179006980499F8
:102D800004F0C2FF05460798039904F0BDFF014611
:102D9000284604F0AFFE494604F0B6FF0546049805
:102DA000039904F0B1FF0146119804F0A5FE3946DD
:102DB00004F0AAFF0146284604F09EFE019904F0A3
:102DC00099FE0A904846049904F09EFF064614981E
:102DD000109904F091FE494604F096FF05464FF025
:102DE0007C50099904F086FE089904F083FE394668
:102DF00004F08AFF0146284604F07EFE029904F0A2
:102E000079FE80460E9B03F10040059904F07CFF9B
:102E100005460B980D9904F077FF0146284604F00B
:102E20006BFE05461698514604F06EFF0146284693
:102E300004F060FE05460F98039904F065FF1799AA
:102E400004F05AFE0A9904F05FFF0146284604F098
:102E500053FE05463046414604F056FF01462846DB
:102E600004F04AFE01900998014604F045FE01462F
:102E70004FF07E5004F03EFE05460898014604F0EF
:102E80003BFE0146284604F035FE054620461299D1
:102E900004F03AFF0146284604F02CFE0546384669
:102EA000039904F031FF02903846079904F02CFF93
:102EB00008901398059904F027FF04460C980B9985
:102EC00004F022FF0146204604F016FE0446069850
:102ED0004FF0814104F018FF294604F015FF014628
:102EE000204604F007FE04465046029904F00CFF09
:102EF0000146204604F000FE04463046089904F0DE
:102F0000FBFD01460A9804F0FFFE0146204604F04E
:102F1000F3FD04464846039904F0F6FE064615986C
:102F2000069904F0F1FE0146304604F0E3FD014647
:102F3000404604F0E9FE0146204604F0DDFD064669
:102F40004846494604F0D8FD00F100444846069939
:102F500004F0DAFE09900C9B03F10041059804F09F
:102F6000D3FE074613980B9904F0CEFE014638466F
:102F700004F0C2FD074604984FF0814104F0C4FEFE
:102F80000146284604F0C0FE0146384604F0B2FD72
:102F900005462046049904F0B7FE089904F0AAFDFE
:102FA0000146504604F0B0FE0146284604F0A4FD58
:102FB00005460298099904F09FFD01460A9804F01D
:102FC000A3FE0146284604F097FD054648460799AA
:102FD00004F09AFE07461598049904F095FE014600
:102FE000384604F087FD0146404604F08DFE014658
:102FF000284604F081FD05460D98059904F084FEED
:1030000007460E980B9904F07FFE0146384604F0FF
:1030100073FD07460398214604F076FE0146179893
:1030200004F06AFD0146504604F06EFE0146384643
:1030300004F062FD044607980F9904F065FE01460E
:10304000169804F059FD01460A9804F05DFE014609
:10305000204604F051FD04464046099904F054FE10
:103060000146204604F048FD04460198014604F05C
:103070004BFE82463046314604F046FE81465046BD
:10308000494604F039FD07462846294604F03CFE2F
:1030900080463846414604F02FFD029020462146E6
:1030A00004F032FE07465046494604F025FD8146AD
:1030B0004846414604F020FD80464046394604F02B
:1030C0001BFD03F0ABFE01464FF07E5004F0D0FE36
:1030D0008046069B03F10040229904F015FE074646
:1030E0000498239904F010FE0146384604F002FDCE
:1030F00007460398249904F007FE0146384604F079
:10310000F9FC4FF07C5104F0FFFD07460198414661
:1031100004F0FAFD714904F0F7FD0146384604F069
:10312000E9FC289904F0F0FD079904F0E5FC074656
:103130000798229904F0E8FD81460498249904F048
:10314000E3FD0146484604F0D7FC814603982399E5
:1031500004F0DAFD0146484604F0CCFC4FF07C5107
:1031600004F0D2FD81463046414604F0CDFD5B4976
:1031700004F0CAFD0146484604F0BCFC289904F05E
:10318000C3FD069904F0B8FC06460798239904F09D
:10319000BBFD81460698249904F0B6FD01464846D9
:1031A00004F0A8FC81460398229904F0ADFD014685
:1031B000484604F0A1FC4FF07C5104F0A5FD814687
:1031C0002846414604F0A0FD444904F09DFD014617
:1031D000484604F08FFC289904F096FD049904F009
:1031E0008BFC05460798249904F08EFD81460698CD
:1031F000239904F089FD0146484604F07DFC814690
:103200000498229904F080FD0146484604F072FCBF
:103210004FF07C5104F078FD81462046414604F091
:1032200073FD2E4904F070FD0146484604F062FC2F
:10323000289904F069FD039904F05EFC04463846C1
:10324000394604F061FD03903046314604F05CFDE0
:1032500082460398514604F04FFC80462846294692
:1032600004F052FD81464046494604F045FC049076
:103270002046214604F048FD80460398514604F05C
:103280003BFC82465046494604F036FC814648469F
:10329000414604F031FC03F0C1FD01464FF07E5081
:1032A00004F0E6FD80463846414604F02DFDCBF89B
:1032B0000C003046414604F027FDCBF810002846AC
:1032C000414604F021FDCBF814002046414604F0AD
:1032D0001BFDCBF8180019B0BDE8F08F0EC71A3FE0
:1032E000704700BF704700BF38B52820392100F073
:1032F00029FB044610F0010F09D0264D2B685B68AE
:103300002846254918229847284601F025FF14F041
:10331000020F09D01F4D2B685B6828461F491E22EB
:103320009847284601F018FF14F0040F09D0194DF2
:103330002B685B6828461A4921229847284601F0E5
:103340000BFF14F0080F09D0124D2B685B6828465C
:1033500014491C229847284601F0FEFE14F0100F75
:1033600009D00C4D2B685B6828460F4923229847EB
:10337000284601F0F1FE14F0200F09D0054C236817
:103380005B682046094922229847204601F0E4FE66
:1033900038BD00BFD097FF1F588E0000748E00000C
:1033A000948E0000B88E0000D88E0000FC8E0000C5
:1033B00008B528205B21032200F0A6FA28205C2112
:1033C000032200F0A1FA28203221022200F09CFA08
:1033D00028205521642200F097FA28205621142233
:1033E00000F092FA28205721142200F08DFA2820AC
:1033F0005821B22200F088FA08BD00BF08B5282085
:103400005421002200F080FA28203321072200F006
:103410007BFA28203421012200F076FA08BD00BF93
:1034200010B5044628203421002200F06DFA28202F
:10343000A021002200F068FA28203421012200F0A7
:1034400063FA28203421002200F05EFA2046FFF7BC
:10345000AFFF2046FFF7D2FF10BD00BF70B5144686
:1034600028206421D2B200F04FFA28205421802273
:1034700000F04AFA28203A2100F064FAA04207D06E
:1034800028263A253046294600F05CFAA042F9D1B8
:1034900028203B2100F056FA28203C2100F052FA67
:1034A00028203D2100F04EFA28203E2100F04AFA63
:1034B00070BD00BFF8B51C46CBB20F0A12B1D6B230
:1034C000150A01E000252E46282060211A4600F04A
:1034D0001BFA282061213A4600F016FA28206221C2
:1034E000324600F011FA282063212A4600F00CFA37
:1034F00028206421E2B200F007FA2820542180221B
:1035000000F002FA28203A2100F01CFAA04207D06D
:1035100028263A253046294600F014FAA042F9D16F
:1035200028206421002200F0EFF9282054210022F5
:1035300000F0EAF9F8BD00BF70B5154641F080040F
:1035400028206021D2B200F0DFF928206121C5F3E4
:10355000072200F0D9F928206221C5F3074200F0C4
:10356000D3F9282063212A0E00F0CEF92820642107
:10357000224600F0C9F928205421802200F0C4F925
:1035800028203A2100F0DEF9844207D028263A2587
:103590003046294600F0D6F98442F9D1282064212A
:1035A000002200F0B1F928205421002200F0ACF9EB
:1035B00070BD00BF10B528206421002200F0A4F9DE
:1035C00028205421002200F09FF92820922100F0A9
:1035D000B9F910F0010F09D0504C23685B68204600
:1035E0004F491F229847204601F0B6FD2820382178
:1035F00000F0A8F9013807282DD8DFE800F0040E04
:103600002C182C2C2C22454C23685B6820464549FD
:1036100015229847204601F09FFD404C23685B68C7
:103620002046414915229847204601F095FD3B4C24
:1036300023685B6820463D4918229847204601F0E0
:103640008BFD364C23685B68204639492022984719
:10365000204601F081FD28209E2100F073F910F032
:10366000010F05D02D4803685B683249192298473D
:103670002820352100F066F901381F284DD8DFE8F1
:1036800000F0101A4C244C4C4C2E4C4C4C4C4C4CD6
:103690004C384C4C4C4C4C4C4C4C4C4C4C4C4C4C7E
:1036A0004C421E4C23685B682046234910229847F1
:1036B000204601F051FD194C23685B6820461F49E4
:1036C0000C229847204601F047FD144C23685B68A4
:1036D00020461B491C229847204601F03DFD0F4C17
:1036E00023685B682046174915229847204601F059
:1036F00033FD0A4C23685B6820461349172298471C
:10370000204601F029FD054C23685B6820460F49DF
:1037100016229847204601F01FFD10BDD097FF1FCD
:10372000208F0000408F0000588F0000708F000035
:103730008C8F0000B08F0000CC8F0000E08F000065
:10374000F08F0000109000002890000040900000D2
:1037500008B52820362100F0F5F801381F2835D8A3
:10376000DFE800F01016341C34343422343434349E
:103770003434342834343434343434343434343415
:103780003434342E124803685B6812491F2298476C
:103790000F4803685B681049202298470C4803686B
:1037A0005B680E4917229847094803685B680C4913
:1037B0001F229847064803685B680A4920229847F9
:1037C000034803685B6808491722984708BD00BF93
:1037D000D097FF1F58900000789000009C90000048
:1037E000B4900000D4900000F89000002DE9F04360
:1037F00083B03C4C23685B6820463B490B229847CA
:10380000204601F0A9FC01244FF00008374D354F48
:10381000DFF8F090E6B228463146FDF701FE0120C0
:1038200000F050FD29696A7B00230093284601239C
:10383000FEF7CEF8F8B93B685B6838462C491E2283
:1038400098470F2E05D83B685B6838462949012206
:103850009847384621461022002301F08DFC3B6832
:103860005B683846244903229847384601F074FCC7
:1038700008F1010818E0042816D13B685B68384657
:1038800049461A2298470F2E05D83B685B68384690
:10389000184901229847384621461022002301F09A
:1038A0006BFC384601F058FC01347F2CB2D1B8F1E2
:1038B000000F0AD10B4C23685B6820460F49152284
:1038C0009847204601F048FC09E0064C23685B68F5
:1038D00020460B4905229847204601F03DFC03B0E5
:1038E000BDE8F083D097FF1F109100000096FF1FE6
:1038F0001C9100003C91000040910000609100008C
:10390000789100004491000070B582B003460E46E5
:1039100015460B4C20461946FDF782FD20463146E0
:10392000FDF7F0F920462946FDF7ECF92169627BA5
:103930000023009320460123FEF74AF802B070BD31
:103940000096FF1F70B582B006460D460F4C20460C
:103950003146FDF765FD20462946FDF7D3F921697B
:10396000627B0025009520462B46FEF731F8206942
:10397000617B0123009301953246FEF73DF82069F3
:10398000FEF758F8C0B202B070BD00BF0096FF1F2E
:103990002DE9F04182B007460D4690461E46194C6F
:1039A00020463946FDF73CFD20462946FDF7AAF999
:1039B0002169627B0025009520462B46FEF708F81A
:1039C0002069617B0123009301953A464346FEF747
:1039D00013F82069D0F83821D0F834319A420DD04C
:1039E0002C46084FE5B2FEF725F870553869D0F837
:1039F0003811D0F8342101349142F3D102B0BDE83E
:103A0000F08100BF0096FF1F704700BF704700BFE6
:103A100070B528207021FFF795FF064628207121F8
:103A2000FFF790FF0546394C23685B68204638490C
:103A300016229847204631461022002301F09CFBB5
:103A4000204629461022002301F096FB204601F073
:103A500083FB23685B6820462E4911229847204645
:103A600001F07AFB28207221FFF76CFF0646282020
:103A70007321FFF767FF054623685B6820462649E8
:103A8000162298472046314601F0B2FB20462946CF
:103A900001F0AEFB204601F05FFB28209021FFF7EC
:103AA00051FF054623685B6820461C49142298474D
:103AB000204629461022002301F05EFB23685B6844
:103AC0002046174910229847204601F045FB282040
:103AD0009121FFF737FF054623685B6820461149AF
:103AE00015229847204629461022002301F044FB66
:103AF00023685B6820460C4910229847204601F055
:103B00002BFB4FF47A7000F0DDFB70BDD097FF1FE8
:103B10008091000098910000AC910000C4910000D9
:103B2000DC910000F0910000089200004B7888784A
:103B3000000400EB03200B781844CB7800EB036003
:103B4000704700BF10B582B00C462820D1B20622C3
:103B50006B46FFF71DFF9DF801209DF8003043EAFA
:103B6000022323809DF803209DF8023043EA0223BC
:103B700063809DF805209DF8043043EA0223A3806A
:103B800002B010BD30B585B005460C462820002196
:103B900010226B46FFF7FCFE28466946FFF7C6FF7A
:103BA0002060284601A9FFF7C1FF6060284602A9EE
:103BB000FFF7BCFFA060284603A9FFF7B7FFE0604E
:103BC00005B030BD00B583B02820C9B2022201ABD8
:103BD000FFF7DEFE9DF805009DF8043043EA002063
:103BE00000B203B05DF804FB70B50D461E46069C9E
:103BF000FFF7A8FFB5F9000004F032F8214604F001
:103C000083F83060B5F9020004F02AF8214604F088
:103C10007BF8049B1860B5F9040004F021F82146F4
:103C200004F072F8059B186070BD00BF38B52820FD
:103C30005021FFF787FE0446002856D02B4D2B68F5
:103C40005B6828462A4918229847284621460A22B6
:103C5000002301F091FA284601F07EFA112C06D1DA
:103C600028462B685B6823491522984711E0122CDF
:103C700006D11E4803685B681F491622984711E069
:103C8000142C06D1194803685B681C490D2298471B
:103C900011E0212C06D1154803685B6818492422DD
:103CA000984711E0222C06D1104803685B6815493B
:103CB0002522984711E0242C06D10C4803685B6844
:103CC00011491C22984738BD302C06D1074803689B
:103CD0005B680E490B22984738BD802C05D10348FC
:103CE00003685B680A491422984738BDD097FF1FC4
:103CF000809200009C920000B4920000CC920000E0
:103D0000DC920000049300002C9300004C93000010
:103D100058930000024B1A6801321A60704700BFC6
:103D2000D896FF1F08B50D4C236813F4802F01D0DF
:103D300000F01EFC236813F4806F01D001F00AFF2D
:103D4000236813F4006F01D002F0B6FA236813F46D
:103D5000805FE9D002F06EFDE6E700BF34800440EA
:103D600008B5FFF7DFFF00BF1022014B1A80704734
:103D700000200540704700BF024A136818441060D5
:103D800018467047408CFF1FFEE700BFEFF3138318
:103D9000ABB9EFF31083ABB9EFF3058323B10F2B6E
:103DA00005D9094A985C03E04FF4807000E00020D8
:103DB000EFF311833BB1834238BF184670474FF091
:103DC000FF30704700207047F0E300E010B5154B5E
:103DD0001C681C6014F4805F05D0134BDB6813B1C2
:103DE000114BDB68984714F4005F05D00E4B1B693C
:103DF00013B10D4B1B69984714F0200F05D00A4BE7
:103E00001B6E13B1084B1B6E984714F0100F07D0B0
:103E1000054BD3F884301BB1034BD3F8843098475B
:103E200010BD00BFA09004405096FF1F10B5274B57
:103E30001C681C6014F4803F05D0254B1B6813B12F
:103E4000234B1B68984714F4003F05D0204B5B6858
:103E500013B11F4B5B68984714F0010F05D01C4B42
:103E60001B6C13B11A4B1B6C984714F0020F05D052
:103E7000174B5B6C13B1164B5B6C984714F0080F33
:103E800005D0134B9B6C13B1114B9B6C984714F0EE
:103E9000040F05D00E4BDB6C13B10D4BDB6C984758
:103EA00014F4002F05D00A4B5B6E13B1084B5B6E08
:103EB000984714F4802F07D0054BD3F880301BB1FE
:103EC000034BD3F88030984710BD00BFA0A004403A
:103ED0005096FF1F10B5384B1C681C6014F0080F7B
:103EE00005D0364B5B6A13B1344B5B6A984714F0CC
:103EF000100F05D0314B9B6A13B1304B9B6A98472A
:103F000014F0400F05D02D4BDB6A13B12B4BDB6A4D
:103F1000984714F0800F05D0284B1B6B13B1274B2B
:103F20001B6B984714F0200F05D0244B5B6B13B12B
:103F3000224B5B6B984714F0010F05D01F4BDB6BD6
:103F400013B11E4BDB6B984714F0020F05D01B4BCF
:103F50009B6D13B1194B9B6D984714F0040F05D05E
:103F6000164BDB6D13B1154BDB6D984714F4007FD6
:103F700005D0124BDB6E13B1104BDB6E984714F477
:103F8000807F05D00D4B1B6F13B10C4B1B6F9847F7
:103F900014F4806F05D0094B5B6F13B1074B5B6F57
:103FA000984714F4006F05D0044B9B6F13B1034B7B
:103FB0009B6F984710BD00BFA0B004405096FF1FF4
:103FC00010B5264B1C681C6014F0010F05D0244B63
:103FD0009B6813B1224B9B68984714F0800F05D063
:103FE0001F4B5B6913B11E4B5B69984714F0100FB0
:103FF00005D01B4B9B6913B1194B9B69984714F073
:10400000040F05D0164BDB6913B1154BDB699847DC
:1040100014F0080F05D0124B1B6A13B1104B1B6A2A
:10402000984714F0020F05D00D4B9B6B13B10C4B4E
:104030009B6B984714F0200F05D0094B1B6D13B1F3
:10404000074B1B6D984714F0400F05D0044B5B6D78
:1040500013B1034B5B6D984710BD00BFA0C0044077
:104060005096FF1F10B50B4B1C681C6014F0020F1C
:1040700005D0094B9B6E13B1074B9B6E984714F00C
:10408000010F05D0044BDB6F13B1034BDB6F984777
:1040900010BD00BFA0D004405096FF1F30B42128AF
:1040A00031D8042A2FD8DFE802F00709050B0300F6
:1040B0000B2406E00A2404E0082402E00C2400E0BB
:1040C0000924124B03EBC0035A68114B114DC3F87E
:1040D0009C51114DC3F8A051104DC3F8A451104D7F
:1040E000C3F8A8510F4DC3F8AC5172B6136823F44E
:1040F000702313600C4D45F8201043F0807343EAA1
:104100000444146062B630BC704700BF7093000076
:104110000082FF1FCD3D00002D3E0000D53E000077
:10412000C13F0000654000005096FF1F094B03EBA4
:10413000C0035A6872B6136823F0877323F4803380
:1041400043F0807313600022034B43F8202062B6D3
:10415000704700BF709300005096FF1F044B002271
:104160001A6004490A60044A106010221A607047FD
:1041700014D0034004D0034000D0034021281ED8AF
:104180000F4B53F8303093F8802212F0FF0F08D015
:1041900019B1012283F880207047012283F80021A1
:1041A0007047074B03EBC000436821B11A6842F027
:1041B00003021A6070471A6822F002021A60704700
:1041C00070930000212806D8044B53F8303093F840
:1041D0000002C0B270470020704700BF709300001B
:1041E00021284AD8254B03EBC0035B68012911D075
:1041F00004291DD0214A52F83020002082F8800284
:1042000000292FD0022931D003291FD040F20312F8
:104210001A607047194A52F83020012182F8801242
:104220004FF4A2721A601A6822F020021A607047D6
:10423000124A52F83020012182F880124FF4A27203
:104240001A601A6842F020021A6070474FF48072B8
:104250001A601A6842F002021A601A6822F001021B
:104260001A6070474FF480721A6070474FF4807282
:104270001A601A6842F003021A60704770930000D7
:1042800072B60C4B1B680C4A12680C49096862B67E
:1042900011F0806F02D0322B88BF0132C3F5BB33DF
:1042A000FF330749A1FB03039B094FF47A7000FB1E
:1042B0000230704718E000E0D896FF1F04ED00E0E0
:1042C000ABAAAAAA38B50546FFF7DAFF044625B916
:1042D00038BD013D0AD004F57A74FFF7D1FF001B09
:1042E000B0F57A7FF5D201F063F8F6E738BD00BF8C
:1042F00010B5264B4FF400021A604FF080721A601E
:104300004FF000721A604FF080621A604FF0006246
:104310001A6000201E4B18604BF6FF7104331960C1
:1043200028231C4A136008321360083213600832D5
:1043300013600832136008321360083213600832C9
:1043400013600922144C226004F580540434206068
:10435000043421600434236008342360143C226058
:1043600004F5FE24043420600C4801600C490B6005
:1043700008310B600B4B1A6001F03CF84FF4C87029
:10438000FFF7A0FF00F074FC10BD00BF08E100E0E3
:10439000048003400C8003400080034008800B40F1
:1043A0000C800B4000800B4030B40E4B1B7843F068
:1043B00002020D4C04EBC20460600C480078002837
:1043C0000CBF8824C82444EA0141074D45F8321047
:1043D00080F00100054A107083F00103014A137058
:1043E00030BC70474497FF1F0080FF1FBD97FF1F21
:1043F00010B4431E032B11D872B60A4A52F8230098
:1044000050B14268074941F82320074A32F8134067
:104410000188611A22F8131062B600E000205DF8EE
:10442000044B70473497FF1FD899FF1F01380328AA
:104430000DD872B6074B53F820302BB10020013055
:104440005B68002BFBD100E0002062B670470020C3
:10445000704700BF8897FF1F38B572B601231B490C
:104460001B4C5A1812F8012C12F0080F24D09A0095
:1044700054F832506DB9164B03EBC2010830486056
:10448000144943F83210144B1A78013A1A7062B684
:1044900038BD42F0010254F832506DB90C4B03EBB9
:1044A000C201083048600D4943F832100A4B1A78AF
:1044B000013A1A7062B638BD0133052BD1D162B60C
:1044C0000022054B1A7000F037FC38BDB094000094
:1044D0000080FF1F88004000B297FF1FC800400007
:1044E00010B4431E032B37D8400140F010001C4A83
:1044F000104472B61B4AD25C032A09D8DFE802F0E6
:1045000019021B050830022216E00830042213E0CD
:10451000154A52F823201AB9134A42F8231003E02F
:10452000124A52F823205160104A42F8231062B612
:1045300012E0032200E005220A4CE25401F10803D4
:10454000436000F00803002B0CBF8823C8230A88AF
:1045500043EA0243036062B65DF8044B704700BF54
:104560000080FF1FF096FF1F8897FF1F9897FF1F7F
:104570002DE9F84FA34CDFF8E092DFF8E0A2DFF876
:10458000E0B22578EDB215F0040F1DD09E4B1B78DC
:1045900013F0FF0F16D09D4B1B7803F0FF022BB1D9
:1045A000531EDBB2994A137003B900BE984B1B78B7
:1045B00003F0FF0233B1531EDBB2954A13700BB9FF
:1045C00000F016FD0423237015F0080F00F0E482BC
:1045D00099F80030DBB21D0940F021828D4D9E0814
:1045E00005EBC6035A6855F83630C3F38303013B25
:1045F0000C2B00F21082DFE813F0CB01CB010E028E
:104600000E020E020E020E020E02E8010E020E0251
:104610000E020D00804913680B6052684A607F4AA1
:1046200045F8362000227E490A607A490A618A618B
:1046300001217C4A11709BB240F28162934218D8EA
:10464000B3F5D06F2ED2B3F5817F00F01E8106D86E
:10465000802B00F0C980822B00F0CC8066E140F214
:104660000232934200F02681B3F5A06F00F0628120
:104670005CE142F22102934200F0868107D8B3F553
:10468000086F00F0AB80B3F5106F11D04EE142F22D
:104690002122934200F0418142F22132934200F004
:1046A000498143E1604B5D68002D40F0188130E1A5
:1046B000594B9A78544B1A70564D05F180062B6A67
:1046C00013F0800F03D0686A083800F035FB083516
:1046D000B542F4D1DFF88C8100263746534AB058F2
:1046E00028B1456800F028FB0DB12846F9E7002302
:1046F0004E4973504E4AB3504E4BF05828B145685E
:1047000000F01AFB0DB12846F9E700234949735020
:10471000494AB35028F8023F484BFB5C023B032B4D
:104720000AD8DFE803F0020602060022434BDA55FE
:1047300002E00122414BDA5501370436102ECDD16B
:1047400000223F4B1A7001253E4EDFF81C81314F8D
:1047500005EB080313F8013C06F8043B13F0080FBF
:104760002DD000F0C9FA48B1A90007EB451200F1BD
:1047700008035360344A47F8312007E0AB000022B9
:1047800047F833202E4B1A7801321A7000F0B4FA31
:1047900058B1AB0043F0010307EBC30100F108027D
:1047A0004A601E4A47F8332009E0AB0043F001039A
:1047B000002247F83320224B1A7801321A70AA00DF
:1047C00042F00201002347F8313042F0030247F87B
:1047D000323001351D4B9E42BAD11EE20A4B1B7886
:1047E0001B4D2B700127AAE0194D00232B706B7015
:1047F0000227A4E0084B9B88042B37D90F22154BC6
:104800001A70C1E080200740BC97FF1F4597FF1F2B
:10481000BE97FF1F0080FF1FA897FF1FC800400022
:10482000DC96FF1FBD97FF1FB49400003497FF1F55
:10483000E096FF1F8897FF1F9897FF1FF096FF1FB6
:10484000B297FF1FC420074088004000D4200740D3
:10485000B497FF1FC02007409020074094200740D6
:1048600098200740D699FF1FB0940000A04A00216D
:10487000117051709F4A12F8233013F0020F5CD070
:104880009B4D01232B70022759E09B4B9B8803F023
:104890007F03042B02DC984A52881AB10F22954BF1
:1048A0001A7071E0934A12F8231021F0020102F805
:1048B0002310B2E1904B9B8803F07F03042B02DCB2
:1048C0008D4A52881AB10F228A4B1A705CE0894ACD
:1048D00012F8231041F0020102F823109DE1864BEB
:1048E0005E889F88854BA3F10C02114633F80C0CAF
:1048F000B04209D133F80A0CB84205D1360A032E6A
:104900000CBF2F7817891AE00D690C330C32002D7B
:10491000EBD10F22774B1A7036E0794B1A68794B3E
:104920001A60754B9A78784B1A7076E10F22714BAA
:104930001A7029E000273D4601E002276C4D6E4BBE
:10494000DB889F4228BF1F46402F34BF3E4640268B
:1049500028463146FFF728FD3544BF1B03D13F2EC3
:1049600000F2608110E0402F34BF3E4640262846CA
:104970003146FFF719FD3544BF1B01D13F2E03D946
:10498000624B1D60624B1F8001238AF8003042E0B9
:10499000594B198842F22103994212D15D4BD81D1F
:1049A00012F8011B03F8011F8342F9D15A4B1B680F
:1049B000862B02D10F22594B1A7000200146FFF7B7
:1049C000F3FC574B45F8363025E0504B1E68BEB11E
:1049D0004F4FB7F80080B8F1400F34BF454640252F
:1049E00030462946FFF7E0FCC5EB08039BB23B804D
:1049F0000BB9402D01D1354400E00025434B1D602B
:104A00003D4B1B88B3F5A06F05D13B4B00225A707C
:104A10009B788BF8003001238AF80030B9E0414ED2
:104A20009F0806EBC708D8F80420A2F10800013D52
:104A3000EDB213F0080F47D000F07EF93A4B53F86F
:104A400025304BB35A68384941F8252003F1080254
:104A5000C8F80420354A525D032A12D8DFE802F074
:104A600002060A0E0321314A51550AE002212F4A5B
:104A7000515506E005212D4A515502E004212B4AEB
:104A8000515518F0080F0CBF8822C8221B8842EA33
:104A9000034346F837307CE0244B5B5D032B0BD897
:104AA000DFE803F0777702060022204B5A5570E0CA
:104AB00001221E4B5A556CE018F0080F0CBF022261
:104AC00003221A4B5A5564E056F837301B0C22F873
:104AD000083C002B55D0002322F8063C42F8043C49
:104AE000134B53F825302BBB114B43F8250025E021
:104AF000B497FF1FC0200740A897FF1FC094000075
:104B0000D896FF1FE899FF1FCC97FF1FDC96FF1F69
:104B1000B097FF1FDF99FF1FE099FF1F4597FF1F09
:104B2000C80040000080FF1F8897FF1FF096FF1FFE
:104B30003497FF1F3F4B53F8253058603D4B43F8E7
:104B400025003D4B33F8151032F8082C0A4423F8A1
:104B5000152000F0D1F860B100F10803C8F8043066
:104B600018F0080F354B364A08BF134646F8373061
:104B70000FE0002346F83730324B1A7801321A70B2
:104B800007E018F0080F2D4B2D4A08BF134646F8D2
:104B9000373008232370F4E415F0010F22D02A499E
:104BA00002230B700022294B1A70294B24481860ED
:104BB000284C5C6098602848D8601A619A610D2082
:104BC000264B1870FF2326480370083803701830EE
:104BD0000270244A13709F22234B1A7001230B701A
:104BE000BDE8F88F15F0800F05D00D221B4B1A7011
:104BF0008022403B1A7015F0020F06D0184B1A782D
:104C0000D2B21A700222083B1A7015F0100F0ED0A3
:104C10001022164B1A70BDE8F88F00200146FFF7EE
:104C2000C3FBB1E628460021FFF7BEFBACE6BDE8BA
:104C3000F88F00BFE096FF1FD899FF1FC800400003
:104C400088004000B297FF1F942007404497FF1F41
:104C50000080FF1FF496FF1F4897FF1FC0200740EA
:104C6000882007408C200740842007408020074090
:104C700008B501F053FE00231B491A465A50C818C4
:104C800042600833882BF9D1184B1A6842F480220D
:104C90001A60154BC3F30721154A1170C3F307417E
:104CA000143211701B0E04321370FF23343A137048
:104CB00008321370783A1370012384321370002184
:104CC0006C3211707C3A137070220A4B1A704FF4D8
:104CD0000072A3F241331A60102203F1C04303F5BE
:104CE000C8231A7008BD00BF0080FF1F3480044035
:104CF0009C20074049E400E072B60D4B1A68B2FAF6
:104D000082F30B2B02D962B6002070474FF00041AE
:104D1000D94022EA010206490A6062B6054903EB5E
:104D2000C303DB00C8180022CA504260704700BFAE
:104D3000448CFF1F0084FF1F08B50F4BC31A0F4A96
:104D4000A2FB03131B090B2B14D80D4A12783AB19E
:104D50000C4A127812F0FF0F02D0FFF77DFB08BD5E
:104D600072B6094A4FF0004121FA03F31168194362
:104D7000116062B608BD00BF0084FF1F398EE338A2
:104D8000B297FF1FBC97FF1F448CFF1F10B5134B3A
:104D90001B6853B9124B1B7813F0FF0F18D0032078
:104DA000FFF726FB0D4B1860A8B10C4B1868438821
:104DB0005A1C03441C7A03889A4206D3FFF7BCFFAF
:104DC0000022064B1A60204610BD4280204610BDCE
:104DD0004FF0FF3010BD4FF0FF3010BDC897FF1FE0
:104DE000BC97FF1F08B50D4B1B6883B90C4B1B7894
:104DF00013F0FF0F08D00320FFF7FAFA074B1860F3
:104E000028B94FF0FF3008BD4FF0FF3008BD034B0D
:104E10001B685A881344187A08BD00BFC897FF1F43
:104E2000BC97FF1F044B9888044B1B681BB11A8862
:104E30005B88D31A18447047D899FF1FC897FF1F83
:104E400010B50B4B1B7813F0FF0F0FD0094B1868F0
:104E500020B1FFF771FF0022064B1A6003242046A1
:104E6000FFF7C6FA10B1FFF767FFF8E710BD00BF04
:104E7000BC97FF1FC897FF1F2DE9F047044601228A
:104E8000374B1A700E46002964D0DFF8E080DFF857
:104E9000E0909A46334FD8F8003083BB99F8003041
:104EA00013F0FF0F06D100222D4B1A704FF0FF3088
:104EB000BDE8F0874AF2F9250420FFF7B7FA072882
:104EC0000AD801238AF80030FFF716FFC8F800005F
:104ED000A8B900238AF80030013D01D03B7833B1F6
:104EE0000122204B1A704FF0FF30BDE8F08700F030
:104EF0005FFA99F8003013F0FF0FDDD1D3E70023FC
:104F00003B70D8F800104A88C2F14005AE4238BF65
:104F1000354602F108030B442A444A80761B3DB112
:104F2000254414F8012B03F8012BAC42F9D100E021
:104F300025464B883F2B07D940230B800420FFF7E1
:104F4000CFFA0023C8F800300522074B1A700EB1C3
:104F50002C46A0E70020024B1870BDE8F08700BF88
:104F6000BF97FF1FC497FF1FBE97FF1FC097FF1F6C
:104F7000BC97FF1F00B583B002AB03F8010D1846C4
:104F80000121FFF779FF03B05DF804FB10B5144B66
:104F90001B7813F0FF0F21D00122124B1A70124B15
:104FA000196851B10024114B1C704B880B800420F0
:104FB000FFF796FA0C4B1C600DE0FFF79DFE0146D3
:104FC00030B10022094B1A700420FFF789FA02E081
:104FD0000122064B1A700022024B1A7010BD00BF4E
:104FE000BC97FF1FBF97FF1FC097FF1FBE97FF1FF4
:104FF00008B50E4B1B7813F0FF0F16D10C4B196838
:1050000041B14B880B800420FFF76AFA0022084B5D
:105010001A6008BDFFF770FE014618B10420FFF7C3
:105020005FFA08BD0122034B1A7008BDBF97FF1F2E
:10503000C097FF1FBE97FF1F30B472B699B90268C0
:105040008AB103790F2B0ED827490988194111F02D
:10505000010F08D003F1007303F59063B2EB431F17
:1050600001D162B63EE0204B1D882946002341FA5B
:1050700003F212F0010F2DD1012202FA03F42543AD
:10508000194A158062B6DAB2027118490C6844F008
:1050900002040C6004390C6844F002040C608224A1
:1050A00013490C601A310A7004310A7006390A700B
:1050B00007310A7003F1007303F590635B0103602D
:1050C00000221A605A609A60DA601A615A619A6125
:1050D000DA6107E00133102BC9D162B60023036007
:1050E0001023037130BC7047CE97FF1F40800440EF
:1050F0000080004003790F2B10D8094A137072B654
:10510000084B0279012101FA02F2198821EA020210
:105110001A8062B61023037100230360704700BF3A
:105120001A800040CE97FF1F08B5FBF7B3FAFBF7D4
:105130006DFB00F03DF9FAE708B502F0E9FF08BDA4
:1051400008B502F0E5FF08BD08B502F0E9FF08BDAB
:1051500008B502F0E5FF08BD00B583B0054B1B881C
:10516000ADF8043003685B6801A90222984703B0D8
:105170005DF804FB80940000F0B58BB0164622B9B0
:1051800003681B68C9B298472FE0012A08BF0A26A6
:1051900021B930228DF82520212417E0212437461B
:1051A000B1FBF6F506FB1515EDB22246092D94BFAD
:1051B00030353735EDB20DF1280E724402F8245C1B
:1051C000B1FBF7F111B1013CE4B2E9E733B1013CC5
:1051D000E4B20AAB23442D2203F8242C03685B6855
:1051E00001A92144C4F1220298470BB0F0BD00BFD1
:1051F00008B50029BABF49422D2300230A22FFF730
:10520000BBFF08BDFFFFFFFF2DE9F04F87B08146D0
:1052100016461F469DF8408010461946002200237E
:1052200002F0CCFB28B107F100431F464FF0010A02
:1052300001E04FF0000AB8F1000F6ED04FF0000B04
:105240000022414B3EA5D5E90045104619462246AD
:105250002B4602F041F902460B460BF1010B5FFAB7
:105260008BF18845F1D82AE03E4620462946524631
:105270005B4602F031F904460D4602F0C7FBC0B2AE
:10528000771CFFB206AB1E4400F1300306F8103C59
:1052900002F0BCF802460B462046294601F068FFA2
:1052A00004460D464745DFD101E04FF00108D9F82B
:1052B00000305B68484602A9424698473CE03046C9
:1052C000394601F057FF04460D4602F09FFB0646A3
:1052D00002F08CF802460B462046294601F048FFB2
:1052E00004460D46484631460A225346FFF744FF1E
:1052F00001902E238DF80830B8F10F0F34BF4346CC
:105300000F23002BD1D003F101085FFA88F80126A2
:105310004FF0000ADFF834B0A7E7304639460022E4
:10532000094B01F027FF02F071FB014648460A22B3
:105330005346FFF721FF0190019807B0BDE8F08FB9
:10534000000000A09999B93F0000E03F0000244010
:1053500008B5FFF767FD08BD08B5FFF717FD08BDE5
:1053600008B5FFF73FFD08BD08B5FFF70FFE08BD04
:1053700008B5FFF765FD08BD08B50846FFF7FAFD5B
:1053800008BD00BF08B508461146FFF775FD08BD0A
:10539000704700BF044B00221A714FF47A71996074
:1053A0001A73024A1A607047D097FF1F909400004A
:1053B00008B50F4B1B78CBB901220D4B1A70FFF7C4
:1053C00031FD08B1FFF7E4FF00F03AFB08B101F04E
:1053D0007BFB00F0E7FE08B101F018FC01F0B4F926
:1053E00008B101F0B5FC0022014B1A7008BD00BFE6
:1053F000E097FF1F60223A4B1A70E12201331A70C6
:10540000384B1B78082B10D1012203F1804303F5A0
:105410006C331A60132334490B6001F5FF2101F24C
:10542000FC710A60314A13601FE00A2B0DD139224A
:105430002F4B1A6013232C490B6001F5FF2101F259
:10544000FC710A60294A13600FE00C2B0CBF352257
:105450003D22274B1A60122323490B6001F5FF21DF
:1054600001F2FC710A60214A1360224B1B7833B1B0
:105470000123214A136002F50022136005E0002396
:105480001D4A136002F5002213601C4B1B78012B90
:1054900006D880231A4A136002F5002213601AE02E
:1054A000042B06D88423164A136002F500221360E9
:1054B00011E0082B06D88523114A136002F500225B
:1054C000136008E0102B94BF862387230C4A1360D7
:1054D00002F50022136001220A4B1A70704700BFC8
:1054E00000400740488CFF1F0CB003400CB00B403D
:1054F00008B00340E297FF1F20B00340498CFF1F14
:1055000024B00340E197FF1F30B40023B0FBF2F456
:1055100002FB14041D46092C94BF30343734E4B226
:10552000CC54B0FBF2F008B10133EFE70D44002298
:105530006A70934207DD885CCC5C8C54C85401329D
:10554000013B9A42F7DB084630BC7047254B1A688E
:1055500042F480621A600023234A1370234A1370B6
:10556000234A1370234A1370234A1370234B1B786A
:1055700013B1152B05D008E040F21332204B1A600E
:1055800003E040F213321F4B1A601F4B1B78012BB4
:1055900002D0052B05D008E04FF451721B4B1A6066
:1055A00003E04FF451721A4B1A60C0F34432194BA6
:1055B0001A70C0F347125A7000F01F00987204224C
:1055C0009A700221D9745A7588221A743C22DA70B2
:1055D0004022114B1A704FF40052A3F229331A6083
:1055E000704700BF348004407098FF1FE997FF1F89
:1055F0007898FF1F7198FF1FE897FF1F2C98FF1FD7
:1056000040A0044018C004404A8CFF1F44A004403E
:105610001CC0044000A006402DE400E0164B9B781F
:1056200003F0EC0300F00302134310F0040F18BF63
:1056300043F01003104A937000F00F03042B04D1C1
:105640001346927942F040029A710B4B5A7902F05C
:10565000EF0210F0100F18BF42F01002064B5A7103
:105660009B7903F0EF0310F0200F18BF43F01003F5
:10567000014A9371704700BF00A0064010B5144B5B
:105680001B6813F4806F21D0124B1B7813F0FF0FAF
:1056900006D0104CFFF78CFE237813F0FF0FF9D1E2
:1056A0004FF400520C4B1A6000230C4AD37040F2A6
:1056B00003120B490A6004310A600A4A13700A4A4D
:1056C00013700A4B1B680BB101221A7010BD00BF8A
:1056D00034800440E897FF1F84E100E000A006400A
:1056E00040A004407098FF1FE997FF1FE497FF1F39
:1056F00010B50446094A137813F0FF0FFBD120467A
:105700000121FEF76DFD20460021FEF737FD044B19
:1057100053F83420034B1A6010BD00BFE897FF1FF9
:10572000709300007498FF1F10B40C4609B140F04C
:105730008000184B1B78984228D0174A126812F440
:10574000806F21D003F07F03012B02D0052B04D002
:1057500006E00022114B1A6002E00022104B1A6092
:10576000002C0CBF4422602200F07F03012B02D0EA
:10577000052B05D008E042F44072084B1A6003E0A4
:1057800042F44072064B1A60024B18705DF8044BED
:10579000704700BF4A8CFF1F3480044044A004407F
:1057A0001CC00440114B1B7898421ED0104A12684E
:1057B00012F4806F17D013B1152B04D006E000222D
:1057C0000C4B1A6002E000220B4B1A6010B1152836
:1057D00005D008E040F21332064B1A6003E040F2B5
:1057E0001332054B1A60014B187070472C98FF1F3D
:1057F0003480044040A0044018C0044010B50D4B54
:105800001B6813F4806F12D021280CD80A4C0B4B64
:1058100053F8303023600121FEF7E2FC23680022B8
:105820001A70012010BD0020034B186010BD00202D
:1058300010BD00BF34800440E497FF1F7093000048
:10584000114B1B6813F4806F1BD0122804D140F257
:1058500002320E4B1A600DE0142804D140F20232DD
:105860000B4B1A6006E00B4B5A7B02F0FE025A7398
:1058700000207047074B5A7B42F001025A73012007
:1058800070470020704700BF348004400CA00440E3
:1058900014C0044000A006402DE9F04107461F4B0C
:1058A0001B6813F4806F37D01D4B1B680BB10122AE
:1058B0001A701C4B1C780134402C28BF00241A4D50
:1058C0001A4EDFF86C8017E0FEF760FA40280FDC14
:1058D000337913F0800F0FD02B780133402B28BF82
:1058E000002318F80320D2B2F271DBB22B7003E070
:1058F000FF2801DDFFF75CFD2B78DBB29C42E3D093
:10590000FFB20B4B1F5501220A4B1A70E4B2054B34
:105910001C70BC22054BDA70BDE8F0813480044075
:105920007498FF1F7898FF1F7198FF1F00A0064012
:10593000EC97FF1FE897FF1F2DE9F84F0746284B0C
:105940001B6813F4806F49D0264B1B680BB10122F2
:105950001A7007EB010B5F453DD2DFF89890224E9D
:10596000DFF88C80DFF890A099F800400134402CDB
:1059700028BF00243578EDB2A54220D1BC2388F899
:105980000330FEF703FA402811DC98F8043013F0D6
:10599000800F10D033780133402B28BF00231AF832
:1059A0000320D2B288F80720DBB2337003E0FF286F
:1059B00001DDFFF7FDFC3378DBB29D42E1D017F843
:1059C000013B0AF804300122084B1A70E4B289F84E
:1059D00000405F45C8D1BC22054BDA70BDE8F88FA6
:1059E000348004407498FF1F7198FF1FE897FF1FD1
:1059F00000A006407898FF1FEC97FF1F10B5064BDC
:105A00001B7813F0FF0F06D0034CFFF7D1FC23786F
:105A100013F0FF0FF9D110BDE897FF1F064B1B785D
:105A2000DBB2064A1278D2B293422CBF3F3202F167
:105A3000FF32D01A704700BF7898FF1F7198FF1F80
:105A4000054B1878C0B2054B1B78DBB2984238BFC3
:105A50004030C01A704700BF7098FF1FE997FF1FC2
:105A600010B4184B1A78D2B2174B1B78DBB29A429B
:105A700018D001333F2B18D81449C85CC0B2DCB22F
:105A800011490C7012490968C9B19A4203D300E068
:105A90000023D31A01E04032D31A1A2B0FDC002363
:105AA0000B700CE04FF0FF3009E0084B1878C0B2E3
:105AB0000021054B1970064B19680029E8D15DF8E3
:105AC000044B70477098FF1FE997FF1F3098FF1F26
:105AD000E497FF1F094B1A78D2B2094B1B78DBB24F
