:1000000000800020BD010000997900003905000042
:100010005D79000041050000490500005D790000A0
:100020005D7900005D7900005D7900003108000015
:10003000997900005D790000FD0800006509000065
:100040009979000099790000997900009979000068
:100050009979000099790000997900009979000058
:100060009979000099790000997900009979000048
:100070009979000099790000997900009979000038
:100080009979000099790000997900009979000028
:100090009979000099790000997900009979000018
:1000A000AD320000BD32000099790000997900005E
:1000B00099790000997900009979000099790000F8
:1000C00099790000997900009979000099790000E8
:1000D00099790000997900009979000099790000D8
:1000E00099790000997900009979000099790000C8
:1000F00099790000C59A00009979000029A20000B2
:1001000099790000A5A7000099790000997900006D
:100110009979000099790000997900009979000097
:100120009979000099790000997900009979000087
:100130009979000099790000997900009979000077
:100140009979000099790000997900009979000067
:10015000F58D00000D8E0000258E00003D8E000004
:1001600099790000B57F0000997900009979000025
:100170009979000099790000997900009979000037
:100180009979000099790000997900009979000027
:100190009979000099790000997900009979000017
:1001A0009979000099790000997900009979000007
:1001B000997900009979000099790000574B4CF229
:1001C000205210B51A804DF628121A8000BF00BFC9
:1001D00007F0E6FB524B4FF010621A60514A9A60EA
:1001E000514ADA60A3F53043203B1A6812F480725A
:1001F00004D14E490A604FF4A8521A604C4B1A7849
:10020000110703D51A7842F008021A70494B4A4C7C
:100210004A482A221A704A4A00239918A14203D256
:10022000195899500433F8E7464B474900228B424E
:1002300002D243F8042BFAE74448454900235A58B0
:100240001A500433B3F5DE7FF9D1424B424A802184
:1002500003F8011B9342FBD1404B3C4A1A60404BD0
:100260008A221A70A3F5805324225A70A0221A7091
:100270009A799207FCD59A79D406FCD4394A9379B5
:1002800003F00C03082B374BF9D103221A714022DB
:100290005A719A799006FCD5324A9179314B4906C8
:1002A000FBD5314A314911600221516020221A7078
:1002B0009A7902F00C020C2AFAD12D4B2D4A1A60C1
:1002C0002D4B2E4A1A6000225A60072243F8042C54
:1002D0002B4AC3F80C2D62B607F02CFD134B1B689C
:1002E000DA0705D5274807F05BFC274B274A1A6039
:1002F000274B1B785B0609D5234C244A236893427D
:1003000004D1204807F04CFC002323600BF004FECE
:1003100007F04CFB08F0DEFDFEE700BF0E200540B5
:1003200030800440823F04000100002B14D00340C1
:1003300002D0074000E00740F496FF1FECE4000005
:100340006087FF1FF496FF1F789DFF1F0082FF1F2D
:100350000000000000E400E05FE400E008ED00E0E1
:100360000050064000400640448004400000030165
:1003700004800440C010050014E000E0FF76010096
:1003800000002020E790EA021CE00340A5C3945A35
:1003900000F00740FFFFFFFFFFFFFFFFFFFFFFFF32
:1003A000FFFFFFFFFFFFFFFFFFFFFFFFFFFFFFFF5D
:1003B000FFFFFFFFFFFFFFFFFFFFFFFFFFFFFFFF4D
:1003C000FFFFFFFFFFFFFFFFFFFFFFFFFFFFFFFF3D
:1003D000FFFFFFFFFFFFFFFFFFFFFFFFFFFFFFFF2D
:1003E000FFFFFFFFFFFFFFFFFFFFFFFFFFFFFFFF1D
:1003F000FFFFFFFFFFFFFFFFFFFFFFFFFFFFFFFF0D
:10040000FFFFFFFFFFFFFFFFFFFFFFFFDEF9FFFF23
:1004100010B5054C237833B9044B13B10448AFF33E
:1004200000800123237010BDF496FF1F0000000020
:10043000ECE4000008B5064B1BB106480649AFF3D3
:1004400000800648036813B1054B03B1984708BD07
:1004500000000000ECE40000F896FF1FF496FF1F78
:100460000000000010B5124C20464FF4FA6106F06F
:10047000FFFB20460F494FF4E13206F0D5FB204642
:1004800006F0CCFB606B03685B680B491122984750
:100490000A2007F039FC20460021012206F03CFC2E
:1004A000582008F01FFD07F005F805F0B9FC10BD55
:1004B000E499FF1F789BFF1F84D00000704700BFA6
:1004C0002DE9F041064672B60D20012107F0AAFB86
:1004D0000024DFF8408027460D4D12E00D20012159
:1004E00007F06EFB2B4600BF013BFCD10D203946C7
:1004F00007F066FB2B4600BF013BFCD1013400E056
:100500003C46B442EADB434600BF013BFCD1F7E77F
:1005100018C73E00A084A20108B50120FFF7D0FF54
:1005200008B50220FFF7CCFF08B5FFF7C7FF08BDED
:1005300008B50320FFF7C4FF08B50420FFF7C0FF8C
:1005400008B50520FFF7BCFF08B50620FFF7B8FF88
:10055000704700BF10B5182000F0E6F8044620B13F
:10056000002240F8042B00F0FBF8204610BD00BF2D
:100570002DE9F0420C4691461F46064608B9FFF7A2
:10058000CBFF14F07F4F01D0FFF7C6FF0CB9FFF788
:10059000C3FF01F04FFA18B9069B0BB1FFF7BCFF80
:1005A00000F0E0FE356827B92C420CBF0023012380
:1005B00005E004EA05039C4214BF0023012333B184
:1005C000B9F1000F39D025EA0404346035E0069B08
:1005D0009BB3B9F1000F14BF4FF0807100210FB130
:1005E00041F08061301D2143069A01F0EFF800F0E0
:1005F00047FF08B900F030F901F0C6FA054610F0DF
:10060000007F17D100F04AF9356827B92C420CBF9A
:100610000023012305E004EA05039C4214BF0023E4
:1006200001232BB1B9F1000F02D025EA0404346094
:1006300000F052F925F07F4501E000F021FF284647
:10064000BDE8F08270B50E46054608B9FFF764FFB5
:1006500016F07F4F01D0FFF75FFF00F01FF92C6805
:1006600024EA06062E6000F037F9204670BD00BF70
:10067000F8B50C46054608B9FFF74EFF14F07F4F5A
:1006800001D0FFF749FF05F10C0600F06BFE286969
:100690002B681C432C60864221D0002744680368E5
:1006A00023F07F4213F0806F05D129680A420CBF06
:1006B0000021012105E0296811408A4214BF002170
:1006C000012141B113F0807F18BF1743296841F021
:1006D000007101F02DF9A64202D02046DEE7002786
:1006E0002B6823EA07072F6000F0CAFE2868F8BDD0
:1006F00070B5044600F036FE63687BB104F10C0669
:100700004FF000752369B34201D1FFF705FF20695F
:10071000294601F00DF96368002BF3D1204600F063
:1007200013F800F0ADFE70BD10B5044600F01AFEDF
:1007300020460BF019FC044600F0A2FE0CB9FFF7AE
:10074000EFFE204610BD00BF10B5044630B100F0EA
:1007500009FE20460BF010FC00F092FE10BD00BF19
:1007600000F1080343604FF0FF328260C360036111
:1007700000230360704700BF00230361704700BF80
:1007800043684B609A688A609A6851609960086112
:10079000036801330360704730B40D68B5F1FF3F63
:1007A00001D1026907E000F1080253681C68A54204
:1007B00001D31A46F9E753684B6099608A6051602B
:1007C000086103680133036030BC70470369426805
:1007D000816891608268416851605A68824204BFB2
:1007E00092685A60002202611868013818607047E8
:1007F00006480068006880F3088862B661B6BFF3F7
:100800004F8FBFF36F8F00DF00BF000008ED00E0E7
:100810004FF0807340F8043C40F8081C034B40F84C
:100820000C3C40F8202C4038704700BF8108000085
:10083000074B19680868B0E8F00F80F30988BFF328
:100840006F8F4FF0000080F311884EF00D0E70474F
:10085000BC97FF1F704700BF4FF08052034B1A60D8
:10086000BFF34F8FBFF36F8F704700BF04ED00E001
:10087000EFF311804FF0100181F3118870470020D1
:1008800008B5054B1B68B3F1FF3F01D0FFF744FEED
:10089000FFF7EEFFFEE700BF4088FF1F08B5FFF738
:1008A000E7FF094A136801331360BFF34F8FBFF3AB
:1008B0006F8F012B06D1054B1B6813F0FF0F01D082
:1008C000FFF72AFE08BD00BF4088FF1F04ED00E0CF
:1008D00080F31188704700BF08B5074B1B680BB940
:1008E000FFF71AFE044A1368013B136013B9002096
:1008F000FFF7EEFF08BD00BF4088FF1FEFF3098040
:10090000BFF36F8F0D4B1A6820E9F00F10602DE9CF
:1009100008404FF0100080F3118800F077FE4FF090
:10092000000080F31188BDE8084019680868B0E845
:10093000F00F80F30988BFF36F8F7047BC97FF1FDC
:10094000704700BF08B5FFF793FF00F019FD18B11D
:100950004FF08052024B1A600020FFF7B9FF08BD2C
:1009600004ED00E008B5054B1A6801321A60044B2B
:100970001B680BB1FFF7E6FF08BD00BF489AFF1FD9
:100980001097FF1F0122014B1A6070471097FF1F3D
:1009900000B583B0224B1A78D2B20192FF221A70AE
:1009A0001B78DBB28DF803309DF8032002F01002B3
:1009B0001C4B1A7007221C4B1A609DF8033013F071
:1009C000800F10D006239DF803205200D2B28DF87C
:1009D00003209DF80320591E12F0800F01D00B4612
:1009E000F1E7114A1360104B1A68120202F4E06238
:1009F0001A60019AD2B20A4B1A7003F512631A6890
:100A000042F470021A601A6842F070421A60FFF7EE
:100A1000B9FF0022054B1A60FFF7EAFEFFF730FF2F
:100A200000E400E01497FF1F1897FF1F4088FF1F86
:100A300008B5EFF305830F2B08D90A4A9B5CDBB29C
:100A4000094A12789A4201D9FFF766FD074B1A68E6
:100A500002F4E062064B1B689A4201D9FFF75CFD85
:100A600008BD00BFF0E300E01497FF1F0CED00E0AD
:100A70001897FF1F38B504461546026C4AB903683B
:100A80000020002B30D1606801F032F80023636051
:100A90002AE06DB9806806F0C7FEA268236C134493
:100AA000A360626893421AD32368A36000201BE00E
:100AB000C06806F0B9FE226C5242E3681344E3605A
:100AC00021688B4202D263681A44E260022D08D189
:100AD000A36B43B1A36B013BA363002004E00020A0
:100AE00002E0002000E00020A36B0133A36338BDC7
:100AF00030B583B001900D46C46C0CB9FFF70CFD06
:100B0000A06BE36B984201D3FFF706FDA06BE36B8C
:100B1000984217D2204601A92A46FFF7ABFF0546A7
:100B2000A36CB3F1FF3F09D1636A63B104F1240000
:100B300000F0C0FE002818BF012504E0A36C0133BB
:100B4000A36400E00025284603B030BD10B503467D
:100B5000026C5AB1C4681444C4604068844224BF23
:100B60001868D8600846D96806F05EFE10BD00BF60
:100B700070B50446FFF792FEA36C002B1BDD04F159
:100B800024060025E36C43B120462946FFF7B0FF59
:100B900001280AD100F048FF07E0636A5BB13046E4
:100BA00000F088FE08B100F03FFFA36C013BA36496
:100BB000A36C002BE6DC4FF0FF33A364FFF78CFE41
:100BC000FFF76CFE636C002B12DD236983B104F127
:100BD000100501E023695BB1284600F06BFE08B107
:100BE00000F022FF636C013B6364636C002BF1DC5B
:100BF0004FF0FF336364FFF76FFE70BD38B50D46ED
:100C0000044608B9FFF788FCFFF748FE2368226C0A
:100C1000E06B00FB02F0191861600021A163A36082
:100C2000821A1344E3604FF0FF336364A36435B961
:100C3000236963B104F1100000F03CFE07E004F109
:100C40001000FFF78DFD04F12400FFF789FDFFF789
:100C500043FE012038BD00BF70B50D46064608B9F9
:100C6000FFF75AFCCDB105FB06F05130FFF75CFDF4
:100C7000044610B90DE0246002E000F15003036067
:100C8000E663256420460121FFF7B8FF0023E364F3
:100C90000AE0FFF741FC002406E05020FFF744FD86
:100CA00004460028E7D1F4E7204670BD2DE9F04F57
:100CB00085B08A4601921F46044608B9FFF72CFC0E
:100CC000BAF1000F03D1236C0BB1FFF725FC022F03
:100CD00004D1E36B012B01D0FFF71EFC00F0AAFE4C
:100CE00018B9019B0BB1FFF717FC00264FF0010963
:100CF000B046FFF7D3FDA56BE06B854201D3022F11
:100D000015D1204651463A46FFF7B4FEE36C23B1B5
:100D100020463946FFF7ECFE05E0636A1BB104F19B
:100D2000240000F0C7FDFFF7D7FD012047E0019B3D
:100D30001BB9FFF7D1FD002041E01EB902A800F069
:100D400031FE4E46FFF7C8FD00F00CFBFFF7A6FD95
:100D5000636CB3F1FF3F08BFC4F84480A36CB3F1E8
:100D6000FF3F08BFC4F84880FFF7B6FD02A801A9FD
:100D700000F028FEE8B9FFF791FDD4F838B0E56B34
:100D8000FFF7AAFDAB450ED104F11000019900F068
:100D9000E9FC2046FFF7ECFE00F072FB0028A8D12A
:100DA000FFF75AFDA5E72046FFF7E2FE00F068FBDB
:100DB0009FE72046FFF7DCFE00F062FB002005B055
:100DC000BDE8F08F2DE9F0410E4617461D4604465A
:100DD00008B9FFF7A1FB1EB9236C0BB1FFF79CFB11
:100DE000022D34D1E36B012B3CD0FFF795FB39E0AA
:100DF000204631462A46FFF73DFEA36CB3F1FF3F84
:100E000016D1E36C4BB120462946FFF771FE01284D
:100E100013D1A7B101243C602BE0636A8BB104F1CC
:100E2000240000F047FD70B17FB101243C6020E058
:100E3000A36C0133A36401241BE0012419E0012405
:100E400017E0012415E0012413E0012411E0FFF76D
:100E5000EFFDFFF70DFD8046A26BE36B9A42C7D30F
:100E6000002406E0FFF7E4FDFFF702FD8046A36BD8
:100E7000BEE74046FFF72CFD2046BDE8F08100BFED
:100E80002DE9F04784B0884601929946044608B996
:100E9000FFF742FBB8F1000F03D1236C0BB1FFF752
:100EA0003BFB00F0C7FD18B9019B0BB1FFF734FB0A
:100EB00000254FF0010A2E46FFF7F0FCA26B0AB3A3
:100EC000E56820464146FFF741FEB9F1000F0ED11B
:100ED000A36B013BA363236813B900F061FE60605C
:100EE00023695BB104F1100000F0E4FC06E0E5606A
:100EF000636A1BB104F1240000F0DCFCFFF7ECFC9A
:100F000001204BE0019A1AB9FFF7E6FC002045E00A
:100F10001DB902A800F046FD5546FFF7DDFC00F0C4
:100F200021FAFFF7BBFC636CB3F1FF3F08BF6664B7
:100F3000A36CB3F1FF3F08BFA664FFF7CDFC02A886
:100F400001A900F03FFD18BBFFF7A8FCA76BFFF756
:100F5000C3FCBFB9236833B9FFF7A0FC606800F099
:100F600079FDFFF7B9FC04F12400019900F0FAFBC8
:100F70002046FFF7FDFD00F083FA00289CD1FFF723
:100F80006BFC99E72046FFF7F3FD00F079FA93E751
:100F90002046FFF7EDFD00F073FA002004B0BDE835
:100FA000F08700BF10B5044608B9FFF7B5FAFFF7A0
:100FB00075FCA46BFFF790FC204610BD10B50446ED
:100FC00008B9FFF7A9FA2046FFF7BEFB10BD00BF26
:100FD00070B504460E461546FFF760FC636CB3F12E
:100FE000FF3F04BF00236364A36CB3F1FF3F04BF62
:100FF0000023A364FFF770FCA36B2BB904F124005A
:1010000031462A4600F022FC2046FFF7B1FD70BDB4
:10101000084B1B681B6823B94FF0FF32064B1A6060
:101020007047044B1B68DB68DB685A68024B1A6028
:10103000704700BF2097FF1FC097FF1F10B50446E1
:101040000E4B1B6858600E4B1B68984207D20D4B25
:1010500018680A4B19680431FFF79EFB10BD0A4B54
:101060001868064B19680431FFF796FB074B1B689D
:101070009C423CBF054B1C6010BD00BFBC97FF1FCE
:10108000C897FF1FCC97FF1F2097FF1FC097FF1F18
:101090002DE9F84F0D46934699460A9F0C9C8246CF
:1010A00008B9FFF739FA042F01D9FFF735FA2646B8
:1010B00044B94FEA8B00FFF737FB0646002800F0E3
:1010C000A980FFE76420FFF72FFB0446A8B1066361
:1010D0003046A5214FEA8B020BF052FA0BF1804B00
:1010E0000BF1FF3B236B03EB8B0B2BF0070B2B78E8
:1010F00084F834302B7823B910E03046FFF724FB16
:1011000088E0294601230A4611F8015FE01880F8BB
:101110003450527812B101331E2BF4D1002584F8DB
:101120005150042F34BF3E460426E6626665A5652D
:1011300004F104084046FFF71FFB04F11800FFF715
:101140001BFB2461C6F10506A6616462E56584F8AF
:101150006050584651464A46FFF75AFB20600B9BA9
:1011600003B11C60FFF79AFB2C4B1A6801321A601E
:101170002B4B1B6823BB2A4B1C60284B1B68012B85
:1011800028D1284D05F164062846FFF7E9FA143501
:10119000B542F9D1244E3046FFF7E2FA234D2846F6
:1011A000FFF7DEFA2248FFF7DBFA2248FFF7D8FA0A
:1011B0002148FFF7D5FA214B1E60214B1D6009E045
:1011C000204B1B6833B9164B1B68DB6A9F4224BF58
:1011D000134B1C601C4B1A6801321A60E36A1B4AED
:1011E0001068012199400143116003EB83030D480E
:1011F00000EB83004146FFF7C3FAFFF76DFB114B8D
:101200001B6823B1064B1B680120BDE8F88F012045
:10121000BDE8F88F4FF0FF30BDE8F88FE897FF1F6B
:10122000BC97FF1F4497FF1F2C97FF1FEC97FF1FD2
:10123000D097FF1FA897FF1F0498FF1F2097FF1F3D
:10124000CC97FF1F2497FF1FE497FF1F1898FF1FDD
:1012500038B50446FFF722FB0CB9204B1C68251D4E
:101260002846FFF7B3FA70B9E36A03EB83011C4A1F
:1012700052F821203AB91B4A1168012000FA03F301
:1012800021EA03031360A36A1BB104F11800FFF7FE
:101290009DFA15482946FFF773FA144B1A68013274
:1012A0001A60134B1A6801321A60FFF715FB114BD5
:1012B0001B688BB1094B1B689C4207D10E4B1B6806
:1012C0000BB1FFF729F9FFF7C7FA38BDFFF7E6FAC8
:1012D000FFF79EFEFFF700FB38BD00BFBC97FF1F66
:1012E0004497FF1F1898FF1FA897FF1F2897FF1FFD
:1012F000E497FF1F2497FF1FC497FF1F00B585B019
:1013000000230093114A019202930393104811495C
:101310008222FFF7BDFE012812D100F09DFC0128BA
:101320000ED1FFF7A5FA4FF0FF320B4B1A600122E6
:101330000A4B1A6000220A4B1A60FFF729FB02E0F1
:1013400008B9FFF7E9F805B05DF804FB0098FF1F46
:10135000B115000098D00000C097FF1F2497FF1F11
:10136000C897FF1F024B1A6801321A60704700BF0E
:10137000C497FF1F014B1868704700BFC897FF1F35
:101380002DE9F843354B1B68002B5ED1344B1A68AE
:1013900001321A60D3F80080B8F1000F11D1314B3F
:1013A0001B681B680BB1FFF7B7F82E4A11682E4B6C
:1013B0001868106019602D4B1A6801321A60FFF727
:1013C00027FE2B4B1B68984539D3264B1B681B689F
:1013D0003BB1244B1B68DB68DC68636898450ED220
:1013E0000AE04FF0FF32224B1A6028E03B68DB68CE
:1013F000DC686368984506D21D4A13601FE01D4EE5
:10140000DFF87890174F251D2846FFF7DFF9A36A0C
:101410001BB104F11800FFF7D9F9E36A3168012222
:101420009A400A43326003EB830009EB80002946AF
:10143000FFF7A6F93B681B68002BD7D1D1E70E4B0D
:101440001B6843B9FFF784F805E00B4B1A680132BB
:101450001A60FFF77DF80020BDE8F883C497FF1FEE
:10146000C897FF1F2097FF1FCC97FF1F1C97FF1FD8
:10147000C097FF1F1898FF1F4097FF1F4497FF1F3B
:101480002DE9F8432A4B1B680BB9FFF745F8FFF726
:1014900005FA274B1A68013A1A601B68002B42D1E3
:1014A000244B1B68002B3ED0234E244FDFF898902E
:1014B000DFF898801FE0F368DC6804F11800FFF79C
:1014C00085F9251D2846FFF781F9E36A396801226D
:1014D0009A400A433A6003EB830009EB80002946F7
:1014E000FFF74EF9D8F80030E26ADB6A9A4202D37D
:1014F0000122134B1A603368002BDCD1114B1B689F
:101500007BB1104B1B6863B10D4E01250D4CFFF7ED
:1015100037FF00B135602368013B23602368002B4F
:10152000F5D1074B1B68FFF7D7F90020BDE8F8831A
:10153000C497FF1FE897FF1FD097FF1F1898FF1F42
:101540001C98FF1F4097FF1F4497FF1FBC97FF1F6A
:1015500010B5044600B3124B1B680BB1FEF7DCFF5D
:10156000FFF700FF0F4B1B681C440F4B186804303B
:10157000FFF72CF950B90C4B1A680C4B1968D26A5A
:10158000012000FA02F221EA02021A602046FFF767
:1015900055FDFFF775FF08B9FFF75EF910BD00BFF5
:1015A000C497FF1FC897FF1FBC97FF1F1898FF1F06
:1015B00080B5134D134E144F1AE0FFF7D3FE346875
:1015C000FFF75EFFA4B1FFF769F9F368DC68201D3F
:1015D000FFF7FCF83B68013B3B602B68013B2B604D
:1015E000FFF77AF9206BFFF7AFF82046FFF7ACF86A
:1015F0002B68002BE1D1FFF72FF9FEF795FFF7E7F6
:101600002897FF1FA897FF1FE897FF1F10B5224BD1
:101610001B681BB10122214B1A6010BD00221F4B19
:101620001A601F4B1B681B6B1A68B2F1A53F0BD1E8
:101630005A68B2F1A53F07D19A68B2F1A53F03D12C
:10164000DB68B3F1A53F05D0154B18681968343134
:10165000FEF76EFF134B1C68B4FA84F4E4B2C4F1D5
:101660001F0404EB8402104B53F822300BB9FEF731
:1016700053FF04EB84040C4A02EB84035A6852685B
:101680005A6003F108018A4204BF52685A605B68DD
:10169000DA68034B1A6010BDC497FF1F1C98FF1F28
:1016A000BC97FF1F1898FF1F4497FF1F38B50446CB
:1016B000FFF7F4F80CB9244B1C68251D2846FFF7EA
:1016C00085F870B9E36A03EB8301204A52F82120C0
:1016D0003AB91F4A1168012000FA03F321EA030313
:1016E0001360A36A1BB104F11800FFF76FF81948E3
:1016F0002946FFF745F8FFF7EFF8134B1B689C42AC
:1017000017D1154B1B683BB1144B1B680BB1FEF78F
:1017100003FFFFF7A1F838BD114B1B680D4A126893
:101720009A4203D10022084B1A6038BDFFF76EFFC2
:1017300038BD094B1B682BB1FFF7B0F8FFF768FC09
:10174000FFF7CAF838BD00BFBC97FF1F4497FF1FC3
:101750001898FF1F0498FF1F2497FF1FC497FF1FAF
:10176000E897FF1F70B50D46064608B9FEF7D4FE90
:10177000124C216830461831FFF70EF8206804300B
:10178000FFF724F848B922680D4B1968D26A012086
:1017900000FA02F221EA02021A60B5F1FF3F06D117
:1017A000064B196807480431FEF7EAFF70BD064B87
:1017B00018682844FFF742FC70BD00BFBC97FF1FAC
:1017C0001898FF1F0498FF1FC897FF1FF8B50F4612
:1017D0001546064608B9FEF79FFE174B1B680BB966
:1017E000FEF79AFE154C236847F000479F61216879
:1017F00030461831FEF7C4FF20680430FEF7E6FFDC
:1018000048B922680E4B1968D26A012000FA02F228
:1018100021EA02021A60B5F1FF3F06D1074B1968B1
:1018200008480431FEF7ACFFF8BD074B18682844A0
:10183000FFF704FCF8BD00BFC497FF1FBC97FF1F54
:101840001898FF1F0498FF1FC897FF1FF8B50F4691
:101850001546064608B9FEF75FFE124C2168304671
:101860001831FEF78DFF20680430FEF7AFFF48B94E
:1018700022680D4B1968D26A012000FA02F221EAAF
:1018800002021A60012D06D1064B1968074804317F
:10189000FEF776FFF8BD064B18683844FFF7CEFB1D
:1018A000F8BD00BFBC97FF1F1898FF1F0498FF1FCB
:1018B000C897FF1F38B5C368DC680CB9FEF72CFE6B
:1018C00004F118052846FEF781FF134B1B689BB9EE
:1018D000251D2846FEF77AFFE36A104A10680121A9
:1018E00099400143116003EB83030D4800EB830033
:1018F0002946FEF745FF03E00A482946FEF740FF68
:10190000094B1B68E26ADB6A9A4283BF0120074BDE
:101910001860002038BD00BFC497FF1F1898FF1F34
:101920004497FF1FD097FF1FBC97FF1F1C98FF1FF6
:1019300038B505460C46164B1B680BB9FEF7ECFD97
:1019400044F000442C60EC680CB9FEF7E5FD284635
:10195000FEF73CFF251D2846FEF738FFE36A0D4AD7
:101960001068012199400143116003EB83030A4889
:1019700000EB83002946FEF703FF084B1B68E26A71
:10198000DB6A9A4283BF0120054B1860002038BDF6
:10199000C497FF1F1898FF1F4497FF1FBC97FF1F96
:1019A0001C98FF1F10B5044608B9FEF7B5FD034BA0
:1019B0001B682360024B1B68636010BD1C97FF1FF0
:1019C000C897FF1F38B50C46054608B9FEF7A4FDB9
:1019D0000CB9FEF7A1FDFEF761FF114B1A682368F1
:1019E000B3F1FF3F13D00F4908682968814202D044
:1019F00069688A420DD26968501A83420BD98A1AE3
:101A0000134423602846FFF7CDFF002404E00024A0
:101A100002E0012400E00124FEF75EFF204638BD0D
:101A2000C897FF1F1C97FF1F0122014B1A607047C8
:101A30001C98FF1F054B1B6833B1054B1B68002B1F
:101A400014BF002002207047012070472497FF1F19
:101A5000C497FF1F38B50446002841D0C36A214A05
:101A60001268D26A93423BD28269002A05DB1D4A82
:101A70001268D26AC2F10502826103EB83031A4A3B
:101A800002EB830362699A4226D1251D2846FEF7A0
:101A90009DFE70B9E36A03EB8301134A52F82120DB
:101AA0003AB9124A1168012000FA03F321EA03034C
:101AB00013600C4B1B68DB6AE3620C4A106801215F
:101AC00099400143116003EB8303074800EB830057
:101AD0002946FEF755FE38BD024B1B68DB6AE36200
:101AE00038BD00BFBC97FF1F4497FF1F1898FF1F0A
:101AF00038B5044600283BD0204B1B68984201D0E3
:101B0000FEF70AFDA36D0BB9FEF706FDA36D013BC1
:101B1000A365E16A626D91422CD06BBB251D2846FE
:101B2000FEF754FE70B9E36A03EB8301144A52F8DE
:101B300021203AB9134A1168012000FA03F321EA7F
:101B400003031360636DE362C3F10502A2610D4AF2
:101B50001168012404FA03F00143116003EB8303CD
:101B6000074800EB83002946FEF70AFE204638BDF1
:101B7000002038BD002038BD002038BDBC97FF1FB5
:101B80004497FF1F1898FF1F044B1A6890691A6842
:101B90001B68DB6AC3F1050393617047BC97FF1FA5
:101BA000054B1B6823B1044B1B689A6D01329A6583
:101BB000014B1868704700BFBC97FF1F10B5044663
:101BC0004160206191420AD8D21A81698A4211D2B9
:101BD0000A4B1868211DFEF7DFFD002010BD9A4258
:101BE00001D2994208D2064B1868211DFEF7D4FD98
:101BF000002010BD012010BD012010BD5498FF1F12
:101C00002098FF1F38B5FEF749FE0E4B1B68ABB995
:101C10000D4D2846FEF7A4FD0C4C2046FEF7A0FD16
:101C20000B4B1D600B4B1C60052010210022FFF7A1
:101C300013F8044B186008B9FEF76EFCFEF74CFE73
:101C400038BD00BF5098FF1F2498FF1F3898FF1F12
:101C50002098FF1F5498FF1F10B584B0FFF7D2FFE4
:101C60000B4B1B6873B10223009300230193029373
:101C70000393084808494FF48272FFF709FA0446B3
:101C800018B900E00024FEF747FC204604B010BD60
:101C90005098FF1FCD1D0000A0D000002DE9F0419D
:101CA000804616461D460F4689B12820FEF73CFDAA
:101CB000044678B1FFF7A6FFC4F80080A761E6618B
:101CC0002562069B6362201DFEF756FD02E0FEF7CB
:101CD00023FC00242046BDE8F08100BFF0B585B0AC
:101CE0000C4616461F46054608B9FEF715FC0F4977
:101CF0000868C0B1009401960295052C0DDCFFF731
:101D000099FE0228094B1868694607BF0A9A002302
:101D100000221346FEF7CAFF06E069463A46002352
:101D2000FFF750F800E0002005B0F0BD5098FF1F0D
:101D30002DE9F04782B00746FFF71CFB0646204B13
:101D40001B68984234D21F4D4FF0000824E0D4683D
:101D5000D4F800A0E46804F104094846FEF736FD13
:101D6000636A20469847E369012B15D1A369534460
:101D7000534506D96360246128684946FEF70CFD87
:101D80000AE0CDF800802046414652464346FFF720
:101D9000A5FF08B9FEF7C0FB2A681468002CD6D14D
:101DA000094B1968074801601A6001233B6001E094
:101DB00000233B60024B1E60304602B0BDE8F08756
:101DC0004C98FF1F2098FF1F5498FF1FF0B589B053
:101DD000564D574B1B681A68002A00F09C80DB6840
:101DE0001C68FFF7BFFA04A8FFF7A2FF0646049B92
:101DF000002B39D184422BD8FFF742FB4C4B1B6898
:101E0000DB68DF68381DFEF7E1FCFB69012B12D1AE
:101E1000B9693846214432462346FFF7CFFE0128F0
:101E200009D100230093384619462246FFF756FF92
:101E300008B9FEF771FB7B6A3846984761E03D4B75
:101E40001B681A68D2F1010238BF0022002400E0AA
:101E500000222868A11BFFF7BBF8FFF711FB002841
:101E60004FD1FEF7F9FC4CE0FFF70AFB49E0049B79
:101E7000002B06DA06980799059B9847049B002BD0
:101E800040DB069C636913B1201DFEF79FFC03A88D
:101E9000FFF74EFF06460499092932D8DFE801F022
:101EA00005050531212E05053121059BA169204637
:101EB00019443246FFF782FE012822D1636A204688
:101EC0009847E369012B1CD1A669002300932046A3
:101ED0001946059A3244FFF701FF90B9FEF71CFB43
:101EE0000FE0059BA3610BB9FEF716FBA169204625
:101EF000314432463346FFF761FE02E02046FEF7EA
:101F000023FC0024286804A922462346FEF7B8FFD4
:101F10000028ACD15DE7FFF725FA04A8FFF708FF1A
:101F20000646049B002B8AD09EE700BF5098FF1FF7
:101F30002098FF1F5498FF1F0369D3F83801D3F886
:101F40003431C01A704700BF704700BF0369D3F82F
:101F50004422B2F5817F09D8D3F84422501CC3F83B
:101F60004402134483F83C1101207047012303719C
:101F70000020704730B40369D3F84442B4F5817F40
:101F80001ED8D3F84442C4F581740134D3F84452C6
:101F90002B4403F59E73944202D201220271224621
:101FA00032B18D1811F8014B03F8014BA942F9D158
:101FB0000369D3F844121144C3F84412104602E0F6
:101FC00001230371002030BC704700BF38B50446C0
:101FD000084B0360036993F84822022A08D1D3F81A
:101FE00064522DB1284606F0A7FD284606F082FF70
:101FF000204638BDB0D0000010B4002202714FF46A
:102000007A7484600273064A026041734FF41B7451
:10201000044A04FB012101615DF8044B704700BFD5
:10202000B0D000004488FF1F70B504460D46C36859
:102030001B7813F0200F40F0B68083688021197060
:10204000C3681221197090F84932012B0BD022B9C4
:10205000002380F84832012070BD531EDBB2012BF3
:1020600000F2A38000E0012225B94FF08071504BAF
:10207000196005E0012D03D14FF000714C4B196040
:10208000022A40F08C80D4F864624EB9082006F031
:1020900029FF0646002106F0F1FCC4F864627EB117
:1020A0003379102B0CD1304606F046FD304606F051
:1020B00021FF0023C4F86432012084F8480270BD77
:1020C000002D30D133689A8B92B2998B42F008027E
:1020D0009A83D4F86432197910313648364A42F876
:1020E00021001A7953119B0003F1604303F561430A
:1020F00002F01F02012101FA02F21A60D4F86432E0
:102100001B689A8B92B2998B42F002029A83D4F8A0
:1021100064321B7903F1804303F5043300221A7003
:1021200096221A7033E0012D31D1D4F864321B6845
:102130009A8B92B2998B42F008029A83D4F8643257
:10214000197910311D481C4A42F821001A7953119F
:102150009B0003F1604303F5614302F01F0201217C
:1021600001FA02F21A60D4F864321B689A8B92B2B8
:10217000998B42F002029A83D4F864321B7903F1FE
:10218000804303F5043300221A7097221A7000234B
:1021900084F85A32022384F84832012070BD0120AD
:1021A00084F8480270BD002070BD012070BD00BFE2
:1021B00000E100E0AD3200000082FF1FBD320000F0
:1021C00070B4254BA3FB0145AD092D02A3FB0243CF
:1021D0009B09B5FBF3F5B5F5A05F38DB1F4A01237A
:1021E00002E00133382B05D052F8044FB5EB042F31
:1021F000F7DA93B15A1E194C54F82260A5EB062663
:10220000002EB8BF764254F82340A5EB0425002DDC
:10221000B8BF6D42AE42D8BF13464268104CE45C72
:1022200014700E4A52F82330B1FBF3F3C0F84C326D
:102230000C4B994203D9836904221A7009E083691F
:10224000094AA2FB0101C1F30751197001E0002303
:10225000E3E770BC704700BFD34D6210C8D00000E8
:10226000A8D10000FF6BDC02819F5E162DE9F84FBC
:1022700006460D4617461C469DF82830002B00F0F8
:102280008480C268127812F0200F75D17DE0012F92
:1022900005D9012D73D1BA1E012A09D902E04FF0E8
:1022A000010901E04FF00009B9F1000F02D169E026
:1022B0004FF00109002B32D096F84B32002B14BF9F
:1022C0004FF0020B4FF0000B96F84A32032B26D842
:1022D000DFE803F0020B141D1120594605F0A2FCA3
:1022E0001020594605F09EFC19E01220594605F0D1
:1022F00099FC1320594605F095FC10E01E20594624
:1023000005F090FC1D20594605F08CFC07E01F20CD
:10231000594605F087FC1A20594605F083FC8DB913
:1023200017B1012F07D00DE0214BC3F80080043B0B
:10233000C3F8008019E01F4BC3F80080043BC3F8CA
:10234000008012E0012D10D1022F08D0032F0CD1F4
:10235000194BC3F800A00433C3F800A005E0174BE5
:10236000C3F80080043BC3F8008086F84A7286F800
:102370004B424846BDE8F88F0020BDE8F88F0020AA
:10238000BDE8F88F4846BDE8F88F002C40F20322E4
:102390000CBF4FF41978904640F2036240F264613A
:1023A000002C0CBF8A469246002D7FF472AF6EE778
:1023B00004A004400CA0044000D004402CB0044011
:1023C00070B582B004469DF818000D4629B92F4912
:1023D0000E6846F040060E6006E0012904D12B4944
:1023E0000E6846F080060E6084F84922002184F8C9
:1023F00051123AB9636920221A7022681170E26999
:10240000117011E06269002837D12DE05B00DBB26A
:102410001370E2694300DBB205E04000C0B2107007
:10242000E2695B00DBB2137000230093204629466B
:102430009DF81C209DF82030FFF718FF2046144916
:10244000099AFFF7BDFE204629469DF82820FFF790
:10245000EBFD94F849321BB9A36880221A7012E090
:10246000A368C0221A700EE02021117022685B0060
:10247000DBB21370E2690023D5E7282111702268CE
:102480009842C3D8C9E702B070BD00BF3480044091
:10249000006CDC022DE9F04F83B082468B4690F849
:1024A0004A32032B4BD8DFE803F02D3002051E26FD
:1024B0001D242CE01F261A2429E02046494605F059
:1024C0007FFB2B46013B7FF4FDAF2046414605F0E4
:1024D00077FB2B46013B7FF4FDAF304605F094FBC4
:1024E00018B9013F17F0FF07E7D100218AF8511210
:1024F0009AF84A229AF84B32009150465946FFF713
:10250000B5FE1CE01126102401E0122613249AF8CF
:102510004B32002B304614BF0221002105F082FB14
:102520002046012105F04CFB2046012105F07AFBF5
:102530000B274FF00009A0254FF00108CDE703B0AD
:10254000BDE8F08F2DE9F8430546884616469946C2
:1025500005F0B8FB0EB9D5F8686205F0B3FB074685
:10256000AB681A7812F0200F0ED0B4221A7032E045
:10257000EC68247814F0200F06D1002385F8493246
:10258000AB68B0221A7006E0002EF1D005F09AFB7D
:10259000C01B8642ECD8AB681B7813F0200F0ED11D
:1025A00028464146FFF776FFEB681B7813F0200FB3
:1025B00005D1002385F84932AB68B0221A70AB68A8
:1025C0001B7803F0200303F0FF0023B9042385F8F0
:1025D0005132BDE8F88395F84832013BDBB2012B5C
:1025E00038D805F0F9F9B8F1000F03D0B8F1010FB0
:1025F00003D005E01A4B1B7804E01A4B1B7801E06E
:10260000174B1B78834228DB0F2804DC012089F854
:102610000000BDE8F883B8F1000F03D0B8F1010F56
:1026200008D00FE0A0F11002D2B20D4B1A700120B9
:10263000BDE8F883A0F11002D2B20A4B1A70012053
:10264000BDE8F883A0F11002D2B2054B1A70012048
:10265000BDE8F8830120BDE8F8830120BDE8F883D8
:1026600018E400E019E400E00369490083F83C1134
:1026700003690122C3F8442200230371026982F82E
:10268000513270472DE9F04383B0054614461F468A
:1026900000238DF80730D0F84432002B00F0C780BB
:1026A0000FB9D0F86872EB6812221A7028463A46C1
:1026B0000DF10703FFF746FF002800F0B88095F8FA
:1026C00048321BB19DF80720002A53D005F0FAFAD2
:1026D0008146012385F8513285F8504200264FF09B
:1026E00002082AE02B69AA1992F83C211A70EC68BA
:1026F000217811F0020FFBD084F80080EB68197884
:10270000C9B211F0100F08D0072285F8512210220B
:102710001A70AB6880221A7089E011F0010F0BD09B
:102720001EB9052385F8513202E0062385F851329F
:10273000AB6880221A707AE00136D5F844329E42A6
:1027400007D2002FCED005F0BDFAC9EB00008742BA
:10275000C8D8D5F84432B3428CBF0423002385F88F
:10276000513295F85032012BAB680CBF8022B02259
:102770001A705CE05A1ED2B2012A58D8012285F89C
:10278000512285F850420022C5F84022022B14D174
:10279000D5F84432042B18D80FE013689B6833B97E
:1027A000136800210120187259729972D972136846
:1027B00000221A765A769A76DA76AB68F0221A7088
:1027C0002B6995F83C211A7031E0012385F85A32C3
:1027D000D5F8642205F59F70D5F84442033C116892
:1027E0000B68002308601168012008714B711168A3
:1027F000CB71116808724B728B72CB721168604298
:10280000C8601068C18BA1B2C1831268D08AD1821E
:10281000D5F864222969106804690161106803759C
:10282000437510688371B1F1804FB9D3B5E703B038
:10283000BDE8F0832DE9F04383B0044616469DF8C9
:1028400028700B9D00208DF80700002B00F04D81B3
:10285000B3F5827F03D3082384F8513245E1C4F8ED
:1028600054320023C4F83431C4F838310DB9D4F8E7
:102870006852E36812221A7020462A460DF10703B7
:10288000FFF760FE002800F0308194F8483223B151
:102890009DF80720002A00F0958005F013FA804685
:1028A000022384F8513284F850722369720042F096
:1028B0000102D2B21A70E268137813F0020FFBD053
:1028C00002231370E2681378DBB213F0100F08D004
:1028D000072384F8513210231370A36880221A70E2
:1028E00003E113F0010F06D0052384F85132A368E9
:1028F00080221A70F9E0032384F85132D4F854325C
:10290000012BA3680CBFA822A0221A7023691B7890
:102910000226002745E00B7813F0020FFBD00E7063
:10292000002D00F0AA8005F0CDF9C8EB000085422B
:102930008CBF00230123D4F838110231D4F854227B
:10294000914205D03BB194F8592222B900E03B46B0
:10295000A26882F80090D4F838110131D4F85422DA
:10296000914280F09F80002B00F0918094F85922D2
:10297000002A40F0AA808AE0042284F8512201E073
:1029800084F8517294F85022012A06D12022013A8B
:102990007FF4FDAFA2688021117023B1012384F878
:1029A00059324FF0A809D4F83821D4F854329A4259
:1029B00080F09B8094F85132DBB2032B40F095807D
:1029C000E168A8E75A1ED2B2012A00F28E800222E4
:1029D00084F8512284F85072934244D1D4F854328E
:1029E000042B40D9012384F85A32D4F86432216987
:1029F0001868026800220160186802714271186844
:102A0000C271B1F1804F02D31A68926832B91A6864
:102A100000210120107251729172D1721A68002344
:102A2000137353739373D373D4F8642204F1300592
:102A3000D4F85402013811680F690D61116801253D
:102A40000D754B7511688B7111680D724B728B721D
:102A5000CB721368414299611368D98B81B2D983D3
:102A60001368DA8AD982A368F0221A702369720087
:102A700042F00102D2B21A7037E0D4F838210232A3
:102A8000D4F854329A423FF462AF3B4663E722697E
:102A90001178D4F83821501CC4F83801224482F847
:102AA00030107AE784F85972A268B0211170226957
:102AB0001178D4F83821501CC4F83801224482F827
:102AC0003010002B3FF45CAF56E784F85972A268CF
:102AD000B021117022691178D4F83821501CC4F843
:102AE0003801224482F8301046E703B0BDE8F08395
:102AF000036993F85132043B042B0CD8DFE803F050
:102B000009100507030001207047032070470420C7
:102B10007047042070470079003018BF01207047CB
:102B20000220704790F8513213F0FF0F1BD090F83D
:102B30005132DBB2052B18D090F85132DBB2062BA4
:102B400015D090F85132DBB2072B12D090F85132E9
:102B5000DBB2042B0FD090F85102C0B2082814BF8A
:102B6000002001207047012070470120704701209C
:102B70007047012070470120704700BF70B50446C0
:102B8000154605F09FF80DB9D4F8685205F09AF88B
:102B900006462046FFF7C6FF00283AD1002DF8D0A0
:102BA00005F090F8801B8542F3D805F08BF8801B68
:102BB000854210D894F84832022B0CD194F85A323E
:102BC00013F0FF0F07D02046FFF7ACFF0028FAD024
:102BD000042384F8513294F85132DBB2012B09D02E
:102BE00094F85132DBB2022B04D094F85132DBB2AC
:102BF000032B02D1042384F851328023013B7FF45C
:102C0000FDAF94F8513213F0FF0F14BF00200120E4
:102C100070BD002DDFD0C8E7F8B507460E46154653
:102C2000069C084611461A462346FFF72BFD304600
:102C300029462246FFF7A2FF3846FFF759FFF8BDA5
:102C400070B582B004460D461E468BB19DF8183013
:102C500000930799019129463346FFF7EBFD204683
:102C60002946079AFFF78AFF20B1D4F8380102E01D
:102C7000002000E0002002B070BD00BFD0F8342179
:102C8000D0F838319A4208D2D0F834315A1CC0F802
:102C90003421184490F8300070474FF0FF307047EF
:102CA00008B50069FFF7EAFF08BD00BFD0F834217E
:102CB000D0F838319A423DBFD0F83431C01890F87E
:102CC00030004FF0FF30704708B50069FFF7EEFFA6
:102CD00008BD00BF38B50446C2681578EDB28168FA
:102CE0000B78DBB213F0200F00F0C38113F0100F4C
:102CF00000F0058190F85A32DBB2022B04D090F834
:102D00005A32DBB2032B4CD1D4F864120B689B8B84
:102D100003F080039BB2002B00F0858294F85A32B6
:102D2000DBB2022B40F07F8273E2137813F0800F46
:102D3000FBD00A79B54B1A70002384F85A32D4F8C4
:102D40004432013BC4F840322369D4F84022224483
:102D500092F83C211A7020E0AD4B1A680B790121E2
:102D60009940114219D0AB4A1370D4F864321A79E1
:102D7000A94B1A70002384F85A3215F0100F0CD0AA
:102D8000072384F85132E36812221A70A368802264
:102D90001A700023C4F8403238BDE36802221A706A
:102DA00038BD90F85132DBB2012B56D115F0100F1F
:102DB0000DD0002380F85A32072180F851121221D9
:102DC0001170826880211170C0F8403238BD15F052
:102DD000010F0FD0002380F85A32D0F840321BB9CF
:102DE000052380F8513202E0062380F85132802317
:102DF0000B702EE0D0F840320133C0F84032D0F8EA
:102E0000442293420AD3002380F8513290F8503282
:102E1000012B0CBF8023B0230B701AE090F85A32BC
:102E2000DBB2012B0ED1022380F85A32F1230B7052
:102E3000D0F864321A79794B1A70036990F83D2101
:102E40001A7006E00369D0F84022024492F83C214F
:102E50001A70E36802221A7038BD90F85132DBB262
:102E6000022B36D115F0100F08D0072380F851320D
:102E700012231370836880221A7038BD15F0010F79
:102E800005D0052380F8513280230B701DE090F8A7
:102E90005A32DBB2012B0CD1022380F85A32E123E3
:102EA0000B70D0F864321A795C4B1A7003691B7886
:102EB0000BE0032380F85132D0F85432012B0CBFC1
:102EC000E823E0230B7003691B78E36802221A7081
:102ED00038BD90F85132DBB2042B0AD190F8503251
:102EE000012B0CBF8023B0230B70C36802221A7021
:102EF00038BD80230B70C36802221A7038BD90F869
:102F00005A32DBB2022B04D090F85A32DBB2032BD8
:102F100056D1D4F864321A68928B02F0800292B2D1
:102F2000002A00F0918194F85A22D2B2022A40F08D
:102F30008B817FE11A79354B1A70002384F85A325D
:102F400094F85132DBB2042B1CBF002384F85132B9
:102F5000A368B0221A70D4F85432013BC4F8383157
:102F6000D4F838315A1CC4F8382122691278234425
:102F700083F8302094F85032012B1DD12023013BDF
:102F80007FF4FDAFA36880221A7015E0204A126812
:102F90001B790121994011420ED01F4A1370D4F8B9
:102FA00064321A791B4B1A70002384F85A3284F861
:102FB0005132A36880221A70E36802221A7038BD69
:102FC000D0F838210232D0F854329A4200F04381CE
:102FD00090F85132DBB2042B04D190F85932002B17
:102FE00000F03981D4F838210132D4F854329A42B1
:102FF00080F03F8194F85132DBB2042B40F02E81F7
:1030000094F85932002B40F0348127E11C800040B5
:103010002C8000401F8000401E8000401B8000402C
:10302000002384F85132A368B0221A70D4F83831E2
:103030005A1CC4F8382122691278234483F83020BE
:1030400094F85032012B06D12023013B7FF4FDAFD1
:10305000A36880221A7094F85132DBB2042B04D199
:1030600094F85932002B00F00E81E36802221A70A6
:1030700038BD15F0100F08D01023137015F0400F55
:1030800006D1C36802221A7038BD15F0400F60D017
:1030900094F85132DBB20A2B04D1D4F85C32002B05
:1030A00040F0F58015F0040F1ED0092384F851324A
:1030B0000023C4F84432A368D0221A7023691B7815
:1030C0005B0884F85232D4F8603203B19847D4F8E0
:1030D00044320BB984F83C31236994F83C211A70CE
:1030E0000123C4F8403230E0002384F8583294F8C9
:1030F0004A32012B05D112206949032204F08EFCCB
:1031000015E02BB911206649032204F087FC0EE07C
:10311000022B05D11E206349032204F07FFC06E048
:10312000032B04D11F205F49032204F077FC0A23FC
:1031300084F851320023C4F83831A368C0221A70D1
:1031400023691B785B0884F85232E36802221A7004
:1031500038BD13F0100F20D015F0010F15D1D0F8A5
:103160004022D0F844329A4208D2D0F840325A1C59
:10317000C0F84022034493F83C2100E00022236978
:103180001A70A368D0221A703FE0C0230B70036945
:103190001B78002380F8513237E090F85132DBB2CF
:1031A0000A2B32D1002380F8583290F84A32012B92
:1031B00005D112203A49032204F030FC15E02BB966
:1031C00011203749032204F029FC0EE0022B05D11F
:1031D0001E203449032204F021FC06E0032B04D115
:1031E0001F203049032204F019FC23691B78DAB24E
:1031F000D4F83831B3F5817F07D8D4F83831591C69
:10320000C4F83811234483F83020E36802221A708E
:1032100038BD0A79244B1A70A368F0221A70032370
:1032200084F85A32B9E594F85A32DBB2032B7FF4B2
:1032300093AD7AE51A791C4B1A70A368E8221A70CC
:10324000032384F85A32B7E694F85A22D2B2032AFA
:103250007FF49CAE6EE6E8230B70C3E6D4F83831F9
:103260005A1CC4F8382122691278234483F830208C
:10327000F1E6002384F8593294F85132DBB2042B82
:103280007FF4CEAECFE6012384F85932EDE6002379
:10329000C4F83431D4F83801D4F85C32984701E7E7
:1032A00071330000813300001F80004008B50248E0
:1032B0000021FFF70FFD08BD4488FF1F08B5024835
:1032C0000121FFF707FD08BDB08AFF1F10B50446B6
:1032D000C3681B7813F0200F24D1002380F85132EB
:1032E00090F84A32012B03D1122004F00FFC0FE0BA
:1032F0001BB9112004F00AFC0AE0022B03D11E20A6
:1033000004F004FC04E0032B02D11F2004F0FEFBB8
:10331000D4F85C3253B30022C4F83421D4F8380115
:10332000984710BD90F858320133DBB280F858321C
:10333000012B03D890F84932012B17D094F84A3268
:10334000012B03D1122004F0E1FB10BD1BB91120A9
:1033500004F0DCFB10BD022B03D11E2004F0D6FBD1
:1033600010BD032B02D11F2004F0D0FB10BD00BF05
:1033700008B502480021FFF7A9FF08BD4488FF1FD8
:1033800008B502480121FFF7A1FF08BDB08AFF1F61
:1033900070B50B4E30460021FEF72EFE094D0A4C4B
:1033A00030462946224608F0A1FD084E304601214C
:1033B000FEF722FE30462946224608F097FD70BDF2
:1033C0006C98FF1FCD1F00003C88FF1F5898FF1FFF
:1033D00070B5104E3046104905F04EFF0F4D104CA1
:1033E00030462946224608F081FD0E4E30460E49F1
:1033F00005F042FF30462946224608F077FD0B4E85
:1034000030460B4905F038FF30462946224608F081
:103410006DFD70BD9098FF1F90E00000E1910000ED
:103420003C88FF1FA098FF1FF0D100008098FF1F6D
:10343000F8D1000010B5054C2046054905F01CFFE9
:1034400020460449044A08F051FD10BDB098FF1F02
:1034500004D20000E19100003C88FF1F704700BFCC
:10346000704700BF10B5039C20462A2102F072FA73
:1034700020462E2102F06EFA10BD00BF38B504467A
:103480000D46084609F036FC024623685B68204674
:10349000294698470546204605F034FD284438BDA6
:1034A000014B0360704700BF50D2000010B50446C6
:1034B000024B036005F01EFD204610BD50D20000F7
:1034C00002220270002242608260C2604FF07E5190
:1034D000016142618261C26102624262826270473E
:1034E000704700BF2DE9F04128209B21012202F006
:1034F00061F94FF4FA7004F007FC2820372102F03C
:1035000077F900F001062820372102F071F9282010
:10351000372102F06DF92820372102F069F92820BF
:10352000372102F065F92820372102F061F90A25D8
:1035300028244FF09B08012724E0204641463A46C4
:1035400002F038F94FF4FA7004F0DEFB2046372120
:1035500002F04EF900F001062046372102F048F94A
:103560002046372102F044F92046372102F040F985
:103570002046372102F03CF92046372102F038F985
:10358000013D01D0002ED8D02820372102F030F99B
:1035900080F00400C0F38000BDE8F0812DE9F04F19
:1035A00099B083460E4615461C4603690793436946
:1035B000069383690493C3690393084608F0D0FA1D
:1035C00081462846294608F0CBFA80462046214607
:1035D00008F0C6FA07464846414608F0B9F9804661
:1035E0004046394608F0B4F907F044FB8246002112
:1035F00008F04AFC002840F080842598014608F035
:10360000AFFA81462698014608F0AAFA8046484655
:10361000414608F09DF908902798014608F0A0FA65
:1036200007464846414608F093F9804640463946E9
:1036300008F08EF907F01EFB0746002108F024FC75
:10364000002840F05A840798014608F081F90C9050
:103650000698014608F07CF90D900498014608F0A0
:1036600077F90E900398014608F072F913900798C5
:10367000014608F075FA0B900798069908F070FA61
:1036800011900798049908F06BFA14900698014677
:1036900008F066FA09900698039908F061FA10900C
:1036A0000498014608F05CFA08900398014608F077
:1036B00057FA0A904FF07E50514608F005FB1290E1
:1036C0004FF07E50394608F0FFFA074625983946F4
:1036D00008F046FA82462698394608F041FA0190E9
:1036E0002798394608F03CFA02900C98019908F0A6
:1036F00037FA05900C98029908F032FA07465046BE
:103700000B9908F02DFA80460598039908F028FADD
:103710000146404608F01AF980463846049908F0F8
:103720001FFA0146404608F013F9804650460999B1
:1037300008F016FA0146404608F00AF980460D984E
:10374000019908F00DFA049908F00AFA014640467A
:1037500008F0FEF880460D98029908F001FA0399E6
:1037600008F0FEF90146404608F0F2F8804650465F
:10377000089908F0F5F90146404608F0E7F8804658
:1037800050460A9908F0ECF90146404608F0DEF888
:1037900080460D98514608F0E3F90F900C98514679
:1037A00008F0DEF9039908F0DBF9814601980B99DE
:1037B00008F0D6F90146484608F0CAF8814606984E
:1037C000394608F0CDF90146484608F0BFF80746EB
:1037D0000F98049908F0C4F90146384608F0B8F883
:1037E00007460198099908F0BBF90146384608F0E8
:1037F000ADF807460198089908F0B2F90146384635
:1038000008F0A6F807460E98029908F0A9F903995E
:1038100008F0A6F90146384608F09AF807460198DC
:103820000A9908F09DF90146384608F08FF80746D6
:103830004046414608F094F980463846394608F03B
:103840008FF90146404608F083F807F013FA8146E5
:1038500007984FF0404108F083F9514608F080F98D
:10386000049908F07DF907460698059908F078F95B
:103870000146384608F06CF8074602980B9908F0A4
:103880006FF90146384608F063F8074603980F9928
:1038900008F066F90146384608F05AF807460298DB
:1038A000099908F05DF90146384608F04FF80746D7
:1038B0000E98019908F054F9039908F051F901465E
:1038C000384608F045F807460298089908F048F984
:1038D0000146384608F03AF8074602980A9908F077
:1038E0003FF90146384608F033F80746014608F02C
:1038F0002FF815901098014608F02AF88046049891
:103900000C9908F02DF90146404608F01FF8804652
:103910003046129908F024F90146404608F016F89E
:1039200005901198014608F013F8064603980E9981
:1039300008F016F90146304608F00AF8064628460F
:10394000129908F00DF90146304607F0FFFF0B9081
:103950003846049908F004F916904FF07C50089905
:1039600007F0F4FF0A9907F0F1FF494608F0F8F86C
:1039700005461098149907F0E9FF394608F0F0F869
:103980000146284607F0E4FF514607F0DFFF824674
:1039900009F100430F933846069908F0E1F81790B3
:1039A0000698049908F0DCF805460798039908F092
:1039B000D7F80146284607F0C9FF494608F0D0F875
:1039C00005460498039908F0CBF80146119807F0D2
:1039D000BFFF394608F0C4F80146284607F0B8FF93
:1039E000019907F0B3FF0A904846049908F0B8F827
:1039F00006461498109907F0ABFF494608F0B0F856
:103A000005464FF07C50099907F0A0FF089907F090
:103A10009DFF394608F0A4F80146284607F098FFB4
:103A2000029907F093FF80460E9B03F10040059931
:103A300008F096F805460B980D9908F091F80146A4
:103A4000284607F085FF05461698514608F088F885
:103A50000146284607F07AFF05460F98039908F0BB
:103A60007FF8179907F074FF0A9908F079F8014672
:103A7000284607F06DFF05463046414608F070F8CD
:103A80000146284607F064FF01900998014607F0B7
:103A90005FFF01464FF07E5007F058FF054608983B
:103AA000014607F055FF0146284607F04FFF05463F
:103AB0002046129908F054F80146284607F046FFC0
:103AC00005463846039908F04BF8029038460799A6
:103AD00008F046F808901398059908F041F8044654
:103AE0000C980B9908F03CF80146204607F030FF8F
:103AF000044606984FF0814108F032F8294608F054
:103B00002FF80146204607F021FF0446504602994F
:103B100008F026F80146204607F01AFF0446304612
:103B2000089907F015FF01460A9808F019F80146B0
:103B3000204607F00DFF04464846039908F010F8A8
:103B400006461598069908F00BF80146304607F02E
:103B5000FDFE0146404608F003F80146204607F006
:103B6000F7FE06464846494607F0F2FE00F10044DB
:103B70004846069907F0F4FF09900C9B03F10041B9
:103B8000059807F0EDFF074613980B9907F0E8FF3B
:103B90000146384607F0DCFE074604984FF08141A5
:103BA00007F0DEFF0146284607F0DAFF01463846F7
:103BB00007F0CCFE05462046049907F0D1FF08998E
:103BC00007F0C4FE0146504607F0CAFF01462846EA
:103BD00007F0BEFE05460298099907F0B9FE0146B6
:103BE0000A9807F0BDFF0146284607F0B1FE0546DA
:103BF0004846079907F0B4FF07461598049907F05F
:103C0000AFFF0146384607F0A1FE0146404607F0E7
:103C1000A7FF0146284607F09BFE05460D9805992B
:103C200007F09EFF07460E980B9907F099FF014693
:103C3000384607F08DFE07460398214607F090FFAF
:103C40000146179807F084FE0146504607F088FFAA
:103C50000146384607F07CFE044607980F9907F0A6
:103C60007FFF0146169807F073FE01460A9807F099
:103C700077FF0146204607F06BFE0446404609994F
:103C800007F06EFF0146204607F062FE04460198E9
:103C9000014607F065FF82463046314607F060FF77
:103CA00081465046494607F053FE074628462946B6
:103CB00007F056FF80463846414607F049FE02901D
:103CC0002046214607F04CFF07465046494607F07C
:103CD0003FFE81464846414607F03AFE8046404650
:103CE000394607F035FE06F0C5FF01464FF07E501D
:103CF00007F0EAFF8046069B03F10040229907F097
:103D00002FFF07460498239907F02AFF01463846FB
:103D100007F01CFE07460398249907F021FF01468F
:103D2000384607F013FE4FF07C5107F019FF0746A5
:103D30000198414607F014FF714907F011FF014651
:103D4000384607F003FE289907F00AFF079907F0A5
:103D5000FFFD07460798229907F002FF8146049865
:103D6000249907F0FDFE0146484607F0F1FD814623
:103D70000398239907F0F4FE0146484607F0E6FD54
:103D80004FF07C5107F0ECFE81463046414607F08B
:103D9000E7FE5B4907F0E4FE0146484607F0D6FD22
:103DA000289907F0DDFE069907F0D2FD0646079830
:103DB000239907F0D5FE81460698249907F0D0FE96
:103DC0000146484607F0C2FD81460398229907F054
:103DD000C7FE0146484607F0BBFD4FF07C5107F097
:103DE000BFFE81462846414607F0BAFE444907F027
:103DF000B7FE0146484607F0A9FD289907F0B0FE36
:103E0000049907F0A5FD05460798249907F0A8FE38
:103E100081460698239907F0A3FE0146484607F01D
:103E200097FD81460498229907F09AFE014648467C
:103E300007F08CFD4FF07C5107F092FE8146204642
:103E4000414607F08DFE2E4907F08AFE014648469E
:103E500007F07CFD289907F083FE039907F078FDB1
:103E600004463846394607F07BFE0390304631461B
:103E700007F076FE82460398514607F069FD8046BA
:103E80002846294607F06CFE81464046494607F021
:103E90005FFD04902046214607F062FE80460398AD
:103EA000514607F055FD82465046494607F050FD01
:103EB00081464846414607F04BFD06F0DBFE0146D1
:103EC0004FF07E5007F000FF80463846414607F02D
:103ED00047FECBF810003046414607F041FECBF8D4
:103EE00014002846414607F03BFECBF81800204658
:103EF000414607F035FECBF81C0019B0BDE8F08F45
:103F00000EC71A3F704700BF704700BF08B5282092
:103F10005B21032201F04EFC28205C21032201F0EA
:103F200049FC28203221022201F044FC282055219E
:103F3000642201F03FFC28205621142201F03AFCB3
:103F400028205721142201F035FC28205821B222C4
:103F500001F030FC08BD00BF08B528205421002224
:103F600001F028FC28203321072201F023FC28201F
:103F70003421012201F01EFC08BD00BF10B504462B
:103F800028203421002201F015FC2820A021002245
:103F900001F010FC28203421012201F00BFC282024
:103FA0003421002201F006FC2046FFF7AFFF204637
:103FB000FFF7D2FF10BD00BF70B514462820642162
:103FC000D2B201F0F7FB28205421802201F0F2FB4D
:103FD00028203A2101F00CFCA04207D028263A25DF
:103FE0003046294601F004FCA042F9D128203B21AB
:103FF00001F0FEFB28203C2101F0FAFB28203D21A6
:1040000001F0F6FB28203E2101F0F2FB70BD00BF5D
:10401000F8B51C46CBB20F0A12B1D6B2150A01E0B0
:1040200000252E46282060211A4601F0C3FB2820D7
:1040300061213A4601F0BEFB28206221324601F0A0
:10404000B9FB282063212A4601F0B4FB2820642113
:10405000E2B201F0AFFB28205421802201F0AAFB3C
:1040600028203A2101F0C4FBA04207D028263A2597
:104070003046294601F0BCFBA042F9D1282064213A
:10408000002201F097FB28205421002201F092FB2E
:10409000F8BD00BF70B5154641F0800428206021AE
:1040A000D2B201F087FB28206121C5F3072201F07D
:1040B00081FB28206221C5F3074201F07BFB282009
:1040C00063212A0E01F076FB28206421224601F0AC
:1040D00071FB28205421802201F06CFB28203A211A
:1040E00001F086FB844207D028263A25304629462F
:1040F00001F07EFB8442F9D128206421002201F0E6
:1041000059FB28205421002201F054FB70BD00BF50
:1041100010B528206421002201F04CFB28205421F6
:10412000002201F047FB2820922101F061FB10F0F2
:10413000010F09D05E4C23685B6820465D491F2251
:104140009847204604F0DEFE2820382101F050FB7D
:104150000138072838D8DFE800F00411371E373758
:10416000372B534C23685B682046534915229847E8
:10417000204604F0C7FE04F02BFC25E04C4C2368DD
:104180005B6820464D4915229847204604F0BAFE48
:1041900004F01EFC18E0464C23685B682046484942
:1041A00018229847204604F0ADFE04F011FC0BE005
:1041B0003F4C23685B6820464249202298472046AE
:1041C00004F0A0FE04F004FC28209E2101F010FB66
:1041D00010F0010F05D0364803685B683A49192290
:1041E00098472820352101F003FB01381F285ED8AD
:1041F000DFE800F0101D5D2A5D5D5D375D5D5D5D92
:104200005D5D5D445D5D5D5D5D5D5D5D5D5D5D5DF7
:104210005D5D5D51264C23685B6820462B4910226A
:104220009847204604F06EFE04F0D2FB10BD204CEF
:1042300023685B68204626490C229847204604F0F4
:1042400061FE04F0C5FB10BD194C23685B68204675
:1042500020491C229847204604F054FE04F0B8FB85
:1042600010BD134C23685B6820461B4915229847F4
:10427000204604F047FE04F0ABFB10BD0C4C236855
:104280005B682046154917229847204604F03AFEFD
:1042900004F09EFB10BD064C23685B682046104965
:1042A00016229847204604F02DFE04F091FB10BD25
:1042B000789BFF1F28D3000048D3000060D3000084
:1042C00078D3000094D30000B8D30000D4D300000A
:1042D000E8D30000F8D3000018D4000030D4000068
:1042E00048D4000010B52820362101F081FA0138A9
:1042F0001F285ED8DFE800F0101D5D2A5D5D5D3788
:104300005D5D5D5D5D5D5D445D5D5D5D5D5D5D5DF6
:104310005D5D5D5D5D5D5D51264C23685B6820469B
:1043200025491F229847204604F0ECFD04F050FB7D
:1043300010BD204C23685B68204620492022984706
:10434000204604F0DFFD04F043FB10BD194C236848
:104350005B6820461A4917229847204604F0D2FD90
:1043600004F036FB10BD134C23685B6820461549EA
:104370001F229847204604F0C5FD04F029FB10BD1C
:104380000C4C23685B6820460F4920229847204642
:1043900004F0B8FD04F01CFB10BD064C23685B68FC
:1043A00020460A4917229847204604F0ABFD04F046
:1043B0000FFB10BD789BFF1F60D4000080D400006D
:1043C000A4D40000BCD40000DCD4000000D5000060
:1043D00010B50446054B0360406808B1FCF788F946
:1043E000204602F0D1FB204610BD00BF20D50000C2
:1043F00010B50446FFF7ECFF204604F07BFD204695
:1044000010BD00BF08B540680021FCF71BF9D0F1D2
:10441000010038BF002008BD38B504460A4B0360D0
:1044200000234360FCF796F8606058B9074D2B688D
:104430005B682846064914229847284604F062FD26
:1044400004F0C6FA204638BD20D50000789BFF1F37
:1044500030D5000008B540680121FCF709F908BD16
:1044600000B583B040684FF0FF33009301210A4646
:104470000023FCF77DF803B05DF804FB70B5154E22
:104480003046154904F0F8FE144D154C30462946C7
:10449000224607F02BFD134E3046134904F0ECFE84
:1044A00030462946224607F021FD104E304610497D
:1044B00004F0E2FE30462946224607F017FD0D4E75
:1044C00030460D4904F0D8FE30462946224607F012
:1044D0000DFD70BDF098FF1F74D60000E191000043
:1044E0003C88FF1FC098FF1F98D60000E098FF1F70
:1044F000A4D60000D098FF1FB8D60000014B03607F
:10450000704700BFD8D60000014B0360704700BF62
:10451000F0D60000C06870474268C06800EB8200B7
:10452000704700BF014B0360704700BFC0D7000059
:10453000406870472DE9F84307469146B1F10008FD
:1045400017DB4368984514DA0368DB68114698471F
:104550007C68013CA04509DAA300FD68EE1856F816
:10456000046CEE50013C043B4445F6D1FB6843F833
:104570002890BDE8F88300BF38B54568002D14DDEC
:10458000C26813688B4218BF00230BD104E052F8B5
:10459000044F8C4206D100E000230268926919465C
:1045A000904738BD0133AB42F1D138BD002905DB5E
:1045B00043689942BCBFC36843F82120704700BFDD
:1045C000C36853F821007047C0687047C0687047DF
:1045D000C06800EB81007047C06800EB8100704745
:1045E000C06870474268C06800EB8200704700BF37
:1045F000014B0360704700BF08D700004068704758
:104600002DE9F84307469146B1F1000817DB4368EE
:10461000984514DA0368DB68114698477C68013CCA
:10462000A04509DAA300FD68EE1856F8046CEE50B8
:10463000013C043B4445F6D1FB6843F82890BDE8B3
:10464000F88300BF38B54568002D14DDC2681368D3
:104650008B4218BF00230BD104E052F8044F8C4268
:1046600006D100E00023026892691946904738BDE0
:104670000133AB42F1D138BD002905DB43689942D3
:10468000BCBFC36843F82120704700BFC36853F81C
:1046900021007047C0687047C0687047C06800EB71
:1046A00081007047C06800EB81007047C0687047A8
:1046B000C06870474268C06800EB8200704700BF66
:1046C0004268C06800EB8200704700BF10B5044626
:1046D000024B036004F00EFC204610BDD8D600004B
:1046E00010B50446024B036004F004FC204610BDE4
:1046F000F0D6000010B50446024B036004F0FAFB4C
:10470000204610BDC0D7000010B50446024B036020
:1047100004F0F0FB204610BD08D7000010B5044699
:10472000054B0360406808B1FCF748FC204602F0E6
:104730002BFA204610BD00BFA8D7000010B50446D4
:10474000044B0360C06808B104F0D8FB024B23603F
:10475000204610BD10D80000C0D7000010B5044698
:10476000064B0360C06808B104F0C8FB044B23602B
:10477000204604F0BFFB204610BD00BF10D800004B
:10478000C0D7000070B504464268C36843F82210E1
:10479000436801334360826893421CDB5600B6F1E4
:1047A000FE5F94BFB0004FF0FF3004F09FFB054662
:1047B0006368002B09DD00231A46E168C958E950F7
:1047C0000132043361689142F7DCE06808B104F01B
:1047D00095FBE560A66070BD70B50446002941DB1D
:1047E000436899423EDA8368013B002B0CDD8B0065
:1047F0000131A268914203DAE268D0184068D050D3
:10480000043362688A42F3DC6368013B6360A66834
:10481000F21A934226DA06EBD6767610002E04DDE5
:104820003046B6F1FE5F17D801E001200646800051
:1048300004F05CFB0546002E07DDB1000023E268B2
:10484000D258EA5004338B42F9D1E06808B104F041
:1048500055FBE560A66070BD4FF0FF3004F046FBED
:104860000546EAE770BD00BF10B50446002343606B
:1048700001238360C06830B104F040FBA068B0F150
:10488000FE5F03D800E00120800001E04FF0FF3020
:1048900004F02CFBE06010BD10B50446044B03602F
:1048A000C06808B104F02AFB024B2360204610BD0B
:1048B00058D7000008D7000010B50446064B036027
:1048C000C06808B104F01AFB044B2360204604F0D2
:1048D00011FB204610BD00BF58D7000008D70000CC
:1048E00070B504464268C36843F822104368013338
:1048F0004360826893421CDB5600B6F1FE5F94BFB2
:10490000B0004FF0FF3004F0F1FA05466368002B69
:1049100009DD00231A46E168C958E9500132043321
:1049200061689142F7DCE06808B104F0E7FAE560FD
:10493000A66070BD70B50446002941DB436899420A
:104940003EDA8368013B002B0CDD8B000131A2684D
:10495000914203DAE268D0184068D05004336268AC
:104960008A42F3DC6368013B6360A668F21A9342F3
:1049700026DA06EBD6767610002E04DD3046B6F148
:10498000FE5F17D801E001200646800004F0AEFA71
:104990000546002E07DDB1000023E268D258EA5038
:1049A00004338B42F9D1E06808B104F0A7FAE5605E
:1049B000A66070BD4FF0FF3004F098FA0546EAE7B4
:1049C00070BD00BF10B5044600234360012383601F
:1049D000C06830B104F092FAA068B0F1FE5F03D86D
:1049E00000E00120800001E04FF0FF3004F07EFA8B
:1049F000E06010BD08B54068FCF7D4FAD0F10100C2
:104A000038BF002008BD00BF10B50446064B036048
:104A1000406808B1FCF7D2FA204602F0B5F820460B
:104A200004F068FA204610BDA8D7000070B58AB01F
:104A3000064601AC0D460FCD0FC40FCD0FC42B6839
:104A40002360706F01A94FF0FF320023FCF72EF9AD
:104A500001280BD0064C23685B68204605491422C8
:104A60009847204604F04EFA03F0B2FF0AB070BD3A
:104A7000789BFF1F88D80000A0F11C00FFF7D6BF6D
:104A800010B504461D4B03F1080202602033C361D8
:104A90001B4B8367D0F8840008B104F02FFA194B40
:104AA000A367194B2367606F08B1FCF787FA04F11D
:104AB000700002F069F8154B236204F1650000F004
:104AC000FBFE04F16400FFF71FFA04F13800FEF763
:104AD00007FD04F13400FEF7C3FC0D4B6362206B4D
:104AE00008B104F00BFA0B4B63620B4B23620B4BC8
:104AF000E361204601F0FCF8204610BD58D80000C4
:104B000010D80000C0D70000A8D7000040D900008E
:104B100058D7000008D70000D8D60000F0D6000013
:104B2000A0F11C00FFF7ACBF10B504461F4B03F10A
:104B3000080202602033C3611D4B8367D0F88400F4
:104B400008B104F0DBF91B4BA3671B4B2367606FB5
:104B500008B1FCF733FA04F1700002F015F8174BB6
:104B6000236204F1650000F0A7FE04F16400FFF782
:104B7000CBF904F13800FEF7B3FC04F13400FEF782
:104B80006FFC0F4B6362206B08B104F0B7F90D4B5B
:104B900063620D4B23620D4BE361204601F0A8F8E0
:104BA000204604F0A7F9204610BD00BF58D80000E9
:104BB00010D80000C0D70000A8D7000040D90000DE
:104BC00058D7000008D70000D8D60000F0D6000063
:104BD000A0F11C00A8E700BF2DE9F04192B0064605
:104BE00025482649FEF74AFC03F0F2FE06F12004B0
:104BF000204600F0A5FA40B1204606F11C0100F065
:104C000009FB1D4FDFF87C8009E01B481C49FEF7BB
:104C100035FC03F0DDFE304601F0FCF8F1E7706F83
:104C200009A94FF0FF320023FCF72AF901280AD026
:104C30003B685B683846414614229847384604F082
:104C400061F903F0C5FE6C4609AD0FCD0FC40FCD61
:104C50000FC42B682360D6F88440F56F04EB8505FC
:104C6000AC42DCD054F8040B03689B686946984753
:104C7000AC42F7D1D3E700BF789BFF1FA0D800005C
:104C8000D0D80000FCD8000030B585B00446684696
:104C90001E4904F0F1FA204603216A4601F07CF82F
:104CA000684604F09DFA1A4B03F108022260203393
:104CB000E36104F120000D210E22002300F0E6F94B
:104CC000144B2367002262670A202421FBF7C4FFEC
:104CD000606758B9104D2B685B6828460F4915224C
:104CE0009847284604F00EF903F072FE0C4BA367B8
:104CF0000023E3670A23C4F88030282004F0F6F884
:104D0000C4F88400204605B030BD00BF14D90000AF
:104D100058D80000A8D70000789BFF1F20D90000BA
:104D200010D8000010B5074B1B683BB9882004F071
:104D3000D9F80446FFF7A8FF024B1C60014B186826
:104D400010BD00BF0099FF1F70B50446C26FD0F8B8
:104D5000843043F82210C36F0133C367D0F880203A
:104D6000934220DB5600B6F1FE5F94BFB0004FF0D7
:104D7000FF3004F0BBF80546E36F002B0ADD00238B
:104D80001A46D4F88410C958E95001320433E16F4F
:104D90008A42F6DBD4F8840008B104F0AFF8C4F816
:104DA0008450C4F8806070BD2DE9F04F9BB004467C
:104DB00090F84C30002B00F0E680744B1B680F938A
:104DC0000F9B826C9A1A312A40F3DD80836428207D
:104DD000352100F00DFD054610F0020F03D004F15F
:104DE000450000F0EBFD15F0100F0CD0684B009360
:104DF000684B0193684B029304F1450067491A22FE
:104E0000674B00F0B9FD15F0200F0CD0654B0093F7
:104E1000654B0193654B029304F1450064492222DE
:104E2000644B00F0A9FD15F0080F0CD0624B009305
:104E3000624B0193624B029304F1450061491222D7
:104E4000614B00F099FD15F0040F04D004F145000A
:104E50005E4900F05FFD15F0400F0CD0002200927B
:104E600019AD019504F1140000210B46FEF7FAFA82
:104E7000284600F021FD02F025FF0646544D286823
:104E8000301A06F015FE534906F01EFF09902E60F9
:104E9000514D2868099906F05BFD286004F118025D
:104EA0000A92DFF8ECA0DAF8003003F100430B932C
:104EB000DFF8ECB0DBF8003003F100430C93354B26
:104EC0001B680D93374A1068444906F049FE44496F
:104ED00006F0FAFE0090DFF8DC90D9F800003F49B8
:104EE00006F03EFE3E4906F0EFFE0190DFF8B88086
:104EF000D8F8000000F10040384906F031FE38498A
:104F000006F0E2FE0290304F3B6803932A4E33686E
:104F100004932A4D2B680593099B06930A980B99D5
:104F20000C9A0D9BFEF73AFBDBF800002D4906F0CA
:104F300017FE1090DAF800002A4906F011FE1190D1
:104F4000144A1068274906F00BFE1290D9F8003079
:104F50001393144A13681493D8F8003015933B68E0
:104F60001693336817932B6818932569A46805EB8B
:104F70008404A54207D055F8040B03689B6810A968
:104F80009847A542F7D11BB0BDE8F08F489AFF1FA4
:104F90001499FF1F1899FF1F40DAFF390C99FF1F62
:104FA0000499FF1F6099FF1F5099FF1F08AC1C3E1A
:104FB0001C99FF1F5499FF1F2899FF1F2C99FF1F51
:104FC00007409C3E5899FF1F2499FF1F3499FF1FEB
:104FD0004C99FF1F002474494499FF1FDB0F49407F
:104FE0000000344300007A4410B504460E4B40F8EC
:104FF000453B00F061FC04F14400FEF785FF04F13D
:105000001800FEF76DFA04F11400FEF729FA074BB9
:105010006360206908B103F071FF054B6360054BC5
:105020002360204610BD00BF40D9000058D70000C3
:1050300008D70000D8D6000010B504460F4B40F842
:10504000453B00F039FC04F14400FEF75DFF04F13C
:105050001800FEF745FA04F11400FEF701FA084BB8
:105060006360206908B103F049FF064B6360064B9B
:105070002360204603F03EFF204610BD40D90000CB
:1050800058D7000008D70000D8D600002DE9F0431B
:1050900087B004460F4690469946254B0360254B42
:1050A0004360002585600A23C360282003F01EFFAB
:1050B000206104F11400FEF7D1F904F11800FEF7A5
:1050C000FFF904F14400FEF71DFF04F1450000F074
:1050D000F1FBA56484F84C5000F0B0FA214600F0D2
:1050E000BFFA154E3069717B0095CDF8049002959A
:1050F000124B0393012604962A462B46FDF760F9CE
:10510000FFB23846314602F08DFD3846294602F09E
:1051100057FD5FFA88F52846314602F083FD2846A0
:10512000314602F04DFD204607B0BDE8F08300BFD8
:1051300040D9000058D700006C98FF1F801A060065
:105140002DE9F041054600F00DFB002857D005F190
:105150001800FEF7C7F985F84C0005F14404204615
:10516000FEF70CFFDFF8A8802046B8F800104A22AE
:105170000123FEF721FF244F204639884A220323CA
:10518000FEF71AFF214E204631884B220123FEF7FD
:1051900013FF28206421002200F00CFB282054215A
:1051A000002200F007FB204649210022FEF772FF93
:1051B00020464FF47A710822CA23FEF729FF2046C1
:1051C0004FF4FA610022CB23FEF722FF2046B8F805
:1051D00000104A220123FEF7EFFE204639884A22BA
:1051E0000323FEF7E9FE204631884B220123FEF718
:1051F000E3FE2046FEF78CFF2046FFF773F895F894
:105200004C00BDE8F08100BF3099FF1F4899FF1F97
:105210000899FF1F70B504468268036943F822109D
:10522000836801338360C26893421CDB5600B6F189
:10523000FE5F94BFB0004FF0FF3003F057FE05460D
:10524000A368002B09DD00231A462169C958E950DB
:1052500001320433A1688A42F7DB206908B103F008
:105260004DFE2561E66070BD007A704710B50446BA
:10527000024B036001F088FC204610BD58D90000A5
:1052800010B50446FFF7F2FF204603F033FE204638
:1052900010BD00BF10B50446406800210A460B4609
:1052A000FBF704FD01280CD0074C23685B682046FF
:1052B00006491C229847204603F024FE03F088FB91
:1052C00010BD0023237210BD789BFF1F84D90000FE
:1052D00038B504460E4B0360002141600172012085
:1052E0000322FBF7B9FC606060B90A4D2B685B686C
:1052F0002846094915229847284603F003FE03F083
:1053000067FB02E02046FFF7C5FF204638BD00BF1F
:1053100058D90000789BFF1FA4D90000C0687047CF
:105320004268C06800EB8200704700BF014B036019
:10533000704700BFC8D90000406870472DE9F843A6
:1053400007469146B1F1000817DB4368984514DA27
:105350000368DB68114698477C68013CA04509DA80
:10536000A300FD68EE1856F8046CEE50013C043BB7
:105370004445F6D1FB6843F82890BDE8F88300BFA8
:1053800038B54568002D14DDC26813688B4218BF1C
:1053900000230BD104E052F8044F8C4206D100E008
:1053A0000023026892691946904738BD0133AB4229
:1053B000F1D138BD002905DB43689942BCBFC36801
:1053C00043F82120704700BFC36853F8210070479D
:1053D000C0687047C0687047C06800EB81007047C4
:1053E000C06800EB81007047C06870474268C068C1
:1053F00000EB8200704700BF10B50446024B03600B
:1054000003F078FD204610BDC8D90000F8B5064667
:105410000F4C23685B6820460E492B229847204694
:1054200003F070FD03F0D4FA06F130073846FFF7B9
:1054300017F8F46A756A04EB8505AC42F6D054F8A7
:10544000040B03689B689847AC42F8D1EEE700BFB5
:10545000789BFF1F90DA000008B53030FEF7FAFFA6
:1054600008BD00BFA0F11C00FFF7F6BF10B5044651
:10547000044B0360C06808B103F040FD024B236099
:10548000204610BD18DA0000C8D9000010B5044647
:10549000064B0360C06808B103F030FD044B236085
:1054A000204603F027FD204610BD00BF18DA00009B
:1054B000C8D9000070B504464268C36843F822109A
:1054C000436801334360826893421CDB5600B6F1A7
:1054D000FE5F94BFB0004FF0FF3003F007FD0546BC
:1054E0006368002B09DD00231A46E168C958E950BA
:1054F0000132043361689142F7DCE06808B103F0DF
:10550000FDFCE560A66070BD70B50446002941DB76
:10551000436899423EDA8368013B002B0CDD8B0027
:105520000131A268914203DAE268D0184068D05095
:10553000043362688A42F3DC6368013B6360A668F7
:10554000F21A934226DA06EBD6767610002E04DDA8
:105550003046B6F1FE5F17D801E001200646800014
:1055600003F0C4FC0546002E07DDB1000023E2680D
:10557000D258EA5004338B42F9D1E06808B103F005
:10558000BDFCE560A66070BD4FF0FF3003F0AEFCDF
:105590000546EAE770BD00BF10B50446002343602E
:1055A00001238360C06830B103F0A8FCA068B0F1AB
:1055B000FE5F03D800E00120800001E04FF0FF30E3
:1055C00003F094FCE06010BD30B585B00446684639
:1055D000174903F051FE204604216A4600F0DCFB27
:1055E000684603F0FDFD134B03F1080222602033EF
:1055F000E361114B2362002363620A23A362282024
:1056000003F074FCE06204F13000FEF705FF04F1E2
:1056100038052846322101F0A3F9284604F11C017F
:1056200001F06EFA284601F04BFA204605B030BD75
:10563000BCDA000060DA000018DA000010B5074B91
:105640001B683BB94C2003F04DFC0446FFF7BCFF40
:10565000024B1C60014B186810BD00BF6499FF1F0E
:1056600070B50446426AC36A43F82210436A0133A4
:105670004362826A93421CDB5600B6F1FE5F94BF20
:10568000B0004FF0FF3003F031FC0546636A002B99
:1056900009DD00231A46E16AC958E9500132043392
:1056A000616A8A42F7DBE06A08B103F027FCE56231
:1056B000A66270BD10B504460D4B03F108020260EE
:1056C0002033C361383001F0B3F904F13000FEF744
:1056D0007FFE084B2362E06A08B103F00FFC064B23
:1056E0002362064BE361204600F002FB204610BD1A
:1056F00060DA000018DA0000C8D9000050D20000BB
:10570000A0F11C00FFF7D6BF10B504460F4B03F104
:10571000080202602033C361383001F089F904F1D6
:105720003000FEF755FE0A4B2362E06A08B103F031
:10573000E5FB084B2362084BE361204600F0D8FAF2
:10574000204603F0D7FB204610BD00BF60DA000002
:1057500018DA0000C8D9000050D20000A0F11C00E7
:10576000D2E700BF2DE9F04182B001250027104C9F
:105770002E464FF0320820462946FCF775FF30468A
:1057800002F0C2FA2169627BCDF8008020463346E0
:10579000FDF742FA00B901370135EDB27F2DEAD1AC
:1057A000002FD4BF0020012002B0BDE8F08100BF6F
:1057B0006C98FF1F70B582B003460E4615460B4C21
:1057C00020461946FCF750FF20463146FCF7BEFB49
:1057D00020462946FCF7BAFB2169627B002300932F
:1057E00020460123FDF718FA02B070BD6C98FF1F28
:1057F00070B582B006460D460F4C20463146FCF788
:1058000033FF20462946FCF7A1FB2169627B002576
:10581000009520462B46FDF7FFF92069617B0123A7
:10582000009301953246FDF70BFA2069FDF726FA41
:10583000C0B202B070BD00BF6C98FF1F2DE9F041EF
:1058400082B007460D4690461E46194C2046394602
:10585000FCF70AFF20462946FCF778FB2169627BAA
:105860000025009520462B46FDF7D6F92069617B7F
:105870000123009301953A464346FDF7E1F920697B
:10588000D0F83821D0F834319A420DD02C46084F48
:10589000E5B2FDF7F3F970553869D0F83811D0F852
:1058A000342101349142F3D102B0BDE8F08100BF50
:1058B0006C98FF1F704700BF704700BF4B78887817
:1058C000000400EB03200B781844CB7800EB036056
:1058D000704700BF10B582B00C462820D1B2062216
:1058E0006B46FFF7ABFF9DF801209DF8003043EABF
:1058F000022323809DF803209DF8023043EA02230F
:1059000063809DF805209DF8043043EA0223A380BC
:1059100002B010BD30B585B005460C4628200021E8
:1059200010226B46FFF78AFF28466946FFF7C6FF3D
:105930002060284601A9FFF7C1FF6060284602A940
:10594000FFF7BCFFA060284603A9FFF7B7FFE060A0
:1059500005B030BD00B583B02820C9B2022201AB2A
:10596000FFF76CFF9DF805009DF8043043EA002026
:1059700000B203B05DF804FB70B50D461E46069CF0
:10598000FFF7A8FFB5F9000006F096F8214606F0EB
:10599000E7F83060B5F9020006F08EF8214606F00F
:1059A000DFF8049B1860B5F9040006F085F821467D
:1059B00006F0D6F8059B186070BD00BF38B52820EA
:1059C0005021FFF715FF0446002856D02B4D2B68B9
:1059D0005B6828462A4918229847284621460A2209
:1059E000002303F09FFA284603F08CFA112C06D10D
:1059F00028462B685B6823491522984711E0122C32
:105A000006D11E4803685B681F491622984711E0BB
:105A1000142C06D1194803685B681C490D2298476D
:105A200011E0212C06D1154803685B68184924222F
:105A3000984711E0222C06D1104803685B6815498D
:105A40002522984711E0242C06D10C4803685B6896
:105A500011491C22984738BD302C06D107480368ED
:105A60005B680E490B22984738BD802C05D103484E
:105A700003685B680A491422984738BD789BFF1F6A
:105A8000C8DB0000E4DB0000FCDB000014DC0000ED
:105A900024DC00004CDC000074DC000094DC00001E
:105AA000A0DC000038B54568002D14DDC26813681D
:105AB0008B4218BF00230BD104E052F8044F8C42F4
:105AC00006D100E00023026892691946904738BD6C
:105AD0000133AB42F1D138BDC06870474268C0683D
